{
	"data": {
		"bytecode": {
			"linkReferences": {
				"remix_accounts.sol": {
					"TestsAccounts": [
						{
							"length": 20,
							"start": 2496
						},
						{
							"length": 20,
							"start": 2702
						}
					]
				},
				"remix_tests.sol": {
					"Assert": [
						{
							"length": 20,
							"start": 368
						},
						{
							"length": 20,
							"start": 687
						},
						{
							"length": 20,
							"start": 1009
						},
						{
							"length": 20,
							"start": 1337
						},
						{
							"length": 20,
							"start": 1699
						},
						{
							"length": 20,
							"start": 2025
						},
						{
							"length": 20,
							"start": 3087
						},
						{
							"length": 20,
							"start": 3406
						},
						{
							"length": 20,
							"start": 3728
						},
						{
							"length": 20,
							"start": 4056
						},
						{
							"length": 20,
							"start": 4418
						},
						{
							"length": 20,
							"start": 4744
						}
					]
				}
			},
			"object": "608060405234801561001057600080fd5b506173da806100206000396000f3fe60806040523480156200001157600080fd5b5060043610620000525760003560e01c80630392dcf71462000057578063775c300c14620000635780637fea0d4b1462000085578063fcb52e631462000091575b600080fd5b620000616200009d565b005b6200006d6200092a565b6040516200007c9190620019e3565b60405180910390f35b6200008f6200099e565b005b6200009b62000b3c565b005b60008054906101000a900473ffffffffffffffffffffffffffffffffffffffff1673ffffffffffffffffffffffffffffffffffffffff1663d088db40600260009054906101000a900473ffffffffffffffffffffffffffffffffffffffff166040518263ffffffff1660e01b81526004016200011a9190620019b1565b600060405180830381600087803b1580156200013557600080fd5b505af11580156200014a573d6000803e3d6000fd5b5050505073__$acbfb1c35000d78352310b16a054a6b106$__63abcd796060008054906101000a900473ffffffffffffffffffffffffffffffffffffffff1673ffffffffffffffffffffffffffffffffffffffff166304397a9e306040518263ffffffff1660e01b8152600401620001c391906200186f565b60206040518083038186803b158015620001dc57600080fd5b505afa158015620001f1573d6000803e3d6000fd5b505050506040513d601f19601f82011682018060405250810190620002179190620015dd565b60026040518363ffffffff1660e01b81526004016200023892919062001b52565b60206040518083038186803b1580156200025157600080fd5b505af415801562000266573d6000803e3d6000fd5b505050506040513d601f19601f820116820180604052508101906200028c91906200155a565b5073__$acbfb1c35000d78352310b16a054a6b106$__63abcd796060008054906101000a900473ffffffffffffffffffffffffffffffffffffffff1673ffffffffffffffffffffffffffffffffffffffff1663ad75c91d3060016040518363ffffffff1660e01b81526004016200030592919062001952565b60206040518083038186803b1580156200031e57600080fd5b505afa15801562000333573d6000803e3d6000fd5b505050506040513d601f19601f82011682018060405250810190620003599190620015dd565b60016040518363ffffffff1660e01b81526004016200037a92919062001b10565b60206040518083038186803b1580156200039357600080fd5b505af4158015620003a8573d6000803e3d6000fd5b505050506040513d601f19601f82011682018060405250810190620003ce91906200155a565b5073__$acbfb1c35000d78352310b16a054a6b106$__63bfba5dd660008054906101000a900473ffffffffffffffffffffffffffffffffffffffff1673ffffffffffffffffffffffffffffffffffffffff16631790260160026040518263ffffffff1660e01b815260040162000445919062001a57565b60006040518083038186803b1580156200045e57600080fd5b505afa15801562000473573d6000803e3d6000fd5b505050506040513d6000823e3d601f19601f820116820180604052508101906200049e91906200158c565b60000151306040518363ffffffff1660e01b8152600401620004c2929190620018ce565b60206040518083038186803b158015620004db57600080fd5b505af4158015620004f0573d6000803e3d6000fd5b505050506040513d601f19601f820116820180604052508101906200051691906200155a565b5073__$acbfb1c35000d78352310b16a054a6b106$__63bfba5dd660008054906101000a900473ffffffffffffffffffffffffffffffffffffffff1673ffffffffffffffffffffffffffffffffffffffff16631790260160026040518263ffffffff1660e01b81526004016200058d919062001a57565b60006040518083038186803b158015620005a657600080fd5b505afa158015620005bb573d6000803e3d6000fd5b505050506040513d6000823e3d601f19601f82011682018060405250810190620005e691906200158c565b60200151600260009054906101000a900473ffffffffffffffffffffffffffffffffffffffff166040518363ffffffff1660e01b81526004016200062c9291906200188c565b60206040518083038186803b1580156200064557600080fd5b505af41580156200065a573d6000803e3d6000fd5b505050506040513d601f19601f820116820180604052508101906200068091906200155a565b5073__$acbfb1c35000d78352310b16a054a6b106$__63e8c2cb1660008054906101000a900473ffffffffffffffffffffffffffffffffffffffff1673ffffffffffffffffffffffffffffffffffffffff16631790260160026040518263ffffffff1660e01b8152600401620006f7919062001a57565b60006040518083038186803b1580156200071057600080fd5b505afa15801562000725573d6000803e3d6000fd5b505050506040513d6000823e3d601f19601f820116820180604052508101906200075091906200158c565b604001516040518263ffffffff1660e01b815260040162000772919062001ac2565b60206040518083038186803b1580156200078b57600080fd5b505af4158015620007a0573d6000803e3d6000fd5b505050506040513d601f19601f82011682018060405250810190620007c691906200155a565b5073__$acbfb1c35000d78352310b16a054a6b106$__63bfba5dd660008054906101000a900473ffffffffffffffffffffffffffffffffffffffff1673ffffffffffffffffffffffffffffffffffffffff16636352211e60026040518263ffffffff1660e01b81526004016200083d919062001a57565b60206040518083038186803b1580156200085657600080fd5b505afa1580156200086b573d6000803e3d6000fd5b505050506040513d601f19601f8201168201806040525081019062000891919062001528565b600260009054906101000a900473ffffffffffffffffffffffffffffffffffffffff166040518363ffffffff1660e01b8152600401620008d392919062001910565b60206040518083038186803b158015620008ec57600080fd5b505af415801562000901573d6000803e3d6000fd5b505050506040513d601f19601f820116820180604052508101906200092791906200155a565b50565b60006040516200093a90620013c9565b604051809103906000f08015801562000957573d6000803e3d6000fd5b506000806101000a81548173ffffffffffffffffffffffffffffffffffffffff021916908373ffffffffffffffffffffffffffffffffffffffff1602179055506001905090565b73__$1068a87eb54ed04c4e435de35b2ebf536f$__63ce88b14560006040518263ffffffff1660e01b8152600401620009d8919062001a00565b60206040518083038186803b158015620009f157600080fd5b505af415801562000a06573d6000803e3d6000fd5b505050506040513d601f19601f8201168201806040525081019062000a2c919062001528565b600160006101000a81548173ffffffffffffffffffffffffffffffffffffffff021916908373ffffffffffffffffffffffffffffffffffffffff16021790555073__$1068a87eb54ed04c4e435de35b2ebf536f$__63ce88b14560016040518263ffffffff1660e01b815260040162000aa6919062001a1d565b60206040518083038186803b15801562000abf57600080fd5b505af415801562000ad4573d6000803e3d6000fd5b505050506040513d601f19601f8201168201806040525081019062000afa919062001528565b600260006101000a81548173ffffffffffffffffffffffffffffffffffffffff021916908373ffffffffffffffffffffffffffffffffffffffff160217905550565b60008054906101000a900473ffffffffffffffffffffffffffffffffffffffff1673ffffffffffffffffffffffffffffffffffffffff1663d088db40600160009054906101000a900473ffffffffffffffffffffffffffffffffffffffff166040518263ffffffff1660e01b815260040162000bb991906200197f565b600060405180830381600087803b15801562000bd457600080fd5b505af115801562000be9573d6000803e3d6000fd5b5050505073__$acbfb1c35000d78352310b16a054a6b106$__63abcd796060008054906101000a900473ffffffffffffffffffffffffffffffffffffffff1673ffffffffffffffffffffffffffffffffffffffff166304397a9e306040518263ffffffff1660e01b815260040162000c6291906200186f565b60206040518083038186803b15801562000c7b57600080fd5b505afa15801562000c90573d6000803e3d6000fd5b505050506040513d601f19601f8201168201806040525081019062000cb69190620015dd565b60016040518363ffffffff1660e01b815260040162000cd792919062001b10565b60206040518083038186803b15801562000cf057600080fd5b505af415801562000d05573d6000803e3d6000fd5b505050506040513d601f19601f8201168201806040525081019062000d2b91906200155a565b5073__$acbfb1c35000d78352310b16a054a6b106$__63abcd796060008054906101000a900473ffffffffffffffffffffffffffffffffffffffff1673ffffffffffffffffffffffffffffffffffffffff1663ad75c91d3060016040518363ffffffff1660e01b815260040162000da492919062001952565b60206040518083038186803b15801562000dbd57600080fd5b505afa15801562000dd2573d6000803e3d6000fd5b505050506040513d601f19601f8201168201806040525081019062000df89190620015dd565b60016040518363ffffffff1660e01b815260040162000e1992919062001b10565b60206040518083038186803b15801562000e3257600080fd5b505af415801562000e47573d6000803e3d6000fd5b505050506040513d601f19601f8201168201806040525081019062000e6d91906200155a565b5073__$acbfb1c35000d78352310b16a054a6b106$__63bfba5dd660008054906101000a900473ffffffffffffffffffffffffffffffffffffffff1673ffffffffffffffffffffffffffffffffffffffff16631790260160016040518263ffffffff1660e01b815260040162000ee4919062001a3a565b60006040518083038186803b15801562000efd57600080fd5b505afa15801562000f12573d6000803e3d6000fd5b505050506040513d6000823e3d601f19601f8201168201806040525081019062000f3d91906200158c565b60000151306040518363ffffffff1660e01b815260040162000f61929190620018ce565b60206040518083038186803b15801562000f7a57600080fd5b505af415801562000f8f573d6000803e3d6000fd5b505050506040513d601f19601f8201168201806040525081019062000fb591906200155a565b5073__$acbfb1c35000d78352310b16a054a6b106$__63bfba5dd660008054906101000a900473ffffffffffffffffffffffffffffffffffffffff1673ffffffffffffffffffffffffffffffffffffffff16631790260160016040518263ffffffff1660e01b81526004016200102c919062001a3a565b60006040518083038186803b1580156200104557600080fd5b505afa1580156200105a573d6000803e3d6000fd5b505050506040513d6000823e3d601f19601f820116820180604052508101906200108591906200158c565b60200151600160009054906101000a900473ffffffffffffffffffffffffffffffffffffffff166040518363ffffffff1660e01b8152600401620010cb9291906200188c565b60206040518083038186803b158015620010e457600080fd5b505af4158015620010f9573d6000803e3d6000fd5b505050506040513d601f19601f820116820180604052508101906200111f91906200155a565b5073__$acbfb1c35000d78352310b16a054a6b106$__63e8c2cb1660008054906101000a900473ffffffffffffffffffffffffffffffffffffffff1673ffffffffffffffffffffffffffffffffffffffff16631790260160016040518263ffffffff1660e01b815260040162001196919062001a3a565b60006040518083038186803b158015620011af57600080fd5b505afa158015620011c4573d6000803e3d6000fd5b505050506040513d6000823e3d601f19601f82011682018060405250810190620011ef91906200158c565b604001516040518263ffffffff1660e01b815260040162001211919062001a74565b60206040518083038186803b1580156200122a57600080fd5b505af41580156200123f573d6000803e3d6000fd5b505050506040513d601f19601f820116820180604052508101906200126591906200155a565b5073__$acbfb1c35000d78352310b16a054a6b106$__63bfba5dd660008054906101000a900473ffffffffffffffffffffffffffffffffffffffff1673ffffffffffffffffffffffffffffffffffffffff16636352211e60016040518263ffffffff1660e01b8152600401620012dc919062001a3a565b60206040518083038186803b158015620012f557600080fd5b505afa1580156200130a573d6000803e3d6000fd5b505050506040513d601f19601f8201168201806040525081019062001330919062001528565b600160009054906101000a900473ffffffffffffffffffffffffffffffffffffffff166040518363ffffffff1660e01b81526004016200137292919062001910565b60206040518083038186803b1580156200138b57600080fd5b505af4158015620013a0573d6000803e3d6000fd5b505050506040513d601f19601f82011682018060405250810190620013c691906200155a565b50565b61549e8062001f0783390190565b6000620013ee620013e88462001bbd565b62001b94565b9050828152602081018484840111156200140d576200140c62001d50565b5b6200141a84828562001ca6565b509392505050565b600081519050620014338162001eb8565b92915050565b6000815190506200144a8162001ed2565b92915050565b600082601f83011262001468576200146762001d41565b5b81516200147a848260208601620013d7565b91505092915050565b6000606082840312156200149c576200149b62001d46565b5b620014a8606062001b94565b90506000620014ba8482850162001422565b6000830152506020620014d08482850162001422565b602083015250604082015167ffffffffffffffff811115620014f757620014f662001d4b565b5b620015058482850162001450565b60408301525092915050565b600081519050620015228162001eec565b92915050565b60006020828403121562001541576200154062001d5a565b5b6000620015518482850162001422565b91505092915050565b60006020828403121562001573576200157262001d5a565b5b6000620015838482850162001439565b91505092915050565b600060208284031215620015a557620015a462001d5a565b5b600082015167ffffffffffffffff811115620015c657620015c562001d55565b5b620015d48482850162001483565b91505092915050565b600060208284031215620015f657620015f562001d5a565b5b6000620016068482850162001511565b91505092915050565b6200161a8162001c20565b82525050565b6200162b8162001c20565b82525050565b6200163c8162001c34565b82525050565b6200164d8162001c6a565b82525050565b6200165e8162001c7e565b82525050565b6200166f8162001c7e565b82525050565b620016808162001c92565b82525050565b620016918162001c92565b82525050565b6000620016a48262001bf3565b620016b0818562001c0f565b9350620016c281856020860162001ca6565b620016cd8162001d5f565b840191505092915050565b6000620016e7600a8362001c0f565b9150620016f48262001d70565b602082019050919050565b60006200170e60058362001bfe565b91506200171b8262001d99565b602082019050919050565b60006200173560058362001c0f565b9150620017428262001d99565b602082019050919050565b60006200175c600a8362001c0f565b9150620017698262001dc2565b602082019050919050565b60006200178360108362001c0f565b9150620017908262001deb565b602082019050919050565b6000620017aa60138362001c0f565b9150620017b78262001e14565b602082019050919050565b6000620017d160158362001c0f565b9150620017de8262001e3d565b602082019050919050565b6000620017f860198362001c0f565b9150620018058262001e66565b602082019050919050565b60006200181f60098362001bfe565b91506200182c8262001e8f565b602082019050919050565b60006200184660098362001c0f565b9150620018538262001e8f565b602082019050919050565b620018698162001c60565b82525050565b60006020820190506200188660008301846200160f565b92915050565b6000606082019050620018a3600083018562001620565b620018b2602083018462001620565b8181036040830152620018c5816200179b565b90509392505050565b6000606082019050620018e5600083018562001620565b620018f4602083018462001620565b81810360408301526200190781620017c2565b90509392505050565b600060608201905062001927600083018562001620565b62001936602083018462001620565b81810360408301526200194981620017e9565b90509392505050565b60006040820190506200196960008301856200160f565b62001978602083018462001653565b9392505050565b60006040820190506200199660008301846200160f565b8181036020830152620019a981620016ff565b905092915050565b6000604082019050620019c860008301846200160f565b8181036020830152620019db8162001810565b905092915050565b6000602082019050620019fa600083018462001631565b92915050565b600060208201905062001a17600083018462001642565b92915050565b600060208201905062001a34600083018462001664565b92915050565b600060208201905062001a51600083018462001653565b92915050565b600060208201905062001a6e600083018462001675565b92915050565b6000606082019050818103600083015262001a90818462001697565b9050818103602083015262001aa58162001726565b9050818103604083015262001aba8162001774565b905092915050565b6000606082019050818103600083015262001ade818462001697565b9050818103602083015262001af38162001837565b9050818103604083015262001b088162001774565b905092915050565b600060608201905062001b2760008301856200185e565b62001b36602083018462001664565b818103604083015262001b49816200174d565b90509392505050565b600060608201905062001b6960008301856200185e565b62001b78602083018462001686565b818103604083015262001b8b81620016d8565b90509392505050565b600062001ba062001bb3565b905062001bae828262001cdc565b919050565b6000604051905090565b600067ffffffffffffffff82111562001bdb5762001bda62001d12565b5b62001be68262001d5f565b9050602081019050919050565b600081519050919050565b600082825260208201905092915050565b600082825260208201905092915050565b600062001c2d8262001c40565b9050919050565b60008115159050919050565b600073ffffffffffffffffffffffffffffffffffffffff82169050919050565b6000819050919050565b600062001c778262001c60565b9050919050565b600062001c8b8262001c60565b9050919050565b600062001c9f8262001c60565b9050919050565b60005b8381101562001cc657808201518184015260208101905062001ca9565b8381111562001cd6576000848401525b50505050565b62001ce78262001d5f565b810181811067ffffffffffffffff8211171562001d095762001d0862001d12565b5b80604052505050565b7f4e487b7100000000000000000000000000000000000000000000000000000000600052604160045260246000fd5b600080fd5b600080fd5b600080fd5b600080fd5b600080fd5b600080fd5b6000601f19601f8301169050919050565b7f4578706563746564203200000000000000000000000000000000000000000000600082015250565b7f68656c6c6f000000000000000000000000000000000000000000000000000000600082015250565b7f4578706563746564203100000000000000000000000000000000000000000000600082015250565b7f436f6e74656e74206d69736d6174636800000000000000000000000000000000600082015250565b7f546f2041646472657373206d69736d6174636800000000000000000000000000600082015250565b7f46726f6d2041646472657373206d69736d617463680000000000000000000000600082015250565b7f4f776e6572206973206e6f742074686520657870656374656400000000000000600082015250565b7f68656c6c6f313233340000000000000000000000000000000000000000000000600082015250565b62001ec38162001c20565b811462001ecf57600080fd5b50565b62001edd8162001c34565b811462001ee957600080fd5b50565b62001ef78162001c60565b811462001f0357600080fd5b5056fe608060405260306006553480156200001657600080fd5b506040518060400160405280600e81526020017f506f6c794d7367536572766963650000000000000000000000000000000000008152506040518060400160405280600381526020017f504d53000000000000000000000000000000000000000000000000000000000081525081600090805190602001906200009b929190620000bd565b508060019080519060200190620000b4929190620000bd565b505050620001d2565b828054620000cb906200016d565b90600052602060002090601f016020900481019282620000ef57600085556200013b565b82601f106200010a57805160ff19168380011785556200013b565b828001600101855582156200013b579182015b828111156200013a5782518255916020019190600101906200011d565b5b5090506200014a91906200014e565b5090565b5b80821115620001695760008160009055506001016200014f565b5090565b600060028204905060018216806200018657607f821691505b602082108114156200019d576200019c620001a3565b5b50919050565b7f4e487b7100000000000000000000000000000000000000000000000000000000600052602260045260246000fd5b6152bc80620001e26000396000f3fe608060405234801561001057600080fd5b50600436106101165760003560e01c806370a08231116100a2578063ad75c91d11610071578063ad75c91d14610305578063b88d4fde14610335578063c87b56dd14610351578063d088db4014610381578063e985e9c51461039d57610116565b806370a082311461027d5780638ada066e146102ad57806395d89b41146102cb578063a22cb465146102e957610116565b8063095ea7b3116100e9578063095ea7b3146101c957806317902601146101e557806323b872dd1461021557806342842e0e146102315780636352211e1461024d57610116565b806301ffc9a71461011b57806304397a9e1461014b57806306fdde031461017b578063081812fc14610199575b600080fd5b61013560048036038101906101309190612d05565b6103cd565b6040516101429190613875565b60405180910390f35b61016560048036038101906101609190612ae6565b6104af565b6040516101729190613a94565b60405180910390f35b6101836104f8565b6040516101909190613890565b60405180910390f35b6101b360048036038101906101ae9190612d5f565b61058a565b6040516101c0919061380e565b60405180910390f35b6101e360048036038101906101de9190612cc5565b6105d0565b005b6101ff60048036038101906101fa9190612d5f565b6106e8565b60405161020c9190613a72565b60405180910390f35b61022f600480360381019061022a9190612b53565b610853565b005b61024b60048036038101906102469190612b53565b6108b3565b005b61026760048036038101906102629190612d5f565b6108d3565b604051610274919061380e565b60405180910390f35b61029760048036038101906102929190612ae6565b61095a565b6040516102a49190613a94565b60405180910390f35b6102b5610a12565b6040516102c29190613a94565b60405180910390f35b6102d3610a1c565b6040516102e09190613890565b60405180910390f35b61030360048036038101906102fe9190612c29565b610aae565b005b61031f600480360381019061031a9190612cc5565b610ac4565b60405161032c9190613a94565b60405180910390f35b61034f600480360381019061034a9190612ba6565b610b1f565b005b61036b60048036038101906103669190612d5f565b610b81565b6040516103789190613890565b60405180910390f35b61039b60048036038101906103969190612c69565b610c16565b005b6103b760048036038101906103b29190612b13565b610ca9565b6040516103c49190613875565b60405180910390f35b60007f80ac58cd000000000000000000000000000000000000000000000000000000007bffffffffffffffffffffffffffffffffffffffffffffffffffffffff1916827bffffffffffffffffffffffffffffffffffffffffffffffffffffffff1916148061049857507f5b5e139f000000000000000000000000000000000000000000000000000000007bffffffffffffffffffffffffffffffffffffffffffffffffffffffff1916827bffffffffffffffffffffffffffffffffffffffffffffffffffffffff1916145b806104a857506104a782610d3d565b5b9050919050565b6000600960008373ffffffffffffffffffffffffffffffffffffffff1673ffffffffffffffffffffffffffffffffffffffff168152602001908152602001600020549050919050565b60606000805461050790613d7f565b80601f016020809104026020016040519081016040528092919081815260200182805461053390613d7f565b80156105805780601f1061055557610100808354040283529160200191610580565b820191906000526020600020905b81548152906001019060200180831161056357829003601f168201915b5050505050905090565b600061059582610da7565b6004600083815260200190815260200160002060009054906101000a900473ffffffffffffffffffffffffffffffffffffffff169050919050565b60006105db826108d3565b90508073ffffffffffffffffffffffffffffffffffffffff168373ffffffffffffffffffffffffffffffffffffffff16141561064c576040517f08c379a000000000000000000000000000000000000000000000000000000000815260040161064390613a32565b60405180910390fd5b8073ffffffffffffffffffffffffffffffffffffffff1661066b610df2565b73ffffffffffffffffffffffffffffffffffffffff16148061069a575061069981610694610df2565b610ca9565b5b6106d9576040517f08c379a00000000000000000000000000000000000000000000000000000000081526004016106d090613a52565b60405180910390fd5b6106e38383610dfa565b505050565b6106f06128ad565b600a60008381526020019081526020016000206040518060600160405290816000820160009054906101000a900473ffffffffffffffffffffffffffffffffffffffff1673ffffffffffffffffffffffffffffffffffffffff1673ffffffffffffffffffffffffffffffffffffffff1681526020016001820160009054906101000a900473ffffffffffffffffffffffffffffffffffffffff1673ffffffffffffffffffffffffffffffffffffffff1673ffffffffffffffffffffffffffffffffffffffff1681526020016002820180546107ca90613d7f565b80601f01602080910402602001604051908101604052809291908181526020018280546107f690613d7f565b80156108435780601f1061081857610100808354040283529160200191610843565b820191906000526020600020905b81548152906001019060200180831161082657829003601f168201915b5050505050815250509050919050565b61086461085e610df2565b82610eb3565b6108a3576040517f08c379a000000000000000000000000000000000000000000000000000000000815260040161089a906138d2565b60405180910390fd5b6108ae838383610f48565b505050565b6108ce83838360405180602001604052806000815250610b1f565b505050565b6000806108df83611242565b9050600073ffffffffffffffffffffffffffffffffffffffff168173ffffffffffffffffffffffffffffffffffffffff161415610951576040517f08c379a000000000000000000000000000000000000000000000000000000000815260040161094890613a12565b60405180910390fd5b80915050919050565b60008073ffffffffffffffffffffffffffffffffffffffff168273ffffffffffffffffffffffffffffffffffffffff1614156109cb576040517f08c379a00000000000000000000000000000000000000000000000000000000081526004016109c2906139d2565b60405180910390fd5b600360008373ffffffffffffffffffffffffffffffffffffffff1673ffffffffffffffffffffffffffffffffffffffff168152602001908152602001600020549050919050565b6000600754905090565b606060018054610a2b90613d7f565b80601f0160208091040260200160405190810160405280929190818152602001828054610a5790613d7f565b8015610aa45780601f10610a7957610100808354040283529160200191610aa4565b820191906000526020600020905b815481529060010190602001808311610a8757829003601f168201915b5050505050905090565b610ac0610ab9610df2565b838361127f565b5050565b6000600860008473ffffffffffffffffffffffffffffffffffffffff1673ffffffffffffffffffffffffffffffffffffffff168152602001908152602001600020600083815260200190815260200160002054905092915050565b610b30610b2a610df2565b83610eb3565b610b6f576040517f08c379a0000000000000000000000000000000000000000000000000000000008152600401610b66906138d2565b60405180910390fd5b610b7b848484846113ec565b50505050565b60606000610b8e83611448565b604051602001610b9e91906134d9565b60405160208183030381529060405290506000610bba846119c4565b610bc383611a9c565b604051602001610bd4929190613786565b6040516020818303038152906040529050610bee81611a9c565b604051602001610bfe91906137ec565b60405160208183030381529060405292505050919050565b6102a0815110610c5b576040517f08c379a0000000000000000000000000000000000000000000000000000000008152600401610c52906138f2565b60405180910390fd5b610c66338383611c00565b610ca5576040517f08c379a0000000000000000000000000000000000000000000000000000000008152600401610c9c90613932565b60405180910390fd5b5050565b6000600560008473ffffffffffffffffffffffffffffffffffffffff1673ffffffffffffffffffffffffffffffffffffffff16815260200190815260200160002060008373ffffffffffffffffffffffffffffffffffffffff1673ffffffffffffffffffffffffffffffffffffffff16815260200190815260200160002060009054906101000a900460ff16905092915050565b60007f01ffc9a7000000000000000000000000000000000000000000000000000000007bffffffffffffffffffffffffffffffffffffffffffffffffffffffff1916827bffffffffffffffffffffffffffffffffffffffffffffffffffffffff1916149050919050565b610db081611e37565b610def576040517f08c379a0000000000000000000000000000000000000000000000000000000008152600401610de690613a12565b60405180910390fd5b50565b600033905090565b816004600083815260200190815260200160002060006101000a81548173ffffffffffffffffffffffffffffffffffffffff021916908373ffffffffffffffffffffffffffffffffffffffff160217905550808273ffffffffffffffffffffffffffffffffffffffff16610e6d836108d3565b73ffffffffffffffffffffffffffffffffffffffff167f8c5be1e5ebec7d5bd14f71427d1e84f3dd0314c0f7b2291e5b200ac8c7c3b92560405160405180910390a45050565b600080610ebf836108d3565b90508073ffffffffffffffffffffffffffffffffffffffff168473ffffffffffffffffffffffffffffffffffffffff161480610f015750610f008185610ca9565b5b80610f3f57508373ffffffffffffffffffffffffffffffffffffffff16610f278461058a565b73ffffffffffffffffffffffffffffffffffffffff16145b91505092915050565b8273ffffffffffffffffffffffffffffffffffffffff16610f68826108d3565b73ffffffffffffffffffffffffffffffffffffffff1614610fbe576040517f08c379a0000000000000000000000000000000000000000000000000000000008152600401610fb590613952565b60405180910390fd5b600073ffffffffffffffffffffffffffffffffffffffff168273ffffffffffffffffffffffffffffffffffffffff16141561102e576040517f08c379a000000000000000000000000000000000000000000000000000000000815260040161102590613992565b60405180910390fd5b61103b8383836001611e78565b8273ffffffffffffffffffffffffffffffffffffffff1661105b826108d3565b73ffffffffffffffffffffffffffffffffffffffff16146110b1576040517f08c379a00000000000000000000000000000000000000000000000000000000081526004016110a890613952565b60405180910390fd5b6004600082815260200190815260200160002060006101000a81549073ffffffffffffffffffffffffffffffffffffffff02191690556001600360008573ffffffffffffffffffffffffffffffffffffffff1673ffffffffffffffffffffffffffffffffffffffff168152602001908152602001600020600082825403925050819055506001600360008473ffffffffffffffffffffffffffffffffffffffff1673ffffffffffffffffffffffffffffffffffffffff16815260200190815260200160002060008282540192505081905550816002600083815260200190815260200160002060006101000a81548173ffffffffffffffffffffffffffffffffffffffff021916908373ffffffffffffffffffffffffffffffffffffffff160217905550808273ffffffffffffffffffffffffffffffffffffffff168473ffffffffffffffffffffffffffffffffffffffff167fddf252ad1be2c89b69c2b068fc378daa952ba7f163c4a11628f55a4df523b3ef60405160405180910390a461123d8383836001611f9e565b505050565b60006002600083815260200190815260200160002060009054906101000a900473ffffffffffffffffffffffffffffffffffffffff169050919050565b8173ffffffffffffffffffffffffffffffffffffffff168373ffffffffffffffffffffffffffffffffffffffff1614156112ee576040517f08c379a00000000000000000000000000000000000000000000000000000000081526004016112e5906139b2565b60405180910390fd5b80600560008573ffffffffffffffffffffffffffffffffffffffff1673ffffffffffffffffffffffffffffffffffffffff16815260200190815260200160002060008473ffffffffffffffffffffffffffffffffffffffff1673ffffffffffffffffffffffffffffffffffffffff16815260200190815260200160002060006101000a81548160ff0219169083151502179055508173ffffffffffffffffffffffffffffffffffffffff168373ffffffffffffffffffffffffffffffffffffffff167f17307eab39ab6107e8899845ad3d59bd9653f200f220920489ca2b5937696c31836040516113df9190613875565b60405180910390a3505050565b6113f7848484610f48565b61140384848484611fa4565b611442576040517f08c379a000000000000000000000000000000000000000000000000000000000815260040161143990613912565b60405180910390fd5b50505050565b60606000600a6000848152602001908152602001600020600201805461146d90613d7f565b80601f016020809104026020016040519081016040528092919081815260200182805461149990613d7f565b80156114e65780601f106114bb576101008083540402835291602001916114e6565b820191906000526020600020905b8154815290600101906020018083116114c957829003601f168201915b505050505090506000600e67ffffffffffffffff81111561150a57611509613ee7565b5b60405190808252806020026020018201604052801561153d57816020015b60608152602001906001900390816115285790505b509050600060065483516115519190613be0565b905060005b6001826115639190613b8a565b81101561165257611621600a6000888152602001908152602001600020600201805461158e90613d7f565b80601f01602080910402602001604051908101604052809291908181526020018280546115ba90613d7f565b80156116075780601f106115dc57610100808354040283529160200191611607565b820191906000526020600020905b8154815290600101906020018083116115ea57829003601f168201915b50505050506006548361161a9190613c11565b865161213b565b83828151811061163457611633613eb8565b5b6020026020010181905250808061164a90613de2565b915050611556565b5060005b825181101561170557600083828151811061167457611673613eb8565b5b6020026020010151511180156116a6575060065483828151811061169b5761169a613eb8565b5b602002602001015151115b156116f2576116d38382815181106116c1576116c0613eb8565b5b6020026020010151600060065461213b565b8382815181106116e6576116e5613eb8565b5b60200260200101819052505b80806116fd90613de2565b915050611656565b50600061175d600a600088815260200190815260200160002060000160009054906101000a900473ffffffffffffffffffffffffffffffffffffffff1673ffffffffffffffffffffffffffffffffffffffff16612237565b6117b2600a600089815260200190815260200160002060010160009054906101000a900473ffffffffffffffffffffffffffffffffffffffff1673ffffffffffffffffffffffffffffffffffffffff16612237565b6117bb426119c4565b856000815181106117cf576117ce613eb8565b5b6020026020010151866001815181106117eb576117ea613eb8565b5b60200260200101518760028151811061180757611806613eb8565b5b60200260200101518860038151811061182357611822613eb8565b5b60200260200101518960048151811061183f5761183e613eb8565b5b60200260200101518a60058151811061185b5761185a613eb8565b5b60200260200101518b60068151811061187757611876613eb8565b5b60200260200101518c60078151811061189357611892613eb8565b5b60200260200101516040516020016118b59b9a999897969594939291906135fb565b60405160208183030381529060405290506000836008815181106118dc576118db613eb8565b5b6020026020010151846009815181106118f8576118f7613eb8565b5b602002602001015185600a8151811061191457611913613eb8565b5b602002602001015186600b815181106119305761192f613eb8565b5b602002602001015187600c8151811061194c5761194b613eb8565b5b602002602001015188600d8151811061196857611967613eb8565b5b602002602001015160405160200161198596959493929190613514565b604051602081830303815290604052905081816040516020016119a99291906134f0565b60405160208183030381529060405295505050505050919050565b6060600060016119d384612264565b01905060008167ffffffffffffffff8111156119f2576119f1613ee7565b5b6040519080825280601f01601f191660200182016040528015611a245781602001600182028036833780820191505090505b509050600082602001820190505b600115611a91578080600190039150507f3031323334353637383961626364656600000000000000000000000000000000600a86061a8153600a8581611a7b57611a7a613e5a565b5b0494506000851415611a8c57611a91565b611a32565b819350505050919050565b6060600082511415611abf57604051806020016040528060008152509050611bfb565b60006040518060600160405280604081526020016152476040913990506000600360028551611aee9190613b8a565b611af89190613be0565b6004611b049190613c11565b67ffffffffffffffff811115611b1d57611b1c613ee7565b5b6040519080825280601f01601f191660200182016040528015611b4f5781602001600182028036833780820191505090505b509050600182016020820185865187015b80821015611bbb576003820191508151603f8160121c168501518453600184019350603f81600c1c168501518453600184019350603f8160061c168501518453600184019350603f8116850151845360018401935050611b60565b5050600386510660018114611bd75760028114611bea57611bf2565b603d6001830353603d6002830353611bf2565b603d60018303535b50505080925050505b919050565b60006001600960008673ffffffffffffffffffffffffffffffffffffffff1673ffffffffffffffffffffffffffffffffffffffff1681526020019081526020016000206000828254019250508190555060016007600082825401925050819055506000600a600060075481526020019081526020016000209050848160000160006101000a81548173ffffffffffffffffffffffffffffffffffffffff021916908373ffffffffffffffffffffffffffffffffffffffff160217905550838160010160006101000a81548173ffffffffffffffffffffffffffffffffffffffff021916908373ffffffffffffffffffffffffffffffffffffffff16021790555082816002019080519060200190611d189291906128fa565b50600754600860008773ffffffffffffffffffffffffffffffffffffffff1673ffffffffffffffffffffffffffffffffffffffff1681526020019081526020016000206000600960008973ffffffffffffffffffffffffffffffffffffffff1673ffffffffffffffffffffffffffffffffffffffff16815260200190815260200160002054815260200190815260200160002081905550611dbb846007546123b7565b82604051611dc991906134d9565b60405180910390208473ffffffffffffffffffffffffffffffffffffffff168673ffffffffffffffffffffffffffffffffffffffff167f3e100f057239db422c0ebf9142f67c98e9ff6ac4aee1068a737cac01b9caa30460405160405180910390a460019150509392505050565b60008073ffffffffffffffffffffffffffffffffffffffff16611e5983611242565b73ffffffffffffffffffffffffffffffffffffffff1614159050919050565b6001811115611f9857600073ffffffffffffffffffffffffffffffffffffffff168473ffffffffffffffffffffffffffffffffffffffff1614611f0c5780600360008673ffffffffffffffffffffffffffffffffffffffff1673ffffffffffffffffffffffffffffffffffffffff1681526020019081526020016000206000828254611f049190613c6b565b925050819055505b600073ffffffffffffffffffffffffffffffffffffffff168373ffffffffffffffffffffffffffffffffffffffff1614611f975780600360008573ffffffffffffffffffffffffffffffffffffffff1673ffffffffffffffffffffffffffffffffffffffff1681526020019081526020016000206000828254611f8f9190613b8a565b925050819055505b5b50505050565b50505050565b6000611fc58473ffffffffffffffffffffffffffffffffffffffff166123d5565b1561212e578373ffffffffffffffffffffffffffffffffffffffff1663150b7a02611fee610df2565b8786866040518563ffffffff1660e01b81526004016120109493929190613829565b602060405180830381600087803b15801561202a57600080fd5b505af192505050801561205b57506040513d601f19601f820116820180604052508101906120589190612d32565b60015b6120de573d806000811461208b576040519150601f19603f3d011682016040523d82523d6000602084013e612090565b606091505b506000815114156120d6576040517f08c379a00000000000000000000000000000000000000000000000000000000081526004016120cd90613912565b60405180910390fd5b805181602001fd5b63150b7a0260e01b7bffffffffffffffffffffffffffffffffffffffffffffffffffffffff1916817bffffffffffffffffffffffffffffffffffffffffffffffffffffffff191614915050612133565b600190505b949350505050565b60606000849050600084846121509190613c6b565b67ffffffffffffffff81111561216957612168613ee7565b5b6040519080825280601f01601f19166020018201604052801561219b5781602001600182028036833780820191505090505b50905060008590505b8481101561222a578281815181106121bf576121be613eb8565b5b602001015160f81c60f81b8287836121d79190613c6b565b815181106121e8576121e7613eb8565b5b60200101907effffffffffffffffffffffffffffffffffffffffffffffffffffffffffffff1916908160001a905350808061222290613de2565b9150506121a4565b5080925050509392505050565b606061225d8273ffffffffffffffffffffffffffffffffffffffff16601460ff166123f8565b9050919050565b600080600090507a184f03e93ff9f4daa797ed6e38ed64bf6a1f01000000000000000083106122c2577a184f03e93ff9f4daa797ed6e38ed64bf6a1f01000000000000000083816122b8576122b7613e5a565b5b0492506040810190505b6d04ee2d6d415b85acef810000000083106122ff576d04ee2d6d415b85acef810000000083816122f5576122f4613e5a565b5b0492506020810190505b662386f26fc10000831061232e57662386f26fc10000838161232457612323613e5a565b5b0492506010810190505b6305f5e1008310612357576305f5e100838161234d5761234c613e5a565b5b0492506008810190505b612710831061237c57612710838161237257612371613e5a565b5b0492506004810190505b6064831061239f576064838161239557612394613e5a565b5b0492506002810190505b600a83106123ae576001810190505b80915050919050565b6123d1828260405180602001604052806000815250612634565b5050565b6000808273ffffffffffffffffffffffffffffffffffffffff163b119050919050565b60606000600283600261240b9190613c11565b6124159190613b8a565b67ffffffffffffffff81111561242e5761242d613ee7565b5b6040519080825280601f01601f1916602001820160405280156124605781602001600182028036833780820191505090505b5090507f30000000000000000000000000000000000000000000000000000000000000008160008151811061249857612497613eb8565b5b60200101907effffffffffffffffffffffffffffffffffffffffffffffffffffffffffffff1916908160001a9053507f7800000000000000000000000000000000000000000000000000000000000000816001815181106124fc576124fb613eb8565b5b60200101907effffffffffffffffffffffffffffffffffffffffffffffffffffffffffffff1916908160001a9053506000600184600261253c9190613c11565b6125469190613b8a565b90505b60018111156125e6577f3031323334353637383961626364656600000000000000000000000000000000600f86166010811061258857612587613eb8565b5b1a60f81b82828151811061259f5761259e613eb8565b5b60200101907effffffffffffffffffffffffffffffffffffffffffffffffffffffffffffff1916908160001a905350600485901c9450806125df90613d55565b9050612549565b506000841461262a576040517f08c379a0000000000000000000000000000000000000000000000000000000008152600401612621906138b2565b60405180910390fd5b8091505092915050565b61263e838361268f565b61264b6000848484611fa4565b61268a576040517f08c379a000000000000000000000000000000000000000000000000000000000815260040161268190613912565b60405180910390fd5b505050565b600073ffffffffffffffffffffffffffffffffffffffff168273ffffffffffffffffffffffffffffffffffffffff1614156126ff576040517f08c379a00000000000000000000000000000000000000000000000000000000081526004016126f6906139f2565b60405180910390fd5b61270881611e37565b15612748576040517f08c379a000000000000000000000000000000000000000000000000000000000815260040161273f90613972565b60405180910390fd5b612756600083836001611e78565b61275f81611e37565b1561279f576040517f08c379a000000000000000000000000000000000000000000000000000000000815260040161279690613972565b60405180910390fd5b6001600360008473ffffffffffffffffffffffffffffffffffffffff1673ffffffffffffffffffffffffffffffffffffffff16815260200190815260200160002060008282540192505081905550816002600083815260200190815260200160002060006101000a81548173ffffffffffffffffffffffffffffffffffffffff021916908373ffffffffffffffffffffffffffffffffffffffff160217905550808273ffffffffffffffffffffffffffffffffffffffff16600073ffffffffffffffffffffffffffffffffffffffff167fddf252ad1be2c89b69c2b068fc378daa952ba7f163c4a11628f55a4df523b3ef60405160405180910390a46128a9600083836001611f9e565b5050565b6040518060600160405280600073ffffffffffffffffffffffffffffffffffffffff168152602001600073ffffffffffffffffffffffffffffffffffffffff168152602001606081525090565b82805461290690613d7f565b90600052602060002090601f016020900481019282612928576000855561296f565b82601f1061294157805160ff191683800117855561296f565b8280016001018555821561296f579182015b8281111561296e578251825591602001919060010190612953565b5b50905061297c9190612980565b5090565b5b80821115612999576000816000905550600101612981565b5090565b60006129b06129ab84613ad4565b613aaf565b9050828152602081018484840111156129cc576129cb613f1b565b5b6129d7848285613d13565b509392505050565b60006129f26129ed84613b05565b613aaf565b905082815260208101848484011115612a0e57612a0d613f1b565b5b612a19848285613d13565b509392505050565b600081359050612a30816151ea565b92915050565b600081359050612a4581615201565b92915050565b600081359050612a5a81615218565b92915050565b600081519050612a6f81615218565b92915050565b600082601f830112612a8a57612a89613f16565b5b8135612a9a84826020860161299d565b91505092915050565b600082601f830112612ab857612ab7613f16565b5b8135612ac88482602086016129df565b91505092915050565b600081359050612ae08161522f565b92915050565b600060208284031215612afc57612afb613f25565b5b6000612b0a84828501612a21565b91505092915050565b60008060408385031215612b2a57612b29613f25565b5b6000612b3885828601612a21565b9250506020612b4985828601612a21565b9150509250929050565b600080600060608486031215612b6c57612b6b613f25565b5b6000612b7a86828701612a21565b9350506020612b8b86828701612a21565b9250506040612b9c86828701612ad1565b9150509250925092565b60008060008060808587031215612bc057612bbf613f25565b5b6000612bce87828801612a21565b9450506020612bdf87828801612a21565b9350506040612bf087828801612ad1565b925050606085013567ffffffffffffffff811115612c1157612c10613f20565b5b612c1d87828801612a75565b91505092959194509250565b60008060408385031215612c4057612c3f613f25565b5b6000612c4e85828601612a21565b9250506020612c5f85828601612a36565b9150509250929050565b60008060408385031215612c8057612c7f613f25565b5b6000612c8e85828601612a21565b925050602083013567ffffffffffffffff811115612caf57612cae613f20565b5b612cbb85828601612aa3565b9150509250929050565b60008060408385031215612cdc57612cdb613f25565b5b6000612cea85828601612a21565b9250506020612cfb85828601612ad1565b9150509250929050565b600060208284031215612d1b57612d1a613f25565b5b6000612d2984828501612a4b565b91505092915050565b600060208284031215612d4857612d47613f25565b5b6000612d5684828501612a60565b91505092915050565b600060208284031215612d7557612d74613f25565b5b6000612d8384828501612ad1565b91505092915050565b612d9581613c9f565b82525050565b612da481613c9f565b82525050565b612db381613cb1565b82525050565b6000612dc482613b36565b612dce8185613b4c565b9350612dde818560208601613d22565b612de781613f2a565b840191505092915050565b6000612dfd82613b41565b612e078185613b5d565b9350612e17818560208601613d22565b612e2081613f2a565b840191505092915050565b6000612e3682613b41565b612e408185613b6e565b9350612e50818560208601613d22565b612e5981613f2a565b840191505092915050565b6000612e6f82613b41565b612e798185613b7f565b9350612e89818560208601613d22565b80840191505092915050565b6000612ea2602083613b6e565b9150612ead82613f3b565b602082019050919050565b6000612ec5602d83613b6e565b9150612ed082613f64565b604082019050919050565b6000612ee8604983613b7f565b9150612ef382613fb3565b604982019050919050565b6000612f0b602b83613b6e565b9150612f1682614028565b604082019050919050565b6000612f2e603283613b6e565b9150612f3982614077565b604082019050919050565b6000612f526102c583613b7f565b9150612f5d826140c6565b6102c582019050919050565b6000612f76605683613b7f565b9150612f8182614442565b605682019050919050565b6000612f99604983613b7f565b9150612fa4826144b7565b604982019050919050565b6000612fbc601783613b6e565b9150612fc78261452c565b602082019050919050565b6000612fdf600283613b7f565b9150612fea82614555565b600282019050919050565b6000613002602583613b6e565b915061300d8261457e565b604082019050919050565b6000613025601c83613b6e565b9150613030826145cd565b602082019050919050565b6000613048604983613b7f565b9150613053826145f6565b604982019050919050565b600061306b602483613b6e565b91506130768261466b565b604082019050919050565b600061308e601983613b6e565b9150613099826146ba565b602082019050919050565b60006130b1604983613b7f565b91506130bc826146e3565b604982019050919050565b60006130d4604883613b7f565b91506130df82614758565b604882019050919050565b60006130f7602983613b6e565b9150613102826147cd565b604082019050919050565b600061311a604883613b7f565b91506131258261481c565b604882019050919050565b600061313d600183613b7f565b915061314882614891565b600182019050919050565b6000613160604183613b7f565b915061316b826148ba565b604182019050919050565b6000613183604883613b7f565b915061318e8261492f565b604882019050919050565b60006131a6604983613b7f565b91506131b1826149a4565b604982019050919050565b60006131c9600383613b7f565b91506131d482614a19565b600382019050919050565b60006131ec602483613b7f565b91506131f782614a42565b602482019050919050565b600061321061015583613b7f565b915061321b82614a91565b61015582019050919050565b6000613234602083613b6e565b915061323f82614c39565b602082019050919050565b6000613257604883613b7f565b915061326282614c62565b604882019050919050565b600061327a600183613b7f565b915061328582614cd7565b600182019050919050565b600061329d60a083613b7f565b91506132a882614d00565b60a082019050919050565b60006132c0600183613b7f565b91506132cb82614dc1565b600182019050919050565b60006132e3604883613b7f565b91506132ee82614dea565b604882019050919050565b6000613306604883613b7f565b915061331182614e5f565b604882019050919050565b6000613329601883613b6e565b915061333482614ed4565b602082019050919050565b600061334c602183613b6e565b915061335782614efd565b604082019050919050565b600061336f601d83613b7f565b915061337a82614f4c565b601d82019050919050565b6000613392603d83613b6e565b915061339d82614f75565b604082019050919050565b60006133b5601283613b7f565b91506133c082614fc4565b601282019050919050565b60006133d8601283613b7f565b91506133e382614fed565b601282019050919050565b60006133fb604f83613b7f565b915061340682615016565b604f82019050919050565b600061341e604983613b7f565b91506134298261508b565b604982019050919050565b6000613441604883613b7f565b915061344c82615100565b604882019050919050565b6000613464604983613b7f565b915061346f82615175565b604982019050919050565b60006060830160008301516134926000860182612d8c565b5060208301516134a56020860182612d8c565b50604083015184820360408601526134bd8282612df2565b9150508091505092915050565b6134d381613d09565b82525050565b60006134e58284612e64565b915081905092915050565b60006134fc8285612e64565b91506135088284612e64565b91508190509392505050565b600061351f82612edb565b915061352b8289612e64565b9150613536826131bc565b915061354182612f8c565b915061354d8288612e64565b9150613558826131bc565b91506135638261303b565b915061356f8287612e64565b915061357a826131bc565b915061358582613457565b91506135918286612e64565b915061359c826131bc565b91506135a782613411565b91506135b38285612e64565b91506135be826131bc565b91506135c982613199565b91506135d58284612e64565b91506135e0826131bc565b91506135eb82613202565b9150819050979650505050505050565b600061360682612f44565b9150613612828e612e64565b915061361d826133ee565b9150613629828d612e64565b915061363482612f69565b9150613640828c612e64565b915061364b826133cb565b915061365682613290565b915061366182613153565b915061366c82613176565b9150613678828b612e64565b9150613683826131bc565b915061368e826132d6565b915061369a828a612e64565b91506136a5826131bc565b91506136b082613434565b91506136bc8289612e64565b91506136c7826131bc565b91506136d2826132f9565b91506136de8288612e64565b91506136e9826131bc565b91506136f48261310d565b91506137008287612e64565b915061370b826131bc565b9150613716826130c7565b91506137228286612e64565b915061372d826131bc565b91506137388261324a565b91506137448285612e64565b915061374f826131bc565b915061375a826130a4565b91506137668284612e64565b9150613771826131bc565b91508190509c9b505050505050505050505050565b6000613791826132b3565b915061379c826133a8565b91506137a88285612e64565b91506137b382612fd2565b91506137be826131df565b91506137ca8284612e64565b91506137d582613130565b91506137e08261326d565b91508190509392505050565b60006137f782613362565b91506138038284612e64565b915081905092915050565b60006020820190506138236000830184612d9b565b92915050565b600060808201905061383e6000830187612d9b565b61384b6020830186612d9b565b61385860408301856134ca565b818103606083015261386a8184612db9565b905095945050505050565b600060208201905061388a6000830184612daa565b92915050565b600060208201905081810360008301526138aa8184612e2b565b905092915050565b600060208201905081810360008301526138cb81612e95565b9050919050565b600060208201905081810360008301526138eb81612eb8565b9050919050565b6000602082019050818103600083015261390b81612efe565b9050919050565b6000602082019050818103600083015261392b81612f21565b9050919050565b6000602082019050818103600083015261394b81612faf565b9050919050565b6000602082019050818103600083015261396b81612ff5565b9050919050565b6000602082019050818103600083015261398b81613018565b9050919050565b600060208201905081810360008301526139ab8161305e565b9050919050565b600060208201905081810360008301526139cb81613081565b9050919050565b600060208201905081810360008301526139eb816130ea565b9050919050565b60006020820190508181036000830152613a0b81613227565b9050919050565b60006020820190508181036000830152613a2b8161331c565b9050919050565b60006020820190508181036000830152613a4b8161333f565b9050919050565b60006020820190508181036000830152613a6b81613385565b9050919050565b60006020820190508181036000830152613a8c818461347a565b905092915050565b6000602082019050613aa960008301846134ca565b92915050565b6000613ab9613aca565b9050613ac58282613db1565b919050565b6000604051905090565b600067ffffffffffffffff821115613aef57613aee613ee7565b5b613af882613f2a565b9050602081019050919050565b600067ffffffffffffffff821115613b2057613b1f613ee7565b5b613b2982613f2a565b9050602081019050919050565b600081519050919050565b600081519050919050565b600082825260208201905092915050565b600082825260208201905092915050565b600082825260208201905092915050565b600081905092915050565b6000613b9582613d09565b9150613ba083613d09565b9250827fffffffffffffffffffffffffffffffffffffffffffffffffffffffffffffffff03821115613bd557613bd4613e2b565b5b828201905092915050565b6000613beb82613d09565b9150613bf683613d09565b925082613c0657613c05613e5a565b5b828204905092915050565b6000613c1c82613d09565b9150613c2783613d09565b9250817fffffffffffffffffffffffffffffffffffffffffffffffffffffffffffffffff0483118215151615613c6057613c5f613e2b565b5b828202905092915050565b6000613c7682613d09565b9150613c8183613d09565b925082821015613c9457613c93613e2b565b5b828203905092915050565b6000613caa82613ce9565b9050919050565b60008115159050919050565b60007fffffffff0000000000000000000000000000000000000000000000000000000082169050919050565b600073ffffffffffffffffffffffffffffffffffffffff82169050919050565b6000819050919050565b82818337600083830152505050565b60005b83811015613d40578082015181840152602081019050613d25565b83811115613d4f576000848401525b50505050565b6000613d6082613d09565b91506000821415613d7457613d73613e2b565b5b600182039050919050565b60006002820490506001821680613d9757607f821691505b60208210811415613dab57613daa613e89565b5b50919050565b613dba82613f2a565b810181811067ffffffffffffffff82111715613dd957613dd8613ee7565b5b80604052505050565b6000613ded82613d09565b91507fffffffffffffffffffffffffffffffffffffffffffffffffffffffffffffffff821415613e2057613e1f613e2b565b5b600182019050919050565b7f4e487b7100000000000000000000000000000000000000000000000000000000600052601160045260246000fd5b7f4e487b7100000000000000000000000000000000000000000000000000000000600052601260045260246000fd5b7f4e487b7100000000000000000000000000000000000000000000000000000000600052602260045260246000fd5b7f4e487b7100000000000000000000000000000000000000000000000000000000600052603260045260246000fd5b7f4e487b7100000000000000000000000000000000000000000000000000000000600052604160045260246000fd5b600080fd5b600080fd5b600080fd5b600080fd5b6000601f19601f8301169050919050565b7f537472696e67733a20686578206c656e67746820696e73756666696369656e74600082015250565b7f4552433732313a2063616c6c6572206973206e6f7420746f6b656e206f776e6560008201527f72206f7220617070726f76656400000000000000000000000000000000000000602082015250565b7f3c2f747370616e3e3c747370616e20783d22302220793d223132362220666f6e60008201527f742d7765696768743d2233303022207374726f6b652d77696474683d2230223e60208201527f3c215b43444154415b0000000000000000000000000000000000000000000000604082015250565b7f54686973206d65737361676520697320746f6f206269672e204d61782036373260008201527f2063686172616374657273000000000000000000000000000000000000000000602082015250565b7f4552433732313a207472616e7366657220746f206e6f6e20455243373231526560008201527f63656976657220696d706c656d656e7465720000000000000000000000000000602082015250565b7f3c73766720786d6c6e733d22687474703a2f2f7777772e77332e6f72672f323060008201527f30302f7376672220786d6c6e733a786c696e6b3d22687474703a2f2f7777772e60208201527f77332e6f72672f313939392f786c696e6b222076696577426f783d223020302060408201527f33363020333630222073686170652d72656e646572696e673d2267656f6d657460608201527f726963507265636973696f6e2220746578742d72656e646572696e673d22676560808201527f6f6d6574726963507265636973696f6e222077696474683d223336302220686560a08201527f696768743d2233363022207374796c653d226261636b67726f756e642d636f6c60c08201527f6f723a23303030223e3c746578742064783d2230222064793d22302220666f6e60e08201527f742d66616d696c793d222671756f743b50726f6d70742671756f743b2220666f6101008201527f6e742d73697a653d2231322220666f6e742d7765696768743d223330302220746101208201527f72616e73666f726d3d227472616e736c617465283131382e36323934353720336101408201527f33372e33343636323129222066696c6c3d222330306666356122207374726f6b6101608201527f652d77696474683d2230223e3c747370616e20793d22302220666f6e742d77656101808201527f696768743d2233303022207374726f6b652d77696474683d2230223e3c215b436101a08201527f444154415b5265706c7920617420706d732e696f205d5d3e3c2f747370616e3e6101c08201527f3c2f746578743e3c746578742064783d2230222064793d22302220666f6e742d6101e08201527f66616d696c793d222671756f743b50726f6d70742671756f743b2220666f6e746102008201527f2d73697a653d2231342220666f6e742d7765696768743d2234303022207472616102208201527f6e73666f726d3d227472616e736c61746528382e37323538362032312e3238336102408201527f30363429222066696c6c3d222366346634663422207374726f6b652d776964746102608201527f683d2230223e3c747370616e20793d22302220666f6e742d7765696768743d226102808201527f34303022207374726f6b652d77696474683d2230223e3c215b43444154415b466102a08201527f726f6d3a200000000000000000000000000000000000000000000000000000006102c082015250565b7f5d5d3e3c2f747370616e3e3c747370616e20783d22302220793d22323822206660008201527f6f6e742d7765696768743d2234303022207374726f6b652d77696474683d223060208201527f223e3c215b43444154415b554e495820446174653a2000000000000000000000604082015250565b7f3c2f747370616e3e3c747370616e20783d22302220793d223134302220666f6e60008201527f742d7765696768743d2233303022207374726f6b652d77696474683d2230223e60208201527f3c215b43444154415b0000000000000000000000000000000000000000000000604082015250565b7f546f6b656e206372656174696f6e207265766572746564000000000000000000600082015250565b7f222c000000000000000000000000000000000000000000000000000000000000600082015250565b7f4552433732313a207472616e736665722066726f6d20696e636f72726563742060008201527f6f776e6572000000000000000000000000000000000000000000000000000000602082015250565b7f4552433732313a20746f6b656e20616c7265616479206d696e74656400000000600082015250565b7f3c2f747370616e3e3c747370616e20783d22302220793d223135342220666f6e60008201527f742d7765696768743d2233303022207374726f6b652d77696474683d2230223e60208201527f3c215b43444154415b0000000000000000000000000000000000000000000000604082015250565b7f4552433732313a207472616e7366657220746f20746865207a65726f2061646460008201527f7265737300000000000000000000000000000000000000000000000000000000602082015250565b7f4552433732313a20617070726f766520746f2063616c6c657200000000000000600082015250565b7f3c2f747370616e3e3c747370616e20783d22302220793d223131322220666f6e60008201527f742d7765696768743d2233303022207374726f6b652d77696474683d2230223e60208201527f3c215b43444154415b0000000000000000000000000000000000000000000000604082015250565b7f3c2f747370616e3e3c747370616e20783d22302220793d2238342220666f6e7460008201527f2d7765696768743d2233303022207374726f6b652d77696474683d2230223e3c60208201527f215b43444154415b000000000000000000000000000000000000000000000000604082015250565b7f4552433732313a2061646472657373207a65726f206973206e6f74206120766160008201527f6c6964206f776e65720000000000000000000000000000000000000000000000602082015250565b7f3c2f747370616e3e3c747370616e20783d22302220793d2237302220666f6e7460008201527f2d7765696768743d2233303022207374726f6b652d77696474683d2230223e3c60208201527f215b43444154415b000000000000000000000000000000000000000000000000604082015250565b7f2200000000000000000000000000000000000000000000000000000000000000600082015250565b7f3c747370616e20793d22302220666f6e742d7765696768743d2233303022207360008201527f74726f6b652d77696474683d2230223e3c215b43444154415b426f64793a5d5d60208201527f3e00000000000000000000000000000000000000000000000000000000000000604082015250565b7f3c2f747370616e3e3c747370616e20783d22302220793d2231342220666f6e7460008201527f2d7765696768743d2233303022207374726f6b652d77696474683d2230223e3c60208201527f215b43444154415b000000000000000000000000000000000000000000000000604082015250565b7f3c2f747370616e3e3c747370616e20783d22302220793d223139362220666f6e60008201527f742d7765696768743d2233303022207374726f6b652d77696474683d2230223e60208201527f3c215b43444154415b0000000000000000000000000000000000000000000000604082015250565b7f5d5d3e0000000000000000000000000000000000000000000000000000000000600082015250565b7f22696d616765223a2022646174613a696d6167652f7376672b786d6c3b62617360008201527f6536342c00000000000000000000000000000000000000000000000000000000602082015250565b7f3c2f747370616e3e3c2f746578743e3c726563742077696474683d223130332e60008201527f35333134303522206865696768743d2232332e323934353636222072783d223060208201527f222072793d223022207472616e73666f726d3d226d617472697828312e31303060408201527f3030312030203020312e323232323232203131332e393832373337203331382e60608201527f33363538363829222066696c6c3d227267626128302c3235352c36372c30292260808201527f207374726f6b653d2223303066663138222f3e3c6c696e652078313d222d313960a08201527f372e303630303635222079313d2230222078323d223139372e3036303036352260c08201527f2079323d223022207472616e73666f726d3d226d6174726978282e393133343260e08201527f372030203020302e35203138302e3030303031362036302e31393437322922206101008201527f66696c6c3d226e6f6e6522207374726f6b653d222330306666313822207374726101208201527f6f6b652d77696474683d2233222f3e3c2f7376673e000000000000000000000061014082015250565b7f4552433732313a206d696e7420746f20746865207a65726f2061646472657373600082015250565b7f3c2f747370616e3e3c747370616e20783d22302220793d2239382220666f6e7460008201527f2d7765696768743d2233303022207374726f6b652d77696474683d2230223e3c60208201527f215b43444154415b000000000000000000000000000000000000000000000000604082015250565b7f7d00000000000000000000000000000000000000000000000000000000000000600082015250565b7f3c746578742064783d2230222064793d22302220666f6e742d66616d696c793d60008201527f222671756f743b50726f6d70742671756f743b2220666f6e742d73697a653d2260208201527f31322220666f6e742d7765696768743d2233303022207472616e73666f726d3d60408201527f227472616e736c61746528392e3035383539332038302e32343336333329222060608201527f66696c6c3d222330306666356122207374726f6b652d77696474683d2230223e608082015250565b7f7b00000000000000000000000000000000000000000000000000000000000000600082015250565b7f3c2f747370616e3e3c747370616e20783d22302220793d2232382220666f6e7460008201527f2d7765696768743d2233303022207374726f6b652d77696474683d2230223e3c60208201527f215b43444154415b000000000000000000000000000000000000000000000000604082015250565b7f3c2f747370616e3e3c747370616e20783d22302220793d2235362220666f6e7460008201527f2d7765696768743d2233303022207374726f6b652d77696474683d2230223e3c60208201527f215b43444154415b000000000000000000000000000000000000000000000000604082015250565b7f4552433732313a20696e76616c696420746f6b656e2049440000000000000000600082015250565b7f4552433732313a20617070726f76616c20746f2063757272656e74206f776e6560008201527f7200000000000000000000000000000000000000000000000000000000000000602082015250565b7f646174613a6170706c69636174696f6e2f6a736f6e3b6261736536342c000000600082015250565b7f4552433732313a20617070726f76652063616c6c6572206973206e6f7420746f60008201527f6b656e206f776e6572206f7220617070726f76656420666f7220616c6c000000602082015250565b7f226e616d65223a20224d65737361676520230000000000000000000000000000600082015250565b7f5d5d3e3c2f747370616e3e3c2f746578743e0000000000000000000000000000600082015250565b7f5d5d3e3c2f747370616e3e3c747370616e20783d22302220793d22313422206660008201527f6f6e742d7765696768743d2234303022207374726f6b652d77696474683d223060208201527f223e3c215b43444154415b546f3a200000000000000000000000000000000000604082015250565b7f3c2f747370616e3e3c747370616e20783d22302220793d223138322220666f6e60008201527f742d7765696768743d2233303022207374726f6b652d77696474683d2230223e60208201527f3c215b43444154415b0000000000000000000000000000000000000000000000604082015250565b7f3c2f747370616e3e3c747370616e20783d22302220793d2234322220666f6e7460008201527f2d7765696768743d2233303022207374726f6b652d77696474683d2230223e3c60208201527f215b43444154415b000000000000000000000000000000000000000000000000604082015250565b7f3c2f747370616e3e3c747370616e20783d22302220793d223136382220666f6e60008201527f742d7765696768743d2233303022207374726f6b652d77696474683d2230223e60208201527f3c215b43444154415b0000000000000000000000000000000000000000000000604082015250565b6151f381613c9f565b81146151fe57600080fd5b50565b61520a81613cb1565b811461521557600080fd5b50565b61522181613cbd565b811461522c57600080fd5b50565b61523881613d09565b811461524357600080fd5b5056fe4142434445464748494a4b4c4d4e4f505152535455565758595a6162636465666768696a6b6c6d6e6f707172737475767778797a303132333435363738392b2fa26469706673582212207b6c078c445cc732d3f6237855157bc4f50b2a0ce02da869763b240aa649ef8e64736f6c63430008070033a264697066735822122010211055b5cd7685ff5db6643d5d520824fc3b81bba5307e5eb36ccceee66aa264736f6c63430008070033",
			"opcodes": "PUSH1 0x80 PUSH1 0x40 MSTORE CALLVALUE DUP1 ISZERO PUSH2 0x10 JUMPI PUSH1 0x0 DUP1 REVERT JUMPDEST POP PUSH2 0x73DA DUP1 PUSH2 0x20 PUSH1 0x0 CODECOPY PUSH1 0x0 RETURN INVALID PUSH1 0x80 PUSH1 0x40 MSTORE CALLVALUE DUP1 ISZERO PUSH3 0x11 JUMPI PUSH1 0x0 DUP1 REVERT JUMPDEST POP PUSH1 0x4 CALLDATASIZE LT PUSH3 0x52 JUMPI PUSH1 0x0 CALLDATALOAD PUSH1 0xE0 SHR DUP1 PUSH4 0x392DCF7 EQ PUSH3 0x57 JUMPI DUP1 PUSH4 0x775C300C EQ PUSH3 0x63 JUMPI DUP1 PUSH4 0x7FEA0D4B EQ PUSH3 0x85 JUMPI DUP1 PUSH4 0xFCB52E63 EQ PUSH3 0x91 JUMPI JUMPDEST PUSH1 0x0 DUP1 REVERT JUMPDEST PUSH3 0x61 PUSH3 0x9D JUMP JUMPDEST STOP JUMPDEST PUSH3 0x6D PUSH3 0x92A JUMP JUMPDEST PUSH1 0x40 MLOAD PUSH3 0x7C SWAP2 SWAP1 PUSH3 0x19E3 JUMP JUMPDEST PUSH1 0x40 MLOAD DUP1 SWAP2 SUB SWAP1 RETURN JUMPDEST PUSH3 0x8F PUSH3 0x99E JUMP JUMPDEST STOP JUMPDEST PUSH3 0x9B PUSH3 0xB3C JUMP JUMPDEST STOP JUMPDEST PUSH1 0x0 DUP1 SLOAD SWAP1 PUSH2 0x100 EXP SWAP1 DIV PUSH20 0xFFFFFFFFFFFFFFFFFFFFFFFFFFFFFFFFFFFFFFFF AND PUSH20 0xFFFFFFFFFFFFFFFFFFFFFFFFFFFFFFFFFFFFFFFF AND PUSH4 0xD088DB40 PUSH1 0x2 PUSH1 0x0 SWAP1 SLOAD SWAP1 PUSH2 0x100 EXP SWAP1 DIV PUSH20 0xFFFFFFFFFFFFFFFFFFFFFFFFFFFFFFFFFFFFFFFF AND PUSH1 0x40 MLOAD DUP3 PUSH4 0xFFFFFFFF AND PUSH1 0xE0 SHL DUP2 MSTORE PUSH1 0x4 ADD PUSH3 0x11A SWAP2 SWAP1 PUSH3 0x19B1 JUMP JUMPDEST PUSH1 0x0 PUSH1 0x40 MLOAD DUP1 DUP4 SUB DUP2 PUSH1 0x0 DUP8 DUP1 EXTCODESIZE ISZERO DUP1 ISZERO PUSH3 0x135 JUMPI PUSH1 0x0 DUP1 REVERT JUMPDEST POP GAS CALL ISZERO DUP1 ISZERO PUSH3 0x14A JUMPI RETURNDATASIZE PUSH1 0x0 DUP1 RETURNDATACOPY RETURNDATASIZE PUSH1 0x0 REVERT JUMPDEST POP POP POP POP PUSH20 0x0 PUSH4 0xABCD7960 PUSH1 0x0 DUP1 SLOAD SWAP1 PUSH2 0x100 EXP SWAP1 DIV PUSH20 0xFFFFFFFFFFFFFFFFFFFFFFFFFFFFFFFFFFFFFFFF AND PUSH20 0xFFFFFFFFFFFFFFFFFFFFFFFFFFFFFFFFFFFFFFFF AND PUSH4 0x4397A9E ADDRESS PUSH1 0x40 MLOAD DUP3 PUSH4 0xFFFFFFFF AND PUSH1 0xE0 SHL DUP2 MSTORE PUSH1 0x4 ADD PUSH3 0x1C3 SWAP2 SWAP1 PUSH3 0x186F JUMP JUMPDEST PUSH1 0x20 PUSH1 0x40 MLOAD DUP1 DUP4 SUB DUP2 DUP7 DUP1 EXTCODESIZE ISZERO DUP1 ISZERO PUSH3 0x1DC JUMPI PUSH1 0x0 DUP1 REVERT JUMPDEST POP GAS STATICCALL ISZERO DUP1 ISZERO PUSH3 0x1F1 JUMPI RETURNDATASIZE PUSH1 0x0 DUP1 RETURNDATACOPY RETURNDATASIZE PUSH1 0x0 REVERT JUMPDEST POP POP POP POP PUSH1 0x40 MLOAD RETURNDATASIZE PUSH1 0x1F NOT PUSH1 0x1F DUP3 ADD AND DUP3 ADD DUP1 PUSH1 0x40 MSTORE POP DUP2 ADD SWAP1 PUSH3 0x217 SWAP2 SWAP1 PUSH3 0x15DD JUMP JUMPDEST PUSH1 0x2 PUSH1 0x40 MLOAD DUP4 PUSH4 0xFFFFFFFF AND PUSH1 0xE0 SHL DUP2 MSTORE PUSH1 0x4 ADD PUSH3 0x238 SWAP3 SWAP2 SWAP1 PUSH3 0x1B52 JUMP JUMPDEST PUSH1 0x20 PUSH1 0x40 MLOAD DUP1 DUP4 SUB DUP2 DUP7 DUP1 EXTCODESIZE ISZERO DUP1 ISZERO PUSH3 0x251 JUMPI PUSH1 0x0 DUP1 REVERT JUMPDEST POP GAS DELEGATECALL ISZERO DUP1 ISZERO PUSH3 0x266 JUMPI RETURNDATASIZE PUSH1 0x0 DUP1 RETURNDATACOPY RETURNDATASIZE PUSH1 0x0 REVERT JUMPDEST POP POP POP POP PUSH1 0x40 MLOAD RETURNDATASIZE PUSH1 0x1F NOT PUSH1 0x1F DUP3 ADD AND DUP3 ADD DUP1 PUSH1 0x40 MSTORE POP DUP2 ADD SWAP1 PUSH3 0x28C SWAP2 SWAP1 PUSH3 0x155A JUMP JUMPDEST POP PUSH20 0x0 PUSH4 0xABCD7960 PUSH1 0x0 DUP1 SLOAD SWAP1 PUSH2 0x100 EXP SWAP1 DIV PUSH20 0xFFFFFFFFFFFFFFFFFFFFFFFFFFFFFFFFFFFFFFFF AND PUSH20 0xFFFFFFFFFFFFFFFFFFFFFFFFFFFFFFFFFFFFFFFF AND PUSH4 0xAD75C91D ADDRESS PUSH1 0x1 PUSH1 0x40 MLOAD DUP4 PUSH4 0xFFFFFFFF AND PUSH1 0xE0 SHL DUP2 MSTORE PUSH1 0x4 ADD PUSH3 0x305 SWAP3 SWAP2 SWAP1 PUSH3 0x1952 JUMP JUMPDEST PUSH1 0x20 PUSH1 0x40 MLOAD DUP1 DUP4 SUB DUP2 DUP7 DUP1 EXTCODESIZE ISZERO DUP1 ISZERO PUSH3 0x31E JUMPI PUSH1 0x0 DUP1 REVERT JUMPDEST POP GAS STATICCALL ISZERO DUP1 ISZERO PUSH3 0x333 JUMPI RETURNDATASIZE PUSH1 0x0 DUP1 RETURNDATACOPY RETURNDATASIZE PUSH1 0x0 REVERT JUMPDEST POP POP POP POP PUSH1 0x40 MLOAD RETURNDATASIZE PUSH1 0x1F NOT PUSH1 0x1F DUP3 ADD AND DUP3 ADD DUP1 PUSH1 0x40 MSTORE POP DUP2 ADD SWAP1 PUSH3 0x359 SWAP2 SWAP1 PUSH3 0x15DD JUMP JUMPDEST PUSH1 0x1 PUSH1 0x40 MLOAD DUP4 PUSH4 0xFFFFFFFF AND PUSH1 0xE0 SHL DUP2 MSTORE PUSH1 0x4 ADD PUSH3 0x37A SWAP3 SWAP2 SWAP1 PUSH3 0x1B10 JUMP JUMPDEST PUSH1 0x20 PUSH1 0x40 MLOAD DUP1 DUP4 SUB DUP2 DUP7 DUP1 EXTCODESIZE ISZERO DUP1 ISZERO PUSH3 0x393 JUMPI PUSH1 0x0 DUP1 REVERT JUMPDEST POP GAS DELEGATECALL ISZERO DUP1 ISZERO PUSH3 0x3A8 JUMPI RETURNDATASIZE PUSH1 0x0 DUP1 RETURNDATACOPY RETURNDATASIZE PUSH1 0x0 REVERT JUMPDEST POP POP POP POP PUSH1 0x40 MLOAD RETURNDATASIZE PUSH1 0x1F NOT PUSH1 0x1F DUP3 ADD AND DUP3 ADD DUP1 PUSH1 0x40 MSTORE POP DUP2 ADD SWAP1 PUSH3 0x3CE SWAP2 SWAP1 PUSH3 0x155A JUMP JUMPDEST POP PUSH20 0x0 PUSH4 0xBFBA5DD6 PUSH1 0x0 DUP1 SLOAD SWAP1 PUSH2 0x100 EXP SWAP1 DIV PUSH20 0xFFFFFFFFFFFFFFFFFFFFFFFFFFFFFFFFFFFFFFFF AND PUSH20 0xFFFFFFFFFFFFFFFFFFFFFFFFFFFFFFFFFFFFFFFF AND PUSH4 0x17902601 PUSH1 0x2 PUSH1 0x40 MLOAD DUP3 PUSH4 0xFFFFFFFF AND PUSH1 0xE0 SHL DUP2 MSTORE PUSH1 0x4 ADD PUSH3 0x445 SWAP2 SWAP1 PUSH3 0x1A57 JUMP JUMPDEST PUSH1 0x0 PUSH1 0x40 MLOAD DUP1 DUP4 SUB DUP2 DUP7 DUP1 EXTCODESIZE ISZERO DUP1 ISZERO PUSH3 0x45E JUMPI PUSH1 0x0 DUP1 REVERT JUMPDEST POP GAS STATICCALL ISZERO DUP1 ISZERO PUSH3 0x473 JUMPI RETURNDATASIZE PUSH1 0x0 DUP1 RETURNDATACOPY RETURNDATASIZE PUSH1 0x0 REVERT JUMPDEST POP POP POP POP PUSH1 0x40 MLOAD RETURNDATASIZE PUSH1 0x0 DUP3 RETURNDATACOPY RETURNDATASIZE PUSH1 0x1F NOT PUSH1 0x1F DUP3 ADD AND DUP3 ADD DUP1 PUSH1 0x40 MSTORE POP DUP2 ADD SWAP1 PUSH3 0x49E SWAP2 SWAP1 PUSH3 0x158C JUMP JUMPDEST PUSH1 0x0 ADD MLOAD ADDRESS PUSH1 0x40 MLOAD DUP4 PUSH4 0xFFFFFFFF AND PUSH1 0xE0 SHL DUP2 MSTORE PUSH1 0x4 ADD PUSH3 0x4C2 SWAP3 SWAP2 SWAP1 PUSH3 0x18CE JUMP JUMPDEST PUSH1 0x20 PUSH1 0x40 MLOAD DUP1 DUP4 SUB DUP2 DUP7 DUP1 EXTCODESIZE ISZERO DUP1 ISZERO PUSH3 0x4DB JUMPI PUSH1 0x0 DUP1 REVERT JUMPDEST POP GAS DELEGATECALL ISZERO DUP1 ISZERO PUSH3 0x4F0 JUMPI RETURNDATASIZE PUSH1 0x0 DUP1 RETURNDATACOPY RETURNDATASIZE PUSH1 0x0 REVERT JUMPDEST POP POP POP POP PUSH1 0x40 MLOAD RETURNDATASIZE PUSH1 0x1F NOT PUSH1 0x1F DUP3 ADD AND DUP3 ADD DUP1 PUSH1 0x40 MSTORE POP DUP2 ADD SWAP1 PUSH3 0x516 SWAP2 SWAP1 PUSH3 0x155A JUMP JUMPDEST POP PUSH20 0x0 PUSH4 0xBFBA5DD6 PUSH1 0x0 DUP1 SLOAD SWAP1 PUSH2 0x100 EXP SWAP1 DIV PUSH20 0xFFFFFFFFFFFFFFFFFFFFFFFFFFFFFFFFFFFFFFFF AND PUSH20 0xFFFFFFFFFFFFFFFFFFFFFFFFFFFFFFFFFFFFFFFF AND PUSH4 0x17902601 PUSH1 0x2 PUSH1 0x40 MLOAD DUP3 PUSH4 0xFFFFFFFF AND PUSH1 0xE0 SHL DUP2 MSTORE PUSH1 0x4 ADD PUSH3 0x58D SWAP2 SWAP1 PUSH3 0x1A57 JUMP JUMPDEST PUSH1 0x0 PUSH1 0x40 MLOAD DUP1 DUP4 SUB DUP2 DUP7 DUP1 EXTCODESIZE ISZERO DUP1 ISZERO PUSH3 0x5A6 JUMPI PUSH1 0x0 DUP1 REVERT JUMPDEST POP GAS STATICCALL ISZERO DUP1 ISZERO PUSH3 0x5BB JUMPI RETURNDATASIZE PUSH1 0x0 DUP1 RETURNDATACOPY RETURNDATASIZE PUSH1 0x0 REVERT JUMPDEST POP POP POP POP PUSH1 0x40 MLOAD RETURNDATASIZE PUSH1 0x0 DUP3 RETURNDATACOPY RETURNDATASIZE PUSH1 0x1F NOT PUSH1 0x1F DUP3 ADD AND DUP3 ADD DUP1 PUSH1 0x40 MSTORE POP DUP2 ADD SWAP1 PUSH3 0x5E6 SWAP2 SWAP1 PUSH3 0x158C JUMP JUMPDEST PUSH1 0x20 ADD MLOAD PUSH1 0x2 PUSH1 0x0 SWAP1 SLOAD SWAP1 PUSH2 0x100 EXP SWAP1 DIV PUSH20 0xFFFFFFFFFFFFFFFFFFFFFFFFFFFFFFFFFFFFFFFF AND PUSH1 0x40 MLOAD DUP4 PUSH4 0xFFFFFFFF AND PUSH1 0xE0 SHL DUP2 MSTORE PUSH1 0x4 ADD PUSH3 0x62C SWAP3 SWAP2 SWAP1 PUSH3 0x188C JUMP JUMPDEST PUSH1 0x20 PUSH1 0x40 MLOAD DUP1 DUP4 SUB DUP2 DUP7 DUP1 EXTCODESIZE ISZERO DUP1 ISZERO PUSH3 0x645 JUMPI PUSH1 0x0 DUP1 REVERT JUMPDEST POP GAS DELEGATECALL ISZERO DUP1 ISZERO PUSH3 0x65A JUMPI RETURNDATASIZE PUSH1 0x0 DUP1 RETURNDATACOPY RETURNDATASIZE PUSH1 0x0 REVERT JUMPDEST POP POP POP POP PUSH1 0x40 MLOAD RETURNDATASIZE PUSH1 0x1F NOT PUSH1 0x1F DUP3 ADD AND DUP3 ADD DUP1 PUSH1 0x40 MSTORE POP DUP2 ADD SWAP1 PUSH3 0x680 SWAP2 SWAP1 PUSH3 0x155A JUMP JUMPDEST POP PUSH20 0x0 PUSH4 0xE8C2CB16 PUSH1 0x0 DUP1 SLOAD SWAP1 PUSH2 0x100 EXP SWAP1 DIV PUSH20 0xFFFFFFFFFFFFFFFFFFFFFFFFFFFFFFFFFFFFFFFF AND PUSH20 0xFFFFFFFFFFFFFFFFFFFFFFFFFFFFFFFFFFFFFFFF AND PUSH4 0x17902601 PUSH1 0x2 PUSH1 0x40 MLOAD DUP3 PUSH4 0xFFFFFFFF AND PUSH1 0xE0 SHL DUP2 MSTORE PUSH1 0x4 ADD PUSH3 0x6F7 SWAP2 SWAP1 PUSH3 0x1A57 JUMP JUMPDEST PUSH1 0x0 PUSH1 0x40 MLOAD DUP1 DUP4 SUB DUP2 DUP7 DUP1 EXTCODESIZE ISZERO DUP1 ISZERO PUSH3 0x710 JUMPI PUSH1 0x0 DUP1 REVERT JUMPDEST POP GAS STATICCALL ISZERO DUP1 ISZERO PUSH3 0x725 JUMPI RETURNDATASIZE PUSH1 0x0 DUP1 RETURNDATACOPY RETURNDATASIZE PUSH1 0x0 REVERT JUMPDEST POP POP POP POP PUSH1 0x40 MLOAD RETURNDATASIZE PUSH1 0x0 DUP3 RETURNDATACOPY RETURNDATASIZE PUSH1 0x1F NOT PUSH1 0x1F DUP3 ADD AND DUP3 ADD DUP1 PUSH1 0x40 MSTORE POP DUP2 ADD SWAP1 PUSH3 0x750 SWAP2 SWAP1 PUSH3 0x158C JUMP JUMPDEST PUSH1 0x40 ADD MLOAD PUSH1 0x40 MLOAD DUP3 PUSH4 0xFFFFFFFF AND PUSH1 0xE0 SHL DUP2 MSTORE PUSH1 0x4 ADD PUSH3 0x772 SWAP2 SWAP1 PUSH3 0x1AC2 JUMP JUMPDEST PUSH1 0x20 PUSH1 0x40 MLOAD DUP1 DUP4 SUB DUP2 DUP7 DUP1 EXTCODESIZE ISZERO DUP1 ISZERO PUSH3 0x78B JUMPI PUSH1 0x0 DUP1 REVERT JUMPDEST POP GAS DELEGATECALL ISZERO DUP1 ISZERO PUSH3 0x7A0 JUMPI RETURNDATASIZE PUSH1 0x0 DUP1 RETURNDATACOPY RETURNDATASIZE PUSH1 0x0 REVERT JUMPDEST POP POP POP POP PUSH1 0x40 MLOAD RETURNDATASIZE PUSH1 0x1F NOT PUSH1 0x1F DUP3 ADD AND DUP3 ADD DUP1 PUSH1 0x40 MSTORE POP DUP2 ADD SWAP1 PUSH3 0x7C6 SWAP2 SWAP1 PUSH3 0x155A JUMP JUMPDEST POP PUSH20 0x0 PUSH4 0xBFBA5DD6 PUSH1 0x0 DUP1 SLOAD SWAP1 PUSH2 0x100 EXP SWAP1 DIV PUSH20 0xFFFFFFFFFFFFFFFFFFFFFFFFFFFFFFFFFFFFFFFF AND PUSH20 0xFFFFFFFFFFFFFFFFFFFFFFFFFFFFFFFFFFFFFFFF AND PUSH4 0x6352211E PUSH1 0x2 PUSH1 0x40 MLOAD DUP3 PUSH4 0xFFFFFFFF AND PUSH1 0xE0 SHL DUP2 MSTORE PUSH1 0x4 ADD PUSH3 0x83D SWAP2 SWAP1 PUSH3 0x1A57 JUMP JUMPDEST PUSH1 0x20 PUSH1 0x40 MLOAD DUP1 DUP4 SUB DUP2 DUP7 DUP1 EXTCODESIZE ISZERO DUP1 ISZERO PUSH3 0x856 JUMPI PUSH1 0x0 DUP1 REVERT JUMPDEST POP GAS STATICCALL ISZERO DUP1 ISZERO PUSH3 0x86B JUMPI RETURNDATASIZE PUSH1 0x0 DUP1 RETURNDATACOPY RETURNDATASIZE PUSH1 0x0 REVERT JUMPDEST POP POP POP POP PUSH1 0x40 MLOAD RETURNDATASIZE PUSH1 0x1F NOT PUSH1 0x1F DUP3 ADD AND DUP3 ADD DUP1 PUSH1 0x40 MSTORE POP DUP2 ADD SWAP1 PUSH3 0x891 SWAP2 SWAP1 PUSH3 0x1528 JUMP JUMPDEST PUSH1 0x2 PUSH1 0x0 SWAP1 SLOAD SWAP1 PUSH2 0x100 EXP SWAP1 DIV PUSH20 0xFFFFFFFFFFFFFFFFFFFFFFFFFFFFFFFFFFFFFFFF AND PUSH1 0x40 MLOAD DUP4 PUSH4 0xFFFFFFFF AND PUSH1 0xE0 SHL DUP2 MSTORE PUSH1 0x4 ADD PUSH3 0x8D3 SWAP3 SWAP2 SWAP1 PUSH3 0x1910 JUMP JUMPDEST PUSH1 0x20 PUSH1 0x40 MLOAD DUP1 DUP4 SUB DUP2 DUP7 DUP1 EXTCODESIZE ISZERO DUP1 ISZERO PUSH3 0x8EC JUMPI PUSH1 0x0 DUP1 REVERT JUMPDEST POP GAS DELEGATECALL ISZERO DUP1 ISZERO PUSH3 0x901 JUMPI RETURNDATASIZE PUSH1 0x0 DUP1 RETURNDATACOPY RETURNDATASIZE PUSH1 0x0 REVERT JUMPDEST POP POP POP POP PUSH1 0x40 MLOAD RETURNDATASIZE PUSH1 0x1F NOT PUSH1 0x1F DUP3 ADD AND DUP3 ADD DUP1 PUSH1 0x40 MSTORE POP DUP2 ADD SWAP1 PUSH3 0x927 SWAP2 SWAP1 PUSH3 0x155A JUMP JUMPDEST POP JUMP JUMPDEST PUSH1 0x0 PUSH1 0x40 MLOAD PUSH3 0x93A SWAP1 PUSH3 0x13C9 JUMP JUMPDEST PUSH1 0x40 MLOAD DUP1 SWAP2 SUB SWAP1 PUSH1 0x0 CREATE DUP1 ISZERO DUP1 ISZERO PUSH3 0x957 JUMPI RETURNDATASIZE PUSH1 0x0 DUP1 RETURNDATACOPY RETURNDATASIZE PUSH1 0x0 REVERT JUMPDEST POP PUSH1 0x0 DUP1 PUSH2 0x100 EXP DUP2 SLOAD DUP2 PUSH20 0xFFFFFFFFFFFFFFFFFFFFFFFFFFFFFFFFFFFFFFFF MUL NOT AND SWAP1 DUP4 PUSH20 0xFFFFFFFFFFFFFFFFFFFFFFFFFFFFFFFFFFFFFFFF AND MUL OR SWAP1 SSTORE POP PUSH1 0x1 SWAP1 POP SWAP1 JUMP JUMPDEST PUSH20 0x0 PUSH4 0xCE88B145 PUSH1 0x0 PUSH1 0x40 MLOAD DUP3 PUSH4 0xFFFFFFFF AND PUSH1 0xE0 SHL DUP2 MSTORE PUSH1 0x4 ADD PUSH3 0x9D8 SWAP2 SWAP1 PUSH3 0x1A00 JUMP JUMPDEST PUSH1 0x20 PUSH1 0x40 MLOAD DUP1 DUP4 SUB DUP2 DUP7 DUP1 EXTCODESIZE ISZERO DUP1 ISZERO PUSH3 0x9F1 JUMPI PUSH1 0x0 DUP1 REVERT JUMPDEST POP GAS DELEGATECALL ISZERO DUP1 ISZERO PUSH3 0xA06 JUMPI RETURNDATASIZE PUSH1 0x0 DUP1 RETURNDATACOPY RETURNDATASIZE PUSH1 0x0 REVERT JUMPDEST POP POP POP POP PUSH1 0x40 MLOAD RETURNDATASIZE PUSH1 0x1F NOT PUSH1 0x1F DUP3 ADD AND DUP3 ADD DUP1 PUSH1 0x40 MSTORE POP DUP2 ADD SWAP1 PUSH3 0xA2C SWAP2 SWAP1 PUSH3 0x1528 JUMP JUMPDEST PUSH1 0x1 PUSH1 0x0 PUSH2 0x100 EXP DUP2 SLOAD DUP2 PUSH20 0xFFFFFFFFFFFFFFFFFFFFFFFFFFFFFFFFFFFFFFFF MUL NOT AND SWAP1 DUP4 PUSH20 0xFFFFFFFFFFFFFFFFFFFFFFFFFFFFFFFFFFFFFFFF AND MUL OR SWAP1 SSTORE POP PUSH20 0x0 PUSH4 0xCE88B145 PUSH1 0x1 PUSH1 0x40 MLOAD DUP3 PUSH4 0xFFFFFFFF AND PUSH1 0xE0 SHL DUP2 MSTORE PUSH1 0x4 ADD PUSH3 0xAA6 SWAP2 SWAP1 PUSH3 0x1A1D JUMP JUMPDEST PUSH1 0x20 PUSH1 0x40 MLOAD DUP1 DUP4 SUB DUP2 DUP7 DUP1 EXTCODESIZE ISZERO DUP1 ISZERO PUSH3 0xABF JUMPI PUSH1 0x0 DUP1 REVERT JUMPDEST POP GAS DELEGATECALL ISZERO DUP1 ISZERO PUSH3 0xAD4 JUMPI RETURNDATASIZE PUSH1 0x0 DUP1 RETURNDATACOPY RETURNDATASIZE PUSH1 0x0 REVERT JUMPDEST POP POP POP POP PUSH1 0x40 MLOAD RETURNDATASIZE PUSH1 0x1F NOT PUSH1 0x1F DUP3 ADD AND DUP3 ADD DUP1 PUSH1 0x40 MSTORE POP DUP2 ADD SWAP1 PUSH3 0xAFA SWAP2 SWAP1 PUSH3 0x1528 JUMP JUMPDEST PUSH1 0x2 PUSH1 0x0 PUSH2 0x100 EXP DUP2 SLOAD DUP2 PUSH20 0xFFFFFFFFFFFFFFFFFFFFFFFFFFFFFFFFFFFFFFFF MUL NOT AND SWAP1 DUP4 PUSH20 0xFFFFFFFFFFFFFFFFFFFFFFFFFFFFFFFFFFFFFFFF AND MUL OR SWAP1 SSTORE POP JUMP JUMPDEST PUSH1 0x0 DUP1 SLOAD SWAP1 PUSH2 0x100 EXP SWAP1 DIV PUSH20 0xFFFFFFFFFFFFFFFFFFFFFFFFFFFFFFFFFFFFFFFF AND PUSH20 0xFFFFFFFFFFFFFFFFFFFFFFFFFFFFFFFFFFFFFFFF AND PUSH4 0xD088DB40 PUSH1 0x1 PUSH1 0x0 SWAP1 SLOAD SWAP1 PUSH2 0x100 EXP SWAP1 DIV PUSH20 0xFFFFFFFFFFFFFFFFFFFFFFFFFFFFFFFFFFFFFFFF AND PUSH1 0x40 MLOAD DUP3 PUSH4 0xFFFFFFFF AND PUSH1 0xE0 SHL DUP2 MSTORE PUSH1 0x4 ADD PUSH3 0xBB9 SWAP2 SWAP1 PUSH3 0x197F JUMP JUMPDEST PUSH1 0x0 PUSH1 0x40 MLOAD DUP1 DUP4 SUB DUP2 PUSH1 0x0 DUP8 DUP1 EXTCODESIZE ISZERO DUP1 ISZERO PUSH3 0xBD4 JUMPI PUSH1 0x0 DUP1 REVERT JUMPDEST POP GAS CALL ISZERO DUP1 ISZERO PUSH3 0xBE9 JUMPI RETURNDATASIZE PUSH1 0x0 DUP1 RETURNDATACOPY RETURNDATASIZE PUSH1 0x0 REVERT JUMPDEST POP POP POP POP PUSH20 0x0 PUSH4 0xABCD7960 PUSH1 0x0 DUP1 SLOAD SWAP1 PUSH2 0x100 EXP SWAP1 DIV PUSH20 0xFFFFFFFFFFFFFFFFFFFFFFFFFFFFFFFFFFFFFFFF AND PUSH20 0xFFFFFFFFFFFFFFFFFFFFFFFFFFFFFFFFFFFFFFFF AND PUSH4 0x4397A9E ADDRESS PUSH1 0x40 MLOAD DUP3 PUSH4 0xFFFFFFFF AND PUSH1 0xE0 SHL DUP2 MSTORE PUSH1 0x4 ADD PUSH3 0xC62 SWAP2 SWAP1 PUSH3 0x186F JUMP JUMPDEST PUSH1 0x20 PUSH1 0x40 MLOAD DUP1 DUP4 SUB DUP2 DUP7 DUP1 EXTCODESIZE ISZERO DUP1 ISZERO PUSH3 0xC7B JUMPI PUSH1 0x0 DUP1 REVERT JUMPDEST POP GAS STATICCALL ISZERO DUP1 ISZERO PUSH3 0xC90 JUMPI RETURNDATASIZE PUSH1 0x0 DUP1 RETURNDATACOPY RETURNDATASIZE PUSH1 0x0 REVERT JUMPDEST POP POP POP POP PUSH1 0x40 MLOAD RETURNDATASIZE PUSH1 0x1F NOT PUSH1 0x1F DUP3 ADD AND DUP3 ADD DUP1 PUSH1 0x40 MSTORE POP DUP2 ADD SWAP1 PUSH3 0xCB6 SWAP2 SWAP1 PUSH3 0x15DD JUMP JUMPDEST PUSH1 0x1 PUSH1 0x40 MLOAD DUP4 PUSH4 0xFFFFFFFF AND PUSH1 0xE0 SHL DUP2 MSTORE PUSH1 0x4 ADD PUSH3 0xCD7 SWAP3 SWAP2 SWAP1 PUSH3 0x1B10 JUMP JUMPDEST PUSH1 0x20 PUSH1 0x40 MLOAD DUP1 DUP4 SUB DUP2 DUP7 DUP1 EXTCODESIZE ISZERO DUP1 ISZERO PUSH3 0xCF0 JUMPI PUSH1 0x0 DUP1 REVERT JUMPDEST POP GAS DELEGATECALL ISZERO DUP1 ISZERO PUSH3 0xD05 JUMPI RETURNDATASIZE PUSH1 0x0 DUP1 RETURNDATACOPY RETURNDATASIZE PUSH1 0x0 REVERT JUMPDEST POP POP POP POP PUSH1 0x40 MLOAD RETURNDATASIZE PUSH1 0x1F NOT PUSH1 0x1F DUP3 ADD AND DUP3 ADD DUP1 PUSH1 0x40 MSTORE POP DUP2 ADD SWAP1 PUSH3 0xD2B SWAP2 SWAP1 PUSH3 0x155A JUMP JUMPDEST POP PUSH20 0x0 PUSH4 0xABCD7960 PUSH1 0x0 DUP1 SLOAD SWAP1 PUSH2 0x100 EXP SWAP1 DIV PUSH20 0xFFFFFFFFFFFFFFFFFFFFFFFFFFFFFFFFFFFFFFFF AND PUSH20 0xFFFFFFFFFFFFFFFFFFFFFFFFFFFFFFFFFFFFFFFF AND PUSH4 0xAD75C91D ADDRESS PUSH1 0x1 PUSH1 0x40 MLOAD DUP4 PUSH4 0xFFFFFFFF AND PUSH1 0xE0 SHL DUP2 MSTORE PUSH1 0x4 ADD PUSH3 0xDA4 SWAP3 SWAP2 SWAP1 PUSH3 0x1952 JUMP JUMPDEST PUSH1 0x20 PUSH1 0x40 MLOAD DUP1 DUP4 SUB DUP2 DUP7 DUP1 EXTCODESIZE ISZERO DUP1 ISZERO PUSH3 0xDBD JUMPI PUSH1 0x0 DUP1 REVERT JUMPDEST POP GAS STATICCALL ISZERO DUP1 ISZERO PUSH3 0xDD2 JUMPI RETURNDATASIZE PUSH1 0x0 DUP1 RETURNDATACOPY RETURNDATASIZE PUSH1 0x0 REVERT JUMPDEST POP POP POP POP PUSH1 0x40 MLOAD RETURNDATASIZE PUSH1 0x1F NOT PUSH1 0x1F DUP3 ADD AND DUP3 ADD DUP1 PUSH1 0x40 MSTORE POP DUP2 ADD SWAP1 PUSH3 0xDF8 SWAP2 SWAP1 PUSH3 0x15DD JUMP JUMPDEST PUSH1 0x1 PUSH1 0x40 MLOAD DUP4 PUSH4 0xFFFFFFFF AND PUSH1 0xE0 SHL DUP2 MSTORE PUSH1 0x4 ADD PUSH3 0xE19 SWAP3 SWAP2 SWAP1 PUSH3 0x1B10 JUMP JUMPDEST PUSH1 0x20 PUSH1 0x40 MLOAD DUP1 DUP4 SUB DUP2 DUP7 DUP1 EXTCODESIZE ISZERO DUP1 ISZERO PUSH3 0xE32 JUMPI PUSH1 0x0 DUP1 REVERT JUMPDEST POP GAS DELEGATECALL ISZERO DUP1 ISZERO PUSH3 0xE47 JUMPI RETURNDATASIZE PUSH1 0x0 DUP1 RETURNDATACOPY RETURNDATASIZE PUSH1 0x0 REVERT JUMPDEST POP POP POP POP PUSH1 0x40 MLOAD RETURNDATASIZE PUSH1 0x1F NOT PUSH1 0x1F DUP3 ADD AND DUP3 ADD DUP1 PUSH1 0x40 MSTORE POP DUP2 ADD SWAP1 PUSH3 0xE6D SWAP2 SWAP1 PUSH3 0x155A JUMP JUMPDEST POP PUSH20 0x0 PUSH4 0xBFBA5DD6 PUSH1 0x0 DUP1 SLOAD SWAP1 PUSH2 0x100 EXP SWAP1 DIV PUSH20 0xFFFFFFFFFFFFFFFFFFFFFFFFFFFFFFFFFFFFFFFF AND PUSH20 0xFFFFFFFFFFFFFFFFFFFFFFFFFFFFFFFFFFFFFFFF AND PUSH4 0x17902601 PUSH1 0x1 PUSH1 0x40 MLOAD DUP3 PUSH4 0xFFFFFFFF AND PUSH1 0xE0 SHL DUP2 MSTORE PUSH1 0x4 ADD PUSH3 0xEE4 SWAP2 SWAP1 PUSH3 0x1A3A JUMP JUMPDEST PUSH1 0x0 PUSH1 0x40 MLOAD DUP1 DUP4 SUB DUP2 DUP7 DUP1 EXTCODESIZE ISZERO DUP1 ISZERO PUSH3 0xEFD JUMPI PUSH1 0x0 DUP1 REVERT JUMPDEST POP GAS STATICCALL ISZERO DUP1 ISZERO PUSH3 0xF12 JUMPI RETURNDATASIZE PUSH1 0x0 DUP1 RETURNDATACOPY RETURNDATASIZE PUSH1 0x0 REVERT JUMPDEST POP POP POP POP PUSH1 0x40 MLOAD RETURNDATASIZE PUSH1 0x0 DUP3 RETURNDATACOPY RETURNDATASIZE PUSH1 0x1F NOT PUSH1 0x1F DUP3 ADD AND DUP3 ADD DUP1 PUSH1 0x40 MSTORE POP DUP2 ADD SWAP1 PUSH3 0xF3D SWAP2 SWAP1 PUSH3 0x158C JUMP JUMPDEST PUSH1 0x0 ADD MLOAD ADDRESS PUSH1 0x40 MLOAD DUP4 PUSH4 0xFFFFFFFF AND PUSH1 0xE0 SHL DUP2 MSTORE PUSH1 0x4 ADD PUSH3 0xF61 SWAP3 SWAP2 SWAP1 PUSH3 0x18CE JUMP JUMPDEST PUSH1 0x20 PUSH1 0x40 MLOAD DUP1 DUP4 SUB DUP2 DUP7 DUP1 EXTCODESIZE ISZERO DUP1 ISZERO PUSH3 0xF7A JUMPI PUSH1 0x0 DUP1 REVERT JUMPDEST POP GAS DELEGATECALL ISZERO DUP1 ISZERO PUSH3 0xF8F JUMPI RETURNDATASIZE PUSH1 0x0 DUP1 RETURNDATACOPY RETURNDATASIZE PUSH1 0x0 REVERT JUMPDEST POP POP POP POP PUSH1 0x40 MLOAD RETURNDATASIZE PUSH1 0x1F NOT PUSH1 0x1F DUP3 ADD AND DUP3 ADD DUP1 PUSH1 0x40 MSTORE POP DUP2 ADD SWAP1 PUSH3 0xFB5 SWAP2 SWAP1 PUSH3 0x155A JUMP JUMPDEST POP PUSH20 0x0 PUSH4 0xBFBA5DD6 PUSH1 0x0 DUP1 SLOAD SWAP1 PUSH2 0x100 EXP SWAP1 DIV PUSH20 0xFFFFFFFFFFFFFFFFFFFFFFFFFFFFFFFFFFFFFFFF AND PUSH20 0xFFFFFFFFFFFFFFFFFFFFFFFFFFFFFFFFFFFFFFFF AND PUSH4 0x17902601 PUSH1 0x1 PUSH1 0x40 MLOAD DUP3 PUSH4 0xFFFFFFFF AND PUSH1 0xE0 SHL DUP2 MSTORE PUSH1 0x4 ADD PUSH3 0x102C SWAP2 SWAP1 PUSH3 0x1A3A JUMP JUMPDEST PUSH1 0x0 PUSH1 0x40 MLOAD DUP1 DUP4 SUB DUP2 DUP7 DUP1 EXTCODESIZE ISZERO DUP1 ISZERO PUSH3 0x1045 JUMPI PUSH1 0x0 DUP1 REVERT JUMPDEST POP GAS STATICCALL ISZERO DUP1 ISZERO PUSH3 0x105A JUMPI RETURNDATASIZE PUSH1 0x0 DUP1 RETURNDATACOPY RETURNDATASIZE PUSH1 0x0 REVERT JUMPDEST POP POP POP POP PUSH1 0x40 MLOAD RETURNDATASIZE PUSH1 0x0 DUP3 RETURNDATACOPY RETURNDATASIZE PUSH1 0x1F NOT PUSH1 0x1F DUP3 ADD AND DUP3 ADD DUP1 PUSH1 0x40 MSTORE POP DUP2 ADD SWAP1 PUSH3 0x1085 SWAP2 SWAP1 PUSH3 0x158C JUMP JUMPDEST PUSH1 0x20 ADD MLOAD PUSH1 0x1 PUSH1 0x0 SWAP1 SLOAD SWAP1 PUSH2 0x100 EXP SWAP1 DIV PUSH20 0xFFFFFFFFFFFFFFFFFFFFFFFFFFFFFFFFFFFFFFFF AND PUSH1 0x40 MLOAD DUP4 PUSH4 0xFFFFFFFF AND PUSH1 0xE0 SHL DUP2 MSTORE PUSH1 0x4 ADD PUSH3 0x10CB SWAP3 SWAP2 SWAP1 PUSH3 0x188C JUMP JUMPDEST PUSH1 0x20 PUSH1 0x40 MLOAD DUP1 DUP4 SUB DUP2 DUP7 DUP1 EXTCODESIZE ISZERO DUP1 ISZERO PUSH3 0x10E4 JUMPI PUSH1 0x0 DUP1 REVERT JUMPDEST POP GAS DELEGATECALL ISZERO DUP1 ISZERO PUSH3 0x10F9 JUMPI RETURNDATASIZE PUSH1 0x0 DUP1 RETURNDATACOPY RETURNDATASIZE PUSH1 0x0 REVERT JUMPDEST POP POP POP POP PUSH1 0x40 MLOAD RETURNDATASIZE PUSH1 0x1F NOT PUSH1 0x1F DUP3 ADD AND DUP3 ADD DUP1 PUSH1 0x40 MSTORE POP DUP2 ADD SWAP1 PUSH3 0x111F SWAP2 SWAP1 PUSH3 0x155A JUMP JUMPDEST POP PUSH20 0x0 PUSH4 0xE8C2CB16 PUSH1 0x0 DUP1 SLOAD SWAP1 PUSH2 0x100 EXP SWAP1 DIV PUSH20 0xFFFFFFFFFFFFFFFFFFFFFFFFFFFFFFFFFFFFFFFF AND PUSH20 0xFFFFFFFFFFFFFFFFFFFFFFFFFFFFFFFFFFFFFFFF AND PUSH4 0x17902601 PUSH1 0x1 PUSH1 0x40 MLOAD DUP3 PUSH4 0xFFFFFFFF AND PUSH1 0xE0 SHL DUP2 MSTORE PUSH1 0x4 ADD PUSH3 0x1196 SWAP2 SWAP1 PUSH3 0x1A3A JUMP JUMPDEST PUSH1 0x0 PUSH1 0x40 MLOAD DUP1 DUP4 SUB DUP2 DUP7 DUP1 EXTCODESIZE ISZERO DUP1 ISZERO PUSH3 0x11AF JUMPI PUSH1 0x0 DUP1 REVERT JUMPDEST POP GAS STATICCALL ISZERO DUP1 ISZERO PUSH3 0x11C4 JUMPI RETURNDATASIZE PUSH1 0x0 DUP1 RETURNDATACOPY RETURNDATASIZE PUSH1 0x0 REVERT JUMPDEST POP POP POP POP PUSH1 0x40 MLOAD RETURNDATASIZE PUSH1 0x0 DUP3 RETURNDATACOPY RETURNDATASIZE PUSH1 0x1F NOT PUSH1 0x1F DUP3 ADD AND DUP3 ADD DUP1 PUSH1 0x40 MSTORE POP DUP2 ADD SWAP1 PUSH3 0x11EF SWAP2 SWAP1 PUSH3 0x158C JUMP JUMPDEST PUSH1 0x40 ADD MLOAD PUSH1 0x40 MLOAD DUP3 PUSH4 0xFFFFFFFF AND PUSH1 0xE0 SHL DUP2 MSTORE PUSH1 0x4 ADD PUSH3 0x1211 SWAP2 SWAP1 PUSH3 0x1A74 JUMP JUMPDEST PUSH1 0x20 PUSH1 0x40 MLOAD DUP1 DUP4 SUB DUP2 DUP7 DUP1 EXTCODESIZE ISZERO DUP1 ISZERO PUSH3 0x122A JUMPI PUSH1 0x0 DUP1 REVERT JUMPDEST POP GAS DELEGATECALL ISZERO DUP1 ISZERO PUSH3 0x123F JUMPI RETURNDATASIZE PUSH1 0x0 DUP1 RETURNDATACOPY RETURNDATASIZE PUSH1 0x0 REVERT JUMPDEST POP POP POP POP PUSH1 0x40 MLOAD RETURNDATASIZE PUSH1 0x1F NOT PUSH1 0x1F DUP3 ADD AND DUP3 ADD DUP1 PUSH1 0x40 MSTORE POP DUP2 ADD SWAP1 PUSH3 0x1265 SWAP2 SWAP1 PUSH3 0x155A JUMP JUMPDEST POP PUSH20 0x0 PUSH4 0xBFBA5DD6 PUSH1 0x0 DUP1 SLOAD SWAP1 PUSH2 0x100 EXP SWAP1 DIV PUSH20 0xFFFFFFFFFFFFFFFFFFFFFFFFFFFFFFFFFFFFFFFF AND PUSH20 0xFFFFFFFFFFFFFFFFFFFFFFFFFFFFFFFFFFFFFFFF AND PUSH4 0x6352211E PUSH1 0x1 PUSH1 0x40 MLOAD DUP3 PUSH4 0xFFFFFFFF AND PUSH1 0xE0 SHL DUP2 MSTORE PUSH1 0x4 ADD PUSH3 0x12DC SWAP2 SWAP1 PUSH3 0x1A3A JUMP JUMPDEST PUSH1 0x20 PUSH1 0x40 MLOAD DUP1 DUP4 SUB DUP2 DUP7 DUP1 EXTCODESIZE ISZERO DUP1 ISZERO PUSH3 0x12F5 JUMPI PUSH1 0x0 DUP1 REVERT JUMPDEST POP GAS STATICCALL ISZERO DUP1 ISZERO PUSH3 0x130A JUMPI RETURNDATASIZE PUSH1 0x0 DUP1 RETURNDATACOPY RETURNDATASIZE PUSH1 0x0 REVERT JUMPDEST POP POP POP POP PUSH1 0x40 MLOAD RETURNDATASIZE PUSH1 0x1F NOT PUSH1 0x1F DUP3 ADD AND DUP3 ADD DUP1 PUSH1 0x40 MSTORE POP DUP2 ADD SWAP1 PUSH3 0x1330 SWAP2 SWAP1 PUSH3 0x1528 JUMP JUMPDEST PUSH1 0x1 PUSH1 0x0 SWAP1 SLOAD SWAP1 PUSH2 0x100 EXP SWAP1 DIV PUSH20 0xFFFFFFFFFFFFFFFFFFFFFFFFFFFFFFFFFFFFFFFF AND PUSH1 0x40 MLOAD DUP4 PUSH4 0xFFFFFFFF AND PUSH1 0xE0 SHL DUP2 MSTORE PUSH1 0x4 ADD PUSH3 0x1372 SWAP3 SWAP2 SWAP1 PUSH3 0x1910 JUMP JUMPDEST PUSH1 0x20 PUSH1 0x40 MLOAD DUP1 DUP4 SUB DUP2 DUP7 DUP1 EXTCODESIZE ISZERO DUP1 ISZERO PUSH3 0x138B JUMPI PUSH1 0x0 DUP1 REVERT JUMPDEST POP GAS DELEGATECALL ISZERO DUP1 ISZERO PUSH3 0x13A0 JUMPI RETURNDATASIZE PUSH1 0x0 DUP1 RETURNDATACOPY RETURNDATASIZE PUSH1 0x0 REVERT JUMPDEST POP POP POP POP PUSH1 0x40 MLOAD RETURNDATASIZE PUSH1 0x1F NOT PUSH1 0x1F DUP3 ADD AND DUP3 ADD DUP1 PUSH1 0x40 MSTORE POP DUP2 ADD SWAP1 PUSH3 0x13C6 SWAP2 SWAP1 PUSH3 0x155A JUMP JUMPDEST POP JUMP JUMPDEST PUSH2 0x549E DUP1 PUSH3 0x1F07 DUP4 CODECOPY ADD SWAP1 JUMP JUMPDEST PUSH1 0x0 PUSH3 0x13EE PUSH3 0x13E8 DUP5 PUSH3 0x1BBD JUMP JUMPDEST PUSH3 0x1B94 JUMP JUMPDEST SWAP1 POP DUP3 DUP2 MSTORE PUSH1 0x20 DUP2 ADD DUP5 DUP5 DUP5 ADD GT ISZERO PUSH3 0x140D JUMPI PUSH3 0x140C PUSH3 0x1D50 JUMP JUMPDEST JUMPDEST PUSH3 0x141A DUP5 DUP3 DUP6 PUSH3 0x1CA6 JUMP JUMPDEST POP SWAP4 SWAP3 POP POP POP JUMP JUMPDEST PUSH1 0x0 DUP2 MLOAD SWAP1 POP PUSH3 0x1433 DUP2 PUSH3 0x1EB8 JUMP JUMPDEST SWAP3 SWAP2 POP POP JUMP JUMPDEST PUSH1 0x0 DUP2 MLOAD SWAP1 POP PUSH3 0x144A DUP2 PUSH3 0x1ED2 JUMP JUMPDEST SWAP3 SWAP2 POP POP JUMP JUMPDEST PUSH1 0x0 DUP3 PUSH1 0x1F DUP4 ADD SLT PUSH3 0x1468 JUMPI PUSH3 0x1467 PUSH3 0x1D41 JUMP JUMPDEST JUMPDEST DUP2 MLOAD PUSH3 0x147A DUP5 DUP3 PUSH1 0x20 DUP7 ADD PUSH3 0x13D7 JUMP JUMPDEST SWAP2 POP POP SWAP3 SWAP2 POP POP JUMP JUMPDEST PUSH1 0x0 PUSH1 0x60 DUP3 DUP5 SUB SLT ISZERO PUSH3 0x149C JUMPI PUSH3 0x149B PUSH3 0x1D46 JUMP JUMPDEST JUMPDEST PUSH3 0x14A8 PUSH1 0x60 PUSH3 0x1B94 JUMP JUMPDEST SWAP1 POP PUSH1 0x0 PUSH3 0x14BA DUP5 DUP3 DUP6 ADD PUSH3 0x1422 JUMP JUMPDEST PUSH1 0x0 DUP4 ADD MSTORE POP PUSH1 0x20 PUSH3 0x14D0 DUP5 DUP3 DUP6 ADD PUSH3 0x1422 JUMP JUMPDEST PUSH1 0x20 DUP4 ADD MSTORE POP PUSH1 0x40 DUP3 ADD MLOAD PUSH8 0xFFFFFFFFFFFFFFFF DUP2 GT ISZERO PUSH3 0x14F7 JUMPI PUSH3 0x14F6 PUSH3 0x1D4B JUMP JUMPDEST JUMPDEST PUSH3 0x1505 DUP5 DUP3 DUP6 ADD PUSH3 0x1450 JUMP JUMPDEST PUSH1 0x40 DUP4 ADD MSTORE POP SWAP3 SWAP2 POP POP JUMP JUMPDEST PUSH1 0x0 DUP2 MLOAD SWAP1 POP PUSH3 0x1522 DUP2 PUSH3 0x1EEC JUMP JUMPDEST SWAP3 SWAP2 POP POP JUMP JUMPDEST PUSH1 0x0 PUSH1 0x20 DUP3 DUP5 SUB SLT ISZERO PUSH3 0x1541 JUMPI PUSH3 0x1540 PUSH3 0x1D5A JUMP JUMPDEST JUMPDEST PUSH1 0x0 PUSH3 0x1551 DUP5 DUP3 DUP6 ADD PUSH3 0x1422 JUMP JUMPDEST SWAP2 POP POP SWAP3 SWAP2 POP POP JUMP JUMPDEST PUSH1 0x0 PUSH1 0x20 DUP3 DUP5 SUB SLT ISZERO PUSH3 0x1573 JUMPI PUSH3 0x1572 PUSH3 0x1D5A JUMP JUMPDEST JUMPDEST PUSH1 0x0 PUSH3 0x1583 DUP5 DUP3 DUP6 ADD PUSH3 0x1439 JUMP JUMPDEST SWAP2 POP POP SWAP3 SWAP2 POP POP JUMP JUMPDEST PUSH1 0x0 PUSH1 0x20 DUP3 DUP5 SUB SLT ISZERO PUSH3 0x15A5 JUMPI PUSH3 0x15A4 PUSH3 0x1D5A JUMP JUMPDEST JUMPDEST PUSH1 0x0 DUP3 ADD MLOAD PUSH8 0xFFFFFFFFFFFFFFFF DUP2 GT ISZERO PUSH3 0x15C6 JUMPI PUSH3 0x15C5 PUSH3 0x1D55 JUMP JUMPDEST JUMPDEST PUSH3 0x15D4 DUP5 DUP3 DUP6 ADD PUSH3 0x1483 JUMP JUMPDEST SWAP2 POP POP SWAP3 SWAP2 POP POP JUMP JUMPDEST PUSH1 0x0 PUSH1 0x20 DUP3 DUP5 SUB SLT ISZERO PUSH3 0x15F6 JUMPI PUSH3 0x15F5 PUSH3 0x1D5A JUMP JUMPDEST JUMPDEST PUSH1 0x0 PUSH3 0x1606 DUP5 DUP3 DUP6 ADD PUSH3 0x1511 JUMP JUMPDEST SWAP2 POP POP SWAP3 SWAP2 POP POP JUMP JUMPDEST PUSH3 0x161A DUP2 PUSH3 0x1C20 JUMP JUMPDEST DUP3 MSTORE POP POP JUMP JUMPDEST PUSH3 0x162B DUP2 PUSH3 0x1C20 JUMP JUMPDEST DUP3 MSTORE POP POP JUMP JUMPDEST PUSH3 0x163C DUP2 PUSH3 0x1C34 JUMP JUMPDEST DUP3 MSTORE POP POP JUMP JUMPDEST PUSH3 0x164D DUP2 PUSH3 0x1C6A JUMP JUMPDEST DUP3 MSTORE POP POP JUMP JUMPDEST PUSH3 0x165E DUP2 PUSH3 0x1C7E JUMP JUMPDEST DUP3 MSTORE POP POP JUMP JUMPDEST PUSH3 0x166F DUP2 PUSH3 0x1C7E JUMP JUMPDEST DUP3 MSTORE POP POP JUMP JUMPDEST PUSH3 0x1680 DUP2 PUSH3 0x1C92 JUMP JUMPDEST DUP3 MSTORE POP POP JUMP JUMPDEST PUSH3 0x1691 DUP2 PUSH3 0x1C92 JUMP JUMPDEST DUP3 MSTORE POP POP JUMP JUMPDEST PUSH1 0x0 PUSH3 0x16A4 DUP3 PUSH3 0x1BF3 JUMP JUMPDEST PUSH3 0x16B0 DUP2 DUP6 PUSH3 0x1C0F JUMP JUMPDEST SWAP4 POP PUSH3 0x16C2 DUP2 DUP6 PUSH1 0x20 DUP7 ADD PUSH3 0x1CA6 JUMP JUMPDEST PUSH3 0x16CD DUP2 PUSH3 0x1D5F JUMP JUMPDEST DUP5 ADD SWAP2 POP POP SWAP3 SWAP2 POP POP JUMP JUMPDEST PUSH1 0x0 PUSH3 0x16E7 PUSH1 0xA DUP4 PUSH3 0x1C0F JUMP JUMPDEST SWAP2 POP PUSH3 0x16F4 DUP3 PUSH3 0x1D70 JUMP JUMPDEST PUSH1 0x20 DUP3 ADD SWAP1 POP SWAP2 SWAP1 POP JUMP JUMPDEST PUSH1 0x0 PUSH3 0x170E PUSH1 0x5 DUP4 PUSH3 0x1BFE JUMP JUMPDEST SWAP2 POP PUSH3 0x171B DUP3 PUSH3 0x1D99 JUMP JUMPDEST PUSH1 0x20 DUP3 ADD SWAP1 POP SWAP2 SWAP1 POP JUMP JUMPDEST PUSH1 0x0 PUSH3 0x1735 PUSH1 0x5 DUP4 PUSH3 0x1C0F JUMP JUMPDEST SWAP2 POP PUSH3 0x1742 DUP3 PUSH3 0x1D99 JUMP JUMPDEST PUSH1 0x20 DUP3 ADD SWAP1 POP SWAP2 SWAP1 POP JUMP JUMPDEST PUSH1 0x0 PUSH3 0x175C PUSH1 0xA DUP4 PUSH3 0x1C0F JUMP JUMPDEST SWAP2 POP PUSH3 0x1769 DUP3 PUSH3 0x1DC2 JUMP JUMPDEST PUSH1 0x20 DUP3 ADD SWAP1 POP SWAP2 SWAP1 POP JUMP JUMPDEST PUSH1 0x0 PUSH3 0x1783 PUSH1 0x10 DUP4 PUSH3 0x1C0F JUMP JUMPDEST SWAP2 POP PUSH3 0x1790 DUP3 PUSH3 0x1DEB JUMP JUMPDEST PUSH1 0x20 DUP3 ADD SWAP1 POP SWAP2 SWAP1 POP JUMP JUMPDEST PUSH1 0x0 PUSH3 0x17AA PUSH1 0x13 DUP4 PUSH3 0x1C0F JUMP JUMPDEST SWAP2 POP PUSH3 0x17B7 DUP3 PUSH3 0x1E14 JUMP JUMPDEST PUSH1 0x20 DUP3 ADD SWAP1 POP SWAP2 SWAP1 POP JUMP JUMPDEST PUSH1 0x0 PUSH3 0x17D1 PUSH1 0x15 DUP4 PUSH3 0x1C0F JUMP JUMPDEST SWAP2 POP PUSH3 0x17DE DUP3 PUSH3 0x1E3D JUMP JUMPDEST PUSH1 0x20 DUP3 ADD SWAP1 POP SWAP2 SWAP1 POP JUMP JUMPDEST PUSH1 0x0 PUSH3 0x17F8 PUSH1 0x19 DUP4 PUSH3 0x1C0F JUMP JUMPDEST SWAP2 POP PUSH3 0x1805 DUP3 PUSH3 0x1E66 JUMP JUMPDEST PUSH1 0x20 DUP3 ADD SWAP1 POP SWAP2 SWAP1 POP JUMP JUMPDEST PUSH1 0x0 PUSH3 0x181F PUSH1 0x9 DUP4 PUSH3 0x1BFE JUMP JUMPDEST SWAP2 POP PUSH3 0x182C DUP3 PUSH3 0x1E8F JUMP JUMPDEST PUSH1 0x20 DUP3 ADD SWAP1 POP SWAP2 SWAP1 POP JUMP JUMPDEST PUSH1 0x0 PUSH3 0x1846 PUSH1 0x9 DUP4 PUSH3 0x1C0F JUMP JUMPDEST SWAP2 POP PUSH3 0x1853 DUP3 PUSH3 0x1E8F JUMP JUMPDEST PUSH1 0x20 DUP3 ADD SWAP1 POP SWAP2 SWAP1 POP JUMP JUMPDEST PUSH3 0x1869 DUP2 PUSH3 0x1C60 JUMP JUMPDEST DUP3 MSTORE POP POP JUMP JUMPDEST PUSH1 0x0 PUSH1 0x20 DUP3 ADD SWAP1 POP PUSH3 0x1886 PUSH1 0x0 DUP4 ADD DUP5 PUSH3 0x160F JUMP JUMPDEST SWAP3 SWAP2 POP POP JUMP JUMPDEST PUSH1 0x0 PUSH1 0x60 DUP3 ADD SWAP1 POP PUSH3 0x18A3 PUSH1 0x0 DUP4 ADD DUP6 PUSH3 0x1620 JUMP JUMPDEST PUSH3 0x18B2 PUSH1 0x20 DUP4 ADD DUP5 PUSH3 0x1620 JUMP JUMPDEST DUP2 DUP2 SUB PUSH1 0x40 DUP4 ADD MSTORE PUSH3 0x18C5 DUP2 PUSH3 0x179B JUMP JUMPDEST SWAP1 POP SWAP4 SWAP3 POP POP POP JUMP JUMPDEST PUSH1 0x0 PUSH1 0x60 DUP3 ADD SWAP1 POP PUSH3 0x18E5 PUSH1 0x0 DUP4 ADD DUP6 PUSH3 0x1620 JUMP JUMPDEST PUSH3 0x18F4 PUSH1 0x20 DUP4 ADD DUP5 PUSH3 0x1620 JUMP JUMPDEST DUP2 DUP2 SUB PUSH1 0x40 DUP4 ADD MSTORE PUSH3 0x1907 DUP2 PUSH3 0x17C2 JUMP JUMPDEST SWAP1 POP SWAP4 SWAP3 POP POP POP JUMP JUMPDEST PUSH1 0x0 PUSH1 0x60 DUP3 ADD SWAP1 POP PUSH3 0x1927 PUSH1 0x0 DUP4 ADD DUP6 PUSH3 0x1620 JUMP JUMPDEST PUSH3 0x1936 PUSH1 0x20 DUP4 ADD DUP5 PUSH3 0x1620 JUMP JUMPDEST DUP2 DUP2 SUB PUSH1 0x40 DUP4 ADD MSTORE PUSH3 0x1949 DUP2 PUSH3 0x17E9 JUMP JUMPDEST SWAP1 POP SWAP4 SWAP3 POP POP POP JUMP JUMPDEST PUSH1 0x0 PUSH1 0x40 DUP3 ADD SWAP1 POP PUSH3 0x1969 PUSH1 0x0 DUP4 ADD DUP6 PUSH3 0x160F JUMP JUMPDEST PUSH3 0x1978 PUSH1 0x20 DUP4 ADD DUP5 PUSH3 0x1653 JUMP JUMPDEST SWAP4 SWAP3 POP POP POP JUMP JUMPDEST PUSH1 0x0 PUSH1 0x40 DUP3 ADD SWAP1 POP PUSH3 0x1996 PUSH1 0x0 DUP4 ADD DUP5 PUSH3 0x160F JUMP JUMPDEST DUP2 DUP2 SUB PUSH1 0x20 DUP4 ADD MSTORE PUSH3 0x19A9 DUP2 PUSH3 0x16FF JUMP JUMPDEST SWAP1 POP SWAP3 SWAP2 POP POP JUMP JUMPDEST PUSH1 0x0 PUSH1 0x40 DUP3 ADD SWAP1 POP PUSH3 0x19C8 PUSH1 0x0 DUP4 ADD DUP5 PUSH3 0x160F JUMP JUMPDEST DUP2 DUP2 SUB PUSH1 0x20 DUP4 ADD MSTORE PUSH3 0x19DB DUP2 PUSH3 0x1810 JUMP JUMPDEST SWAP1 POP SWAP3 SWAP2 POP POP JUMP JUMPDEST PUSH1 0x0 PUSH1 0x20 DUP3 ADD SWAP1 POP PUSH3 0x19FA PUSH1 0x0 DUP4 ADD DUP5 PUSH3 0x1631 JUMP JUMPDEST SWAP3 SWAP2 POP POP JUMP JUMPDEST PUSH1 0x0 PUSH1 0x20 DUP3 ADD SWAP1 POP PUSH3 0x1A17 PUSH1 0x0 DUP4 ADD DUP5 PUSH3 0x1642 JUMP JUMPDEST SWAP3 SWAP2 POP POP JUMP JUMPDEST PUSH1 0x0 PUSH1 0x20 DUP3 ADD SWAP1 POP PUSH3 0x1A34 PUSH1 0x0 DUP4 ADD DUP5 PUSH3 0x1664 JUMP JUMPDEST SWAP3 SWAP2 POP POP JUMP JUMPDEST PUSH1 0x0 PUSH1 0x20 DUP3 ADD SWAP1 POP PUSH3 0x1A51 PUSH1 0x0 DUP4 ADD DUP5 PUSH3 0x1653 JUMP JUMPDEST SWAP3 SWAP2 POP POP JUMP JUMPDEST PUSH1 0x0 PUSH1 0x20 DUP3 ADD SWAP1 POP PUSH3 0x1A6E PUSH1 0x0 DUP4 ADD DUP5 PUSH3 0x1675 JUMP JUMPDEST SWAP3 SWAP2 POP POP JUMP JUMPDEST PUSH1 0x0 PUSH1 0x60 DUP3 ADD SWAP1 POP DUP2 DUP2 SUB PUSH1 0x0 DUP4 ADD MSTORE PUSH3 0x1A90 DUP2 DUP5 PUSH3 0x1697 JUMP JUMPDEST SWAP1 POP DUP2 DUP2 SUB PUSH1 0x20 DUP4 ADD MSTORE PUSH3 0x1AA5 DUP2 PUSH3 0x1726 JUMP JUMPDEST SWAP1 POP DUP2 DUP2 SUB PUSH1 0x40 DUP4 ADD MSTORE PUSH3 0x1ABA DUP2 PUSH3 0x1774 JUMP JUMPDEST SWAP1 POP SWAP3 SWAP2 POP POP JUMP JUMPDEST PUSH1 0x0 PUSH1 0x60 DUP3 ADD SWAP1 POP DUP2 DUP2 SUB PUSH1 0x0 DUP4 ADD MSTORE PUSH3 0x1ADE DUP2 DUP5 PUSH3 0x1697 JUMP JUMPDEST SWAP1 POP DUP2 DUP2 SUB PUSH1 0x20 DUP4 ADD MSTORE PUSH3 0x1AF3 DUP2 PUSH3 0x1837 JUMP JUMPDEST SWAP1 POP DUP2 DUP2 SUB PUSH1 0x40 DUP4 ADD MSTORE PUSH3 0x1B08 DUP2 PUSH3 0x1774 JUMP JUMPDEST SWAP1 POP SWAP3 SWAP2 POP POP JUMP JUMPDEST PUSH1 0x0 PUSH1 0x60 DUP3 ADD SWAP1 POP PUSH3 0x1B27 PUSH1 0x0 DUP4 ADD DUP6 PUSH3 0x185E JUMP JUMPDEST PUSH3 0x1B36 PUSH1 0x20 DUP4 ADD DUP5 PUSH3 0x1664 JUMP JUMPDEST DUP2 DUP2 SUB PUSH1 0x40 DUP4 ADD MSTORE PUSH3 0x1B49 DUP2 PUSH3 0x174D JUMP JUMPDEST SWAP1 POP SWAP4 SWAP3 POP POP POP JUMP JUMPDEST PUSH1 0x0 PUSH1 0x60 DUP3 ADD SWAP1 POP PUSH3 0x1B69 PUSH1 0x0 DUP4 ADD DUP6 PUSH3 0x185E JUMP JUMPDEST PUSH3 0x1B78 PUSH1 0x20 DUP4 ADD DUP5 PUSH3 0x1686 JUMP JUMPDEST DUP2 DUP2 SUB PUSH1 0x40 DUP4 ADD MSTORE PUSH3 0x1B8B DUP2 PUSH3 0x16D8 JUMP JUMPDEST SWAP1 POP SWAP4 SWAP3 POP POP POP JUMP JUMPDEST PUSH1 0x0 PUSH3 0x1BA0 PUSH3 0x1BB3 JUMP JUMPDEST SWAP1 POP PUSH3 0x1BAE DUP3 DUP3 PUSH3 0x1CDC JUMP JUMPDEST SWAP2 SWAP1 POP JUMP JUMPDEST PUSH1 0x0 PUSH1 0x40 MLOAD SWAP1 POP SWAP1 JUMP JUMPDEST PUSH1 0x0 PUSH8 0xFFFFFFFFFFFFFFFF DUP3 GT ISZERO PUSH3 0x1BDB JUMPI PUSH3 0x1BDA PUSH3 0x1D12 JUMP JUMPDEST JUMPDEST PUSH3 0x1BE6 DUP3 PUSH3 0x1D5F JUMP JUMPDEST SWAP1 POP PUSH1 0x20 DUP2 ADD SWAP1 POP SWAP2 SWAP1 POP JUMP JUMPDEST PUSH1 0x0 DUP2 MLOAD SWAP1 POP SWAP2 SWAP1 POP JUMP JUMPDEST PUSH1 0x0 DUP3 DUP3 MSTORE PUSH1 0x20 DUP3 ADD SWAP1 POP SWAP3 SWAP2 POP POP JUMP JUMPDEST PUSH1 0x0 DUP3 DUP3 MSTORE PUSH1 0x20 DUP3 ADD SWAP1 POP SWAP3 SWAP2 POP POP JUMP JUMPDEST PUSH1 0x0 PUSH3 0x1C2D DUP3 PUSH3 0x1C40 JUMP JUMPDEST SWAP1 POP SWAP2 SWAP1 POP JUMP JUMPDEST PUSH1 0x0 DUP2 ISZERO ISZERO SWAP1 POP SWAP2 SWAP1 POP JUMP JUMPDEST PUSH1 0x0 PUSH20 0xFFFFFFFFFFFFFFFFFFFFFFFFFFFFFFFFFFFFFFFF DUP3 AND SWAP1 POP SWAP2 SWAP1 POP JUMP JUMPDEST PUSH1 0x0 DUP2 SWAP1 POP SWAP2 SWAP1 POP JUMP JUMPDEST PUSH1 0x0 PUSH3 0x1C77 DUP3 PUSH3 0x1C60 JUMP JUMPDEST SWAP1 POP SWAP2 SWAP1 POP JUMP JUMPDEST PUSH1 0x0 PUSH3 0x1C8B DUP3 PUSH3 0x1C60 JUMP JUMPDEST SWAP1 POP SWAP2 SWAP1 POP JUMP JUMPDEST PUSH1 0x0 PUSH3 0x1C9F DUP3 PUSH3 0x1C60 JUMP JUMPDEST SWAP1 POP SWAP2 SWAP1 POP JUMP JUMPDEST PUSH1 0x0 JUMPDEST DUP4 DUP2 LT ISZERO PUSH3 0x1CC6 JUMPI DUP1 DUP3 ADD MLOAD DUP2 DUP5 ADD MSTORE PUSH1 0x20 DUP2 ADD SWAP1 POP PUSH3 0x1CA9 JUMP JUMPDEST DUP4 DUP2 GT ISZERO PUSH3 0x1CD6 JUMPI PUSH1 0x0 DUP5 DUP5 ADD MSTORE JUMPDEST POP POP POP POP JUMP JUMPDEST PUSH3 0x1CE7 DUP3 PUSH3 0x1D5F JUMP JUMPDEST DUP2 ADD DUP2 DUP2 LT PUSH8 0xFFFFFFFFFFFFFFFF DUP3 GT OR ISZERO PUSH3 0x1D09 JUMPI PUSH3 0x1D08 PUSH3 0x1D12 JUMP JUMPDEST JUMPDEST DUP1 PUSH1 0x40 MSTORE POP POP POP JUMP JUMPDEST PUSH32 0x4E487B7100000000000000000000000000000000000000000000000000000000 PUSH1 0x0 MSTORE PUSH1 0x41 PUSH1 0x4 MSTORE PUSH1 0x24 PUSH1 0x0 REVERT JUMPDEST PUSH1 0x0 DUP1 REVERT JUMPDEST PUSH1 0x0 DUP1 REVERT JUMPDEST PUSH1 0x0 DUP1 REVERT JUMPDEST PUSH1 0x0 DUP1 REVERT JUMPDEST PUSH1 0x0 DUP1 REVERT JUMPDEST PUSH1 0x0 DUP1 REVERT JUMPDEST PUSH1 0x0 PUSH1 0x1F NOT PUSH1 0x1F DUP4 ADD AND SWAP1 POP SWAP2 SWAP1 POP JUMP JUMPDEST PUSH32 0x4578706563746564203200000000000000000000000000000000000000000000 PUSH1 0x0 DUP3 ADD MSTORE POP JUMP JUMPDEST PUSH32 0x68656C6C6F000000000000000000000000000000000000000000000000000000 PUSH1 0x0 DUP3 ADD MSTORE POP JUMP JUMPDEST PUSH32 0x4578706563746564203100000000000000000000000000000000000000000000 PUSH1 0x0 DUP3 ADD MSTORE POP JUMP JUMPDEST PUSH32 0x436F6E74656E74206D69736D6174636800000000000000000000000000000000 PUSH1 0x0 DUP3 ADD MSTORE POP JUMP JUMPDEST PUSH32 0x546F2041646472657373206D69736D6174636800000000000000000000000000 PUSH1 0x0 DUP3 ADD MSTORE POP JUMP JUMPDEST PUSH32 0x46726F6D2041646472657373206D69736D617463680000000000000000000000 PUSH1 0x0 DUP3 ADD MSTORE POP JUMP JUMPDEST PUSH32 0x4F776E6572206973206E6F742074686520657870656374656400000000000000 PUSH1 0x0 DUP3 ADD MSTORE POP JUMP JUMPDEST PUSH32 0x68656C6C6F313233340000000000000000000000000000000000000000000000 PUSH1 0x0 DUP3 ADD MSTORE POP JUMP JUMPDEST PUSH3 0x1EC3 DUP2 PUSH3 0x1C20 JUMP JUMPDEST DUP2 EQ PUSH3 0x1ECF JUMPI PUSH1 0x0 DUP1 REVERT JUMPDEST POP JUMP JUMPDEST PUSH3 0x1EDD DUP2 PUSH3 0x1C34 JUMP JUMPDEST DUP2 EQ PUSH3 0x1EE9 JUMPI PUSH1 0x0 DUP1 REVERT JUMPDEST POP JUMP JUMPDEST PUSH3 0x1EF7 DUP2 PUSH3 0x1C60 JUMP JUMPDEST DUP2 EQ PUSH3 0x1F03 JUMPI PUSH1 0x0 DUP1 REVERT JUMPDEST POP JUMP INVALID PUSH1 0x80 PUSH1 0x40 MSTORE PUSH1 0x30 PUSH1 0x6 SSTORE CALLVALUE DUP1 ISZERO PUSH3 0x16 JUMPI PUSH1 0x0 DUP1 REVERT JUMPDEST POP PUSH1 0x40 MLOAD DUP1 PUSH1 0x40 ADD PUSH1 0x40 MSTORE DUP1 PUSH1 0xE DUP2 MSTORE PUSH1 0x20 ADD PUSH32 0x506F6C794D736753657276696365000000000000000000000000000000000000 DUP2 MSTORE POP PUSH1 0x40 MLOAD DUP1 PUSH1 0x40 ADD PUSH1 0x40 MSTORE DUP1 PUSH1 0x3 DUP2 MSTORE PUSH1 0x20 ADD PUSH32 0x504D530000000000000000000000000000000000000000000000000000000000 DUP2 MSTORE POP DUP2 PUSH1 0x0 SWAP1 DUP1 MLOAD SWAP1 PUSH1 0x20 ADD SWAP1 PUSH3 0x9B SWAP3 SWAP2 SWAP1 PUSH3 0xBD JUMP JUMPDEST POP DUP1 PUSH1 0x1 SWAP1 DUP1 MLOAD SWAP1 PUSH1 0x20 ADD SWAP1 PUSH3 0xB4 SWAP3 SWAP2 SWAP1 PUSH3 0xBD JUMP JUMPDEST POP POP POP PUSH3 0x1D2 JUMP JUMPDEST DUP3 DUP1 SLOAD PUSH3 0xCB SWAP1 PUSH3 0x16D JUMP JUMPDEST SWAP1 PUSH1 0x0 MSTORE PUSH1 0x20 PUSH1 0x0 KECCAK256 SWAP1 PUSH1 0x1F ADD PUSH1 0x20 SWAP1 DIV DUP2 ADD SWAP3 DUP3 PUSH3 0xEF JUMPI PUSH1 0x0 DUP6 SSTORE PUSH3 0x13B JUMP JUMPDEST DUP3 PUSH1 0x1F LT PUSH3 0x10A JUMPI DUP1 MLOAD PUSH1 0xFF NOT AND DUP4 DUP1 ADD OR DUP6 SSTORE PUSH3 0x13B JUMP JUMPDEST DUP3 DUP1 ADD PUSH1 0x1 ADD DUP6 SSTORE DUP3 ISZERO PUSH3 0x13B JUMPI SWAP2 DUP3 ADD JUMPDEST DUP3 DUP2 GT ISZERO PUSH3 0x13A JUMPI DUP3 MLOAD DUP3 SSTORE SWAP2 PUSH1 0x20 ADD SWAP2 SWAP1 PUSH1 0x1 ADD SWAP1 PUSH3 0x11D JUMP JUMPDEST JUMPDEST POP SWAP1 POP PUSH3 0x14A SWAP2 SWAP1 PUSH3 0x14E JUMP JUMPDEST POP SWAP1 JUMP JUMPDEST JUMPDEST DUP1 DUP3 GT ISZERO PUSH3 0x169 JUMPI PUSH1 0x0 DUP2 PUSH1 0x0 SWAP1 SSTORE POP PUSH1 0x1 ADD PUSH3 0x14F JUMP JUMPDEST POP SWAP1 JUMP JUMPDEST PUSH1 0x0 PUSH1 0x2 DUP3 DIV SWAP1 POP PUSH1 0x1 DUP3 AND DUP1 PUSH3 0x186 JUMPI PUSH1 0x7F DUP3 AND SWAP2 POP JUMPDEST PUSH1 0x20 DUP3 LT DUP2 EQ ISZERO PUSH3 0x19D JUMPI PUSH3 0x19C PUSH3 0x1A3 JUMP JUMPDEST JUMPDEST POP SWAP2 SWAP1 POP JUMP JUMPDEST PUSH32 0x4E487B7100000000000000000000000000000000000000000000000000000000 PUSH1 0x0 MSTORE PUSH1 0x22 PUSH1 0x4 MSTORE PUSH1 0x24 PUSH1 0x0 REVERT JUMPDEST PUSH2 0x52BC DUP1 PUSH3 0x1E2 PUSH1 0x0 CODECOPY PUSH1 0x0 RETURN INVALID PUSH1 0x80 PUSH1 0x40 MSTORE CALLVALUE DUP1 ISZERO PUSH2 0x10 JUMPI PUSH1 0x0 DUP1 REVERT JUMPDEST POP PUSH1 0x4 CALLDATASIZE LT PUSH2 0x116 JUMPI PUSH1 0x0 CALLDATALOAD PUSH1 0xE0 SHR DUP1 PUSH4 0x70A08231 GT PUSH2 0xA2 JUMPI DUP1 PUSH4 0xAD75C91D GT PUSH2 0x71 JUMPI DUP1 PUSH4 0xAD75C91D EQ PUSH2 0x305 JUMPI DUP1 PUSH4 0xB88D4FDE EQ PUSH2 0x335 JUMPI DUP1 PUSH4 0xC87B56DD EQ PUSH2 0x351 JUMPI DUP1 PUSH4 0xD088DB40 EQ PUSH2 0x381 JUMPI DUP1 PUSH4 0xE985E9C5 EQ PUSH2 0x39D JUMPI PUSH2 0x116 JUMP JUMPDEST DUP1 PUSH4 0x70A08231 EQ PUSH2 0x27D JUMPI DUP1 PUSH4 0x8ADA066E EQ PUSH2 0x2AD JUMPI DUP1 PUSH4 0x95D89B41 EQ PUSH2 0x2CB JUMPI DUP1 PUSH4 0xA22CB465 EQ PUSH2 0x2E9 JUMPI PUSH2 0x116 JUMP JUMPDEST DUP1 PUSH4 0x95EA7B3 GT PUSH2 0xE9 JUMPI DUP1 PUSH4 0x95EA7B3 EQ PUSH2 0x1C9 JUMPI DUP1 PUSH4 0x17902601 EQ PUSH2 0x1E5 JUMPI DUP1 PUSH4 0x23B872DD EQ PUSH2 0x215 JUMPI DUP1 PUSH4 0x42842E0E EQ PUSH2 0x231 JUMPI DUP1 PUSH4 0x6352211E EQ PUSH2 0x24D JUMPI PUSH2 0x116 JUMP JUMPDEST DUP1 PUSH4 0x1FFC9A7 EQ PUSH2 0x11B JUMPI DUP1 PUSH4 0x4397A9E EQ PUSH2 0x14B JUMPI DUP1 PUSH4 0x6FDDE03 EQ PUSH2 0x17B JUMPI DUP1 PUSH4 0x81812FC EQ PUSH2 0x199 JUMPI JUMPDEST PUSH1 0x0 DUP1 REVERT JUMPDEST PUSH2 0x135 PUSH1 0x4 DUP1 CALLDATASIZE SUB DUP2 ADD SWAP1 PUSH2 0x130 SWAP2 SWAP1 PUSH2 0x2D05 JUMP JUMPDEST PUSH2 0x3CD JUMP JUMPDEST PUSH1 0x40 MLOAD PUSH2 0x142 SWAP2 SWAP1 PUSH2 0x3875 JUMP JUMPDEST PUSH1 0x40 MLOAD DUP1 SWAP2 SUB SWAP1 RETURN JUMPDEST PUSH2 0x165 PUSH1 0x4 DUP1 CALLDATASIZE SUB DUP2 ADD SWAP1 PUSH2 0x160 SWAP2 SWAP1 PUSH2 0x2AE6 JUMP JUMPDEST PUSH2 0x4AF JUMP JUMPDEST PUSH1 0x40 MLOAD PUSH2 0x172 SWAP2 SWAP1 PUSH2 0x3A94 JUMP JUMPDEST PUSH1 0x40 MLOAD DUP1 SWAP2 SUB SWAP1 RETURN JUMPDEST PUSH2 0x183 PUSH2 0x4F8 JUMP JUMPDEST PUSH1 0x40 MLOAD PUSH2 0x190 SWAP2 SWAP1 PUSH2 0x3890 JUMP JUMPDEST PUSH1 0x40 MLOAD DUP1 SWAP2 SUB SWAP1 RETURN JUMPDEST PUSH2 0x1B3 PUSH1 0x4 DUP1 CALLDATASIZE SUB DUP2 ADD SWAP1 PUSH2 0x1AE SWAP2 SWAP1 PUSH2 0x2D5F JUMP JUMPDEST PUSH2 0x58A JUMP JUMPDEST PUSH1 0x40 MLOAD PUSH2 0x1C0 SWAP2 SWAP1 PUSH2 0x380E JUMP JUMPDEST PUSH1 0x40 MLOAD DUP1 SWAP2 SUB SWAP1 RETURN JUMPDEST PUSH2 0x1E3 PUSH1 0x4 DUP1 CALLDATASIZE SUB DUP2 ADD SWAP1 PUSH2 0x1DE SWAP2 SWAP1 PUSH2 0x2CC5 JUMP JUMPDEST PUSH2 0x5D0 JUMP JUMPDEST STOP JUMPDEST PUSH2 0x1FF PUSH1 0x4 DUP1 CALLDATASIZE SUB DUP2 ADD SWAP1 PUSH2 0x1FA SWAP2 SWAP1 PUSH2 0x2D5F JUMP JUMPDEST PUSH2 0x6E8 JUMP JUMPDEST PUSH1 0x40 MLOAD PUSH2 0x20C SWAP2 SWAP1 PUSH2 0x3A72 JUMP JUMPDEST PUSH1 0x40 MLOAD DUP1 SWAP2 SUB SWAP1 RETURN JUMPDEST PUSH2 0x22F PUSH1 0x4 DUP1 CALLDATASIZE SUB DUP2 ADD SWAP1 PUSH2 0x22A SWAP2 SWAP1 PUSH2 0x2B53 JUMP JUMPDEST PUSH2 0x853 JUMP JUMPDEST STOP JUMPDEST PUSH2 0x24B PUSH1 0x4 DUP1 CALLDATASIZE SUB DUP2 ADD SWAP1 PUSH2 0x246 SWAP2 SWAP1 PUSH2 0x2B53 JUMP JUMPDEST PUSH2 0x8B3 JUMP JUMPDEST STOP JUMPDEST PUSH2 0x267 PUSH1 0x4 DUP1 CALLDATASIZE SUB DUP2 ADD SWAP1 PUSH2 0x262 SWAP2 SWAP1 PUSH2 0x2D5F JUMP JUMPDEST PUSH2 0x8D3 JUMP JUMPDEST PUSH1 0x40 MLOAD PUSH2 0x274 SWAP2 SWAP1 PUSH2 0x380E JUMP JUMPDEST PUSH1 0x40 MLOAD DUP1 SWAP2 SUB SWAP1 RETURN JUMPDEST PUSH2 0x297 PUSH1 0x4 DUP1 CALLDATASIZE SUB DUP2 ADD SWAP1 PUSH2 0x292 SWAP2 SWAP1 PUSH2 0x2AE6 JUMP JUMPDEST PUSH2 0x95A JUMP JUMPDEST PUSH1 0x40 MLOAD PUSH2 0x2A4 SWAP2 SWAP1 PUSH2 0x3A94 JUMP JUMPDEST PUSH1 0x40 MLOAD DUP1 SWAP2 SUB SWAP1 RETURN JUMPDEST PUSH2 0x2B5 PUSH2 0xA12 JUMP JUMPDEST PUSH1 0x40 MLOAD PUSH2 0x2C2 SWAP2 SWAP1 PUSH2 0x3A94 JUMP JUMPDEST PUSH1 0x40 MLOAD DUP1 SWAP2 SUB SWAP1 RETURN JUMPDEST PUSH2 0x2D3 PUSH2 0xA1C JUMP JUMPDEST PUSH1 0x40 MLOAD PUSH2 0x2E0 SWAP2 SWAP1 PUSH2 0x3890 JUMP JUMPDEST PUSH1 0x40 MLOAD DUP1 SWAP2 SUB SWAP1 RETURN JUMPDEST PUSH2 0x303 PUSH1 0x4 DUP1 CALLDATASIZE SUB DUP2 ADD SWAP1 PUSH2 0x2FE SWAP2 SWAP1 PUSH2 0x2C29 JUMP JUMPDEST PUSH2 0xAAE JUMP JUMPDEST STOP JUMPDEST PUSH2 0x31F PUSH1 0x4 DUP1 CALLDATASIZE SUB DUP2 ADD SWAP1 PUSH2 0x31A SWAP2 SWAP1 PUSH2 0x2CC5 JUMP JUMPDEST PUSH2 0xAC4 JUMP JUMPDEST PUSH1 0x40 MLOAD PUSH2 0x32C SWAP2 SWAP1 PUSH2 0x3A94 JUMP JUMPDEST PUSH1 0x40 MLOAD DUP1 SWAP2 SUB SWAP1 RETURN JUMPDEST PUSH2 0x34F PUSH1 0x4 DUP1 CALLDATASIZE SUB DUP2 ADD SWAP1 PUSH2 0x34A SWAP2 SWAP1 PUSH2 0x2BA6 JUMP JUMPDEST PUSH2 0xB1F JUMP JUMPDEST STOP JUMPDEST PUSH2 0x36B PUSH1 0x4 DUP1 CALLDATASIZE SUB DUP2 ADD SWAP1 PUSH2 0x366 SWAP2 SWAP1 PUSH2 0x2D5F JUMP JUMPDEST PUSH2 0xB81 JUMP JUMPDEST PUSH1 0x40 MLOAD PUSH2 0x378 SWAP2 SWAP1 PUSH2 0x3890 JUMP JUMPDEST PUSH1 0x40 MLOAD DUP1 SWAP2 SUB SWAP1 RETURN JUMPDEST PUSH2 0x39B PUSH1 0x4 DUP1 CALLDATASIZE SUB DUP2 ADD SWAP1 PUSH2 0x396 SWAP2 SWAP1 PUSH2 0x2C69 JUMP JUMPDEST PUSH2 0xC16 JUMP JUMPDEST STOP JUMPDEST PUSH2 0x3B7 PUSH1 0x4 DUP1 CALLDATASIZE SUB DUP2 ADD SWAP1 PUSH2 0x3B2 SWAP2 SWAP1 PUSH2 0x2B13 JUMP JUMPDEST PUSH2 0xCA9 JUMP JUMPDEST PUSH1 0x40 MLOAD PUSH2 0x3C4 SWAP2 SWAP1 PUSH2 0x3875 JUMP JUMPDEST PUSH1 0x40 MLOAD DUP1 SWAP2 SUB SWAP1 RETURN JUMPDEST PUSH1 0x0 PUSH32 0x80AC58CD00000000000000000000000000000000000000000000000000000000 PUSH28 0xFFFFFFFFFFFFFFFFFFFFFFFFFFFFFFFFFFFFFFFFFFFFFFFFFFFFFFFF NOT AND DUP3 PUSH28 0xFFFFFFFFFFFFFFFFFFFFFFFFFFFFFFFFFFFFFFFFFFFFFFFFFFFFFFFF NOT AND EQ DUP1 PUSH2 0x498 JUMPI POP PUSH32 0x5B5E139F00000000000000000000000000000000000000000000000000000000 PUSH28 0xFFFFFFFFFFFFFFFFFFFFFFFFFFFFFFFFFFFFFFFFFFFFFFFFFFFFFFFF NOT AND DUP3 PUSH28 0xFFFFFFFFFFFFFFFFFFFFFFFFFFFFFFFFFFFFFFFFFFFFFFFFFFFFFFFF NOT AND EQ JUMPDEST DUP1 PUSH2 0x4A8 JUMPI POP PUSH2 0x4A7 DUP3 PUSH2 0xD3D JUMP JUMPDEST JUMPDEST SWAP1 POP SWAP2 SWAP1 POP JUMP JUMPDEST PUSH1 0x0 PUSH1 0x9 PUSH1 0x0 DUP4 PUSH20 0xFFFFFFFFFFFFFFFFFFFFFFFFFFFFFFFFFFFFFFFF AND PUSH20 0xFFFFFFFFFFFFFFFFFFFFFFFFFFFFFFFFFFFFFFFF AND DUP2 MSTORE PUSH1 0x20 ADD SWAP1 DUP2 MSTORE PUSH1 0x20 ADD PUSH1 0x0 KECCAK256 SLOAD SWAP1 POP SWAP2 SWAP1 POP JUMP JUMPDEST PUSH1 0x60 PUSH1 0x0 DUP1 SLOAD PUSH2 0x507 SWAP1 PUSH2 0x3D7F JUMP JUMPDEST DUP1 PUSH1 0x1F ADD PUSH1 0x20 DUP1 SWAP2 DIV MUL PUSH1 0x20 ADD PUSH1 0x40 MLOAD SWAP1 DUP2 ADD PUSH1 0x40 MSTORE DUP1 SWAP3 SWAP2 SWAP1 DUP2 DUP2 MSTORE PUSH1 0x20 ADD DUP3 DUP1 SLOAD PUSH2 0x533 SWAP1 PUSH2 0x3D7F JUMP JUMPDEST DUP1 ISZERO PUSH2 0x580 JUMPI DUP1 PUSH1 0x1F LT PUSH2 0x555 JUMPI PUSH2 0x100 DUP1 DUP4 SLOAD DIV MUL DUP4 MSTORE SWAP2 PUSH1 0x20 ADD SWAP2 PUSH2 0x580 JUMP JUMPDEST DUP3 ADD SWAP2 SWAP1 PUSH1 0x0 MSTORE PUSH1 0x20 PUSH1 0x0 KECCAK256 SWAP1 JUMPDEST DUP2 SLOAD DUP2 MSTORE SWAP1 PUSH1 0x1 ADD SWAP1 PUSH1 0x20 ADD DUP1 DUP4 GT PUSH2 0x563 JUMPI DUP3 SWAP1 SUB PUSH1 0x1F AND DUP3 ADD SWAP2 JUMPDEST POP POP POP POP POP SWAP1 POP SWAP1 JUMP JUMPDEST PUSH1 0x0 PUSH2 0x595 DUP3 PUSH2 0xDA7 JUMP JUMPDEST PUSH1 0x4 PUSH1 0x0 DUP4 DUP2 MSTORE PUSH1 0x20 ADD SWAP1 DUP2 MSTORE PUSH1 0x20 ADD PUSH1 0x0 KECCAK256 PUSH1 0x0 SWAP1 SLOAD SWAP1 PUSH2 0x100 EXP SWAP1 DIV PUSH20 0xFFFFFFFFFFFFFFFFFFFFFFFFFFFFFFFFFFFFFFFF AND SWAP1 POP SWAP2 SWAP1 POP JUMP JUMPDEST PUSH1 0x0 PUSH2 0x5DB DUP3 PUSH2 0x8D3 JUMP JUMPDEST SWAP1 POP DUP1 PUSH20 0xFFFFFFFFFFFFFFFFFFFFFFFFFFFFFFFFFFFFFFFF AND DUP4 PUSH20 0xFFFFFFFFFFFFFFFFFFFFFFFFFFFFFFFFFFFFFFFF AND EQ ISZERO PUSH2 0x64C JUMPI PUSH1 0x40 MLOAD PUSH32 0x8C379A000000000000000000000000000000000000000000000000000000000 DUP2 MSTORE PUSH1 0x4 ADD PUSH2 0x643 SWAP1 PUSH2 0x3A32 JUMP JUMPDEST PUSH1 0x40 MLOAD DUP1 SWAP2 SUB SWAP1 REVERT JUMPDEST DUP1 PUSH20 0xFFFFFFFFFFFFFFFFFFFFFFFFFFFFFFFFFFFFFFFF AND PUSH2 0x66B PUSH2 0xDF2 JUMP JUMPDEST PUSH20 0xFFFFFFFFFFFFFFFFFFFFFFFFFFFFFFFFFFFFFFFF AND EQ DUP1 PUSH2 0x69A JUMPI POP PUSH2 0x699 DUP2 PUSH2 0x694 PUSH2 0xDF2 JUMP JUMPDEST PUSH2 0xCA9 JUMP JUMPDEST JUMPDEST PUSH2 0x6D9 JUMPI PUSH1 0x40 MLOAD PUSH32 0x8C379A000000000000000000000000000000000000000000000000000000000 DUP2 MSTORE PUSH1 0x4 ADD PUSH2 0x6D0 SWAP1 PUSH2 0x3A52 JUMP JUMPDEST PUSH1 0x40 MLOAD DUP1 SWAP2 SUB SWAP1 REVERT JUMPDEST PUSH2 0x6E3 DUP4 DUP4 PUSH2 0xDFA JUMP JUMPDEST POP POP POP JUMP JUMPDEST PUSH2 0x6F0 PUSH2 0x28AD JUMP JUMPDEST PUSH1 0xA PUSH1 0x0 DUP4 DUP2 MSTORE PUSH1 0x20 ADD SWAP1 DUP2 MSTORE PUSH1 0x20 ADD PUSH1 0x0 KECCAK256 PUSH1 0x40 MLOAD DUP1 PUSH1 0x60 ADD PUSH1 0x40 MSTORE SWAP1 DUP2 PUSH1 0x0 DUP3 ADD PUSH1 0x0 SWAP1 SLOAD SWAP1 PUSH2 0x100 EXP SWAP1 DIV PUSH20 0xFFFFFFFFFFFFFFFFFFFFFFFFFFFFFFFFFFFFFFFF AND PUSH20 0xFFFFFFFFFFFFFFFFFFFFFFFFFFFFFFFFFFFFFFFF AND PUSH20 0xFFFFFFFFFFFFFFFFFFFFFFFFFFFFFFFFFFFFFFFF AND DUP2 MSTORE PUSH1 0x20 ADD PUSH1 0x1 DUP3 ADD PUSH1 0x0 SWAP1 SLOAD SWAP1 PUSH2 0x100 EXP SWAP1 DIV PUSH20 0xFFFFFFFFFFFFFFFFFFFFFFFFFFFFFFFFFFFFFFFF AND PUSH20 0xFFFFFFFFFFFFFFFFFFFFFFFFFFFFFFFFFFFFFFFF AND PUSH20 0xFFFFFFFFFFFFFFFFFFFFFFFFFFFFFFFFFFFFFFFF AND DUP2 MSTORE PUSH1 0x20 ADD PUSH1 0x2 DUP3 ADD DUP1 SLOAD PUSH2 0x7CA SWAP1 PUSH2 0x3D7F JUMP JUMPDEST DUP1 PUSH1 0x1F ADD PUSH1 0x20 DUP1 SWAP2 DIV MUL PUSH1 0x20 ADD PUSH1 0x40 MLOAD SWAP1 DUP2 ADD PUSH1 0x40 MSTORE DUP1 SWAP3 SWAP2 SWAP1 DUP2 DUP2 MSTORE PUSH1 0x20 ADD DUP3 DUP1 SLOAD PUSH2 0x7F6 SWAP1 PUSH2 0x3D7F JUMP JUMPDEST DUP1 ISZERO PUSH2 0x843 JUMPI DUP1 PUSH1 0x1F LT PUSH2 0x818 JUMPI PUSH2 0x100 DUP1 DUP4 SLOAD DIV MUL DUP4 MSTORE SWAP2 PUSH1 0x20 ADD SWAP2 PUSH2 0x843 JUMP JUMPDEST DUP3 ADD SWAP2 SWAP1 PUSH1 0x0 MSTORE PUSH1 0x20 PUSH1 0x0 KECCAK256 SWAP1 JUMPDEST DUP2 SLOAD DUP2 MSTORE SWAP1 PUSH1 0x1 ADD SWAP1 PUSH1 0x20 ADD DUP1 DUP4 GT PUSH2 0x826 JUMPI DUP3 SWAP1 SUB PUSH1 0x1F AND DUP3 ADD SWAP2 JUMPDEST POP POP POP POP POP DUP2 MSTORE POP POP SWAP1 POP SWAP2 SWAP1 POP JUMP JUMPDEST PUSH2 0x864 PUSH2 0x85E PUSH2 0xDF2 JUMP JUMPDEST DUP3 PUSH2 0xEB3 JUMP JUMPDEST PUSH2 0x8A3 JUMPI PUSH1 0x40 MLOAD PUSH32 0x8C379A000000000000000000000000000000000000000000000000000000000 DUP2 MSTORE PUSH1 0x4 ADD PUSH2 0x89A SWAP1 PUSH2 0x38D2 JUMP JUMPDEST PUSH1 0x40 MLOAD DUP1 SWAP2 SUB SWAP1 REVERT JUMPDEST PUSH2 0x8AE DUP4 DUP4 DUP4 PUSH2 0xF48 JUMP JUMPDEST POP POP POP JUMP JUMPDEST PUSH2 0x8CE DUP4 DUP4 DUP4 PUSH1 0x40 MLOAD DUP1 PUSH1 0x20 ADD PUSH1 0x40 MSTORE DUP1 PUSH1 0x0 DUP2 MSTORE POP PUSH2 0xB1F JUMP JUMPDEST POP POP POP JUMP JUMPDEST PUSH1 0x0 DUP1 PUSH2 0x8DF DUP4 PUSH2 0x1242 JUMP JUMPDEST SWAP1 POP PUSH1 0x0 PUSH20 0xFFFFFFFFFFFFFFFFFFFFFFFFFFFFFFFFFFFFFFFF AND DUP2 PUSH20 0xFFFFFFFFFFFFFFFFFFFFFFFFFFFFFFFFFFFFFFFF AND EQ ISZERO PUSH2 0x951 JUMPI PUSH1 0x40 MLOAD PUSH32 0x8C379A000000000000000000000000000000000000000000000000000000000 DUP2 MSTORE PUSH1 0x4 ADD PUSH2 0x948 SWAP1 PUSH2 0x3A12 JUMP JUMPDEST PUSH1 0x40 MLOAD DUP1 SWAP2 SUB SWAP1 REVERT JUMPDEST DUP1 SWAP2 POP POP SWAP2 SWAP1 POP JUMP JUMPDEST PUSH1 0x0 DUP1 PUSH20 0xFFFFFFFFFFFFFFFFFFFFFFFFFFFFFFFFFFFFFFFF AND DUP3 PUSH20 0xFFFFFFFFFFFFFFFFFFFFFFFFFFFFFFFFFFFFFFFF AND EQ ISZERO PUSH2 0x9CB JUMPI PUSH1 0x40 MLOAD PUSH32 0x8C379A000000000000000000000000000000000000000000000000000000000 DUP2 MSTORE PUSH1 0x4 ADD PUSH2 0x9C2 SWAP1 PUSH2 0x39D2 JUMP JUMPDEST PUSH1 0x40 MLOAD DUP1 SWAP2 SUB SWAP1 REVERT JUMPDEST PUSH1 0x3 PUSH1 0x0 DUP4 PUSH20 0xFFFFFFFFFFFFFFFFFFFFFFFFFFFFFFFFFFFFFFFF AND PUSH20 0xFFFFFFFFFFFFFFFFFFFFFFFFFFFFFFFFFFFFFFFF AND DUP2 MSTORE PUSH1 0x20 ADD SWAP1 DUP2 MSTORE PUSH1 0x20 ADD PUSH1 0x0 KECCAK256 SLOAD SWAP1 POP SWAP2 SWAP1 POP JUMP JUMPDEST PUSH1 0x0 PUSH1 0x7 SLOAD SWAP1 POP SWAP1 JUMP JUMPDEST PUSH1 0x60 PUSH1 0x1 DUP1 SLOAD PUSH2 0xA2B SWAP1 PUSH2 0x3D7F JUMP JUMPDEST DUP1 PUSH1 0x1F ADD PUSH1 0x20 DUP1 SWAP2 DIV MUL PUSH1 0x20 ADD PUSH1 0x40 MLOAD SWAP1 DUP2 ADD PUSH1 0x40 MSTORE DUP1 SWAP3 SWAP2 SWAP1 DUP2 DUP2 MSTORE PUSH1 0x20 ADD DUP3 DUP1 SLOAD PUSH2 0xA57 SWAP1 PUSH2 0x3D7F JUMP JUMPDEST DUP1 ISZERO PUSH2 0xAA4 JUMPI DUP1 PUSH1 0x1F LT PUSH2 0xA79 JUMPI PUSH2 0x100 DUP1 DUP4 SLOAD DIV MUL DUP4 MSTORE SWAP2 PUSH1 0x20 ADD SWAP2 PUSH2 0xAA4 JUMP JUMPDEST DUP3 ADD SWAP2 SWAP1 PUSH1 0x0 MSTORE PUSH1 0x20 PUSH1 0x0 KECCAK256 SWAP1 JUMPDEST DUP2 SLOAD DUP2 MSTORE SWAP1 PUSH1 0x1 ADD SWAP1 PUSH1 0x20 ADD DUP1 DUP4 GT PUSH2 0xA87 JUMPI DUP3 SWAP1 SUB PUSH1 0x1F AND DUP3 ADD SWAP2 JUMPDEST POP POP POP POP POP SWAP1 POP SWAP1 JUMP JUMPDEST PUSH2 0xAC0 PUSH2 0xAB9 PUSH2 0xDF2 JUMP JUMPDEST DUP4 DUP4 PUSH2 0x127F JUMP JUMPDEST POP POP JUMP JUMPDEST PUSH1 0x0 PUSH1 0x8 PUSH1 0x0 DUP5 PUSH20 0xFFFFFFFFFFFFFFFFFFFFFFFFFFFFFFFFFFFFFFFF AND PUSH20 0xFFFFFFFFFFFFFFFFFFFFFFFFFFFFFFFFFFFFFFFF AND DUP2 MSTORE PUSH1 0x20 ADD SWAP1 DUP2 MSTORE PUSH1 0x20 ADD PUSH1 0x0 KECCAK256 PUSH1 0x0 DUP4 DUP2 MSTORE PUSH1 0x20 ADD SWAP1 DUP2 MSTORE PUSH1 0x20 ADD PUSH1 0x0 KECCAK256 SLOAD SWAP1 POP SWAP3 SWAP2 POP POP JUMP JUMPDEST PUSH2 0xB30 PUSH2 0xB2A PUSH2 0xDF2 JUMP JUMPDEST DUP4 PUSH2 0xEB3 JUMP JUMPDEST PUSH2 0xB6F JUMPI PUSH1 0x40 MLOAD PUSH32 0x8C379A000000000000000000000000000000000000000000000000000000000 DUP2 MSTORE PUSH1 0x4 ADD PUSH2 0xB66 SWAP1 PUSH2 0x38D2 JUMP JUMPDEST PUSH1 0x40 MLOAD DUP1 SWAP2 SUB SWAP1 REVERT JUMPDEST PUSH2 0xB7B DUP5 DUP5 DUP5 DUP5 PUSH2 0x13EC JUMP JUMPDEST POP POP POP POP JUMP JUMPDEST PUSH1 0x60 PUSH1 0x0 PUSH2 0xB8E DUP4 PUSH2 0x1448 JUMP JUMPDEST PUSH1 0x40 MLOAD PUSH1 0x20 ADD PUSH2 0xB9E SWAP2 SWAP1 PUSH2 0x34D9 JUMP JUMPDEST PUSH1 0x40 MLOAD PUSH1 0x20 DUP2 DUP4 SUB SUB DUP2 MSTORE SWAP1 PUSH1 0x40 MSTORE SWAP1 POP PUSH1 0x0 PUSH2 0xBBA DUP5 PUSH2 0x19C4 JUMP JUMPDEST PUSH2 0xBC3 DUP4 PUSH2 0x1A9C JUMP JUMPDEST PUSH1 0x40 MLOAD PUSH1 0x20 ADD PUSH2 0xBD4 SWAP3 SWAP2 SWAP1 PUSH2 0x3786 JUMP JUMPDEST PUSH1 0x40 MLOAD PUSH1 0x20 DUP2 DUP4 SUB SUB DUP2 MSTORE SWAP1 PUSH1 0x40 MSTORE SWAP1 POP PUSH2 0xBEE DUP2 PUSH2 0x1A9C JUMP JUMPDEST PUSH1 0x40 MLOAD PUSH1 0x20 ADD PUSH2 0xBFE SWAP2 SWAP1 PUSH2 0x37EC JUMP JUMPDEST PUSH1 0x40 MLOAD PUSH1 0x20 DUP2 DUP4 SUB SUB DUP2 MSTORE SWAP1 PUSH1 0x40 MSTORE SWAP3 POP POP POP SWAP2 SWAP1 POP JUMP JUMPDEST PUSH2 0x2A0 DUP2 MLOAD LT PUSH2 0xC5B JUMPI PUSH1 0x40 MLOAD PUSH32 0x8C379A000000000000000000000000000000000000000000000000000000000 DUP2 MSTORE PUSH1 0x4 ADD PUSH2 0xC52 SWAP1 PUSH2 0x38F2 JUMP JUMPDEST PUSH1 0x40 MLOAD DUP1 SWAP2 SUB SWAP1 REVERT JUMPDEST PUSH2 0xC66 CALLER DUP4 DUP4 PUSH2 0x1C00 JUMP JUMPDEST PUSH2 0xCA5 JUMPI PUSH1 0x40 MLOAD PUSH32 0x8C379A000000000000000000000000000000000000000000000000000000000 DUP2 MSTORE PUSH1 0x4 ADD PUSH2 0xC9C SWAP1 PUSH2 0x3932 JUMP JUMPDEST PUSH1 0x40 MLOAD DUP1 SWAP2 SUB SWAP1 REVERT JUMPDEST POP POP JUMP JUMPDEST PUSH1 0x0 PUSH1 0x5 PUSH1 0x0 DUP5 PUSH20 0xFFFFFFFFFFFFFFFFFFFFFFFFFFFFFFFFFFFFFFFF AND PUSH20 0xFFFFFFFFFFFFFFFFFFFFFFFFFFFFFFFFFFFFFFFF AND DUP2 MSTORE PUSH1 0x20 ADD SWAP1 DUP2 MSTORE PUSH1 0x20 ADD PUSH1 0x0 KECCAK256 PUSH1 0x0 DUP4 PUSH20 0xFFFFFFFFFFFFFFFFFFFFFFFFFFFFFFFFFFFFFFFF AND PUSH20 0xFFFFFFFFFFFFFFFFFFFFFFFFFFFFFFFFFFFFFFFF AND DUP2 MSTORE PUSH1 0x20 ADD SWAP1 DUP2 MSTORE PUSH1 0x20 ADD PUSH1 0x0 KECCAK256 PUSH1 0x0 SWAP1 SLOAD SWAP1 PUSH2 0x100 EXP SWAP1 DIV PUSH1 0xFF AND SWAP1 POP SWAP3 SWAP2 POP POP JUMP JUMPDEST PUSH1 0x0 PUSH32 0x1FFC9A700000000000000000000000000000000000000000000000000000000 PUSH28 0xFFFFFFFFFFFFFFFFFFFFFFFFFFFFFFFFFFFFFFFFFFFFFFFFFFFFFFFF NOT AND DUP3 PUSH28 0xFFFFFFFFFFFFFFFFFFFFFFFFFFFFFFFFFFFFFFFFFFFFFFFFFFFFFFFF NOT AND EQ SWAP1 POP SWAP2 SWAP1 POP JUMP JUMPDEST PUSH2 0xDB0 DUP2 PUSH2 0x1E37 JUMP JUMPDEST PUSH2 0xDEF JUMPI PUSH1 0x40 MLOAD PUSH32 0x8C379A000000000000000000000000000000000000000000000000000000000 DUP2 MSTORE PUSH1 0x4 ADD PUSH2 0xDE6 SWAP1 PUSH2 0x3A12 JUMP JUMPDEST PUSH1 0x40 MLOAD DUP1 SWAP2 SUB SWAP1 REVERT JUMPDEST POP JUMP JUMPDEST PUSH1 0x0 CALLER SWAP1 POP SWAP1 JUMP JUMPDEST DUP2 PUSH1 0x4 PUSH1 0x0 DUP4 DUP2 MSTORE PUSH1 0x20 ADD SWAP1 DUP2 MSTORE PUSH1 0x20 ADD PUSH1 0x0 KECCAK256 PUSH1 0x0 PUSH2 0x100 EXP DUP2 SLOAD DUP2 PUSH20 0xFFFFFFFFFFFFFFFFFFFFFFFFFFFFFFFFFFFFFFFF MUL NOT AND SWAP1 DUP4 PUSH20 0xFFFFFFFFFFFFFFFFFFFFFFFFFFFFFFFFFFFFFFFF AND MUL OR SWAP1 SSTORE POP DUP1 DUP3 PUSH20 0xFFFFFFFFFFFFFFFFFFFFFFFFFFFFFFFFFFFFFFFF AND PUSH2 0xE6D DUP4 PUSH2 0x8D3 JUMP JUMPDEST PUSH20 0xFFFFFFFFFFFFFFFFFFFFFFFFFFFFFFFFFFFFFFFF AND PUSH32 0x8C5BE1E5EBEC7D5BD14F71427D1E84F3DD0314C0F7B2291E5B200AC8C7C3B925 PUSH1 0x40 MLOAD PUSH1 0x40 MLOAD DUP1 SWAP2 SUB SWAP1 LOG4 POP POP JUMP JUMPDEST PUSH1 0x0 DUP1 PUSH2 0xEBF DUP4 PUSH2 0x8D3 JUMP JUMPDEST SWAP1 POP DUP1 PUSH20 0xFFFFFFFFFFFFFFFFFFFFFFFFFFFFFFFFFFFFFFFF AND DUP5 PUSH20 0xFFFFFFFFFFFFFFFFFFFFFFFFFFFFFFFFFFFFFFFF AND EQ DUP1 PUSH2 0xF01 JUMPI POP PUSH2 0xF00 DUP2 DUP6 PUSH2 0xCA9 JUMP JUMPDEST JUMPDEST DUP1 PUSH2 0xF3F JUMPI POP DUP4 PUSH20 0xFFFFFFFFFFFFFFFFFFFFFFFFFFFFFFFFFFFFFFFF AND PUSH2 0xF27 DUP5 PUSH2 0x58A JUMP JUMPDEST PUSH20 0xFFFFFFFFFFFFFFFFFFFFFFFFFFFFFFFFFFFFFFFF AND EQ JUMPDEST SWAP2 POP POP SWAP3 SWAP2 POP POP JUMP JUMPDEST DUP3 PUSH20 0xFFFFFFFFFFFFFFFFFFFFFFFFFFFFFFFFFFFFFFFF AND PUSH2 0xF68 DUP3 PUSH2 0x8D3 JUMP JUMPDEST PUSH20 0xFFFFFFFFFFFFFFFFFFFFFFFFFFFFFFFFFFFFFFFF AND EQ PUSH2 0xFBE JUMPI PUSH1 0x40 MLOAD PUSH32 0x8C379A000000000000000000000000000000000000000000000000000000000 DUP2 MSTORE PUSH1 0x4 ADD PUSH2 0xFB5 SWAP1 PUSH2 0x3952 JUMP JUMPDEST PUSH1 0x40 MLOAD DUP1 SWAP2 SUB SWAP1 REVERT JUMPDEST PUSH1 0x0 PUSH20 0xFFFFFFFFFFFFFFFFFFFFFFFFFFFFFFFFFFFFFFFF AND DUP3 PUSH20 0xFFFFFFFFFFFFFFFFFFFFFFFFFFFFFFFFFFFFFFFF AND EQ ISZERO PUSH2 0x102E JUMPI PUSH1 0x40 MLOAD PUSH32 0x8C379A000000000000000000000000000000000000000000000000000000000 DUP2 MSTORE PUSH1 0x4 ADD PUSH2 0x1025 SWAP1 PUSH2 0x3992 JUMP JUMPDEST PUSH1 0x40 MLOAD DUP1 SWAP2 SUB SWAP1 REVERT JUMPDEST PUSH2 0x103B DUP4 DUP4 DUP4 PUSH1 0x1 PUSH2 0x1E78 JUMP JUMPDEST DUP3 PUSH20 0xFFFFFFFFFFFFFFFFFFFFFFFFFFFFFFFFFFFFFFFF AND PUSH2 0x105B DUP3 PUSH2 0x8D3 JUMP JUMPDEST PUSH20 0xFFFFFFFFFFFFFFFFFFFFFFFFFFFFFFFFFFFFFFFF AND EQ PUSH2 0x10B1 JUMPI PUSH1 0x40 MLOAD PUSH32 0x8C379A000000000000000000000000000000000000000000000000000000000 DUP2 MSTORE PUSH1 0x4 ADD PUSH2 0x10A8 SWAP1 PUSH2 0x3952 JUMP JUMPDEST PUSH1 0x40 MLOAD DUP1 SWAP2 SUB SWAP1 REVERT JUMPDEST PUSH1 0x4 PUSH1 0x0 DUP3 DUP2 MSTORE PUSH1 0x20 ADD SWAP1 DUP2 MSTORE PUSH1 0x20 ADD PUSH1 0x0 KECCAK256 PUSH1 0x0 PUSH2 0x100 EXP DUP2 SLOAD SWAP1 PUSH20 0xFFFFFFFFFFFFFFFFFFFFFFFFFFFFFFFFFFFFFFFF MUL NOT AND SWAP1 SSTORE PUSH1 0x1 PUSH1 0x3 PUSH1 0x0 DUP6 PUSH20 0xFFFFFFFFFFFFFFFFFFFFFFFFFFFFFFFFFFFFFFFF AND PUSH20 0xFFFFFFFFFFFFFFFFFFFFFFFFFFFFFFFFFFFFFFFF AND DUP2 MSTORE PUSH1 0x20 ADD SWAP1 DUP2 MSTORE PUSH1 0x20 ADD PUSH1 0x0 KECCAK256 PUSH1 0x0 DUP3 DUP3 SLOAD SUB SWAP3 POP POP DUP2 SWAP1 SSTORE POP PUSH1 0x1 PUSH1 0x3 PUSH1 0x0 DUP5 PUSH20 0xFFFFFFFFFFFFFFFFFFFFFFFFFFFFFFFFFFFFFFFF AND PUSH20 0xFFFFFFFFFFFFFFFFFFFFFFFFFFFFFFFFFFFFFFFF AND DUP2 MSTORE PUSH1 0x20 ADD SWAP1 DUP2 MSTORE PUSH1 0x20 ADD PUSH1 0x0 KECCAK256 PUSH1 0x0 DUP3 DUP3 SLOAD ADD SWAP3 POP POP DUP2 SWAP1 SSTORE POP DUP2 PUSH1 0x2 PUSH1 0x0 DUP4 DUP2 MSTORE PUSH1 0x20 ADD SWAP1 DUP2 MSTORE PUSH1 0x20 ADD PUSH1 0x0 KECCAK256 PUSH1 0x0 PUSH2 0x100 EXP DUP2 SLOAD DUP2 PUSH20 0xFFFFFFFFFFFFFFFFFFFFFFFFFFFFFFFFFFFFFFFF MUL NOT AND SWAP1 DUP4 PUSH20 0xFFFFFFFFFFFFFFFFFFFFFFFFFFFFFFFFFFFFFFFF AND MUL OR SWAP1 SSTORE POP DUP1 DUP3 PUSH20 0xFFFFFFFFFFFFFFFFFFFFFFFFFFFFFFFFFFFFFFFF AND DUP5 PUSH20 0xFFFFFFFFFFFFFFFFFFFFFFFFFFFFFFFFFFFFFFFF AND PUSH32 0xDDF252AD1BE2C89B69C2B068FC378DAA952BA7F163C4A11628F55A4DF523B3EF PUSH1 0x40 MLOAD PUSH1 0x40 MLOAD DUP1 SWAP2 SUB SWAP1 LOG4 PUSH2 0x123D DUP4 DUP4 DUP4 PUSH1 0x1 PUSH2 0x1F9E JUMP JUMPDEST POP POP POP JUMP JUMPDEST PUSH1 0x0 PUSH1 0x2 PUSH1 0x0 DUP4 DUP2 MSTORE PUSH1 0x20 ADD SWAP1 DUP2 MSTORE PUSH1 0x20 ADD PUSH1 0x0 KECCAK256 PUSH1 0x0 SWAP1 SLOAD SWAP1 PUSH2 0x100 EXP SWAP1 DIV PUSH20 0xFFFFFFFFFFFFFFFFFFFFFFFFFFFFFFFFFFFFFFFF AND SWAP1 POP SWAP2 SWAP1 POP JUMP JUMPDEST DUP2 PUSH20 0xFFFFFFFFFFFFFFFFFFFFFFFFFFFFFFFFFFFFFFFF AND DUP4 PUSH20 0xFFFFFFFFFFFFFFFFFFFFFFFFFFFFFFFFFFFFFFFF AND EQ ISZERO PUSH2 0x12EE JUMPI PUSH1 0x40 MLOAD PUSH32 0x8C379A000000000000000000000000000000000000000000000000000000000 DUP2 MSTORE PUSH1 0x4 ADD PUSH2 0x12E5 SWAP1 PUSH2 0x39B2 JUMP JUMPDEST PUSH1 0x40 MLOAD DUP1 SWAP2 SUB SWAP1 REVERT JUMPDEST DUP1 PUSH1 0x5 PUSH1 0x0 DUP6 PUSH20 0xFFFFFFFFFFFFFFFFFFFFFFFFFFFFFFFFFFFFFFFF AND PUSH20 0xFFFFFFFFFFFFFFFFFFFFFFFFFFFFFFFFFFFFFFFF AND DUP2 MSTORE PUSH1 0x20 ADD SWAP1 DUP2 MSTORE PUSH1 0x20 ADD PUSH1 0x0 KECCAK256 PUSH1 0x0 DUP5 PUSH20 0xFFFFFFFFFFFFFFFFFFFFFFFFFFFFFFFFFFFFFFFF AND PUSH20 0xFFFFFFFFFFFFFFFFFFFFFFFFFFFFFFFFFFFFFFFF AND DUP2 MSTORE PUSH1 0x20 ADD SWAP1 DUP2 MSTORE PUSH1 0x20 ADD PUSH1 0x0 KECCAK256 PUSH1 0x0 PUSH2 0x100 EXP DUP2 SLOAD DUP2 PUSH1 0xFF MUL NOT AND SWAP1 DUP4 ISZERO ISZERO MUL OR SWAP1 SSTORE POP DUP2 PUSH20 0xFFFFFFFFFFFFFFFFFFFFFFFFFFFFFFFFFFFFFFFF AND DUP4 PUSH20 0xFFFFFFFFFFFFFFFFFFFFFFFFFFFFFFFFFFFFFFFF AND PUSH32 0x17307EAB39AB6107E8899845AD3D59BD9653F200F220920489CA2B5937696C31 DUP4 PUSH1 0x40 MLOAD PUSH2 0x13DF SWAP2 SWAP1 PUSH2 0x3875 JUMP JUMPDEST PUSH1 0x40 MLOAD DUP1 SWAP2 SUB SWAP1 LOG3 POP POP POP JUMP JUMPDEST PUSH2 0x13F7 DUP5 DUP5 DUP5 PUSH2 0xF48 JUMP JUMPDEST PUSH2 0x1403 DUP5 DUP5 DUP5 DUP5 PUSH2 0x1FA4 JUMP JUMPDEST PUSH2 0x1442 JUMPI PUSH1 0x40 MLOAD PUSH32 0x8C379A000000000000000000000000000000000000000000000000000000000 DUP2 MSTORE PUSH1 0x4 ADD PUSH2 0x1439 SWAP1 PUSH2 0x3912 JUMP JUMPDEST PUSH1 0x40 MLOAD DUP1 SWAP2 SUB SWAP1 REVERT JUMPDEST POP POP POP POP JUMP JUMPDEST PUSH1 0x60 PUSH1 0x0 PUSH1 0xA PUSH1 0x0 DUP5 DUP2 MSTORE PUSH1 0x20 ADD SWAP1 DUP2 MSTORE PUSH1 0x20 ADD PUSH1 0x0 KECCAK256 PUSH1 0x2 ADD DUP1 SLOAD PUSH2 0x146D SWAP1 PUSH2 0x3D7F JUMP JUMPDEST DUP1 PUSH1 0x1F ADD PUSH1 0x20 DUP1 SWAP2 DIV MUL PUSH1 0x20 ADD PUSH1 0x40 MLOAD SWAP1 DUP2 ADD PUSH1 0x40 MSTORE DUP1 SWAP3 SWAP2 SWAP1 DUP2 DUP2 MSTORE PUSH1 0x20 ADD DUP3 DUP1 SLOAD PUSH2 0x1499 SWAP1 PUSH2 0x3D7F JUMP JUMPDEST DUP1 ISZERO PUSH2 0x14E6 JUMPI DUP1 PUSH1 0x1F LT PUSH2 0x14BB JUMPI PUSH2 0x100 DUP1 DUP4 SLOAD DIV MUL DUP4 MSTORE SWAP2 PUSH1 0x20 ADD SWAP2 PUSH2 0x14E6 JUMP JUMPDEST DUP3 ADD SWAP2 SWAP1 PUSH1 0x0 MSTORE PUSH1 0x20 PUSH1 0x0 KECCAK256 SWAP1 JUMPDEST DUP2 SLOAD DUP2 MSTORE SWAP1 PUSH1 0x1 ADD SWAP1 PUSH1 0x20 ADD DUP1 DUP4 GT PUSH2 0x14C9 JUMPI DUP3 SWAP1 SUB PUSH1 0x1F AND DUP3 ADD SWAP2 JUMPDEST POP POP POP POP POP SWAP1 POP PUSH1 0x0 PUSH1 0xE PUSH8 0xFFFFFFFFFFFFFFFF DUP2 GT ISZERO PUSH2 0x150A JUMPI PUSH2 0x1509 PUSH2 0x3EE7 JUMP JUMPDEST JUMPDEST PUSH1 0x40 MLOAD SWAP1 DUP1 DUP3 MSTORE DUP1 PUSH1 0x20 MUL PUSH1 0x20 ADD DUP3 ADD PUSH1 0x40 MSTORE DUP1 ISZERO PUSH2 0x153D JUMPI DUP2 PUSH1 0x20 ADD JUMPDEST PUSH1 0x60 DUP2 MSTORE PUSH1 0x20 ADD SWAP1 PUSH1 0x1 SWAP1 SUB SWAP1 DUP2 PUSH2 0x1528 JUMPI SWAP1 POP JUMPDEST POP SWAP1 POP PUSH1 0x0 PUSH1 0x6 SLOAD DUP4 MLOAD PUSH2 0x1551 SWAP2 SWAP1 PUSH2 0x3BE0 JUMP JUMPDEST SWAP1 POP PUSH1 0x0 JUMPDEST PUSH1 0x1 DUP3 PUSH2 0x1563 SWAP2 SWAP1 PUSH2 0x3B8A JUMP JUMPDEST DUP2 LT ISZERO PUSH2 0x1652 JUMPI PUSH2 0x1621 PUSH1 0xA PUSH1 0x0 DUP9 DUP2 MSTORE PUSH1 0x20 ADD SWAP1 DUP2 MSTORE PUSH1 0x20 ADD PUSH1 0x0 KECCAK256 PUSH1 0x2 ADD DUP1 SLOAD PUSH2 0x158E SWAP1 PUSH2 0x3D7F JUMP JUMPDEST DUP1 PUSH1 0x1F ADD PUSH1 0x20 DUP1 SWAP2 DIV MUL PUSH1 0x20 ADD PUSH1 0x40 MLOAD SWAP1 DUP2 ADD PUSH1 0x40 MSTORE DUP1 SWAP3 SWAP2 SWAP1 DUP2 DUP2 MSTORE PUSH1 0x20 ADD DUP3 DUP1 SLOAD PUSH2 0x15BA SWAP1 PUSH2 0x3D7F JUMP JUMPDEST DUP1 ISZERO PUSH2 0x1607 JUMPI DUP1 PUSH1 0x1F LT PUSH2 0x15DC JUMPI PUSH2 0x100 DUP1 DUP4 SLOAD DIV MUL DUP4 MSTORE SWAP2 PUSH1 0x20 ADD SWAP2 PUSH2 0x1607 JUMP JUMPDEST DUP3 ADD SWAP2 SWAP1 PUSH1 0x0 MSTORE PUSH1 0x20 PUSH1 0x0 KECCAK256 SWAP1 JUMPDEST DUP2 SLOAD DUP2 MSTORE SWAP1 PUSH1 0x1 ADD SWAP1 PUSH1 0x20 ADD DUP1 DUP4 GT PUSH2 0x15EA JUMPI DUP3 SWAP1 SUB PUSH1 0x1F AND DUP3 ADD SWAP2 JUMPDEST POP POP POP POP POP PUSH1 0x6 SLOAD DUP4 PUSH2 0x161A SWAP2 SWAP1 PUSH2 0x3C11 JUMP JUMPDEST DUP7 MLOAD PUSH2 0x213B JUMP JUMPDEST DUP4 DUP3 DUP2 MLOAD DUP2 LT PUSH2 0x1634 JUMPI PUSH2 0x1633 PUSH2 0x3EB8 JUMP JUMPDEST JUMPDEST PUSH1 0x20 MUL PUSH1 0x20 ADD ADD DUP2 SWAP1 MSTORE POP DUP1 DUP1 PUSH2 0x164A SWAP1 PUSH2 0x3DE2 JUMP JUMPDEST SWAP2 POP POP PUSH2 0x1556 JUMP JUMPDEST POP PUSH1 0x0 JUMPDEST DUP3 MLOAD DUP2 LT ISZERO PUSH2 0x1705 JUMPI PUSH1 0x0 DUP4 DUP3 DUP2 MLOAD DUP2 LT PUSH2 0x1674 JUMPI PUSH2 0x1673 PUSH2 0x3EB8 JUMP JUMPDEST JUMPDEST PUSH1 0x20 MUL PUSH1 0x20 ADD ADD MLOAD MLOAD GT DUP1 ISZERO PUSH2 0x16A6 JUMPI POP PUSH1 0x6 SLOAD DUP4 DUP3 DUP2 MLOAD DUP2 LT PUSH2 0x169B JUMPI PUSH2 0x169A PUSH2 0x3EB8 JUMP JUMPDEST JUMPDEST PUSH1 0x20 MUL PUSH1 0x20 ADD ADD MLOAD MLOAD GT JUMPDEST ISZERO PUSH2 0x16F2 JUMPI PUSH2 0x16D3 DUP4 DUP3 DUP2 MLOAD DUP2 LT PUSH2 0x16C1 JUMPI PUSH2 0x16C0 PUSH2 0x3EB8 JUMP JUMPDEST JUMPDEST PUSH1 0x20 MUL PUSH1 0x20 ADD ADD MLOAD PUSH1 0x0 PUSH1 0x6 SLOAD PUSH2 0x213B JUMP JUMPDEST DUP4 DUP3 DUP2 MLOAD DUP2 LT PUSH2 0x16E6 JUMPI PUSH2 0x16E5 PUSH2 0x3EB8 JUMP JUMPDEST JUMPDEST PUSH1 0x20 MUL PUSH1 0x20 ADD ADD DUP2 SWAP1 MSTORE POP JUMPDEST DUP1 DUP1 PUSH2 0x16FD SWAP1 PUSH2 0x3DE2 JUMP JUMPDEST SWAP2 POP POP PUSH2 0x1656 JUMP JUMPDEST POP PUSH1 0x0 PUSH2 0x175D PUSH1 0xA PUSH1 0x0 DUP9 DUP2 MSTORE PUSH1 0x20 ADD SWAP1 DUP2 MSTORE PUSH1 0x20 ADD PUSH1 0x0 KECCAK256 PUSH1 0x0 ADD PUSH1 0x0 SWAP1 SLOAD SWAP1 PUSH2 0x100 EXP SWAP1 DIV PUSH20 0xFFFFFFFFFFFFFFFFFFFFFFFFFFFFFFFFFFFFFFFF AND PUSH20 0xFFFFFFFFFFFFFFFFFFFFFFFFFFFFFFFFFFFFFFFF AND PUSH2 0x2237 JUMP JUMPDEST PUSH2 0x17B2 PUSH1 0xA PUSH1 0x0 DUP10 DUP2 MSTORE PUSH1 0x20 ADD SWAP1 DUP2 MSTORE PUSH1 0x20 ADD PUSH1 0x0 KECCAK256 PUSH1 0x1 ADD PUSH1 0x0 SWAP1 SLOAD SWAP1 PUSH2 0x100 EXP SWAP1 DIV PUSH20 0xFFFFFFFFFFFFFFFFFFFFFFFFFFFFFFFFFFFFFFFF AND PUSH20 0xFFFFFFFFFFFFFFFFFFFFFFFFFFFFFFFFFFFFFFFF AND PUSH2 0x2237 JUMP JUMPDEST PUSH2 0x17BB TIMESTAMP PUSH2 0x19C4 JUMP JUMPDEST DUP6 PUSH1 0x0 DUP2 MLOAD DUP2 LT PUSH2 0x17CF JUMPI PUSH2 0x17CE PUSH2 0x3EB8 JUMP JUMPDEST JUMPDEST PUSH1 0x20 MUL PUSH1 0x20 ADD ADD MLOAD DUP7 PUSH1 0x1 DUP2 MLOAD DUP2 LT PUSH2 0x17EB JUMPI PUSH2 0x17EA PUSH2 0x3EB8 JUMP JUMPDEST JUMPDEST PUSH1 0x20 MUL PUSH1 0x20 ADD ADD MLOAD DUP8 PUSH1 0x2 DUP2 MLOAD DUP2 LT PUSH2 0x1807 JUMPI PUSH2 0x1806 PUSH2 0x3EB8 JUMP JUMPDEST JUMPDEST PUSH1 0x20 MUL PUSH1 0x20 ADD ADD MLOAD DUP9 PUSH1 0x3 DUP2 MLOAD DUP2 LT PUSH2 0x1823 JUMPI PUSH2 0x1822 PUSH2 0x3EB8 JUMP JUMPDEST JUMPDEST PUSH1 0x20 MUL PUSH1 0x20 ADD ADD MLOAD DUP10 PUSH1 0x4 DUP2 MLOAD DUP2 LT PUSH2 0x183F JUMPI PUSH2 0x183E PUSH2 0x3EB8 JUMP JUMPDEST JUMPDEST PUSH1 0x20 MUL PUSH1 0x20 ADD ADD MLOAD DUP11 PUSH1 0x5 DUP2 MLOAD DUP2 LT PUSH2 0x185B JUMPI PUSH2 0x185A PUSH2 0x3EB8 JUMP JUMPDEST JUMPDEST PUSH1 0x20 MUL PUSH1 0x20 ADD ADD MLOAD DUP12 PUSH1 0x6 DUP2 MLOAD DUP2 LT PUSH2 0x1877 JUMPI PUSH2 0x1876 PUSH2 0x3EB8 JUMP JUMPDEST JUMPDEST PUSH1 0x20 MUL PUSH1 0x20 ADD ADD MLOAD DUP13 PUSH1 0x7 DUP2 MLOAD DUP2 LT PUSH2 0x1893 JUMPI PUSH2 0x1892 PUSH2 0x3EB8 JUMP JUMPDEST JUMPDEST PUSH1 0x20 MUL PUSH1 0x20 ADD ADD MLOAD PUSH1 0x40 MLOAD PUSH1 0x20 ADD PUSH2 0x18B5 SWAP12 SWAP11 SWAP10 SWAP9 SWAP8 SWAP7 SWAP6 SWAP5 SWAP4 SWAP3 SWAP2 SWAP1 PUSH2 0x35FB JUMP JUMPDEST PUSH1 0x40 MLOAD PUSH1 0x20 DUP2 DUP4 SUB SUB DUP2 MSTORE SWAP1 PUSH1 0x40 MSTORE SWAP1 POP PUSH1 0x0 DUP4 PUSH1 0x8 DUP2 MLOAD DUP2 LT PUSH2 0x18DC JUMPI PUSH2 0x18DB PUSH2 0x3EB8 JUMP JUMPDEST JUMPDEST PUSH1 0x20 MUL PUSH1 0x20 ADD ADD MLOAD DUP5 PUSH1 0x9 DUP2 MLOAD DUP2 LT PUSH2 0x18F8 JUMPI PUSH2 0x18F7 PUSH2 0x3EB8 JUMP JUMPDEST JUMPDEST PUSH1 0x20 MUL PUSH1 0x20 ADD ADD MLOAD DUP6 PUSH1 0xA DUP2 MLOAD DUP2 LT PUSH2 0x1914 JUMPI PUSH2 0x1913 PUSH2 0x3EB8 JUMP JUMPDEST JUMPDEST PUSH1 0x20 MUL PUSH1 0x20 ADD ADD MLOAD DUP7 PUSH1 0xB DUP2 MLOAD DUP2 LT PUSH2 0x1930 JUMPI PUSH2 0x192F PUSH2 0x3EB8 JUMP JUMPDEST JUMPDEST PUSH1 0x20 MUL PUSH1 0x20 ADD ADD MLOAD DUP8 PUSH1 0xC DUP2 MLOAD DUP2 LT PUSH2 0x194C JUMPI PUSH2 0x194B PUSH2 0x3EB8 JUMP JUMPDEST JUMPDEST PUSH1 0x20 MUL PUSH1 0x20 ADD ADD MLOAD DUP9 PUSH1 0xD DUP2 MLOAD DUP2 LT PUSH2 0x1968 JUMPI PUSH2 0x1967 PUSH2 0x3EB8 JUMP JUMPDEST JUMPDEST PUSH1 0x20 MUL PUSH1 0x20 ADD ADD MLOAD PUSH1 0x40 MLOAD PUSH1 0x20 ADD PUSH2 0x1985 SWAP7 SWAP6 SWAP5 SWAP4 SWAP3 SWAP2 SWAP1 PUSH2 0x3514 JUMP JUMPDEST PUSH1 0x40 MLOAD PUSH1 0x20 DUP2 DUP4 SUB SUB DUP2 MSTORE SWAP1 PUSH1 0x40 MSTORE SWAP1 POP DUP2 DUP2 PUSH1 0x40 MLOAD PUSH1 0x20 ADD PUSH2 0x19A9 SWAP3 SWAP2 SWAP1 PUSH2 0x34F0 JUMP JUMPDEST PUSH1 0x40 MLOAD PUSH1 0x20 DUP2 DUP4 SUB SUB DUP2 MSTORE SWAP1 PUSH1 0x40 MSTORE SWAP6 POP POP POP POP POP POP SWAP2 SWAP1 POP JUMP JUMPDEST PUSH1 0x60 PUSH1 0x0 PUSH1 0x1 PUSH2 0x19D3 DUP5 PUSH2 0x2264 JUMP JUMPDEST ADD SWAP1 POP PUSH1 0x0 DUP2 PUSH8 0xFFFFFFFFFFFFFFFF DUP2 GT ISZERO PUSH2 0x19F2 JUMPI PUSH2 0x19F1 PUSH2 0x3EE7 JUMP JUMPDEST JUMPDEST PUSH1 0x40 MLOAD SWAP1 DUP1 DUP3 MSTORE DUP1 PUSH1 0x1F ADD PUSH1 0x1F NOT AND PUSH1 0x20 ADD DUP3 ADD PUSH1 0x40 MSTORE DUP1 ISZERO PUSH2 0x1A24 JUMPI DUP2 PUSH1 0x20 ADD PUSH1 0x1 DUP3 MUL DUP1 CALLDATASIZE DUP4 CALLDATACOPY DUP1 DUP3 ADD SWAP2 POP POP SWAP1 POP JUMPDEST POP SWAP1 POP PUSH1 0x0 DUP3 PUSH1 0x20 ADD DUP3 ADD SWAP1 POP JUMPDEST PUSH1 0x1 ISZERO PUSH2 0x1A91 JUMPI DUP1 DUP1 PUSH1 0x1 SWAP1 SUB SWAP2 POP POP PUSH32 0x3031323334353637383961626364656600000000000000000000000000000000 PUSH1 0xA DUP7 MOD BYTE DUP2 MSTORE8 PUSH1 0xA DUP6 DUP2 PUSH2 0x1A7B JUMPI PUSH2 0x1A7A PUSH2 0x3E5A JUMP JUMPDEST JUMPDEST DIV SWAP5 POP PUSH1 0x0 DUP6 EQ ISZERO PUSH2 0x1A8C JUMPI PUSH2 0x1A91 JUMP JUMPDEST PUSH2 0x1A32 JUMP JUMPDEST DUP2 SWAP4 POP POP POP POP SWAP2 SWAP1 POP JUMP JUMPDEST PUSH1 0x60 PUSH1 0x0 DUP3 MLOAD EQ ISZERO PUSH2 0x1ABF JUMPI PUSH1 0x40 MLOAD DUP1 PUSH1 0x20 ADD PUSH1 0x40 MSTORE DUP1 PUSH1 0x0 DUP2 MSTORE POP SWAP1 POP PUSH2 0x1BFB JUMP JUMPDEST PUSH1 0x0 PUSH1 0x40 MLOAD DUP1 PUSH1 0x60 ADD PUSH1 0x40 MSTORE DUP1 PUSH1 0x40 DUP2 MSTORE PUSH1 0x20 ADD PUSH2 0x5247 PUSH1 0x40 SWAP2 CODECOPY SWAP1 POP PUSH1 0x0 PUSH1 0x3 PUSH1 0x2 DUP6 MLOAD PUSH2 0x1AEE SWAP2 SWAP1 PUSH2 0x3B8A JUMP JUMPDEST PUSH2 0x1AF8 SWAP2 SWAP1 PUSH2 0x3BE0 JUMP JUMPDEST PUSH1 0x4 PUSH2 0x1B04 SWAP2 SWAP1 PUSH2 0x3C11 JUMP JUMPDEST PUSH8 0xFFFFFFFFFFFFFFFF DUP2 GT ISZERO PUSH2 0x1B1D JUMPI PUSH2 0x1B1C PUSH2 0x3EE7 JUMP JUMPDEST JUMPDEST PUSH1 0x40 MLOAD SWAP1 DUP1 DUP3 MSTORE DUP1 PUSH1 0x1F ADD PUSH1 0x1F NOT AND PUSH1 0x20 ADD DUP3 ADD PUSH1 0x40 MSTORE DUP1 ISZERO PUSH2 0x1B4F JUMPI DUP2 PUSH1 0x20 ADD PUSH1 0x1 DUP3 MUL DUP1 CALLDATASIZE DUP4 CALLDATACOPY DUP1 DUP3 ADD SWAP2 POP POP SWAP1 POP JUMPDEST POP SWAP1 POP PUSH1 0x1 DUP3 ADD PUSH1 0x20 DUP3 ADD DUP6 DUP7 MLOAD DUP8 ADD JUMPDEST DUP1 DUP3 LT ISZERO PUSH2 0x1BBB JUMPI PUSH1 0x3 DUP3 ADD SWAP2 POP DUP2 MLOAD PUSH1 0x3F DUP2 PUSH1 0x12 SHR AND DUP6 ADD MLOAD DUP5 MSTORE8 PUSH1 0x1 DUP5 ADD SWAP4 POP PUSH1 0x3F DUP2 PUSH1 0xC SHR AND DUP6 ADD MLOAD DUP5 MSTORE8 PUSH1 0x1 DUP5 ADD SWAP4 POP PUSH1 0x3F DUP2 PUSH1 0x6 SHR AND DUP6 ADD MLOAD DUP5 MSTORE8 PUSH1 0x1 DUP5 ADD SWAP4 POP PUSH1 0x3F DUP2 AND DUP6 ADD MLOAD DUP5 MSTORE8 PUSH1 0x1 DUP5 ADD SWAP4 POP POP PUSH2 0x1B60 JUMP JUMPDEST POP POP PUSH1 0x3 DUP7 MLOAD MOD PUSH1 0x1 DUP2 EQ PUSH2 0x1BD7 JUMPI PUSH1 0x2 DUP2 EQ PUSH2 0x1BEA JUMPI PUSH2 0x1BF2 JUMP JUMPDEST PUSH1 0x3D PUSH1 0x1 DUP4 SUB MSTORE8 PUSH1 0x3D PUSH1 0x2 DUP4 SUB MSTORE8 PUSH2 0x1BF2 JUMP JUMPDEST PUSH1 0x3D PUSH1 0x1 DUP4 SUB MSTORE8 JUMPDEST POP POP POP DUP1 SWAP3 POP POP POP JUMPDEST SWAP2 SWAP1 POP JUMP JUMPDEST PUSH1 0x0 PUSH1 0x1 PUSH1 0x9 PUSH1 0x0 DUP7 PUSH20 0xFFFFFFFFFFFFFFFFFFFFFFFFFFFFFFFFFFFFFFFF AND PUSH20 0xFFFFFFFFFFFFFFFFFFFFFFFFFFFFFFFFFFFFFFFF AND DUP2 MSTORE PUSH1 0x20 ADD SWAP1 DUP2 MSTORE PUSH1 0x20 ADD PUSH1 0x0 KECCAK256 PUSH1 0x0 DUP3 DUP3 SLOAD ADD SWAP3 POP POP DUP2 SWAP1 SSTORE POP PUSH1 0x1 PUSH1 0x7 PUSH1 0x0 DUP3 DUP3 SLOAD ADD SWAP3 POP POP DUP2 SWAP1 SSTORE POP PUSH1 0x0 PUSH1 0xA PUSH1 0x0 PUSH1 0x7 SLOAD DUP2 MSTORE PUSH1 0x20 ADD SWAP1 DUP2 MSTORE PUSH1 0x20 ADD PUSH1 0x0 KECCAK256 SWAP1 POP DUP5 DUP2 PUSH1 0x0 ADD PUSH1 0x0 PUSH2 0x100 EXP DUP2 SLOAD DUP2 PUSH20 0xFFFFFFFFFFFFFFFFFFFFFFFFFFFFFFFFFFFFFFFF MUL NOT AND SWAP1 DUP4 PUSH20 0xFFFFFFFFFFFFFFFFFFFFFFFFFFFFFFFFFFFFFFFF AND MUL OR SWAP1 SSTORE POP DUP4 DUP2 PUSH1 0x1 ADD PUSH1 0x0 PUSH2 0x100 EXP DUP2 SLOAD DUP2 PUSH20 0xFFFFFFFFFFFFFFFFFFFFFFFFFFFFFFFFFFFFFFFF MUL NOT AND SWAP1 DUP4 PUSH20 0xFFFFFFFFFFFFFFFFFFFFFFFFFFFFFFFFFFFFFFFF AND MUL OR SWAP1 SSTORE POP DUP3 DUP2 PUSH1 0x2 ADD SWAP1 DUP1 MLOAD SWAP1 PUSH1 0x20 ADD SWAP1 PUSH2 0x1D18 SWAP3 SWAP2 SWAP1 PUSH2 0x28FA JUMP JUMPDEST POP PUSH1 0x7 SLOAD PUSH1 0x8 PUSH1 0x0 DUP8 PUSH20 0xFFFFFFFFFFFFFFFFFFFFFFFFFFFFFFFFFFFFFFFF AND PUSH20 0xFFFFFFFFFFFFFFFFFFFFFFFFFFFFFFFFFFFFFFFF AND DUP2 MSTORE PUSH1 0x20 ADD SWAP1 DUP2 MSTORE PUSH1 0x20 ADD PUSH1 0x0 KECCAK256 PUSH1 0x0 PUSH1 0x9 PUSH1 0x0 DUP10 PUSH20 0xFFFFFFFFFFFFFFFFFFFFFFFFFFFFFFFFFFFFFFFF AND PUSH20 0xFFFFFFFFFFFFFFFFFFFFFFFFFFFFFFFFFFFFFFFF AND DUP2 MSTORE PUSH1 0x20 ADD SWAP1 DUP2 MSTORE PUSH1 0x20 ADD PUSH1 0x0 KECCAK256 SLOAD DUP2 MSTORE PUSH1 0x20 ADD SWAP1 DUP2 MSTORE PUSH1 0x20 ADD PUSH1 0x0 KECCAK256 DUP2 SWAP1 SSTORE POP PUSH2 0x1DBB DUP5 PUSH1 0x7 SLOAD PUSH2 0x23B7 JUMP JUMPDEST DUP3 PUSH1 0x40 MLOAD PUSH2 0x1DC9 SWAP2 SWAP1 PUSH2 0x34D9 JUMP JUMPDEST PUSH1 0x40 MLOAD DUP1 SWAP2 SUB SWAP1 KECCAK256 DUP5 PUSH20 0xFFFFFFFFFFFFFFFFFFFFFFFFFFFFFFFFFFFFFFFF AND DUP7 PUSH20 0xFFFFFFFFFFFFFFFFFFFFFFFFFFFFFFFFFFFFFFFF AND PUSH32 0x3E100F057239DB422C0EBF9142F67C98E9FF6AC4AEE1068A737CAC01B9CAA304 PUSH1 0x40 MLOAD PUSH1 0x40 MLOAD DUP1 SWAP2 SUB SWAP1 LOG4 PUSH1 0x1 SWAP2 POP POP SWAP4 SWAP3 POP POP POP JUMP JUMPDEST PUSH1 0x0 DUP1 PUSH20 0xFFFFFFFFFFFFFFFFFFFFFFFFFFFFFFFFFFFFFFFF AND PUSH2 0x1E59 DUP4 PUSH2 0x1242 JUMP JUMPDEST PUSH20 0xFFFFFFFFFFFFFFFFFFFFFFFFFFFFFFFFFFFFFFFF AND EQ ISZERO SWAP1 POP SWAP2 SWAP1 POP JUMP JUMPDEST PUSH1 0x1 DUP2 GT ISZERO PUSH2 0x1F98 JUMPI PUSH1 0x0 PUSH20 0xFFFFFFFFFFFFFFFFFFFFFFFFFFFFFFFFFFFFFFFF AND DUP5 PUSH20 0xFFFFFFFFFFFFFFFFFFFFFFFFFFFFFFFFFFFFFFFF AND EQ PUSH2 0x1F0C JUMPI DUP1 PUSH1 0x3 PUSH1 0x0 DUP7 PUSH20 0xFFFFFFFFFFFFFFFFFFFFFFFFFFFFFFFFFFFFFFFF AND PUSH20 0xFFFFFFFFFFFFFFFFFFFFFFFFFFFFFFFFFFFFFFFF AND DUP2 MSTORE PUSH1 0x20 ADD SWAP1 DUP2 MSTORE PUSH1 0x20 ADD PUSH1 0x0 KECCAK256 PUSH1 0x0 DUP3 DUP3 SLOAD PUSH2 0x1F04 SWAP2 SWAP1 PUSH2 0x3C6B JUMP JUMPDEST SWAP3 POP POP DUP2 SWAP1 SSTORE POP JUMPDEST PUSH1 0x0 PUSH20 0xFFFFFFFFFFFFFFFFFFFFFFFFFFFFFFFFFFFFFFFF AND DUP4 PUSH20 0xFFFFFFFFFFFFFFFFFFFFFFFFFFFFFFFFFFFFFFFF AND EQ PUSH2 0x1F97 JUMPI DUP1 PUSH1 0x3 PUSH1 0x0 DUP6 PUSH20 0xFFFFFFFFFFFFFFFFFFFFFFFFFFFFFFFFFFFFFFFF AND PUSH20 0xFFFFFFFFFFFFFFFFFFFFFFFFFFFFFFFFFFFFFFFF AND DUP2 MSTORE PUSH1 0x20 ADD SWAP1 DUP2 MSTORE PUSH1 0x20 ADD PUSH1 0x0 KECCAK256 PUSH1 0x0 DUP3 DUP3 SLOAD PUSH2 0x1F8F SWAP2 SWAP1 PUSH2 0x3B8A JUMP JUMPDEST SWAP3 POP POP DUP2 SWAP1 SSTORE POP JUMPDEST JUMPDEST POP POP POP POP JUMP JUMPDEST POP POP POP POP JUMP JUMPDEST PUSH1 0x0 PUSH2 0x1FC5 DUP5 PUSH20 0xFFFFFFFFFFFFFFFFFFFFFFFFFFFFFFFFFFFFFFFF AND PUSH2 0x23D5 JUMP JUMPDEST ISZERO PUSH2 0x212E JUMPI DUP4 PUSH20 0xFFFFFFFFFFFFFFFFFFFFFFFFFFFFFFFFFFFFFFFF AND PUSH4 0x150B7A02 PUSH2 0x1FEE PUSH2 0xDF2 JUMP JUMPDEST DUP8 DUP7 DUP7 PUSH1 0x40 MLOAD DUP6 PUSH4 0xFFFFFFFF AND PUSH1 0xE0 SHL DUP2 MSTORE PUSH1 0x4 ADD PUSH2 0x2010 SWAP5 SWAP4 SWAP3 SWAP2 SWAP1 PUSH2 0x3829 JUMP JUMPDEST PUSH1 0x20 PUSH1 0x40 MLOAD DUP1 DUP4 SUB DUP2 PUSH1 0x0 DUP8 DUP1 EXTCODESIZE ISZERO DUP1 ISZERO PUSH2 0x202A JUMPI PUSH1 0x0 DUP1 REVERT JUMPDEST POP GAS CALL SWAP3 POP POP POP DUP1 ISZERO PUSH2 0x205B JUMPI POP PUSH1 0x40 MLOAD RETURNDATASIZE PUSH1 0x1F NOT PUSH1 0x1F DUP3 ADD AND DUP3 ADD DUP1 PUSH1 0x40 MSTORE POP DUP2 ADD SWAP1 PUSH2 0x2058 SWAP2 SWAP1 PUSH2 0x2D32 JUMP JUMPDEST PUSH1 0x1 JUMPDEST PUSH2 0x20DE JUMPI RETURNDATASIZE DUP1 PUSH1 0x0 DUP2 EQ PUSH2 0x208B JUMPI PUSH1 0x40 MLOAD SWAP2 POP PUSH1 0x1F NOT PUSH1 0x3F RETURNDATASIZE ADD AND DUP3 ADD PUSH1 0x40 MSTORE RETURNDATASIZE DUP3 MSTORE RETURNDATASIZE PUSH1 0x0 PUSH1 0x20 DUP5 ADD RETURNDATACOPY PUSH2 0x2090 JUMP JUMPDEST PUSH1 0x60 SWAP2 POP JUMPDEST POP PUSH1 0x0 DUP2 MLOAD EQ ISZERO PUSH2 0x20D6 JUMPI PUSH1 0x40 MLOAD PUSH32 0x8C379A000000000000000000000000000000000000000000000000000000000 DUP2 MSTORE PUSH1 0x4 ADD PUSH2 0x20CD SWAP1 PUSH2 0x3912 JUMP JUMPDEST PUSH1 0x40 MLOAD DUP1 SWAP2 SUB SWAP1 REVERT JUMPDEST DUP1 MLOAD DUP2 PUSH1 0x20 ADD REVERT JUMPDEST PUSH4 0x150B7A02 PUSH1 0xE0 SHL PUSH28 0xFFFFFFFFFFFFFFFFFFFFFFFFFFFFFFFFFFFFFFFFFFFFFFFFFFFFFFFF NOT AND DUP2 PUSH28 0xFFFFFFFFFFFFFFFFFFFFFFFFFFFFFFFFFFFFFFFFFFFFFFFFFFFFFFFF NOT AND EQ SWAP2 POP POP PUSH2 0x2133 JUMP JUMPDEST PUSH1 0x1 SWAP1 POP JUMPDEST SWAP5 SWAP4 POP POP POP POP JUMP JUMPDEST PUSH1 0x60 PUSH1 0x0 DUP5 SWAP1 POP PUSH1 0x0 DUP5 DUP5 PUSH2 0x2150 SWAP2 SWAP1 PUSH2 0x3C6B JUMP JUMPDEST PUSH8 0xFFFFFFFFFFFFFFFF DUP2 GT ISZERO PUSH2 0x2169 JUMPI PUSH2 0x2168 PUSH2 0x3EE7 JUMP JUMPDEST JUMPDEST PUSH1 0x40 MLOAD SWAP1 DUP1 DUP3 MSTORE DUP1 PUSH1 0x1F ADD PUSH1 0x1F NOT AND PUSH1 0x20 ADD DUP3 ADD PUSH1 0x40 MSTORE DUP1 ISZERO PUSH2 0x219B JUMPI DUP2 PUSH1 0x20 ADD PUSH1 0x1 DUP3 MUL DUP1 CALLDATASIZE DUP4 CALLDATACOPY DUP1 DUP3 ADD SWAP2 POP POP SWAP1 POP JUMPDEST POP SWAP1 POP PUSH1 0x0 DUP6 SWAP1 POP JUMPDEST DUP5 DUP2 LT ISZERO PUSH2 0x222A JUMPI DUP3 DUP2 DUP2 MLOAD DUP2 LT PUSH2 0x21BF JUMPI PUSH2 0x21BE PUSH2 0x3EB8 JUMP JUMPDEST JUMPDEST PUSH1 0x20 ADD ADD MLOAD PUSH1 0xF8 SHR PUSH1 0xF8 SHL DUP3 DUP8 DUP4 PUSH2 0x21D7 SWAP2 SWAP1 PUSH2 0x3C6B JUMP JUMPDEST DUP2 MLOAD DUP2 LT PUSH2 0x21E8 JUMPI PUSH2 0x21E7 PUSH2 0x3EB8 JUMP JUMPDEST JUMPDEST PUSH1 0x20 ADD ADD SWAP1 PUSH31 0xFFFFFFFFFFFFFFFFFFFFFFFFFFFFFFFFFFFFFFFFFFFFFFFFFFFFFFFFFFFFFF NOT AND SWAP1 DUP2 PUSH1 0x0 BYTE SWAP1 MSTORE8 POP DUP1 DUP1 PUSH2 0x2222 SWAP1 PUSH2 0x3DE2 JUMP JUMPDEST SWAP2 POP POP PUSH2 0x21A4 JUMP JUMPDEST POP DUP1 SWAP3 POP POP POP SWAP4 SWAP3 POP POP POP JUMP JUMPDEST PUSH1 0x60 PUSH2 0x225D DUP3 PUSH20 0xFFFFFFFFFFFFFFFFFFFFFFFFFFFFFFFFFFFFFFFF AND PUSH1 0x14 PUSH1 0xFF AND PUSH2 0x23F8 JUMP JUMPDEST SWAP1 POP SWAP2 SWAP1 POP JUMP JUMPDEST PUSH1 0x0 DUP1 PUSH1 0x0 SWAP1 POP PUSH27 0x184F03E93FF9F4DAA797ED6E38ED64BF6A1F010000000000000000 DUP4 LT PUSH2 0x22C2 JUMPI PUSH27 0x184F03E93FF9F4DAA797ED6E38ED64BF6A1F010000000000000000 DUP4 DUP2 PUSH2 0x22B8 JUMPI PUSH2 0x22B7 PUSH2 0x3E5A JUMP JUMPDEST JUMPDEST DIV SWAP3 POP PUSH1 0x40 DUP2 ADD SWAP1 POP JUMPDEST PUSH14 0x4EE2D6D415B85ACEF8100000000 DUP4 LT PUSH2 0x22FF JUMPI PUSH14 0x4EE2D6D415B85ACEF8100000000 DUP4 DUP2 PUSH2 0x22F5 JUMPI PUSH2 0x22F4 PUSH2 0x3E5A JUMP JUMPDEST JUMPDEST DIV SWAP3 POP PUSH1 0x20 DUP2 ADD SWAP1 POP JUMPDEST PUSH7 0x2386F26FC10000 DUP4 LT PUSH2 0x232E JUMPI PUSH7 0x2386F26FC10000 DUP4 DUP2 PUSH2 0x2324 JUMPI PUSH2 0x2323 PUSH2 0x3E5A JUMP JUMPDEST JUMPDEST DIV SWAP3 POP PUSH1 0x10 DUP2 ADD SWAP1 POP JUMPDEST PUSH4 0x5F5E100 DUP4 LT PUSH2 0x2357 JUMPI PUSH4 0x5F5E100 DUP4 DUP2 PUSH2 0x234D JUMPI PUSH2 0x234C PUSH2 0x3E5A JUMP JUMPDEST JUMPDEST DIV SWAP3 POP PUSH1 0x8 DUP2 ADD SWAP1 POP JUMPDEST PUSH2 0x2710 DUP4 LT PUSH2 0x237C JUMPI PUSH2 0x2710 DUP4 DUP2 PUSH2 0x2372 JUMPI PUSH2 0x2371 PUSH2 0x3E5A JUMP JUMPDEST JUMPDEST DIV SWAP3 POP PUSH1 0x4 DUP2 ADD SWAP1 POP JUMPDEST PUSH1 0x64 DUP4 LT PUSH2 0x239F JUMPI PUSH1 0x64 DUP4 DUP2 PUSH2 0x2395 JUMPI PUSH2 0x2394 PUSH2 0x3E5A JUMP JUMPDEST JUMPDEST DIV SWAP3 POP PUSH1 0x2 DUP2 ADD SWAP1 POP JUMPDEST PUSH1 0xA DUP4 LT PUSH2 0x23AE JUMPI PUSH1 0x1 DUP2 ADD SWAP1 POP JUMPDEST DUP1 SWAP2 POP POP SWAP2 SWAP1 POP JUMP JUMPDEST PUSH2 0x23D1 DUP3 DUP3 PUSH1 0x40 MLOAD DUP1 PUSH1 0x20 ADD PUSH1 0x40 MSTORE DUP1 PUSH1 0x0 DUP2 MSTORE POP PUSH2 0x2634 JUMP JUMPDEST POP POP JUMP JUMPDEST PUSH1 0x0 DUP1 DUP3 PUSH20 0xFFFFFFFFFFFFFFFFFFFFFFFFFFFFFFFFFFFFFFFF AND EXTCODESIZE GT SWAP1 POP SWAP2 SWAP1 POP JUMP JUMPDEST PUSH1 0x60 PUSH1 0x0 PUSH1 0x2 DUP4 PUSH1 0x2 PUSH2 0x240B SWAP2 SWAP1 PUSH2 0x3C11 JUMP JUMPDEST PUSH2 0x2415 SWAP2 SWAP1 PUSH2 0x3B8A JUMP JUMPDEST PUSH8 0xFFFFFFFFFFFFFFFF DUP2 GT ISZERO PUSH2 0x242E JUMPI PUSH2 0x242D PUSH2 0x3EE7 JUMP JUMPDEST JUMPDEST PUSH1 0x40 MLOAD SWAP1 DUP1 DUP3 MSTORE DUP1 PUSH1 0x1F ADD PUSH1 0x1F NOT AND PUSH1 0x20 ADD DUP3 ADD PUSH1 0x40 MSTORE DUP1 ISZERO PUSH2 0x2460 JUMPI DUP2 PUSH1 0x20 ADD PUSH1 0x1 DUP3 MUL DUP1 CALLDATASIZE DUP4 CALLDATACOPY DUP1 DUP3 ADD SWAP2 POP POP SWAP1 POP JUMPDEST POP SWAP1 POP PUSH32 0x3000000000000000000000000000000000000000000000000000000000000000 DUP2 PUSH1 0x0 DUP2 MLOAD DUP2 LT PUSH2 0x2498 JUMPI PUSH2 0x2497 PUSH2 0x3EB8 JUMP JUMPDEST JUMPDEST PUSH1 0x20 ADD ADD SWAP1 PUSH31 0xFFFFFFFFFFFFFFFFFFFFFFFFFFFFFFFFFFFFFFFFFFFFFFFFFFFFFFFFFFFFFF NOT AND SWAP1 DUP2 PUSH1 0x0 BYTE SWAP1 MSTORE8 POP PUSH32 0x7800000000000000000000000000000000000000000000000000000000000000 DUP2 PUSH1 0x1 DUP2 MLOAD DUP2 LT PUSH2 0x24FC JUMPI PUSH2 0x24FB PUSH2 0x3EB8 JUMP JUMPDEST JUMPDEST PUSH1 0x20 ADD ADD SWAP1 PUSH31 0xFFFFFFFFFFFFFFFFFFFFFFFFFFFFFFFFFFFFFFFFFFFFFFFFFFFFFFFFFFFFFF NOT AND SWAP1 DUP2 PUSH1 0x0 BYTE SWAP1 MSTORE8 POP PUSH1 0x0 PUSH1 0x1 DUP5 PUSH1 0x2 PUSH2 0x253C SWAP2 SWAP1 PUSH2 0x3C11 JUMP JUMPDEST PUSH2 0x2546 SWAP2 SWAP1 PUSH2 0x3B8A JUMP JUMPDEST SWAP1 POP JUMPDEST PUSH1 0x1 DUP2 GT ISZERO PUSH2 0x25E6 JUMPI PUSH32 0x3031323334353637383961626364656600000000000000000000000000000000 PUSH1 0xF DUP7 AND PUSH1 0x10 DUP2 LT PUSH2 0x2588 JUMPI PUSH2 0x2587 PUSH2 0x3EB8 JUMP JUMPDEST JUMPDEST BYTE PUSH1 0xF8 SHL DUP3 DUP3 DUP2 MLOAD DUP2 LT PUSH2 0x259F JUMPI PUSH2 0x259E PUSH2 0x3EB8 JUMP JUMPDEST JUMPDEST PUSH1 0x20 ADD ADD SWAP1 PUSH31 0xFFFFFFFFFFFFFFFFFFFFFFFFFFFFFFFFFFFFFFFFFFFFFFFFFFFFFFFFFFFFFF NOT AND SWAP1 DUP2 PUSH1 0x0 BYTE SWAP1 MSTORE8 POP PUSH1 0x4 DUP6 SWAP1 SHR SWAP5 POP DUP1 PUSH2 0x25DF SWAP1 PUSH2 0x3D55 JUMP JUMPDEST SWAP1 POP PUSH2 0x2549 JUMP JUMPDEST POP PUSH1 0x0 DUP5 EQ PUSH2 0x262A JUMPI PUSH1 0x40 MLOAD PUSH32 0x8C379A000000000000000000000000000000000000000000000000000000000 DUP2 MSTORE PUSH1 0x4 ADD PUSH2 0x2621 SWAP1 PUSH2 0x38B2 JUMP JUMPDEST PUSH1 0x40 MLOAD DUP1 SWAP2 SUB SWAP1 REVERT JUMPDEST DUP1 SWAP2 POP POP SWAP3 SWAP2 POP POP JUMP JUMPDEST PUSH2 0x263E DUP4 DUP4 PUSH2 0x268F JUMP JUMPDEST PUSH2 0x264B PUSH1 0x0 DUP5 DUP5 DUP5 PUSH2 0x1FA4 JUMP JUMPDEST PUSH2 0x268A JUMPI PUSH1 0x40 MLOAD PUSH32 0x8C379A000000000000000000000000000000000000000000000000000000000 DUP2 MSTORE PUSH1 0x4 ADD PUSH2 0x2681 SWAP1 PUSH2 0x3912 JUMP JUMPDEST PUSH1 0x40 MLOAD DUP1 SWAP2 SUB SWAP1 REVERT JUMPDEST POP POP POP JUMP JUMPDEST PUSH1 0x0 PUSH20 0xFFFFFFFFFFFFFFFFFFFFFFFFFFFFFFFFFFFFFFFF AND DUP3 PUSH20 0xFFFFFFFFFFFFFFFFFFFFFFFFFFFFFFFFFFFFFFFF AND EQ ISZERO PUSH2 0x26FF JUMPI PUSH1 0x40 MLOAD PUSH32 0x8C379A000000000000000000000000000000000000000000000000000000000 DUP2 MSTORE PUSH1 0x4 ADD PUSH2 0x26F6 SWAP1 PUSH2 0x39F2 JUMP JUMPDEST PUSH1 0x40 MLOAD DUP1 SWAP2 SUB SWAP1 REVERT JUMPDEST PUSH2 0x2708 DUP2 PUSH2 0x1E37 JUMP JUMPDEST ISZERO PUSH2 0x2748 JUMPI PUSH1 0x40 MLOAD PUSH32 0x8C379A000000000000000000000000000000000000000000000000000000000 DUP2 MSTORE PUSH1 0x4 ADD PUSH2 0x273F SWAP1 PUSH2 0x3972 JUMP JUMPDEST PUSH1 0x40 MLOAD DUP1 SWAP2 SUB SWAP1 REVERT JUMPDEST PUSH2 0x2756 PUSH1 0x0 DUP4 DUP4 PUSH1 0x1 PUSH2 0x1E78 JUMP JUMPDEST PUSH2 0x275F DUP2 PUSH2 0x1E37 JUMP JUMPDEST ISZERO PUSH2 0x279F JUMPI PUSH1 0x40 MLOAD PUSH32 0x8C379A000000000000000000000000000000000000000000000000000000000 DUP2 MSTORE PUSH1 0x4 ADD PUSH2 0x2796 SWAP1 PUSH2 0x3972 JUMP JUMPDEST PUSH1 0x40 MLOAD DUP1 SWAP2 SUB SWAP1 REVERT JUMPDEST PUSH1 0x1 PUSH1 0x3 PUSH1 0x0 DUP5 PUSH20 0xFFFFFFFFFFFFFFFFFFFFFFFFFFFFFFFFFFFFFFFF AND PUSH20 0xFFFFFFFFFFFFFFFFFFFFFFFFFFFFFFFFFFFFFFFF AND DUP2 MSTORE PUSH1 0x20 ADD SWAP1 DUP2 MSTORE PUSH1 0x20 ADD PUSH1 0x0 KECCAK256 PUSH1 0x0 DUP3 DUP3 SLOAD ADD SWAP3 POP POP DUP2 SWAP1 SSTORE POP DUP2 PUSH1 0x2 PUSH1 0x0 DUP4 DUP2 MSTORE PUSH1 0x20 ADD SWAP1 DUP2 MSTORE PUSH1 0x20 ADD PUSH1 0x0 KECCAK256 PUSH1 0x0 PUSH2 0x100 EXP DUP2 SLOAD DUP2 PUSH20 0xFFFFFFFFFFFFFFFFFFFFFFFFFFFFFFFFFFFFFFFF MUL NOT AND SWAP1 DUP4 PUSH20 0xFFFFFFFFFFFFFFFFFFFFFFFFFFFFFFFFFFFFFFFF AND MUL OR SWAP1 SSTORE POP DUP1 DUP3 PUSH20 0xFFFFFFFFFFFFFFFFFFFFFFFFFFFFFFFFFFFFFFFF AND PUSH1 0x0 PUSH20 0xFFFFFFFFFFFFFFFFFFFFFFFFFFFFFFFFFFFFFFFF AND PUSH32 0xDDF252AD1BE2C89B69C2B068FC378DAA952BA7F163C4A11628F55A4DF523B3EF PUSH1 0x40 MLOAD PUSH1 0x40 MLOAD DUP1 SWAP2 SUB SWAP1 LOG4 PUSH2 0x28A9 PUSH1 0x0 DUP4 DUP4 PUSH1 0x1 PUSH2 0x1F9E JUMP JUMPDEST POP POP JUMP JUMPDEST PUSH1 0x40 MLOAD DUP1 PUSH1 0x60 ADD PUSH1 0x40 MSTORE DUP1 PUSH1 0x0 PUSH20 0xFFFFFFFFFFFFFFFFFFFFFFFFFFFFFFFFFFFFFFFF AND DUP2 MSTORE PUSH1 0x20 ADD PUSH1 0x0 PUSH20 0xFFFFFFFFFFFFFFFFFFFFFFFFFFFFFFFFFFFFFFFF AND DUP2 MSTORE PUSH1 0x20 ADD PUSH1 0x60 DUP2 MSTORE POP SWAP1 JUMP JUMPDEST DUP3 DUP1 SLOAD PUSH2 0x2906 SWAP1 PUSH2 0x3D7F JUMP JUMPDEST SWAP1 PUSH1 0x0 MSTORE PUSH1 0x20 PUSH1 0x0 KECCAK256 SWAP1 PUSH1 0x1F ADD PUSH1 0x20 SWAP1 DIV DUP2 ADD SWAP3 DUP3 PUSH2 0x2928 JUMPI PUSH1 0x0 DUP6 SSTORE PUSH2 0x296F JUMP JUMPDEST DUP3 PUSH1 0x1F LT PUSH2 0x2941 JUMPI DUP1 MLOAD PUSH1 0xFF NOT AND DUP4 DUP1 ADD OR DUP6 SSTORE PUSH2 0x296F JUMP JUMPDEST DUP3 DUP1 ADD PUSH1 0x1 ADD DUP6 SSTORE DUP3 ISZERO PUSH2 0x296F JUMPI SWAP2 DUP3 ADD JUMPDEST DUP3 DUP2 GT ISZERO PUSH2 0x296E JUMPI DUP3 MLOAD DUP3 SSTORE SWAP2 PUSH1 0x20 ADD SWAP2 SWAP1 PUSH1 0x1 ADD SWAP1 PUSH2 0x2953 JUMP JUMPDEST JUMPDEST POP SWAP1 POP PUSH2 0x297C SWAP2 SWAP1 PUSH2 0x2980 JUMP JUMPDEST POP SWAP1 JUMP JUMPDEST JUMPDEST DUP1 DUP3 GT ISZERO PUSH2 0x2999 JUMPI PUSH1 0x0 DUP2 PUSH1 0x0 SWAP1 SSTORE POP PUSH1 0x1 ADD PUSH2 0x2981 JUMP JUMPDEST POP SWAP1 JUMP JUMPDEST PUSH1 0x0 PUSH2 0x29B0 PUSH2 0x29AB DUP5 PUSH2 0x3AD4 JUMP JUMPDEST PUSH2 0x3AAF JUMP JUMPDEST SWAP1 POP DUP3 DUP2 MSTORE PUSH1 0x20 DUP2 ADD DUP5 DUP5 DUP5 ADD GT ISZERO PUSH2 0x29CC JUMPI PUSH2 0x29CB PUSH2 0x3F1B JUMP JUMPDEST JUMPDEST PUSH2 0x29D7 DUP5 DUP3 DUP6 PUSH2 0x3D13 JUMP JUMPDEST POP SWAP4 SWAP3 POP POP POP JUMP JUMPDEST PUSH1 0x0 PUSH2 0x29F2 PUSH2 0x29ED DUP5 PUSH2 0x3B05 JUMP JUMPDEST PUSH2 0x3AAF JUMP JUMPDEST SWAP1 POP DUP3 DUP2 MSTORE PUSH1 0x20 DUP2 ADD DUP5 DUP5 DUP5 ADD GT ISZERO PUSH2 0x2A0E JUMPI PUSH2 0x2A0D PUSH2 0x3F1B JUMP JUMPDEST JUMPDEST PUSH2 0x2A19 DUP5 DUP3 DUP6 PUSH2 0x3D13 JUMP JUMPDEST POP SWAP4 SWAP3 POP POP POP JUMP JUMPDEST PUSH1 0x0 DUP2 CALLDATALOAD SWAP1 POP PUSH2 0x2A30 DUP2 PUSH2 0x51EA JUMP JUMPDEST SWAP3 SWAP2 POP POP JUMP JUMPDEST PUSH1 0x0 DUP2 CALLDATALOAD SWAP1 POP PUSH2 0x2A45 DUP2 PUSH2 0x5201 JUMP JUMPDEST SWAP3 SWAP2 POP POP JUMP JUMPDEST PUSH1 0x0 DUP2 CALLDATALOAD SWAP1 POP PUSH2 0x2A5A DUP2 PUSH2 0x5218 JUMP JUMPDEST SWAP3 SWAP2 POP POP JUMP JUMPDEST PUSH1 0x0 DUP2 MLOAD SWAP1 POP PUSH2 0x2A6F DUP2 PUSH2 0x5218 JUMP JUMPDEST SWAP3 SWAP2 POP POP JUMP JUMPDEST PUSH1 0x0 DUP3 PUSH1 0x1F DUP4 ADD SLT PUSH2 0x2A8A JUMPI PUSH2 0x2A89 PUSH2 0x3F16 JUMP JUMPDEST JUMPDEST DUP2 CALLDATALOAD PUSH2 0x2A9A DUP5 DUP3 PUSH1 0x20 DUP7 ADD PUSH2 0x299D JUMP JUMPDEST SWAP2 POP POP SWAP3 SWAP2 POP POP JUMP JUMPDEST PUSH1 0x0 DUP3 PUSH1 0x1F DUP4 ADD SLT PUSH2 0x2AB8 JUMPI PUSH2 0x2AB7 PUSH2 0x3F16 JUMP JUMPDEST JUMPDEST DUP2 CALLDATALOAD PUSH2 0x2AC8 DUP5 DUP3 PUSH1 0x20 DUP7 ADD PUSH2 0x29DF JUMP JUMPDEST SWAP2 POP POP SWAP3 SWAP2 POP POP JUMP JUMPDEST PUSH1 0x0 DUP2 CALLDATALOAD SWAP1 POP PUSH2 0x2AE0 DUP2 PUSH2 0x522F JUMP JUMPDEST SWAP3 SWAP2 POP POP JUMP JUMPDEST PUSH1 0x0 PUSH1 0x20 DUP3 DUP5 SUB SLT ISZERO PUSH2 0x2AFC JUMPI PUSH2 0x2AFB PUSH2 0x3F25 JUMP JUMPDEST JUMPDEST PUSH1 0x0 PUSH2 0x2B0A DUP5 DUP3 DUP6 ADD PUSH2 0x2A21 JUMP JUMPDEST SWAP2 POP POP SWAP3 SWAP2 POP POP JUMP JUMPDEST PUSH1 0x0 DUP1 PUSH1 0x40 DUP4 DUP6 SUB SLT ISZERO PUSH2 0x2B2A JUMPI PUSH2 0x2B29 PUSH2 0x3F25 JUMP JUMPDEST JUMPDEST PUSH1 0x0 PUSH2 0x2B38 DUP6 DUP3 DUP7 ADD PUSH2 0x2A21 JUMP JUMPDEST SWAP3 POP POP PUSH1 0x20 PUSH2 0x2B49 DUP6 DUP3 DUP7 ADD PUSH2 0x2A21 JUMP JUMPDEST SWAP2 POP POP SWAP3 POP SWAP3 SWAP1 POP JUMP JUMPDEST PUSH1 0x0 DUP1 PUSH1 0x0 PUSH1 0x60 DUP5 DUP7 SUB SLT ISZERO PUSH2 0x2B6C JUMPI PUSH2 0x2B6B PUSH2 0x3F25 JUMP JUMPDEST JUMPDEST PUSH1 0x0 PUSH2 0x2B7A DUP7 DUP3 DUP8 ADD PUSH2 0x2A21 JUMP JUMPDEST SWAP4 POP POP PUSH1 0x20 PUSH2 0x2B8B DUP7 DUP3 DUP8 ADD PUSH2 0x2A21 JUMP JUMPDEST SWAP3 POP POP PUSH1 0x40 PUSH2 0x2B9C DUP7 DUP3 DUP8 ADD PUSH2 0x2AD1 JUMP JUMPDEST SWAP2 POP POP SWAP3 POP SWAP3 POP SWAP3 JUMP JUMPDEST PUSH1 0x0 DUP1 PUSH1 0x0 DUP1 PUSH1 0x80 DUP6 DUP8 SUB SLT ISZERO PUSH2 0x2BC0 JUMPI PUSH2 0x2BBF PUSH2 0x3F25 JUMP JUMPDEST JUMPDEST PUSH1 0x0 PUSH2 0x2BCE DUP8 DUP3 DUP9 ADD PUSH2 0x2A21 JUMP JUMPDEST SWAP5 POP POP PUSH1 0x20 PUSH2 0x2BDF DUP8 DUP3 DUP9 ADD PUSH2 0x2A21 JUMP JUMPDEST SWAP4 POP POP PUSH1 0x40 PUSH2 0x2BF0 DUP8 DUP3 DUP9 ADD PUSH2 0x2AD1 JUMP JUMPDEST SWAP3 POP POP PUSH1 0x60 DUP6 ADD CALLDATALOAD PUSH8 0xFFFFFFFFFFFFFFFF DUP2 GT ISZERO PUSH2 0x2C11 JUMPI PUSH2 0x2C10 PUSH2 0x3F20 JUMP JUMPDEST JUMPDEST PUSH2 0x2C1D DUP8 DUP3 DUP9 ADD PUSH2 0x2A75 JUMP JUMPDEST SWAP2 POP POP SWAP3 SWAP6 SWAP2 SWAP5 POP SWAP3 POP JUMP JUMPDEST PUSH1 0x0 DUP1 PUSH1 0x40 DUP4 DUP6 SUB SLT ISZERO PUSH2 0x2C40 JUMPI PUSH2 0x2C3F PUSH2 0x3F25 JUMP JUMPDEST JUMPDEST PUSH1 0x0 PUSH2 0x2C4E DUP6 DUP3 DUP7 ADD PUSH2 0x2A21 JUMP JUMPDEST SWAP3 POP POP PUSH1 0x20 PUSH2 0x2C5F DUP6 DUP3 DUP7 ADD PUSH2 0x2A36 JUMP JUMPDEST SWAP2 POP POP SWAP3 POP SWAP3 SWAP1 POP JUMP JUMPDEST PUSH1 0x0 DUP1 PUSH1 0x40 DUP4 DUP6 SUB SLT ISZERO PUSH2 0x2C80 JUMPI PUSH2 0x2C7F PUSH2 0x3F25 JUMP JUMPDEST JUMPDEST PUSH1 0x0 PUSH2 0x2C8E DUP6 DUP3 DUP7 ADD PUSH2 0x2A21 JUMP JUMPDEST SWAP3 POP POP PUSH1 0x20 DUP4 ADD CALLDATALOAD PUSH8 0xFFFFFFFFFFFFFFFF DUP2 GT ISZERO PUSH2 0x2CAF JUMPI PUSH2 0x2CAE PUSH2 0x3F20 JUMP JUMPDEST JUMPDEST PUSH2 0x2CBB DUP6 DUP3 DUP7 ADD PUSH2 0x2AA3 JUMP JUMPDEST SWAP2 POP POP SWAP3 POP SWAP3 SWAP1 POP JUMP JUMPDEST PUSH1 0x0 DUP1 PUSH1 0x40 DUP4 DUP6 SUB SLT ISZERO PUSH2 0x2CDC JUMPI PUSH2 0x2CDB PUSH2 0x3F25 JUMP JUMPDEST JUMPDEST PUSH1 0x0 PUSH2 0x2CEA DUP6 DUP3 DUP7 ADD PUSH2 0x2A21 JUMP JUMPDEST SWAP3 POP POP PUSH1 0x20 PUSH2 0x2CFB DUP6 DUP3 DUP7 ADD PUSH2 0x2AD1 JUMP JUMPDEST SWAP2 POP POP SWAP3 POP SWAP3 SWAP1 POP JUMP JUMPDEST PUSH1 0x0 PUSH1 0x20 DUP3 DUP5 SUB SLT ISZERO PUSH2 0x2D1B JUMPI PUSH2 0x2D1A PUSH2 0x3F25 JUMP JUMPDEST JUMPDEST PUSH1 0x0 PUSH2 0x2D29 DUP5 DUP3 DUP6 ADD PUSH2 0x2A4B JUMP JUMPDEST SWAP2 POP POP SWAP3 SWAP2 POP POP JUMP JUMPDEST PUSH1 0x0 PUSH1 0x20 DUP3 DUP5 SUB SLT ISZERO PUSH2 0x2D48 JUMPI PUSH2 0x2D47 PUSH2 0x3F25 JUMP JUMPDEST JUMPDEST PUSH1 0x0 PUSH2 0x2D56 DUP5 DUP3 DUP6 ADD PUSH2 0x2A60 JUMP JUMPDEST SWAP2 POP POP SWAP3 SWAP2 POP POP JUMP JUMPDEST PUSH1 0x0 PUSH1 0x20 DUP3 DUP5 SUB SLT ISZERO PUSH2 0x2D75 JUMPI PUSH2 0x2D74 PUSH2 0x3F25 JUMP JUMPDEST JUMPDEST PUSH1 0x0 PUSH2 0x2D83 DUP5 DUP3 DUP6 ADD PUSH2 0x2AD1 JUMP JUMPDEST SWAP2 POP POP SWAP3 SWAP2 POP POP JUMP JUMPDEST PUSH2 0x2D95 DUP2 PUSH2 0x3C9F JUMP JUMPDEST DUP3 MSTORE POP POP JUMP JUMPDEST PUSH2 0x2DA4 DUP2 PUSH2 0x3C9F JUMP JUMPDEST DUP3 MSTORE POP POP JUMP JUMPDEST PUSH2 0x2DB3 DUP2 PUSH2 0x3CB1 JUMP JUMPDEST DUP3 MSTORE POP POP JUMP JUMPDEST PUSH1 0x0 PUSH2 0x2DC4 DUP3 PUSH2 0x3B36 JUMP JUMPDEST PUSH2 0x2DCE DUP2 DUP6 PUSH2 0x3B4C JUMP JUMPDEST SWAP4 POP PUSH2 0x2DDE DUP2 DUP6 PUSH1 0x20 DUP7 ADD PUSH2 0x3D22 JUMP JUMPDEST PUSH2 0x2DE7 DUP2 PUSH2 0x3F2A JUMP JUMPDEST DUP5 ADD SWAP2 POP POP SWAP3 SWAP2 POP POP JUMP JUMPDEST PUSH1 0x0 PUSH2 0x2DFD DUP3 PUSH2 0x3B41 JUMP JUMPDEST PUSH2 0x2E07 DUP2 DUP6 PUSH2 0x3B5D JUMP JUMPDEST SWAP4 POP PUSH2 0x2E17 DUP2 DUP6 PUSH1 0x20 DUP7 ADD PUSH2 0x3D22 JUMP JUMPDEST PUSH2 0x2E20 DUP2 PUSH2 0x3F2A JUMP JUMPDEST DUP5 ADD SWAP2 POP POP SWAP3 SWAP2 POP POP JUMP JUMPDEST PUSH1 0x0 PUSH2 0x2E36 DUP3 PUSH2 0x3B41 JUMP JUMPDEST PUSH2 0x2E40 DUP2 DUP6 PUSH2 0x3B6E JUMP JUMPDEST SWAP4 POP PUSH2 0x2E50 DUP2 DUP6 PUSH1 0x20 DUP7 ADD PUSH2 0x3D22 JUMP JUMPDEST PUSH2 0x2E59 DUP2 PUSH2 0x3F2A JUMP JUMPDEST DUP5 ADD SWAP2 POP POP SWAP3 SWAP2 POP POP JUMP JUMPDEST PUSH1 0x0 PUSH2 0x2E6F DUP3 PUSH2 0x3B41 JUMP JUMPDEST PUSH2 0x2E79 DUP2 DUP6 PUSH2 0x3B7F JUMP JUMPDEST SWAP4 POP PUSH2 0x2E89 DUP2 DUP6 PUSH1 0x20 DUP7 ADD PUSH2 0x3D22 JUMP JUMPDEST DUP1 DUP5 ADD SWAP2 POP POP SWAP3 SWAP2 POP POP JUMP JUMPDEST PUSH1 0x0 PUSH2 0x2EA2 PUSH1 0x20 DUP4 PUSH2 0x3B6E JUMP JUMPDEST SWAP2 POP PUSH2 0x2EAD DUP3 PUSH2 0x3F3B JUMP JUMPDEST PUSH1 0x20 DUP3 ADD SWAP1 POP SWAP2 SWAP1 POP JUMP JUMPDEST PUSH1 0x0 PUSH2 0x2EC5 PUSH1 0x2D DUP4 PUSH2 0x3B6E JUMP JUMPDEST SWAP2 POP PUSH2 0x2ED0 DUP3 PUSH2 0x3F64 JUMP JUMPDEST PUSH1 0x40 DUP3 ADD SWAP1 POP SWAP2 SWAP1 POP JUMP JUMPDEST PUSH1 0x0 PUSH2 0x2EE8 PUSH1 0x49 DUP4 PUSH2 0x3B7F JUMP JUMPDEST SWAP2 POP PUSH2 0x2EF3 DUP3 PUSH2 0x3FB3 JUMP JUMPDEST PUSH1 0x49 DUP3 ADD SWAP1 POP SWAP2 SWAP1 POP JUMP JUMPDEST PUSH1 0x0 PUSH2 0x2F0B PUSH1 0x2B DUP4 PUSH2 0x3B6E JUMP JUMPDEST SWAP2 POP PUSH2 0x2F16 DUP3 PUSH2 0x4028 JUMP JUMPDEST PUSH1 0x40 DUP3 ADD SWAP1 POP SWAP2 SWAP1 POP JUMP JUMPDEST PUSH1 0x0 PUSH2 0x2F2E PUSH1 0x32 DUP4 PUSH2 0x3B6E JUMP JUMPDEST SWAP2 POP PUSH2 0x2F39 DUP3 PUSH2 0x4077 JUMP JUMPDEST PUSH1 0x40 DUP3 ADD SWAP1 POP SWAP2 SWAP1 POP JUMP JUMPDEST PUSH1 0x0 PUSH2 0x2F52 PUSH2 0x2C5 DUP4 PUSH2 0x3B7F JUMP JUMPDEST SWAP2 POP PUSH2 0x2F5D DUP3 PUSH2 0x40C6 JUMP JUMPDEST PUSH2 0x2C5 DUP3 ADD SWAP1 POP SWAP2 SWAP1 POP JUMP JUMPDEST PUSH1 0x0 PUSH2 0x2F76 PUSH1 0x56 DUP4 PUSH2 0x3B7F JUMP JUMPDEST SWAP2 POP PUSH2 0x2F81 DUP3 PUSH2 0x4442 JUMP JUMPDEST PUSH1 0x56 DUP3 ADD SWAP1 POP SWAP2 SWAP1 POP JUMP JUMPDEST PUSH1 0x0 PUSH2 0x2F99 PUSH1 0x49 DUP4 PUSH2 0x3B7F JUMP JUMPDEST SWAP2 POP PUSH2 0x2FA4 DUP3 PUSH2 0x44B7 JUMP JUMPDEST PUSH1 0x49 DUP3 ADD SWAP1 POP SWAP2 SWAP1 POP JUMP JUMPDEST PUSH1 0x0 PUSH2 0x2FBC PUSH1 0x17 DUP4 PUSH2 0x3B6E JUMP JUMPDEST SWAP2 POP PUSH2 0x2FC7 DUP3 PUSH2 0x452C JUMP JUMPDEST PUSH1 0x20 DUP3 ADD SWAP1 POP SWAP2 SWAP1 POP JUMP JUMPDEST PUSH1 0x0 PUSH2 0x2FDF PUSH1 0x2 DUP4 PUSH2 0x3B7F JUMP JUMPDEST SWAP2 POP PUSH2 0x2FEA DUP3 PUSH2 0x4555 JUMP JUMPDEST PUSH1 0x2 DUP3 ADD SWAP1 POP SWAP2 SWAP1 POP JUMP JUMPDEST PUSH1 0x0 PUSH2 0x3002 PUSH1 0x25 DUP4 PUSH2 0x3B6E JUMP JUMPDEST SWAP2 POP PUSH2 0x300D DUP3 PUSH2 0x457E JUMP JUMPDEST PUSH1 0x40 DUP3 ADD SWAP1 POP SWAP2 SWAP1 POP JUMP JUMPDEST PUSH1 0x0 PUSH2 0x3025 PUSH1 0x1C DUP4 PUSH2 0x3B6E JUMP JUMPDEST SWAP2 POP PUSH2 0x3030 DUP3 PUSH2 0x45CD JUMP JUMPDEST PUSH1 0x20 DUP3 ADD SWAP1 POP SWAP2 SWAP1 POP JUMP JUMPDEST PUSH1 0x0 PUSH2 0x3048 PUSH1 0x49 DUP4 PUSH2 0x3B7F JUMP JUMPDEST SWAP2 POP PUSH2 0x3053 DUP3 PUSH2 0x45F6 JUMP JUMPDEST PUSH1 0x49 DUP3 ADD SWAP1 POP SWAP2 SWAP1 POP JUMP JUMPDEST PUSH1 0x0 PUSH2 0x306B PUSH1 0x24 DUP4 PUSH2 0x3B6E JUMP JUMPDEST SWAP2 POP PUSH2 0x3076 DUP3 PUSH2 0x466B JUMP JUMPDEST PUSH1 0x40 DUP3 ADD SWAP1 POP SWAP2 SWAP1 POP JUMP JUMPDEST PUSH1 0x0 PUSH2 0x308E PUSH1 0x19 DUP4 PUSH2 0x3B6E JUMP JUMPDEST SWAP2 POP PUSH2 0x3099 DUP3 PUSH2 0x46BA JUMP JUMPDEST PUSH1 0x20 DUP3 ADD SWAP1 POP SWAP2 SWAP1 POP JUMP JUMPDEST PUSH1 0x0 PUSH2 0x30B1 PUSH1 0x49 DUP4 PUSH2 0x3B7F JUMP JUMPDEST SWAP2 POP PUSH2 0x30BC DUP3 PUSH2 0x46E3 JUMP JUMPDEST PUSH1 0x49 DUP3 ADD SWAP1 POP SWAP2 SWAP1 POP JUMP JUMPDEST PUSH1 0x0 PUSH2 0x30D4 PUSH1 0x48 DUP4 PUSH2 0x3B7F JUMP JUMPDEST SWAP2 POP PUSH2 0x30DF DUP3 PUSH2 0x4758 JUMP JUMPDEST PUSH1 0x48 DUP3 ADD SWAP1 POP SWAP2 SWAP1 POP JUMP JUMPDEST PUSH1 0x0 PUSH2 0x30F7 PUSH1 0x29 DUP4 PUSH2 0x3B6E JUMP JUMPDEST SWAP2 POP PUSH2 0x3102 DUP3 PUSH2 0x47CD JUMP JUMPDEST PUSH1 0x40 DUP3 ADD SWAP1 POP SWAP2 SWAP1 POP JUMP JUMPDEST PUSH1 0x0 PUSH2 0x311A PUSH1 0x48 DUP4 PUSH2 0x3B7F JUMP JUMPDEST SWAP2 POP PUSH2 0x3125 DUP3 PUSH2 0x481C JUMP JUMPDEST PUSH1 0x48 DUP3 ADD SWAP1 POP SWAP2 SWAP1 POP JUMP JUMPDEST PUSH1 0x0 PUSH2 0x313D PUSH1 0x1 DUP4 PUSH2 0x3B7F JUMP JUMPDEST SWAP2 POP PUSH2 0x3148 DUP3 PUSH2 0x4891 JUMP JUMPDEST PUSH1 0x1 DUP3 ADD SWAP1 POP SWAP2 SWAP1 POP JUMP JUMPDEST PUSH1 0x0 PUSH2 0x3160 PUSH1 0x41 DUP4 PUSH2 0x3B7F JUMP JUMPDEST SWAP2 POP PUSH2 0x316B DUP3 PUSH2 0x48BA JUMP JUMPDEST PUSH1 0x41 DUP3 ADD SWAP1 POP SWAP2 SWAP1 POP JUMP JUMPDEST PUSH1 0x0 PUSH2 0x3183 PUSH1 0x48 DUP4 PUSH2 0x3B7F JUMP JUMPDEST SWAP2 POP PUSH2 0x318E DUP3 PUSH2 0x492F JUMP JUMPDEST PUSH1 0x48 DUP3 ADD SWAP1 POP SWAP2 SWAP1 POP JUMP JUMPDEST PUSH1 0x0 PUSH2 0x31A6 PUSH1 0x49 DUP4 PUSH2 0x3B7F JUMP JUMPDEST SWAP2 POP PUSH2 0x31B1 DUP3 PUSH2 0x49A4 JUMP JUMPDEST PUSH1 0x49 DUP3 ADD SWAP1 POP SWAP2 SWAP1 POP JUMP JUMPDEST PUSH1 0x0 PUSH2 0x31C9 PUSH1 0x3 DUP4 PUSH2 0x3B7F JUMP JUMPDEST SWAP2 POP PUSH2 0x31D4 DUP3 PUSH2 0x4A19 JUMP JUMPDEST PUSH1 0x3 DUP3 ADD SWAP1 POP SWAP2 SWAP1 POP JUMP JUMPDEST PUSH1 0x0 PUSH2 0x31EC PUSH1 0x24 DUP4 PUSH2 0x3B7F JUMP JUMPDEST SWAP2 POP PUSH2 0x31F7 DUP3 PUSH2 0x4A42 JUMP JUMPDEST PUSH1 0x24 DUP3 ADD SWAP1 POP SWAP2 SWAP1 POP JUMP JUMPDEST PUSH1 0x0 PUSH2 0x3210 PUSH2 0x155 DUP4 PUSH2 0x3B7F JUMP JUMPDEST SWAP2 POP PUSH2 0x321B DUP3 PUSH2 0x4A91 JUMP JUMPDEST PUSH2 0x155 DUP3 ADD SWAP1 POP SWAP2 SWAP1 POP JUMP JUMPDEST PUSH1 0x0 PUSH2 0x3234 PUSH1 0x20 DUP4 PUSH2 0x3B6E JUMP JUMPDEST SWAP2 POP PUSH2 0x323F DUP3 PUSH2 0x4C39 JUMP JUMPDEST PUSH1 0x20 DUP3 ADD SWAP1 POP SWAP2 SWAP1 POP JUMP JUMPDEST PUSH1 0x0 PUSH2 0x3257 PUSH1 0x48 DUP4 PUSH2 0x3B7F JUMP JUMPDEST SWAP2 POP PUSH2 0x3262 DUP3 PUSH2 0x4C62 JUMP JUMPDEST PUSH1 0x48 DUP3 ADD SWAP1 POP SWAP2 SWAP1 POP JUMP JUMPDEST PUSH1 0x0 PUSH2 0x327A PUSH1 0x1 DUP4 PUSH2 0x3B7F JUMP JUMPDEST SWAP2 POP PUSH2 0x3285 DUP3 PUSH2 0x4CD7 JUMP JUMPDEST PUSH1 0x1 DUP3 ADD SWAP1 POP SWAP2 SWAP1 POP JUMP JUMPDEST PUSH1 0x0 PUSH2 0x329D PUSH1 0xA0 DUP4 PUSH2 0x3B7F JUMP JUMPDEST SWAP2 POP PUSH2 0x32A8 DUP3 PUSH2 0x4D00 JUMP JUMPDEST PUSH1 0xA0 DUP3 ADD SWAP1 POP SWAP2 SWAP1 POP JUMP JUMPDEST PUSH1 0x0 PUSH2 0x32C0 PUSH1 0x1 DUP4 PUSH2 0x3B7F JUMP JUMPDEST SWAP2 POP PUSH2 0x32CB DUP3 PUSH2 0x4DC1 JUMP JUMPDEST PUSH1 0x1 DUP3 ADD SWAP1 POP SWAP2 SWAP1 POP JUMP JUMPDEST PUSH1 0x0 PUSH2 0x32E3 PUSH1 0x48 DUP4 PUSH2 0x3B7F JUMP JUMPDEST SWAP2 POP PUSH2 0x32EE DUP3 PUSH2 0x4DEA JUMP JUMPDEST PUSH1 0x48 DUP3 ADD SWAP1 POP SWAP2 SWAP1 POP JUMP JUMPDEST PUSH1 0x0 PUSH2 0x3306 PUSH1 0x48 DUP4 PUSH2 0x3B7F JUMP JUMPDEST SWAP2 POP PUSH2 0x3311 DUP3 PUSH2 0x4E5F JUMP JUMPDEST PUSH1 0x48 DUP3 ADD SWAP1 POP SWAP2 SWAP1 POP JUMP JUMPDEST PUSH1 0x0 PUSH2 0x3329 PUSH1 0x18 DUP4 PUSH2 0x3B6E JUMP JUMPDEST SWAP2 POP PUSH2 0x3334 DUP3 PUSH2 0x4ED4 JUMP JUMPDEST PUSH1 0x20 DUP3 ADD SWAP1 POP SWAP2 SWAP1 POP JUMP JUMPDEST PUSH1 0x0 PUSH2 0x334C PUSH1 0x21 DUP4 PUSH2 0x3B6E JUMP JUMPDEST SWAP2 POP PUSH2 0x3357 DUP3 PUSH2 0x4EFD JUMP JUMPDEST PUSH1 0x40 DUP3 ADD SWAP1 POP SWAP2 SWAP1 POP JUMP JUMPDEST PUSH1 0x0 PUSH2 0x336F PUSH1 0x1D DUP4 PUSH2 0x3B7F JUMP JUMPDEST SWAP2 POP PUSH2 0x337A DUP3 PUSH2 0x4F4C JUMP JUMPDEST PUSH1 0x1D DUP3 ADD SWAP1 POP SWAP2 SWAP1 POP JUMP JUMPDEST PUSH1 0x0 PUSH2 0x3392 PUSH1 0x3D DUP4 PUSH2 0x3B6E JUMP JUMPDEST SWAP2 POP PUSH2 0x339D DUP3 PUSH2 0x4F75 JUMP JUMPDEST PUSH1 0x40 DUP3 ADD SWAP1 POP SWAP2 SWAP1 POP JUMP JUMPDEST PUSH1 0x0 PUSH2 0x33B5 PUSH1 0x12 DUP4 PUSH2 0x3B7F JUMP JUMPDEST SWAP2 POP PUSH2 0x33C0 DUP3 PUSH2 0x4FC4 JUMP JUMPDEST PUSH1 0x12 DUP3 ADD SWAP1 POP SWAP2 SWAP1 POP JUMP JUMPDEST PUSH1 0x0 PUSH2 0x33D8 PUSH1 0x12 DUP4 PUSH2 0x3B7F JUMP JUMPDEST SWAP2 POP PUSH2 0x33E3 DUP3 PUSH2 0x4FED JUMP JUMPDEST PUSH1 0x12 DUP3 ADD SWAP1 POP SWAP2 SWAP1 POP JUMP JUMPDEST PUSH1 0x0 PUSH2 0x33FB PUSH1 0x4F DUP4 PUSH2 0x3B7F JUMP JUMPDEST SWAP2 POP PUSH2 0x3406 DUP3 PUSH2 0x5016 JUMP JUMPDEST PUSH1 0x4F DUP3 ADD SWAP1 POP SWAP2 SWAP1 POP JUMP JUMPDEST PUSH1 0x0 PUSH2 0x341E PUSH1 0x49 DUP4 PUSH2 0x3B7F JUMP JUMPDEST SWAP2 POP PUSH2 0x3429 DUP3 PUSH2 0x508B JUMP JUMPDEST PUSH1 0x49 DUP3 ADD SWAP1 POP SWAP2 SWAP1 POP JUMP JUMPDEST PUSH1 0x0 PUSH2 0x3441 PUSH1 0x48 DUP4 PUSH2 0x3B7F JUMP JUMPDEST SWAP2 POP PUSH2 0x344C DUP3 PUSH2 0x5100 JUMP JUMPDEST PUSH1 0x48 DUP3 ADD SWAP1 POP SWAP2 SWAP1 POP JUMP JUMPDEST PUSH1 0x0 PUSH2 0x3464 PUSH1 0x49 DUP4 PUSH2 0x3B7F JUMP JUMPDEST SWAP2 POP PUSH2 0x346F DUP3 PUSH2 0x5175 JUMP JUMPDEST PUSH1 0x49 DUP3 ADD SWAP1 POP SWAP2 SWAP1 POP JUMP JUMPDEST PUSH1 0x0 PUSH1 0x60 DUP4 ADD PUSH1 0x0 DUP4 ADD MLOAD PUSH2 0x3492 PUSH1 0x0 DUP7 ADD DUP3 PUSH2 0x2D8C JUMP JUMPDEST POP PUSH1 0x20 DUP4 ADD MLOAD PUSH2 0x34A5 PUSH1 0x20 DUP7 ADD DUP3 PUSH2 0x2D8C JUMP JUMPDEST POP PUSH1 0x40 DUP4 ADD MLOAD DUP5 DUP3 SUB PUSH1 0x40 DUP7 ADD MSTORE PUSH2 0x34BD DUP3 DUP3 PUSH2 0x2DF2 JUMP JUMPDEST SWAP2 POP POP DUP1 SWAP2 POP POP SWAP3 SWAP2 POP POP JUMP JUMPDEST PUSH2 0x34D3 DUP2 PUSH2 0x3D09 JUMP JUMPDEST DUP3 MSTORE POP POP JUMP JUMPDEST PUSH1 0x0 PUSH2 0x34E5 DUP3 DUP5 PUSH2 0x2E64 JUMP JUMPDEST SWAP2 POP DUP2 SWAP1 POP SWAP3 SWAP2 POP POP JUMP JUMPDEST PUSH1 0x0 PUSH2 0x34FC DUP3 DUP6 PUSH2 0x2E64 JUMP JUMPDEST SWAP2 POP PUSH2 0x3508 DUP3 DUP5 PUSH2 0x2E64 JUMP JUMPDEST SWAP2 POP DUP2 SWAP1 POP SWAP4 SWAP3 POP POP POP JUMP JUMPDEST PUSH1 0x0 PUSH2 0x351F DUP3 PUSH2 0x2EDB JUMP JUMPDEST SWAP2 POP PUSH2 0x352B DUP3 DUP10 PUSH2 0x2E64 JUMP JUMPDEST SWAP2 POP PUSH2 0x3536 DUP3 PUSH2 0x31BC JUMP JUMPDEST SWAP2 POP PUSH2 0x3541 DUP3 PUSH2 0x2F8C JUMP JUMPDEST SWAP2 POP PUSH2 0x354D DUP3 DUP9 PUSH2 0x2E64 JUMP JUMPDEST SWAP2 POP PUSH2 0x3558 DUP3 PUSH2 0x31BC JUMP JUMPDEST SWAP2 POP PUSH2 0x3563 DUP3 PUSH2 0x303B JUMP JUMPDEST SWAP2 POP PUSH2 0x356F DUP3 DUP8 PUSH2 0x2E64 JUMP JUMPDEST SWAP2 POP PUSH2 0x357A DUP3 PUSH2 0x31BC JUMP JUMPDEST SWAP2 POP PUSH2 0x3585 DUP3 PUSH2 0x3457 JUMP JUMPDEST SWAP2 POP PUSH2 0x3591 DUP3 DUP7 PUSH2 0x2E64 JUMP JUMPDEST SWAP2 POP PUSH2 0x359C DUP3 PUSH2 0x31BC JUMP JUMPDEST SWAP2 POP PUSH2 0x35A7 DUP3 PUSH2 0x3411 JUMP JUMPDEST SWAP2 POP PUSH2 0x35B3 DUP3 DUP6 PUSH2 0x2E64 JUMP JUMPDEST SWAP2 POP PUSH2 0x35BE DUP3 PUSH2 0x31BC JUMP JUMPDEST SWAP2 POP PUSH2 0x35C9 DUP3 PUSH2 0x3199 JUMP JUMPDEST SWAP2 POP PUSH2 0x35D5 DUP3 DUP5 PUSH2 0x2E64 JUMP JUMPDEST SWAP2 POP PUSH2 0x35E0 DUP3 PUSH2 0x31BC JUMP JUMPDEST SWAP2 POP PUSH2 0x35EB DUP3 PUSH2 0x3202 JUMP JUMPDEST SWAP2 POP DUP2 SWAP1 POP SWAP8 SWAP7 POP POP POP POP POP POP POP JUMP JUMPDEST PUSH1 0x0 PUSH2 0x3606 DUP3 PUSH2 0x2F44 JUMP JUMPDEST SWAP2 POP PUSH2 0x3612 DUP3 DUP15 PUSH2 0x2E64 JUMP JUMPDEST SWAP2 POP PUSH2 0x361D DUP3 PUSH2 0x33EE JUMP JUMPDEST SWAP2 POP PUSH2 0x3629 DUP3 DUP14 PUSH2 0x2E64 JUMP JUMPDEST SWAP2 POP PUSH2 0x3634 DUP3 PUSH2 0x2F69 JUMP JUMPDEST SWAP2 POP PUSH2 0x3640 DUP3 DUP13 PUSH2 0x2E64 JUMP JUMPDEST SWAP2 POP PUSH2 0x364B DUP3 PUSH2 0x33CB JUMP JUMPDEST SWAP2 POP PUSH2 0x3656 DUP3 PUSH2 0x3290 JUMP JUMPDEST SWAP2 POP PUSH2 0x3661 DUP3 PUSH2 0x3153 JUMP JUMPDEST SWAP2 POP PUSH2 0x366C DUP3 PUSH2 0x3176 JUMP JUMPDEST SWAP2 POP PUSH2 0x3678 DUP3 DUP12 PUSH2 0x2E64 JUMP JUMPDEST SWAP2 POP PUSH2 0x3683 DUP3 PUSH2 0x31BC JUMP JUMPDEST SWAP2 POP PUSH2 0x368E DUP3 PUSH2 0x32D6 JUMP JUMPDEST SWAP2 POP PUSH2 0x369A DUP3 DUP11 PUSH2 0x2E64 JUMP JUMPDEST SWAP2 POP PUSH2 0x36A5 DUP3 PUSH2 0x31BC JUMP JUMPDEST SWAP2 POP PUSH2 0x36B0 DUP3 PUSH2 0x3434 JUMP JUMPDEST SWAP2 POP PUSH2 0x36BC DUP3 DUP10 PUSH2 0x2E64 JUMP JUMPDEST SWAP2 POP PUSH2 0x36C7 DUP3 PUSH2 0x31BC JUMP JUMPDEST SWAP2 POP PUSH2 0x36D2 DUP3 PUSH2 0x32F9 JUMP JUMPDEST SWAP2 POP PUSH2 0x36DE DUP3 DUP9 PUSH2 0x2E64 JUMP JUMPDEST SWAP2 POP PUSH2 0x36E9 DUP3 PUSH2 0x31BC JUMP JUMPDEST SWAP2 POP PUSH2 0x36F4 DUP3 PUSH2 0x310D JUMP JUMPDEST SWAP2 POP PUSH2 0x3700 DUP3 DUP8 PUSH2 0x2E64 JUMP JUMPDEST SWAP2 POP PUSH2 0x370B DUP3 PUSH2 0x31BC JUMP JUMPDEST SWAP2 POP PUSH2 0x3716 DUP3 PUSH2 0x30C7 JUMP JUMPDEST SWAP2 POP PUSH2 0x3722 DUP3 DUP7 PUSH2 0x2E64 JUMP JUMPDEST SWAP2 POP PUSH2 0x372D DUP3 PUSH2 0x31BC JUMP JUMPDEST SWAP2 POP PUSH2 0x3738 DUP3 PUSH2 0x324A JUMP JUMPDEST SWAP2 POP PUSH2 0x3744 DUP3 DUP6 PUSH2 0x2E64 JUMP JUMPDEST SWAP2 POP PUSH2 0x374F DUP3 PUSH2 0x31BC JUMP JUMPDEST SWAP2 POP PUSH2 0x375A DUP3 PUSH2 0x30A4 JUMP JUMPDEST SWAP2 POP PUSH2 0x3766 DUP3 DUP5 PUSH2 0x2E64 JUMP JUMPDEST SWAP2 POP PUSH2 0x3771 DUP3 PUSH2 0x31BC JUMP JUMPDEST SWAP2 POP DUP2 SWAP1 POP SWAP13 SWAP12 POP POP POP POP POP POP POP POP POP POP POP POP JUMP JUMPDEST PUSH1 0x0 PUSH2 0x3791 DUP3 PUSH2 0x32B3 JUMP JUMPDEST SWAP2 POP PUSH2 0x379C DUP3 PUSH2 0x33A8 JUMP JUMPDEST SWAP2 POP PUSH2 0x37A8 DUP3 DUP6 PUSH2 0x2E64 JUMP JUMPDEST SWAP2 POP PUSH2 0x37B3 DUP3 PUSH2 0x2FD2 JUMP JUMPDEST SWAP2 POP PUSH2 0x37BE DUP3 PUSH2 0x31DF JUMP JUMPDEST SWAP2 POP PUSH2 0x37CA DUP3 DUP5 PUSH2 0x2E64 JUMP JUMPDEST SWAP2 POP PUSH2 0x37D5 DUP3 PUSH2 0x3130 JUMP JUMPDEST SWAP2 POP PUSH2 0x37E0 DUP3 PUSH2 0x326D JUMP JUMPDEST SWAP2 POP DUP2 SWAP1 POP SWAP4 SWAP3 POP POP POP JUMP JUMPDEST PUSH1 0x0 PUSH2 0x37F7 DUP3 PUSH2 0x3362 JUMP JUMPDEST SWAP2 POP PUSH2 0x3803 DUP3 DUP5 PUSH2 0x2E64 JUMP JUMPDEST SWAP2 POP DUP2 SWAP1 POP SWAP3 SWAP2 POP POP JUMP JUMPDEST PUSH1 0x0 PUSH1 0x20 DUP3 ADD SWAP1 POP PUSH2 0x3823 PUSH1 0x0 DUP4 ADD DUP5 PUSH2 0x2D9B JUMP JUMPDEST SWAP3 SWAP2 POP POP JUMP JUMPDEST PUSH1 0x0 PUSH1 0x80 DUP3 ADD SWAP1 POP PUSH2 0x383E PUSH1 0x0 DUP4 ADD DUP8 PUSH2 0x2D9B JUMP JUMPDEST PUSH2 0x384B PUSH1 0x20 DUP4 ADD DUP7 PUSH2 0x2D9B JUMP JUMPDEST PUSH2 0x3858 PUSH1 0x40 DUP4 ADD DUP6 PUSH2 0x34CA JUMP JUMPDEST DUP2 DUP2 SUB PUSH1 0x60 DUP4 ADD MSTORE PUSH2 0x386A DUP2 DUP5 PUSH2 0x2DB9 JUMP JUMPDEST SWAP1 POP SWAP6 SWAP5 POP POP POP POP POP JUMP JUMPDEST PUSH1 0x0 PUSH1 0x20 DUP3 ADD SWAP1 POP PUSH2 0x388A PUSH1 0x0 DUP4 ADD DUP5 PUSH2 0x2DAA JUMP JUMPDEST SWAP3 SWAP2 POP POP JUMP JUMPDEST PUSH1 0x0 PUSH1 0x20 DUP3 ADD SWAP1 POP DUP2 DUP2 SUB PUSH1 0x0 DUP4 ADD MSTORE PUSH2 0x38AA DUP2 DUP5 PUSH2 0x2E2B JUMP JUMPDEST SWAP1 POP SWAP3 SWAP2 POP POP JUMP JUMPDEST PUSH1 0x0 PUSH1 0x20 DUP3 ADD SWAP1 POP DUP2 DUP2 SUB PUSH1 0x0 DUP4 ADD MSTORE PUSH2 0x38CB DUP2 PUSH2 0x2E95 JUMP JUMPDEST SWAP1 POP SWAP2 SWAP1 POP JUMP JUMPDEST PUSH1 0x0 PUSH1 0x20 DUP3 ADD SWAP1 POP DUP2 DUP2 SUB PUSH1 0x0 DUP4 ADD MSTORE PUSH2 0x38EB DUP2 PUSH2 0x2EB8 JUMP JUMPDEST SWAP1 POP SWAP2 SWAP1 POP JUMP JUMPDEST PUSH1 0x0 PUSH1 0x20 DUP3 ADD SWAP1 POP DUP2 DUP2 SUB PUSH1 0x0 DUP4 ADD MSTORE PUSH2 0x390B DUP2 PUSH2 0x2EFE JUMP JUMPDEST SWAP1 POP SWAP2 SWAP1 POP JUMP JUMPDEST PUSH1 0x0 PUSH1 0x20 DUP3 ADD SWAP1 POP DUP2 DUP2 SUB PUSH1 0x0 DUP4 ADD MSTORE PUSH2 0x392B DUP2 PUSH2 0x2F21 JUMP JUMPDEST SWAP1 POP SWAP2 SWAP1 POP JUMP JUMPDEST PUSH1 0x0 PUSH1 0x20 DUP3 ADD SWAP1 POP DUP2 DUP2 SUB PUSH1 0x0 DUP4 ADD MSTORE PUSH2 0x394B DUP2 PUSH2 0x2FAF JUMP JUMPDEST SWAP1 POP SWAP2 SWAP1 POP JUMP JUMPDEST PUSH1 0x0 PUSH1 0x20 DUP3 ADD SWAP1 POP DUP2 DUP2 SUB PUSH1 0x0 DUP4 ADD MSTORE PUSH2 0x396B DUP2 PUSH2 0x2FF5 JUMP JUMPDEST SWAP1 POP SWAP2 SWAP1 POP JUMP JUMPDEST PUSH1 0x0 PUSH1 0x20 DUP3 ADD SWAP1 POP DUP2 DUP2 SUB PUSH1 0x0 DUP4 ADD MSTORE PUSH2 0x398B DUP2 PUSH2 0x3018 JUMP JUMPDEST SWAP1 POP SWAP2 SWAP1 POP JUMP JUMPDEST PUSH1 0x0 PUSH1 0x20 DUP3 ADD SWAP1 POP DUP2 DUP2 SUB PUSH1 0x0 DUP4 ADD MSTORE PUSH2 0x39AB DUP2 PUSH2 0x305E JUMP JUMPDEST SWAP1 POP SWAP2 SWAP1 POP JUMP JUMPDEST PUSH1 0x0 PUSH1 0x20 DUP3 ADD SWAP1 POP DUP2 DUP2 SUB PUSH1 0x0 DUP4 ADD MSTORE PUSH2 0x39CB DUP2 PUSH2 0x3081 JUMP JUMPDEST SWAP1 POP SWAP2 SWAP1 POP JUMP JUMPDEST PUSH1 0x0 PUSH1 0x20 DUP3 ADD SWAP1 POP DUP2 DUP2 SUB PUSH1 0x0 DUP4 ADD MSTORE PUSH2 0x39EB DUP2 PUSH2 0x30EA JUMP JUMPDEST SWAP1 POP SWAP2 SWAP1 POP JUMP JUMPDEST PUSH1 0x0 PUSH1 0x20 DUP3 ADD SWAP1 POP DUP2 DUP2 SUB PUSH1 0x0 DUP4 ADD MSTORE PUSH2 0x3A0B DUP2 PUSH2 0x3227 JUMP JUMPDEST SWAP1 POP SWAP2 SWAP1 POP JUMP JUMPDEST PUSH1 0x0 PUSH1 0x20 DUP3 ADD SWAP1 POP DUP2 DUP2 SUB PUSH1 0x0 DUP4 ADD MSTORE PUSH2 0x3A2B DUP2 PUSH2 0x331C JUMP JUMPDEST SWAP1 POP SWAP2 SWAP1 POP JUMP JUMPDEST PUSH1 0x0 PUSH1 0x20 DUP3 ADD SWAP1 POP DUP2 DUP2 SUB PUSH1 0x0 DUP4 ADD MSTORE PUSH2 0x3A4B DUP2 PUSH2 0x333F JUMP JUMPDEST SWAP1 POP SWAP2 SWAP1 POP JUMP JUMPDEST PUSH1 0x0 PUSH1 0x20 DUP3 ADD SWAP1 POP DUP2 DUP2 SUB PUSH1 0x0 DUP4 ADD MSTORE PUSH2 0x3A6B DUP2 PUSH2 0x3385 JUMP JUMPDEST SWAP1 POP SWAP2 SWAP1 POP JUMP JUMPDEST PUSH1 0x0 PUSH1 0x20 DUP3 ADD SWAP1 POP DUP2 DUP2 SUB PUSH1 0x0 DUP4 ADD MSTORE PUSH2 0x3A8C DUP2 DUP5 PUSH2 0x347A JUMP JUMPDEST SWAP1 POP SWAP3 SWAP2 POP POP JUMP JUMPDEST PUSH1 0x0 PUSH1 0x20 DUP3 ADD SWAP1 POP PUSH2 0x3AA9 PUSH1 0x0 DUP4 ADD DUP5 PUSH2 0x34CA JUMP JUMPDEST SWAP3 SWAP2 POP POP JUMP JUMPDEST PUSH1 0x0 PUSH2 0x3AB9 PUSH2 0x3ACA JUMP JUMPDEST SWAP1 POP PUSH2 0x3AC5 DUP3 DUP3 PUSH2 0x3DB1 JUMP JUMPDEST SWAP2 SWAP1 POP JUMP JUMPDEST PUSH1 0x0 PUSH1 0x40 MLOAD SWAP1 POP SWAP1 JUMP JUMPDEST PUSH1 0x0 PUSH8 0xFFFFFFFFFFFFFFFF DUP3 GT ISZERO PUSH2 0x3AEF JUMPI PUSH2 0x3AEE PUSH2 0x3EE7 JUMP JUMPDEST JUMPDEST PUSH2 0x3AF8 DUP3 PUSH2 0x3F2A JUMP JUMPDEST SWAP1 POP PUSH1 0x20 DUP2 ADD SWAP1 POP SWAP2 SWAP1 POP JUMP JUMPDEST PUSH1 0x0 PUSH8 0xFFFFFFFFFFFFFFFF DUP3 GT ISZERO PUSH2 0x3B20 JUMPI PUSH2 0x3B1F PUSH2 0x3EE7 JUMP JUMPDEST JUMPDEST PUSH2 0x3B29 DUP3 PUSH2 0x3F2A JUMP JUMPDEST SWAP1 POP PUSH1 0x20 DUP2 ADD SWAP1 POP SWAP2 SWAP1 POP JUMP JUMPDEST PUSH1 0x0 DUP2 MLOAD SWAP1 POP SWAP2 SWAP1 POP JUMP JUMPDEST PUSH1 0x0 DUP2 MLOAD SWAP1 POP SWAP2 SWAP1 POP JUMP JUMPDEST PUSH1 0x0 DUP3 DUP3 MSTORE PUSH1 0x20 DUP3 ADD SWAP1 POP SWAP3 SWAP2 POP POP JUMP JUMPDEST PUSH1 0x0 DUP3 DUP3 MSTORE PUSH1 0x20 DUP3 ADD SWAP1 POP SWAP3 SWAP2 POP POP JUMP JUMPDEST PUSH1 0x0 DUP3 DUP3 MSTORE PUSH1 0x20 DUP3 ADD SWAP1 POP SWAP3 SWAP2 POP POP JUMP JUMPDEST PUSH1 0x0 DUP2 SWAP1 POP SWAP3 SWAP2 POP POP JUMP JUMPDEST PUSH1 0x0 PUSH2 0x3B95 DUP3 PUSH2 0x3D09 JUMP JUMPDEST SWAP2 POP PUSH2 0x3BA0 DUP4 PUSH2 0x3D09 JUMP JUMPDEST SWAP3 POP DUP3 PUSH32 0xFFFFFFFFFFFFFFFFFFFFFFFFFFFFFFFFFFFFFFFFFFFFFFFFFFFFFFFFFFFFFFFF SUB DUP3 GT ISZERO PUSH2 0x3BD5 JUMPI PUSH2 0x3BD4 PUSH2 0x3E2B JUMP JUMPDEST JUMPDEST DUP3 DUP3 ADD SWAP1 POP SWAP3 SWAP2 POP POP JUMP JUMPDEST PUSH1 0x0 PUSH2 0x3BEB DUP3 PUSH2 0x3D09 JUMP JUMPDEST SWAP2 POP PUSH2 0x3BF6 DUP4 PUSH2 0x3D09 JUMP JUMPDEST SWAP3 POP DUP3 PUSH2 0x3C06 JUMPI PUSH2 0x3C05 PUSH2 0x3E5A JUMP JUMPDEST JUMPDEST DUP3 DUP3 DIV SWAP1 POP SWAP3 SWAP2 POP POP JUMP JUMPDEST PUSH1 0x0 PUSH2 0x3C1C DUP3 PUSH2 0x3D09 JUMP JUMPDEST SWAP2 POP PUSH2 0x3C27 DUP4 PUSH2 0x3D09 JUMP JUMPDEST SWAP3 POP DUP2 PUSH32 0xFFFFFFFFFFFFFFFFFFFFFFFFFFFFFFFFFFFFFFFFFFFFFFFFFFFFFFFFFFFFFFFF DIV DUP4 GT DUP3 ISZERO ISZERO AND ISZERO PUSH2 0x3C60 JUMPI PUSH2 0x3C5F PUSH2 0x3E2B JUMP JUMPDEST JUMPDEST DUP3 DUP3 MUL SWAP1 POP SWAP3 SWAP2 POP POP JUMP JUMPDEST PUSH1 0x0 PUSH2 0x3C76 DUP3 PUSH2 0x3D09 JUMP JUMPDEST SWAP2 POP PUSH2 0x3C81 DUP4 PUSH2 0x3D09 JUMP JUMPDEST SWAP3 POP DUP3 DUP3 LT ISZERO PUSH2 0x3C94 JUMPI PUSH2 0x3C93 PUSH2 0x3E2B JUMP JUMPDEST JUMPDEST DUP3 DUP3 SUB SWAP1 POP SWAP3 SWAP2 POP POP JUMP JUMPDEST PUSH1 0x0 PUSH2 0x3CAA DUP3 PUSH2 0x3CE9 JUMP JUMPDEST SWAP1 POP SWAP2 SWAP1 POP JUMP JUMPDEST PUSH1 0x0 DUP2 ISZERO ISZERO SWAP1 POP SWAP2 SWAP1 POP JUMP JUMPDEST PUSH1 0x0 PUSH32 0xFFFFFFFF00000000000000000000000000000000000000000000000000000000 DUP3 AND SWAP1 POP SWAP2 SWAP1 POP JUMP JUMPDEST PUSH1 0x0 PUSH20 0xFFFFFFFFFFFFFFFFFFFFFFFFFFFFFFFFFFFFFFFF DUP3 AND SWAP1 POP SWAP2 SWAP1 POP JUMP JUMPDEST PUSH1 0x0 DUP2 SWAP1 POP SWAP2 SWAP1 POP JUMP JUMPDEST DUP3 DUP2 DUP4 CALLDATACOPY PUSH1 0x0 DUP4 DUP4 ADD MSTORE POP POP POP JUMP JUMPDEST PUSH1 0x0 JUMPDEST DUP4 DUP2 LT ISZERO PUSH2 0x3D40 JUMPI DUP1 DUP3 ADD MLOAD DUP2 DUP5 ADD MSTORE PUSH1 0x20 DUP2 ADD SWAP1 POP PUSH2 0x3D25 JUMP JUMPDEST DUP4 DUP2 GT ISZERO PUSH2 0x3D4F JUMPI PUSH1 0x0 DUP5 DUP5 ADD MSTORE JUMPDEST POP POP POP POP JUMP JUMPDEST PUSH1 0x0 PUSH2 0x3D60 DUP3 PUSH2 0x3D09 JUMP JUMPDEST SWAP2 POP PUSH1 0x0 DUP3 EQ ISZERO PUSH2 0x3D74 JUMPI PUSH2 0x3D73 PUSH2 0x3E2B JUMP JUMPDEST JUMPDEST PUSH1 0x1 DUP3 SUB SWAP1 POP SWAP2 SWAP1 POP JUMP JUMPDEST PUSH1 0x0 PUSH1 0x2 DUP3 DIV SWAP1 POP PUSH1 0x1 DUP3 AND DUP1 PUSH2 0x3D97 JUMPI PUSH1 0x7F DUP3 AND SWAP2 POP JUMPDEST PUSH1 0x20 DUP3 LT DUP2 EQ ISZERO PUSH2 0x3DAB JUMPI PUSH2 0x3DAA PUSH2 0x3E89 JUMP JUMPDEST JUMPDEST POP SWAP2 SWAP1 POP JUMP JUMPDEST PUSH2 0x3DBA DUP3 PUSH2 0x3F2A JUMP JUMPDEST DUP2 ADD DUP2 DUP2 LT PUSH8 0xFFFFFFFFFFFFFFFF DUP3 GT OR ISZERO PUSH2 0x3DD9 JUMPI PUSH2 0x3DD8 PUSH2 0x3EE7 JUMP JUMPDEST JUMPDEST DUP1 PUSH1 0x40 MSTORE POP POP POP JUMP JUMPDEST PUSH1 0x0 PUSH2 0x3DED DUP3 PUSH2 0x3D09 JUMP JUMPDEST SWAP2 POP PUSH32 0xFFFFFFFFFFFFFFFFFFFFFFFFFFFFFFFFFFFFFFFFFFFFFFFFFFFFFFFFFFFFFFFF DUP3 EQ ISZERO PUSH2 0x3E20 JUMPI PUSH2 0x3E1F PUSH2 0x3E2B JUMP JUMPDEST JUMPDEST PUSH1 0x1 DUP3 ADD SWAP1 POP SWAP2 SWAP1 POP JUMP JUMPDEST PUSH32 0x4E487B7100000000000000000000000000000000000000000000000000000000 PUSH1 0x0 MSTORE PUSH1 0x11 PUSH1 0x4 MSTORE PUSH1 0x24 PUSH1 0x0 REVERT JUMPDEST PUSH32 0x4E487B7100000000000000000000000000000000000000000000000000000000 PUSH1 0x0 MSTORE PUSH1 0x12 PUSH1 0x4 MSTORE PUSH1 0x24 PUSH1 0x0 REVERT JUMPDEST PUSH32 0x4E487B7100000000000000000000000000000000000000000000000000000000 PUSH1 0x0 MSTORE PUSH1 0x22 PUSH1 0x4 MSTORE PUSH1 0x24 PUSH1 0x0 REVERT JUMPDEST PUSH32 0x4E487B7100000000000000000000000000000000000000000000000000000000 PUSH1 0x0 MSTORE PUSH1 0x32 PUSH1 0x4 MSTORE PUSH1 0x24 PUSH1 0x0 REVERT JUMPDEST PUSH32 0x4E487B7100000000000000000000000000000000000000000000000000000000 PUSH1 0x0 MSTORE PUSH1 0x41 PUSH1 0x4 MSTORE PUSH1 0x24 PUSH1 0x0 REVERT JUMPDEST PUSH1 0x0 DUP1 REVERT JUMPDEST PUSH1 0x0 DUP1 REVERT JUMPDEST PUSH1 0x0 DUP1 REVERT JUMPDEST PUSH1 0x0 DUP1 REVERT JUMPDEST PUSH1 0x0 PUSH1 0x1F NOT PUSH1 0x1F DUP4 ADD AND SWAP1 POP SWAP2 SWAP1 POP JUMP JUMPDEST PUSH32 0x537472696E67733A20686578206C656E67746820696E73756666696369656E74 PUSH1 0x0 DUP3 ADD MSTORE POP JUMP JUMPDEST PUSH32 0x4552433732313A2063616C6C6572206973206E6F7420746F6B656E206F776E65 PUSH1 0x0 DUP3 ADD MSTORE PUSH32 0x72206F7220617070726F76656400000000000000000000000000000000000000 PUSH1 0x20 DUP3 ADD MSTORE POP JUMP JUMPDEST PUSH32 0x3C2F747370616E3E3C747370616E20783D22302220793D223132362220666F6E PUSH1 0x0 DUP3 ADD MSTORE PUSH32 0x742D7765696768743D2233303022207374726F6B652D77696474683D2230223E PUSH1 0x20 DUP3 ADD MSTORE PUSH32 0x3C215B43444154415B0000000000000000000000000000000000000000000000 PUSH1 0x40 DUP3 ADD MSTORE POP JUMP JUMPDEST PUSH32 0x54686973206D65737361676520697320746F6F206269672E204D617820363732 PUSH1 0x0 DUP3 ADD MSTORE PUSH32 0x2063686172616374657273000000000000000000000000000000000000000000 PUSH1 0x20 DUP3 ADD MSTORE POP JUMP JUMPDEST PUSH32 0x4552433732313A207472616E7366657220746F206E6F6E204552433732315265 PUSH1 0x0 DUP3 ADD MSTORE PUSH32 0x63656976657220696D706C656D656E7465720000000000000000000000000000 PUSH1 0x20 DUP3 ADD MSTORE POP JUMP JUMPDEST PUSH32 0x3C73766720786D6C6E733D22687474703A2F2F7777772E77332E6F72672F3230 PUSH1 0x0 DUP3 ADD MSTORE PUSH32 0x30302F7376672220786D6C6E733A786C696E6B3D22687474703A2F2F7777772E PUSH1 0x20 DUP3 ADD MSTORE PUSH32 0x77332E6F72672F313939392F786C696E6B222076696577426F783D2230203020 PUSH1 0x40 DUP3 ADD MSTORE PUSH32 0x33363020333630222073686170652D72656E646572696E673D2267656F6D6574 PUSH1 0x60 DUP3 ADD MSTORE PUSH32 0x726963507265636973696F6E2220746578742D72656E646572696E673D226765 PUSH1 0x80 DUP3 ADD MSTORE PUSH32 0x6F6D6574726963507265636973696F6E222077696474683D2233363022206865 PUSH1 0xA0 DUP3 ADD MSTORE PUSH32 0x696768743D2233363022207374796C653D226261636B67726F756E642D636F6C PUSH1 0xC0 DUP3 ADD MSTORE PUSH32 0x6F723A23303030223E3C746578742064783D2230222064793D22302220666F6E PUSH1 0xE0 DUP3 ADD MSTORE PUSH32 0x742D66616D696C793D222671756F743B50726F6D70742671756F743B2220666F PUSH2 0x100 DUP3 ADD MSTORE PUSH32 0x6E742D73697A653D2231322220666F6E742D7765696768743D22333030222074 PUSH2 0x120 DUP3 ADD MSTORE PUSH32 0x72616E73666F726D3D227472616E736C617465283131382E3632393435372033 PUSH2 0x140 DUP3 ADD MSTORE PUSH32 0x33372E33343636323129222066696C6C3D222330306666356122207374726F6B PUSH2 0x160 DUP3 ADD MSTORE PUSH32 0x652D77696474683D2230223E3C747370616E20793D22302220666F6E742D7765 PUSH2 0x180 DUP3 ADD MSTORE PUSH32 0x696768743D2233303022207374726F6B652D77696474683D2230223E3C215B43 PUSH2 0x1A0 DUP3 ADD MSTORE PUSH32 0x444154415B5265706C7920617420706D732E696F205D5D3E3C2F747370616E3E PUSH2 0x1C0 DUP3 ADD MSTORE PUSH32 0x3C2F746578743E3C746578742064783D2230222064793D22302220666F6E742D PUSH2 0x1E0 DUP3 ADD MSTORE PUSH32 0x66616D696C793D222671756F743B50726F6D70742671756F743B2220666F6E74 PUSH2 0x200 DUP3 ADD MSTORE PUSH32 0x2D73697A653D2231342220666F6E742D7765696768743D223430302220747261 PUSH2 0x220 DUP3 ADD MSTORE PUSH32 0x6E73666F726D3D227472616E736C61746528382E37323538362032312E323833 PUSH2 0x240 DUP3 ADD MSTORE PUSH32 0x30363429222066696C6C3D222366346634663422207374726F6B652D77696474 PUSH2 0x260 DUP3 ADD MSTORE PUSH32 0x683D2230223E3C747370616E20793D22302220666F6E742D7765696768743D22 PUSH2 0x280 DUP3 ADD MSTORE PUSH32 0x34303022207374726F6B652D77696474683D2230223E3C215B43444154415B46 PUSH2 0x2A0 DUP3 ADD MSTORE PUSH32 0x726F6D3A20000000000000000000000000000000000000000000000000000000 PUSH2 0x2C0 DUP3 ADD MSTORE POP JUMP JUMPDEST PUSH32 0x5D5D3E3C2F747370616E3E3C747370616E20783D22302220793D223238222066 PUSH1 0x0 DUP3 ADD MSTORE PUSH32 0x6F6E742D7765696768743D2234303022207374726F6B652D77696474683D2230 PUSH1 0x20 DUP3 ADD MSTORE PUSH32 0x223E3C215B43444154415B554E495820446174653A2000000000000000000000 PUSH1 0x40 DUP3 ADD MSTORE POP JUMP JUMPDEST PUSH32 0x3C2F747370616E3E3C747370616E20783D22302220793D223134302220666F6E PUSH1 0x0 DUP3 ADD MSTORE PUSH32 0x742D7765696768743D2233303022207374726F6B652D77696474683D2230223E PUSH1 0x20 DUP3 ADD MSTORE PUSH32 0x3C215B43444154415B0000000000000000000000000000000000000000000000 PUSH1 0x40 DUP3 ADD MSTORE POP JUMP JUMPDEST PUSH32 0x546F6B656E206372656174696F6E207265766572746564000000000000000000 PUSH1 0x0 DUP3 ADD MSTORE POP JUMP JUMPDEST PUSH32 0x222C000000000000000000000000000000000000000000000000000000000000 PUSH1 0x0 DUP3 ADD MSTORE POP JUMP JUMPDEST PUSH32 0x4552433732313A207472616E736665722066726F6D20696E636F727265637420 PUSH1 0x0 DUP3 ADD MSTORE PUSH32 0x6F776E6572000000000000000000000000000000000000000000000000000000 PUSH1 0x20 DUP3 ADD MSTORE POP JUMP JUMPDEST PUSH32 0x4552433732313A20746F6B656E20616C7265616479206D696E74656400000000 PUSH1 0x0 DUP3 ADD MSTORE POP JUMP JUMPDEST PUSH32 0x3C2F747370616E3E3C747370616E20783D22302220793D223135342220666F6E PUSH1 0x0 DUP3 ADD MSTORE PUSH32 0x742D7765696768743D2233303022207374726F6B652D77696474683D2230223E PUSH1 0x20 DUP3 ADD MSTORE PUSH32 0x3C215B43444154415B0000000000000000000000000000000000000000000000 PUSH1 0x40 DUP3 ADD MSTORE POP JUMP JUMPDEST PUSH32 0x4552433732313A207472616E7366657220746F20746865207A65726F20616464 PUSH1 0x0 DUP3 ADD MSTORE PUSH32 0x7265737300000000000000000000000000000000000000000000000000000000 PUSH1 0x20 DUP3 ADD MSTORE POP JUMP JUMPDEST PUSH32 0x4552433732313A20617070726F766520746F2063616C6C657200000000000000 PUSH1 0x0 DUP3 ADD MSTORE POP JUMP JUMPDEST PUSH32 0x3C2F747370616E3E3C747370616E20783D22302220793D223131322220666F6E PUSH1 0x0 DUP3 ADD MSTORE PUSH32 0x742D7765696768743D2233303022207374726F6B652D77696474683D2230223E PUSH1 0x20 DUP3 ADD MSTORE PUSH32 0x3C215B43444154415B0000000000000000000000000000000000000000000000 PUSH1 0x40 DUP3 ADD MSTORE POP JUMP JUMPDEST PUSH32 0x3C2F747370616E3E3C747370616E20783D22302220793D2238342220666F6E74 PUSH1 0x0 DUP3 ADD MSTORE PUSH32 0x2D7765696768743D2233303022207374726F6B652D77696474683D2230223E3C PUSH1 0x20 DUP3 ADD MSTORE PUSH32 0x215B43444154415B000000000000000000000000000000000000000000000000 PUSH1 0x40 DUP3 ADD MSTORE POP JUMP JUMPDEST PUSH32 0x4552433732313A2061646472657373207A65726F206973206E6F742061207661 PUSH1 0x0 DUP3 ADD MSTORE PUSH32 0x6C6964206F776E65720000000000000000000000000000000000000000000000 PUSH1 0x20 DUP3 ADD MSTORE POP JUMP JUMPDEST PUSH32 0x3C2F747370616E3E3C747370616E20783D22302220793D2237302220666F6E74 PUSH1 0x0 DUP3 ADD MSTORE PUSH32 0x2D7765696768743D2233303022207374726F6B652D77696474683D2230223E3C PUSH1 0x20 DUP3 ADD MSTORE PUSH32 0x215B43444154415B000000000000000000000000000000000000000000000000 PUSH1 0x40 DUP3 ADD MSTORE POP JUMP JUMPDEST PUSH32 0x2200000000000000000000000000000000000000000000000000000000000000 PUSH1 0x0 DUP3 ADD MSTORE POP JUMP JUMPDEST PUSH32 0x3C747370616E20793D22302220666F6E742D7765696768743D22333030222073 PUSH1 0x0 DUP3 ADD MSTORE PUSH32 0x74726F6B652D77696474683D2230223E3C215B43444154415B426F64793A5D5D PUSH1 0x20 DUP3 ADD MSTORE PUSH32 0x3E00000000000000000000000000000000000000000000000000000000000000 PUSH1 0x40 DUP3 ADD MSTORE POP JUMP JUMPDEST PUSH32 0x3C2F747370616E3E3C747370616E20783D22302220793D2231342220666F6E74 PUSH1 0x0 DUP3 ADD MSTORE PUSH32 0x2D7765696768743D2233303022207374726F6B652D77696474683D2230223E3C PUSH1 0x20 DUP3 ADD MSTORE PUSH32 0x215B43444154415B000000000000000000000000000000000000000000000000 PUSH1 0x40 DUP3 ADD MSTORE POP JUMP JUMPDEST PUSH32 0x3C2F747370616E3E3C747370616E20783D22302220793D223139362220666F6E PUSH1 0x0 DUP3 ADD MSTORE PUSH32 0x742D7765696768743D2233303022207374726F6B652D77696474683D2230223E PUSH1 0x20 DUP3 ADD MSTORE PUSH32 0x3C215B43444154415B0000000000000000000000000000000000000000000000 PUSH1 0x40 DUP3 ADD MSTORE POP JUMP JUMPDEST PUSH32 0x5D5D3E0000000000000000000000000000000000000000000000000000000000 PUSH1 0x0 DUP3 ADD MSTORE POP JUMP JUMPDEST PUSH32 0x22696D616765223A2022646174613A696D6167652F7376672B786D6C3B626173 PUSH1 0x0 DUP3 ADD MSTORE PUSH32 0x6536342C00000000000000000000000000000000000000000000000000000000 PUSH1 0x20 DUP3 ADD MSTORE POP JUMP JUMPDEST PUSH32 0x3C2F747370616E3E3C2F746578743E3C726563742077696474683D223130332E PUSH1 0x0 DUP3 ADD MSTORE PUSH32 0x35333134303522206865696768743D2232332E323934353636222072783D2230 PUSH1 0x20 DUP3 ADD MSTORE PUSH32 0x222072793D223022207472616E73666F726D3D226D617472697828312E313030 PUSH1 0x40 DUP3 ADD MSTORE PUSH32 0x3030312030203020312E323232323232203131332E393832373337203331382E PUSH1 0x60 DUP3 ADD MSTORE PUSH32 0x33363538363829222066696C6C3D227267626128302C3235352C36372C302922 PUSH1 0x80 DUP3 ADD MSTORE PUSH32 0x207374726F6B653D2223303066663138222F3E3C6C696E652078313D222D3139 PUSH1 0xA0 DUP3 ADD MSTORE PUSH32 0x372E303630303635222079313D2230222078323D223139372E30363030363522 PUSH1 0xC0 DUP3 ADD MSTORE PUSH32 0x2079323D223022207472616E73666F726D3D226D6174726978282E3931333432 PUSH1 0xE0 DUP3 ADD MSTORE PUSH32 0x372030203020302E35203138302E3030303031362036302E3139343732292220 PUSH2 0x100 DUP3 ADD MSTORE PUSH32 0x66696C6C3D226E6F6E6522207374726F6B653D22233030666631382220737472 PUSH2 0x120 DUP3 ADD MSTORE PUSH32 0x6F6B652D77696474683D2233222F3E3C2F7376673E0000000000000000000000 PUSH2 0x140 DUP3 ADD MSTORE POP JUMP JUMPDEST PUSH32 0x4552433732313A206D696E7420746F20746865207A65726F2061646472657373 PUSH1 0x0 DUP3 ADD MSTORE POP JUMP JUMPDEST PUSH32 0x3C2F747370616E3E3C747370616E20783D22302220793D2239382220666F6E74 PUSH1 0x0 DUP3 ADD MSTORE PUSH32 0x2D7765696768743D2233303022207374726F6B652D77696474683D2230223E3C PUSH1 0x20 DUP3 ADD MSTORE PUSH32 0x215B43444154415B000000000000000000000000000000000000000000000000 PUSH1 0x40 DUP3 ADD MSTORE POP JUMP JUMPDEST PUSH32 0x7D00000000000000000000000000000000000000000000000000000000000000 PUSH1 0x0 DUP3 ADD MSTORE POP JUMP JUMPDEST PUSH32 0x3C746578742064783D2230222064793D22302220666F6E742D66616D696C793D PUSH1 0x0 DUP3 ADD MSTORE PUSH32 0x222671756F743B50726F6D70742671756F743B2220666F6E742D73697A653D22 PUSH1 0x20 DUP3 ADD MSTORE PUSH32 0x31322220666F6E742D7765696768743D2233303022207472616E73666F726D3D PUSH1 0x40 DUP3 ADD MSTORE PUSH32 0x227472616E736C61746528392E3035383539332038302E323433363333292220 PUSH1 0x60 DUP3 ADD MSTORE PUSH32 0x66696C6C3D222330306666356122207374726F6B652D77696474683D2230223E PUSH1 0x80 DUP3 ADD MSTORE POP JUMP JUMPDEST PUSH32 0x7B00000000000000000000000000000000000000000000000000000000000000 PUSH1 0x0 DUP3 ADD MSTORE POP JUMP JUMPDEST PUSH32 0x3C2F747370616E3E3C747370616E20783D22302220793D2232382220666F6E74 PUSH1 0x0 DUP3 ADD MSTORE PUSH32 0x2D7765696768743D2233303022207374726F6B652D77696474683D2230223E3C PUSH1 0x20 DUP3 ADD MSTORE PUSH32 0x215B43444154415B000000000000000000000000000000000000000000000000 PUSH1 0x40 DUP3 ADD MSTORE POP JUMP JUMPDEST PUSH32 0x3C2F747370616E3E3C747370616E20783D22302220793D2235362220666F6E74 PUSH1 0x0 DUP3 ADD MSTORE PUSH32 0x2D7765696768743D2233303022207374726F6B652D77696474683D2230223E3C PUSH1 0x20 DUP3 ADD MSTORE PUSH32 0x215B43444154415B000000000000000000000000000000000000000000000000 PUSH1 0x40 DUP3 ADD MSTORE POP JUMP JUMPDEST PUSH32 0x4552433732313A20696E76616C696420746F6B656E2049440000000000000000 PUSH1 0x0 DUP3 ADD MSTORE POP JUMP JUMPDEST PUSH32 0x4552433732313A20617070726F76616C20746F2063757272656E74206F776E65 PUSH1 0x0 DUP3 ADD MSTORE PUSH32 0x7200000000000000000000000000000000000000000000000000000000000000 PUSH1 0x20 DUP3 ADD MSTORE POP JUMP JUMPDEST PUSH32 0x646174613A6170706C69636174696F6E2F6A736F6E3B6261736536342C000000 PUSH1 0x0 DUP3 ADD MSTORE POP JUMP JUMPDEST PUSH32 0x4552433732313A20617070726F76652063616C6C6572206973206E6F7420746F PUSH1 0x0 DUP3 ADD MSTORE PUSH32 0x6B656E206F776E6572206F7220617070726F76656420666F7220616C6C000000 PUSH1 0x20 DUP3 ADD MSTORE POP JUMP JUMPDEST PUSH32 0x226E616D65223A20224D65737361676520230000000000000000000000000000 PUSH1 0x0 DUP3 ADD MSTORE POP JUMP JUMPDEST PUSH32 0x5D5D3E3C2F747370616E3E3C2F746578743E0000000000000000000000000000 PUSH1 0x0 DUP3 ADD MSTORE POP JUMP JUMPDEST PUSH32 0x5D5D3E3C2F747370616E3E3C747370616E20783D22302220793D223134222066 PUSH1 0x0 DUP3 ADD MSTORE PUSH32 0x6F6E742D7765696768743D2234303022207374726F6B652D77696474683D2230 PUSH1 0x20 DUP3 ADD MSTORE PUSH32 0x223E3C215B43444154415B546F3A200000000000000000000000000000000000 PUSH1 0x40 DUP3 ADD MSTORE POP JUMP JUMPDEST PUSH32 0x3C2F747370616E3E3C747370616E20783D22302220793D223138322220666F6E PUSH1 0x0 DUP3 ADD MSTORE PUSH32 0x742D7765696768743D2233303022207374726F6B652D77696474683D2230223E PUSH1 0x20 DUP3 ADD MSTORE PUSH32 0x3C215B43444154415B0000000000000000000000000000000000000000000000 PUSH1 0x40 DUP3 ADD MSTORE POP JUMP JUMPDEST PUSH32 0x3C2F747370616E3E3C747370616E20783D22302220793D2234322220666F6E74 PUSH1 0x0 DUP3 ADD MSTORE PUSH32 0x2D7765696768743D2233303022207374726F6B652D77696474683D2230223E3C PUSH1 0x20 DUP3 ADD MSTORE PUSH32 0x215B43444154415B000000000000000000000000000000000000000000000000 PUSH1 0x40 DUP3 ADD MSTORE POP JUMP JUMPDEST PUSH32 0x3C2F747370616E3E3C747370616E20783D22302220793D223136382220666F6E PUSH1 0x0 DUP3 ADD MSTORE PUSH32 0x742D7765696768743D2233303022207374726F6B652D77696474683D2230223E PUSH1 0x20 DUP3 ADD MSTORE PUSH32 0x3C215B43444154415B0000000000000000000000000000000000000000000000 PUSH1 0x40 DUP3 ADD MSTORE POP JUMP JUMPDEST PUSH2 0x51F3 DUP2 PUSH2 0x3C9F JUMP JUMPDEST DUP2 EQ PUSH2 0x51FE JUMPI PUSH1 0x0 DUP1 REVERT JUMPDEST POP JUMP JUMPDEST PUSH2 0x520A DUP2 PUSH2 0x3CB1 JUMP JUMPDEST DUP2 EQ PUSH2 0x5215 JUMPI PUSH1 0x0 DUP1 REVERT JUMPDEST POP JUMP JUMPDEST PUSH2 0x5221 DUP2 PUSH2 0x3CBD JUMP JUMPDEST DUP2 EQ PUSH2 0x522C JUMPI PUSH1 0x0 DUP1 REVERT JUMPDEST POP JUMP JUMPDEST PUSH2 0x5238 DUP2 PUSH2 0x3D09 JUMP JUMPDEST DUP2 EQ PUSH2 0x5243 JUMPI PUSH1 0x0 DUP1 REVERT JUMPDEST POP JUMP INVALID COINBASE TIMESTAMP NUMBER DIFFICULTY GASLIMIT CHAINID SELFBALANCE BASEFEE 0x49 0x4A 0x4B 0x4C 0x4D 0x4E 0x4F POP MLOAD MSTORE MSTORE8 SLOAD SSTORE JUMP JUMPI PC MSIZE GAS PUSH2 0x6263 PUSH5 0x6566676869 PUSH11 0x6B6C6D6E6F707172737475 PUSH23 0x7778797A303132333435363738392B2FA2646970667358 0x22 SLT KECCAK256 PUSH28 0x6C078C445CC732D3F6237855157BC4F50B2A0CE02DA869763B240AA6 0x49 0xEF DUP15 PUSH5 0x736F6C6343 STOP ADDMOD SMOD STOP CALLER LOG2 PUSH5 0x6970667358 0x22 SLT KECCAK256 LT 0x21 LT SSTORE 0xB5 0xCD PUSH23 0x85FF5DB6643D5D520824FC3B81BBA5307E5EB36CCCEEE6 PUSH11 0xA264736F6C634300080700 CALLER "
		},
		"gasEstimates": {
			"creation": {
				"codeDepositCost": "5931600",
				"executionCost": "7291",
				"totalCost": "5938891"
			},
			"external": {
				"beforeAll()": "infinite",
				"deploy()": "infinite",
				"testSendMessage()": "infinite",
				"testSendMessageAgain()": "infinite"
			}
		},
		"methodIdentifiers": {
			"beforeAll()": "7fea0d4b",
			"deploy()": "775c300c",
			"testSendMessage()": "fcb52e63",
			"testSendMessageAgain()": "0392dcf7"
		}
	},
	"abi": [
		{
			"inputs": [],
			"name": "beforeAll",
			"outputs": [],
			"stateMutability": "nonpayable",
			"type": "function"
		},
		{
			"inputs": [],
			"name": "deploy",
			"outputs": [
				{
					"internalType": "bool",
					"name": "",
					"type": "bool"
				}
			],
			"stateMutability": "nonpayable",
			"type": "function"
		},
		{
			"inputs": [],
			"name": "testSendMessage",
			"outputs": [],
			"stateMutability": "nonpayable",
			"type": "function"
		},
		{
			"inputs": [],
			"name": "testSendMessageAgain",
			"outputs": [],
			"stateMutability": "nonpayable",
			"type": "function"
		}
	]
}