{
	"data": {
		"bytecode": {
			"linkReferences": {},
			"object": "608060405260306006553480156200001657600080fd5b506040518060400160405280600e81526020017f506f6c794d7367536572766963650000000000000000000000000000000000008152506040518060400160405280600381526020017f504d53000000000000000000000000000000000000000000000000000000000081525081600090805190602001906200009b929190620000bd565b508060019080519060200190620000b4929190620000bd565b505050620001d2565b828054620000cb906200016d565b90600052602060002090601f016020900481019282620000ef57600085556200013b565b82601f106200010a57805160ff19168380011785556200013b565b828001600101855582156200013b579182015b828111156200013a5782518255916020019190600101906200011d565b5b5090506200014a91906200014e565b5090565b5b80821115620001695760008160009055506001016200014f565b5090565b600060028204905060018216806200018657607f821691505b602082108114156200019d576200019c620001a3565b5b50919050565b7f4e487b7100000000000000000000000000000000000000000000000000000000600052602260045260246000fd5b6157bf80620001e26000396000f3fe6080604052600436106100c25760003560e01c806370a082311161007f57806395d89b411161005957806395d89b41146102c8578063ad75c91d146102f3578063c87b56dd14610330578063d088db401461036d576100c2565b806370a082311461021157806374eecae51461024e5780638ffac1921461028b576100c2565b806301ffc9a7146100c757806306fdde0314610104578063179026011461012f57806318160ddd1461016c5780635ab7ecb0146101975780636352211e146101d4575b600080fd5b3480156100d357600080fd5b506100ee60048036038101906100e9919061272a565b610389565b6040516100fb91906133fc565b60405180910390f35b34801561011057600080fd5b5061011961046b565b6040516101269190613417565b60405180910390f35b34801561013b57600080fd5b5061015660048036038101906101519190612784565b6104fd565b6040516101639190613599565b60405180910390f35b34801561017857600080fd5b50610181610668565b60405161018e91906135bb565b60405180910390f35b3480156101a357600080fd5b506101be60048036038101906101b991906126b2565b610672565b6040516101cb91906133fc565b60405180910390f35b3480156101e057600080fd5b506101fb60048036038101906101f69190612784565b61078b565b6040516102089190613373565b60405180910390f35b34801561021d57600080fd5b50610238600480360381019061023391906125a9565b610812565b60405161024591906135bb565b60405180910390f35b34801561025a57600080fd5b50610275600480360381019061027091906125a9565b6108ca565b60405161028291906135bb565b60405180910390f35b34801561029757600080fd5b506102b260048036038101906102ad91906125d6565b610913565b6040516102bf91906133da565b60405180910390f35b3480156102d457600080fd5b506102dd610b50565b6040516102ea9190613417565b60405180910390f35b3480156102ff57600080fd5b5061031a60048036038101906103159190612672565b610be2565b60405161032791906135bb565b60405180910390f35b34801561033c57600080fd5b5061035760048036038101906103529190612784565b610c3d565b6040516103649190613417565b60405180910390f35b61038760048036038101906103829190612616565b610cd2565b005b60007f13f2a32f000000000000000000000000000000000000000000000000000000007bffffffffffffffffffffffffffffffffffffffffffffffffffffffff1916827bffffffffffffffffffffffffffffffffffffffffffffffffffffffff1916148061045457507f5b5e139f000000000000000000000000000000000000000000000000000000007bffffffffffffffffffffffffffffffffffffffffffffffffffffffff1916827bffffffffffffffffffffffffffffffffffffffffffffffffffffffff1916145b80610464575061046382610dd4565b5b9050919050565b60606000805461047a906138da565b80601f01602080910402602001604051908101604052809291908181526020018280546104a6906138da565b80156104f35780601f106104c8576101008083540402835291602001916104f3565b820191906000526020600020905b8154815290600101906020018083116104d657829003601f168201915b5050505050905090565b610505612357565b600a60008381526020019081526020016000206040518060600160405290816000820160009054906101000a900473ffffffffffffffffffffffffffffffffffffffff1673ffffffffffffffffffffffffffffffffffffffff1673ffffffffffffffffffffffffffffffffffffffff1681526020016001820160009054906101000a900473ffffffffffffffffffffffffffffffffffffffff1673ffffffffffffffffffffffffffffffffffffffff1673ffffffffffffffffffffffffffffffffffffffff1681526020016002820180546105df906138da565b80601f016020809104026020016040519081016040528092919081815260200182805461060b906138da565b80156106585780601f1061062d57610100808354040283529160200191610658565b820191906000526020600020905b81548152906001019060200180831161063b57829003601f168201915b5050505050815250509050919050565b6000600754905090565b60006102a08251106106b9576040517f08c379a00000000000000000000000000000000000000000000000000000000081526004016106b090613459565b60405180910390fd5b60648351106106fd576040517f08c379a00000000000000000000000000000000000000000000000000000000081526004016106f490613559565b60405180910390fd5b60005b83518110156107805761072e338583815181106107205761071f613a13565b5b602002602001015185610e3e565b61076d576040517f08c379a0000000000000000000000000000000000000000000000000000000008152600401610764906134d9565b60405180910390fd5b80806107789061393d565b915050610700565b506001905092915050565b60008061079783611075565b9050600073ffffffffffffffffffffffffffffffffffffffff168173ffffffffffffffffffffffffffffffffffffffff161415610809576040517f08c379a000000000000000000000000000000000000000000000000000000000815260040161080090613579565b60405180910390fd5b80915050919050565b60008073ffffffffffffffffffffffffffffffffffffffff168273ffffffffffffffffffffffffffffffffffffffff161415610883576040517f08c379a000000000000000000000000000000000000000000000000000000000815260040161087a90613519565b60405180910390fd5b600360008373ffffffffffffffffffffffffffffffffffffffff1673ffffffffffffffffffffffffffffffffffffffff168152602001908152602001600020549050919050565b6000600960008373ffffffffffffffffffffffffffffffffffffffff1673ffffffffffffffffffffffffffffffffffffffff168152602001908152602001600020549050919050565b60606000600960008573ffffffffffffffffffffffffffffffffffffffff1673ffffffffffffffffffffffffffffffffffffffff1681526020019081526020016000205467ffffffffffffffff8111156109705761096f613a42565b5b60405190808252806020026020018201604052801561099e5781602001602082028036833780820191505090505b5090506000600190505b6001600960008773ffffffffffffffffffffffffffffffffffffffff1673ffffffffffffffffffffffffffffffffffffffff168152602001908152602001600020546109f491906136e5565b811015610b45578373ffffffffffffffffffffffffffffffffffffffff16600a6000600860008973ffffffffffffffffffffffffffffffffffffffff1673ffffffffffffffffffffffffffffffffffffffff168152602001908152602001600020600085815260200190815260200160002054815260200190815260200160002060010160009054906101000a900473ffffffffffffffffffffffffffffffffffffffff1673ffffffffffffffffffffffffffffffffffffffff161415610b3257600860008673ffffffffffffffffffffffffffffffffffffffff1673ffffffffffffffffffffffffffffffffffffffff16815260200190815260200160002060008281526020019081526020016000205482600183610b1491906137c6565b81518110610b2557610b24613a13565b5b6020026020010181815250505b8080610b3d9061393d565b9150506109a8565b508091505092915050565b606060018054610b5f906138da565b80601f0160208091040260200160405190810160405280929190818152602001828054610b8b906138da565b8015610bd85780601f10610bad57610100808354040283529160200191610bd8565b820191906000526020600020905b815481529060010190602001808311610bbb57829003601f168201915b5050505050905090565b6000600860008473ffffffffffffffffffffffffffffffffffffffff1673ffffffffffffffffffffffffffffffffffffffff168152602001908152602001600020600083815260200190815260200160002054905092915050565b60606000610c4a836110b2565b604051602001610c5a9190612fcd565b60405160208183030381529060405290506000610c768461169d565b610c7f83611775565b604051602001610c9092919061326d565b6040516020818303038152906040529050610caa81611775565b604051602001610cba9190613351565b60405160208183030381529060405292505050919050565b6102a0815110610d17576040517f08c379a0000000000000000000000000000000000000000000000000000000008152600401610d0e90613459565b60405180910390fd5b3373ffffffffffffffffffffffffffffffffffffffff168273ffffffffffffffffffffffffffffffffffffffff161415610d86576040517f08c379a0000000000000000000000000000000000000000000000000000000008152600401610d7d906134f9565b60405180910390fd5b610d91338383610e3e565b610dd0576040517f08c379a0000000000000000000000000000000000000000000000000000000008152600401610dc790613499565b60405180910390fd5b5050565b60007f01ffc9a7000000000000000000000000000000000000000000000000000000007bffffffffffffffffffffffffffffffffffffffffffffffffffffffff1916827bffffffffffffffffffffffffffffffffffffffffffffffffffffffff1916149050919050565b60006001600960008673ffffffffffffffffffffffffffffffffffffffff1673ffffffffffffffffffffffffffffffffffffffff1681526020019081526020016000206000828254019250508190555060016007600082825401925050819055506000600a600060075481526020019081526020016000209050848160000160006101000a81548173ffffffffffffffffffffffffffffffffffffffff021916908373ffffffffffffffffffffffffffffffffffffffff160217905550838160010160006101000a81548173ffffffffffffffffffffffffffffffffffffffff021916908373ffffffffffffffffffffffffffffffffffffffff16021790555082816002019080519060200190610f569291906123a4565b50600754600860008773ffffffffffffffffffffffffffffffffffffffff1673ffffffffffffffffffffffffffffffffffffffff1681526020019081526020016000206000600960008973ffffffffffffffffffffffffffffffffffffffff1673ffffffffffffffffffffffffffffffffffffffff16815260200190815260200160002054815260200190815260200160002081905550610ff9846007546118d9565b826040516110079190612fcd565b60405180910390208473ffffffffffffffffffffffffffffffffffffffff168673ffffffffffffffffffffffffffffffffffffffff167f3e100f057239db422c0ebf9142f67c98e9ff6ac4aee1068a737cac01b9caa30460405160405180910390a460019150509392505050565b60006002600083815260200190815260200160002060009054906101000a900473ffffffffffffffffffffffffffffffffffffffff169050919050565b60606000600a600084815260200190815260200160002060020180546110d7906138da565b80601f0160208091040260200160405190810160405280929190818152602001828054611103906138da565b80156111505780601f1061112557610100808354040283529160200191611150565b820191906000526020600020905b81548152906001019060200180831161113357829003601f168201915b505050505090506000600e67ffffffffffffffff81111561117457611173613a42565b5b6040519080825280602002602001820160405280156111a757816020015b60608152602001906001900390816111925790505b509050600060065483516111bb919061373b565b905060005b6001826111cd91906136e5565b8110156112bc5761128b600a600088815260200190815260200160002060020180546111f8906138da565b80601f0160208091040260200160405190810160405280929190818152602001828054611224906138da565b80156112715780601f1061124657610100808354040283529160200191611271565b820191906000526020600020905b81548152906001019060200180831161125457829003601f168201915b505050505060065483611284919061376c565b86516118f7565b83828151811061129e5761129d613a13565b5b602002602001018190525080806112b49061393d565b9150506111c0565b5060005b825181101561136f5760008382815181106112de576112dd613a13565b5b602002602001015151118015611310575060065483828151811061130557611304613a13565b5b602002602001015151115b1561135c5761133d83828151811061132b5761132a613a13565b5b602002602001015160006006546118f7565b8382815181106113505761134f613a13565b5b60200260200101819052505b80806113679061393d565b9150506112c0565b5060006113c7600a600088815260200190815260200160002060000160009054906101000a900473ffffffffffffffffffffffffffffffffffffffff1673ffffffffffffffffffffffffffffffffffffffff166119f3565b61141c600a600089815260200190815260200160002060010160009054906101000a900473ffffffffffffffffffffffffffffffffffffffff1673ffffffffffffffffffffffffffffffffffffffff166119f3565b6114254261169d565b8560008151811061143957611438613a13565b5b6020026020010151604051602001611454949392919061317e565b604051602081830303815290604052905060008360018151811061147b5761147a613a13565b5b60200260200101518460028151811061149757611496613a13565b5b6020026020010151856003815181106114b3576114b2613a13565b5b6020026020010151866004815181106114cf576114ce613a13565b5b60200260200101516040516020016114ea949392919061302f565b604051602081830303815290604052905060008460058151811061151157611510613a13565b5b60200260200101518560068151811061152d5761152c613a13565b5b60200260200101518660078151811061154957611548613a13565b5b60200260200101518760088151811061156557611564613a13565b5b60200260200101518860098151811061158157611580613a13565b5b602002602001015160405160200161159d9594939291906130c5565b6040516020818303038152906040529050600085600a815181106115c4576115c3613a13565b5b602002602001015186600b815181106115e0576115df613a13565b5b602002602001015187600c815181106115fc576115fb613a13565b5b6020026020010151604051602001611616939291906132de565b6040516020818303038152906040529050600086600d8151811061163d5761163c613a13565b5b6020026020010151604051602001611655919061321f565b6040516020818303038152906040529050848484848460405160200161167f959493929190612fe4565b60405160208183030381529060405298505050505050505050919050565b6060600060016116ac84611a20565b01905060008167ffffffffffffffff8111156116cb576116ca613a42565b5b6040519080825280601f01601f1916602001820160405280156116fd5781602001600182028036833780820191505090505b509050600082602001820190505b60011561176a578080600190039150507f3031323334353637383961626364656600000000000000000000000000000000600a86061a8153600a8581611754576117536139b5565b5b04945060008514156117655761176a565b61170b565b819350505050919050565b6060600082511415611798576040518060200160405280600081525090506118d4565b600060405180606001604052806040815260200161574a60409139905060006003600285516117c791906136e5565b6117d1919061373b565b60046117dd919061376c565b67ffffffffffffffff8111156117f6576117f5613a42565b5b6040519080825280601f01601f1916602001820160405280156118285781602001600182028036833780820191505090505b509050600182016020820185865187015b80821015611894576003820191508151603f8160121c168501518453600184019350603f81600c1c168501518453600184019350603f8160061c168501518453600184019350603f8116850151845360018401935050611839565b50506003865106600181146118b057600281146118c3576118cb565b603d6001830353603d60028303536118cb565b603d60018303535b50505080925050505b919050565b6118f3828260405180602001604052806000815250611b73565b5050565b606060008490506000848461190c91906137c6565b67ffffffffffffffff81111561192557611924613a42565b5b6040519080825280601f01601f1916602001820160405280156119575781602001600182028036833780820191505090505b50905060008590505b848110156119e65782818151811061197b5761197a613a13565b5b602001015160f81c60f81b82878361199391906137c6565b815181106119a4576119a3613a13565b5b60200101907effffffffffffffffffffffffffffffffffffffffffffffffffffffffffffff1916908160001a90535080806119de9061393d565b915050611960565b5080925050509392505050565b6060611a198273ffffffffffffffffffffffffffffffffffffffff16601460ff16611bce565b9050919050565b600080600090507a184f03e93ff9f4daa797ed6e38ed64bf6a1f0100000000000000008310611a7e577a184f03e93ff9f4daa797ed6e38ed64bf6a1f0100000000000000008381611a7457611a736139b5565b5b0492506040810190505b6d04ee2d6d415b85acef81000000008310611abb576d04ee2d6d415b85acef81000000008381611ab157611ab06139b5565b5b0492506020810190505b662386f26fc100008310611aea57662386f26fc100008381611ae057611adf6139b5565b5b0492506010810190505b6305f5e1008310611b13576305f5e1008381611b0957611b086139b5565b5b0492506008810190505b6127108310611b38576127108381611b2e57611b2d6139b5565b5b0492506004810190505b60648310611b5b5760648381611b5157611b506139b5565b5b0492506002810190505b600a8310611b6a576001810190505b80915050919050565b611b7d8383611e0a565b611b8a6000848484612028565b611bc9576040517f08c379a0000000000000000000000000000000000000000000000000000000008152600401611bc090613479565b60405180910390fd5b505050565b606060006002836002611be1919061376c565b611beb91906136e5565b67ffffffffffffffff811115611c0457611c03613a42565b5b6040519080825280601f01601f191660200182016040528015611c365781602001600182028036833780820191505090505b5090507f300000000000000000000000000000000000000000000000000000000000000081600081518110611c6e57611c6d613a13565b5b60200101907effffffffffffffffffffffffffffffffffffffffffffffffffffffffffffff1916908160001a9053507f780000000000000000000000000000000000000000000000000000000000000081600181518110611cd257611cd1613a13565b5b60200101907effffffffffffffffffffffffffffffffffffffffffffffffffffffffffffff1916908160001a90535060006001846002611d12919061376c565b611d1c91906136e5565b90505b6001811115611dbc577f3031323334353637383961626364656600000000000000000000000000000000600f861660108110611d5e57611d5d613a13565b5b1a60f81b828281518110611d7557611d74613a13565b5b60200101907effffffffffffffffffffffffffffffffffffffffffffffffffffffffffffff1916908160001a905350600485901c945080611db5906138b0565b9050611d1f565b5060008414611e00576040517f08c379a0000000000000000000000000000000000000000000000000000000008152600401611df790613439565b60405180910390fd5b8091505092915050565b600073ffffffffffffffffffffffffffffffffffffffff168273ffffffffffffffffffffffffffffffffffffffff161415611e7a576040517f08c379a0000000000000000000000000000000000000000000000000000000008152600401611e7190613539565b60405180910390fd5b611e83816121bf565b15611ec3576040517f08c379a0000000000000000000000000000000000000000000000000000000008152600401611eba906134b9565b60405180910390fd5b611ed1600083836001612200565b611eda816121bf565b15611f1a576040517f08c379a0000000000000000000000000000000000000000000000000000000008152600401611f11906134b9565b60405180910390fd5b6001600360008473ffffffffffffffffffffffffffffffffffffffff1673ffffffffffffffffffffffffffffffffffffffff16815260200190815260200160002060008282540192505081905550816002600083815260200190815260200160002060006101000a81548173ffffffffffffffffffffffffffffffffffffffff021916908373ffffffffffffffffffffffffffffffffffffffff160217905550808273ffffffffffffffffffffffffffffffffffffffff16600073ffffffffffffffffffffffffffffffffffffffff167fddf252ad1be2c89b69c2b068fc378daa952ba7f163c4a11628f55a4df523b3ef60405160405180910390a4612024600083836001612326565b5050565b60006120498473ffffffffffffffffffffffffffffffffffffffff1661232c565b156121b2578373ffffffffffffffffffffffffffffffffffffffff1663150b7a0261207261234f565b8786866040518563ffffffff1660e01b8152600401612094949392919061338e565b602060405180830381600087803b1580156120ae57600080fd5b505af19250505080156120df57506040513d601f19601f820116820180604052508101906120dc9190612757565b60015b612162573d806000811461210f576040519150601f19603f3d011682016040523d82523d6000602084013e612114565b606091505b5060008151141561215a576040517f08c379a000000000000000000000000000000000000000000000000000000000815260040161215190613479565b60405180910390fd5b805181602001fd5b63150b7a0260e01b7bffffffffffffffffffffffffffffffffffffffffffffffffffffffff1916817bffffffffffffffffffffffffffffffffffffffffffffffffffffffff1916149150506121b7565b600190505b949350505050565b60008073ffffffffffffffffffffffffffffffffffffffff166121e183611075565b73ffffffffffffffffffffffffffffffffffffffff1614159050919050565b600181111561232057600073ffffffffffffffffffffffffffffffffffffffff168473ffffffffffffffffffffffffffffffffffffffff16146122945780600360008673ffffffffffffffffffffffffffffffffffffffff1673ffffffffffffffffffffffffffffffffffffffff168152602001908152602001600020600082825461228c91906137c6565b925050819055505b600073ffffffffffffffffffffffffffffffffffffffff168373ffffffffffffffffffffffffffffffffffffffff161461231f5780600360008573ffffffffffffffffffffffffffffffffffffffff1673ffffffffffffffffffffffffffffffffffffffff168152602001908152602001600020600082825461231791906136e5565b925050819055505b5b50505050565b50505050565b6000808273ffffffffffffffffffffffffffffffffffffffff163b119050919050565b600033905090565b6040518060600160405280600073ffffffffffffffffffffffffffffffffffffffff168152602001600073ffffffffffffffffffffffffffffffffffffffff168152602001606081525090565b8280546123b0906138da565b90600052602060002090601f0160209004810192826123d25760008555612419565b82601f106123eb57805160ff1916838001178555612419565b82800160010185558215612419579182015b828111156124185782518255916020019190600101906123fd565b5b509050612426919061242a565b5090565b5b8082111561244357600081600090555060010161242b565b5090565b600061245a612455846135fb565b6135d6565b9050808382526020820190508285602086028201111561247d5761247c613a76565b5b60005b858110156124ad578161249388826124f9565b845260208401935060208301925050600181019050612480565b5050509392505050565b60006124ca6124c584613627565b6135d6565b9050828152602081018484840111156124e6576124e5613a7b565b5b6124f184828561386e565b509392505050565b60008135905061250881615704565b92915050565b600082601f83011261252357612522613a71565b5b8135612533848260208601612447565b91505092915050565b60008135905061254b8161571b565b92915050565b6000815190506125608161571b565b92915050565b600082601f83011261257b5761257a613a71565b5b813561258b8482602086016124b7565b91505092915050565b6000813590506125a381615732565b92915050565b6000602082840312156125bf576125be613a85565b5b60006125cd848285016124f9565b91505092915050565b600080604083850312156125ed576125ec613a85565b5b60006125fb858286016124f9565b925050602061260c858286016124f9565b9150509250929050565b6000806040838503121561262d5761262c613a85565b5b600061263b858286016124f9565b925050602083013567ffffffffffffffff81111561265c5761265b613a80565b5b61266885828601612566565b9150509250929050565b6000806040838503121561268957612688613a85565b5b6000612697858286016124f9565b92505060206126a885828601612594565b9150509250929050565b600080604083850312156126c9576126c8613a85565b5b600083013567ffffffffffffffff8111156126e7576126e6613a80565b5b6126f38582860161250e565b925050602083013567ffffffffffffffff81111561271457612713613a80565b5b61272085828601612566565b9150509250929050565b6000602082840312156127405761273f613a85565b5b600061274e8482850161253c565b91505092915050565b60006020828403121561276d5761276c613a85565b5b600061277b84828501612551565b91505092915050565b60006020828403121561279a57612799613a85565b5b60006127a884828501612594565b91505092915050565b60006127bd8383612faf565b60208301905092915050565b6127d2816137fa565b82525050565b6127e1816137fa565b82525050565b60006127f282613668565b6127fc8185613696565b935061280783613658565b8060005b8381101561283857815161281f88826127b1565b975061282a83613689565b92505060018101905061280b565b5085935050505092915050565b61284e8161380c565b82525050565b600061285f82613673565b61286981856136a7565b935061287981856020860161387d565b61288281613a8a565b840191505092915050565b60006128988261367e565b6128a281856136b8565b93506128b281856020860161387d565b6128bb81613a8a565b840191505092915050565b60006128d18261367e565b6128db81856136c9565b93506128eb81856020860161387d565b6128f481613a8a565b840191505092915050565b600061290a8261367e565b61291481856136da565b935061292481856020860161387d565b80840191505092915050565b600061293d6020836136c9565b915061294882613a9b565b602082019050919050565b60006129606040836136da565b915061296b82613ac4565b604082019050919050565b6000612983600b836136da565b915061298e82613b13565b600b82019050919050565b60006129a66040836136da565b91506129b182613b3c565b604082019050919050565b60006129c96040836136da565b91506129d482613b8b565b604082019050919050565b60006129ec602b836136c9565b91506129f782613bda565b604082019050919050565b6000612a0f6032836136c9565b9150612a1a82613c29565b604082019050919050565b6000612a326009836136da565b9150612a3d82613c78565b600982019050919050565b6000612a556040836136da565b9150612a6082613ca1565b604082019050919050565b6000612a796103c8836136da565b9150612a8482613cf0565b6103c882019050919050565b6000612a9d6017836136c9565b9150612aa8826141a4565b602082019050919050565b6000612ac06002836136da565b9150612acb826141cd565b600282019050919050565b6000612ae3601c836136c9565b9150612aee826141f6565b602082019050919050565b6000612b066054836136c9565b9150612b118261421f565b606082019050919050565b6000612b29600f836136da565b9150612b3482614294565b600f82019050919050565b6000612b4c601a836136c9565b9150612b57826142bd565b602082019050919050565b6000612b6f600d836136da565b9150612b7a826142e6565b600d82019050919050565b6000612b92600f836136da565b9150612b9d8261430f565b600f82019050919050565b6000612bb560ad836136da565b9150612bc082614338565b60ad82019050919050565b6000612bd9610168836136da565b9150612be48261441f565b61016882019050919050565b6000612bfd60fb836136da565b9150612c08826145ee565b60fb82019050919050565b6000612c21610115836136da565b9150612c2c82614721565b61011582019050919050565b6000612c456041836136da565b9150612c508261487b565b604182019050919050565b6000612c686029836136c9565b9150612c73826148f0565b604082019050919050565b6000612c8c610638836136da565b9150612c978261493f565b61063882019050919050565b6000612cb06040836136da565b9150612cbb826150d8565b604082019050919050565b6000612cd36040836136da565b9150612cde82615127565b604082019050919050565b6000612cf66003836136da565b9150612d0182615176565b600382019050919050565b6000612d196024836136da565b9150612d248261519f565b602482019050919050565b6000612d3c6020836136c9565b9150612d47826151ee565b602082019050919050565b6000612d5f6040836136da565b9150612d6a82615217565b604082019050919050565b6000612d826001836136da565b9150612d8d82615266565b600182019050919050565b6000612da560ac836136da565b9150612db08261528f565b60ac82019050919050565b6000612dc86041836136da565b9150612dd382615376565b604182019050919050565b6000612deb6016836136c9565b9150612df6826153eb565b602082019050919050565b6000612e0e6041836136da565b9150612e1982615414565b604182019050919050565b6000612e316001836136da565b9150612e3c82615489565b600182019050919050565b6000612e546041836136da565b9150612e5f826154b2565b604182019050919050565b6000612e776040836136da565b9150612e8282615527565b604082019050919050565b6000612e9a6018836136c9565b9150612ea582615576565b602082019050919050565b6000612ebd601d836136da565b9150612ec88261559f565b601d82019050919050565b6000612ee06012836136da565b9150612eeb826155c8565b601282019050919050565b6000612f036041836136da565b9150612f0e826155f1565b604182019050919050565b6000612f266042836136da565b9150612f3182615666565b604282019050919050565b6000612f49601d836136da565b9150612f54826156db565b601d82019050919050565b6000606083016000830151612f7760008601826127c9565b506020830151612f8a60208601826127c9565b5060408301518482036040860152612fa2828261288d565b9150508091505092915050565b612fb881613864565b82525050565b612fc781613864565b82525050565b6000612fd982846128ff565b915081905092915050565b6000612ff082886128ff565b9150612ffc82876128ff565b915061300882866128ff565b915061301482856128ff565b915061302082846128ff565b91508190509695505050505050565b600061303a82612953565b915061304682876128ff565b915061305182612976565b915061305c82612ca3565b915061306882866128ff565b915061307382612976565b915061307e82612d52565b915061308a82856128ff565b915061309582612976565b91506130a082612cc6565b91506130ac82846128ff565b91506130b782612976565b915081905095945050505050565b60006130d0826129bc565b91506130dc82886128ff565b91506130e782612ce9565b91506130f282612999565b91506130fe82876128ff565b915061310982612ce9565b915061311482612a48565b915061312082866128ff565b915061312b82612ce9565b915061313682612e6a565b915061314282856128ff565b915061314d82612ce9565b915061315882612e01565b915061316482846128ff565b915061316f82612ce9565b91508190509695505050505050565b600061318982612a6b565b915061319482612b1c565b91506131a082876128ff565b91506131ab82612d98565b91506131b682612b62565b91506131c282866128ff565b91506131cd82612ba8565b91506131d882612b85565b91506131e482856128ff565b91506131ef82612bf0565b91506131fa82612a25565b915061320682846128ff565b915061321182612976565b915081905095945050505050565b600061322a82612c38565b915061323682846128ff565b915061324182612f19565b915061324c82612bcb565b915061325782612c7e565b915061326282612c13565b915081905092915050565b600061327882612e24565b915061328382612ed3565b915061328f82856128ff565b915061329a82612ab3565b91506132a582612d0c565b91506132b182846128ff565b91506132bc82612ab3565b91506132c782612f3c565b91506132d282612d75565b91508190509392505050565b60006132e982612e47565b91506132f582866128ff565b915061330082612ce9565b915061330b82612dbb565b915061331782856128ff565b915061332282612ce9565b915061332d82612ef6565b915061333982846128ff565b915061334482612ce9565b9150819050949350505050565b600061335c82612eb0565b915061336882846128ff565b915081905092915050565b600060208201905061338860008301846127d8565b92915050565b60006080820190506133a360008301876127d8565b6133b060208301866127d8565b6133bd6040830185612fbe565b81810360608301526133cf8184612854565b905095945050505050565b600060208201905081810360008301526133f481846127e7565b905092915050565b60006020820190506134116000830184612845565b92915050565b6000602082019050818103600083015261343181846128c6565b905092915050565b6000602082019050818103600083015261345281612930565b9050919050565b60006020820190508181036000830152613472816129df565b9050919050565b6000602082019050818103600083015261349281612a02565b9050919050565b600060208201905081810360008301526134b281612a90565b9050919050565b600060208201905081810360008301526134d281612ad6565b9050919050565b600060208201905081810360008301526134f281612af9565b9050919050565b6000602082019050818103600083015261351281612b3f565b9050919050565b6000602082019050818103600083015261353281612c5b565b9050919050565b6000602082019050818103600083015261355281612d2f565b9050919050565b6000602082019050818103600083015261357281612dde565b9050919050565b6000602082019050818103600083015261359281612e8d565b9050919050565b600060208201905081810360008301526135b38184612f5f565b905092915050565b60006020820190506135d06000830184612fbe565b92915050565b60006135e06135f1565b90506135ec828261390c565b919050565b6000604051905090565b600067ffffffffffffffff82111561361657613615613a42565b5b602082029050602081019050919050565b600067ffffffffffffffff82111561364257613641613a42565b5b61364b82613a8a565b9050602081019050919050565b6000819050602082019050919050565b600081519050919050565b600081519050919050565b600081519050919050565b6000602082019050919050565b600082825260208201905092915050565b600082825260208201905092915050565b600082825260208201905092915050565b600082825260208201905092915050565b600081905092915050565b60006136f082613864565b91506136fb83613864565b9250827fffffffffffffffffffffffffffffffffffffffffffffffffffffffffffffffff038211156137305761372f613986565b5b828201905092915050565b600061374682613864565b915061375183613864565b925082613761576137606139b5565b5b828204905092915050565b600061377782613864565b915061378283613864565b9250817fffffffffffffffffffffffffffffffffffffffffffffffffffffffffffffffff04831182151516156137bb576137ba613986565b5b828202905092915050565b60006137d182613864565b91506137dc83613864565b9250828210156137ef576137ee613986565b5b828203905092915050565b600061380582613844565b9050919050565b60008115159050919050565b60007fffffffff0000000000000000000000000000000000000000000000000000000082169050919050565b600073ffffffffffffffffffffffffffffffffffffffff82169050919050565b6000819050919050565b82818337600083830152505050565b60005b8381101561389b578082015181840152602081019050613880565b838111156138aa576000848401525b50505050565b60006138bb82613864565b915060008214156138cf576138ce613986565b5b600182039050919050565b600060028204905060018216806138f257607f821691505b60208210811415613906576139056139e4565b5b50919050565b61391582613a8a565b810181811067ffffffffffffffff8211171561393457613933613a42565b5b80604052505050565b600061394882613864565b91507fffffffffffffffffffffffffffffffffffffffffffffffffffffffffffffffff82141561397b5761397a613986565b5b600182019050919050565b7f4e487b7100000000000000000000000000000000000000000000000000000000600052601160045260246000fd5b7f4e487b7100000000000000000000000000000000000000000000000000000000600052601260045260246000fd5b7f4e487b7100000000000000000000000000000000000000000000000000000000600052602260045260246000fd5b7f4e487b7100000000000000000000000000000000000000000000000000000000600052603260045260246000fd5b7f4e487b7100000000000000000000000000000000000000000000000000000000600052604160045260246000fd5b600080fd5b600080fd5b600080fd5b600080fd5b600080fd5b6000601f19601f8301169050919050565b7f537472696e67733a20686578206c656e67746820696e73756666696369656e74600082015250565b7f3c747370616e20783d22302220793d2231322220666f6e742d7765696768743d60008201527f2233303022207374726f6b652d77696474683d2230223e3c215b43444154415b602082015250565b7f5d5d3e3c2f747370616e3e000000000000000000000000000000000000000000600082015250565b7f3c747370616e20783d22302220793d2237322220666f6e742d7765696768743d60008201527f2233303022207374726f6b652d77696474683d2230223e3c215b43444154415b602082015250565b7f3c747370616e20783d22302220793d2236302220666f6e742d7765696768743d60008201527f2233303022207374726f6b652d77696474683d2230223e3c215b43444154415b602082015250565b7f54686973206d65737361676520697320746f6f206269672e204d61782036373260008201527f2063686172616374657273000000000000000000000000000000000000000000602082015250565b7f4552433732313a207472616e7366657220746f206e6f6e20455243373231526560008201527f63656976657220696d706c656d656e7465720000000000000000000000000000602082015250565b7f3c215b43444154415b0000000000000000000000000000000000000000000000600082015250565b7f3c747370616e20783d22302220793d2238342220666f6e742d7765696768743d60008201527f2233303022207374726f6b652d77696474683d2230223e3c215b43444154415b602082015250565b7f3c7376672069643d22654e53496b326546697161312220786d6c6e733d22687460008201527f74703a2f2f7777772e77332e6f72672f323030302f7376672220786d6c6e733a60208201527f786c696e6b3d22687474703a2f2f7777772e77332e6f72672f313939392f786c60408201527f696e6b222076696577426f783d2230203020333630203336302220736861706560608201527f2d72656e646572696e673d2267656f6d6574726963507265636973696f6e222060808201527f746578742d72656e646572696e673d2267656f6d65747269635072656369736960a08201527f6f6e22207374796c653d226261636b67726f756e642d636f6c6f723a7267626160c08201527f28332c302c32352c302e383429223e3c726563742077696474683d223336222060e08201527f6865696768743d223336222072783d2232222072793d223222207472616e73666101008201527f6f726d3d226d617472697828392e37373132382030203020392e3737313238206101208201527f342e313137303120342e313137303129222066696c6c3d2223656336333532226101408201527f207374726f6b652d77696474683d2230222f3e3c726563742077696474683d226101608201527f333622206865696768743d2233362e38383238222072783d2232222072793d226101808201527f3222207472616e73666f726d3d226d617472697828392e3330333233203020306101a08201527f20372e30323535372031332e3031372039302e3337383129222066696c6c3d226101c08201527f2366386339616322207374726f6b652d77696474683d2230222f3e3c726563746101e08201527f2077696474683d223333342e39313622206865696768743d2236392e393637396102008201527f222072783d223138222072793d22313822207472616e73666f726d3d227472616102208201527f6e736c6174652831322e353431392031322e3337383529222066696c6c3d22236102408201527f66386339616322207374726f6b652d77696474683d2230222f3e3c74657874206102608201527f64783d2230222064793d22302220666f6e742d66616d696c793d222671756f746102808201527f3b654e53496b326546697161313a3a3a427562626c6567756d2053616e7326716102a08201527f756f743b2220666f6e742d73697a653d2231312220666f6e742d7765696768746102c08201527f3d2234303022207472616e73666f726d3d227472616e736c6174652837352e396102e08201527f3332322034302e3031333129222066696c6c3d222361333439303822207374726103008201527f6f6b652d77696474683d2230223e3c747370616e20793d22302220666f6e742d6103208201527f66616d696c793d222671756f743b654e53496b326546697161313a3a3a4275626103408201527f626c6567756d2053616e732671756f743b2220666f6e742d73697a653d2231316103608201527f2220666f6e742d7765696768743d223430302220666f6e742d7374796c653d226103808201527f6e6f726d616c222066696c6c3d222361333439303822207374726f6b652d77696103a08201527f6474683d2230223e0000000000000000000000000000000000000000000000006103c082015250565b7f546f6b656e206372656174696f6e207265766572746564000000000000000000600082015250565b7f222c000000000000000000000000000000000000000000000000000000000000600082015250565b7f4552433732313a20746f6b656e20616c7265616479206d696e74656400000000600082015250565b7f4f6e65206f72206d6f7265206d6573736167657320686173206661696c65642060008201527f746f206172726976652c20616c6c20726563697069656e74732068617665207460208201527f6f20626520455243373231205265636569766572000000000000000000000000604082015250565b7f3c215b43444154415b46726f6d3a200000000000000000000000000000000000600082015250565b7f43616e27742073656e64206d65737361676520746f2073656c66000000000000600082015250565b7f3c215b43444154415b546f3a2000000000000000000000000000000000000000600082015250565b7f3c215b43444154415b446174653a200000000000000000000000000000000000600082015250565b7f205d5d3e3c2f747370616e3e3c747370616e20783d22302220793d223232222060008201527f666f6e742d66616d696c793d222671756f743b654e53496b326546697161313a60208201527f3a3a427562626c6567756d2053616e732671756f743b2220666f6e742d73697a60408201527f653d2231312220666f6e742d7765696768743d223430302220666f6e742d737460608201527f796c653d226e6f726d616c222066696c6c3d222361333439303822207374726f60808201527f6b652d77696474683d2230223e0000000000000000000000000000000000000060a082015250565b7f3c215b43444154415b5d5d3e3c2f747370616e3e3c2f746578743e3c7465787460008201527f2064783d2230222064793d22302220666f6e742d66616d696c793d222671756f60208201527f743b654e53496b326546697161313a3a3a427562626c6567756d2053616e732660408201527f71756f743b2220666f6e742d73697a653d2231302220666f6e742d776569676860608201527f743d2233303022207472616e73666f726d3d227472616e736c6174652833372e60808201527f38343238203333312e323329222066696c6c3d2223386334663035222073747260a08201527f6f6b652d77696474683d2230223e3c747370616e20793d22302220666f6e742d60c08201527f66616d696c793d222671756f743b654e53496b326546697161313a3a3a42756260e08201527f626c6567756d2053616e732671756f743b2220666f6e742d73697a653d2231306101008201527f2220666f6e742d7765696768743d223330302220666f6e742d7374796c653d226101208201527f6e6f726d616c222066696c6c3d222338633466303522207374726f6b652d77696101408201527f6474683d2230223e00000000000000000000000000000000000000000000000061016082015250565b7f5d5d3e3c2f747370616e3e3c2f746578743e3c746578742064783d223022206460008201527f793d22302220666f6e742d66616d696c793d222671756f743b654e53496b326560208201527f46697161313a3a3a427562626c6567756d2053616e732671756f743b2220666f60408201527f6e742d73697a653d2231322220666f6e742d7765696768743d2233303022207460608201527f72616e73666f726d3d227472616e736c6174652833372e38343237373420313260808201527f382e32343739333329222066696c6c3d222338633466303522207374726f6b6560a08201527f2d77696474683d2230223e3c747370616e20793d22302220666f6e742d77656960c08201527f6768743d2233303022207374726f6b652d77696474683d2230223e000000000060e082015250565b7f27654e53496b326546697161313a3a3a427562626c6567756d2053616e73273b60008201527f666f6e742d7374796c653a206e6f726d616c3b666f6e742d7765696768743a2060208201527f3430303b7372633a2075726c2868747470733a2f2f666f6e74732e677374617460408201527f69632e636f6d2f6c2f666f6e743f6b69743d415943537058625f5a39454f527660608201527f314d3551546a457a4d45746461483172624e5934785941436e33456634636a6760808201527f4374357577513964476f5a37353064634b4d6b4f6761556d376476307963754360a08201527f324c476737433973424e64516665484b677526736b65793d393037666366393660c08201527f323131633865376526763d7631362920666f726d61742827747275657479706560e08201527f27293b7d5d5d3e3c2f7374796c653e3c2f7376673e000000000000000000000061010082015250565b7f3c747370616e20783d22302220793d223135382220666f6e742d77656967687460008201527f3d2233303022207374726f6b652d77696474683d2230223e3c215b434441544160208201527f5b00000000000000000000000000000000000000000000000000000000000000604082015250565b7f4552433732313a2061646472657373207a65726f206973206e6f74206120766160008201527f6c6964206f776e65720000000000000000000000000000000000000000000000602082015250565b7f3c215b43444154415b4d736756616c75653a203130303030303030303030303060008201527f3030303030305d5d3e3c2f747370616e3e3c2f746578743e3c7265637420776960208201527f6474683d223130332e35333122206865696768743d2232332e3239343622207260408201527f783d223131222072793d22313122207472616e73666f726d3d226d617472697860608201527f28312e312030203020312e3232323232203232382e343737203331342e34373760808201527f29222066696c6c3d222366646265366222207374726f6b653d2272676261283560a08201527f362c36362c362c302e3229222f3e3c656c6c697073652072783d2232332e383460c08201527f3938222072793d2231312e3536373922207472616e73666f726d3d226d61747260e08201527f697828312e303430393220302e3633383439382d2e37313134323820312e31356101008201527f3938322034362e303732352034352e35353129222066696c6c3d2223656336336101208201527f353222207374726f6b652d77696474683d2230222f3e3c746578742064783d226101408201527f30222064793d22302220666f6e742d66616d696c793d222671756f743b654e536101608201527f496b326546697161313a3a3a427562626c6567756d2053616e732671756f743b6101808201527f2220666f6e742d73697a653d2231342220666f6e742d7765696768743d2234306101a08201527f3022207472616e73666f726d3d227472616e736c617465283234312e393120336101c08201527f33322e33353329222066696c6c3d222337353338303322207374726f6b652d776101e08201527f696474683d2230223e3c747370616e20793d22302220666f6e742d66616d696c6102008201527f793d222671756f743b654e53496b326546697161313a3a3a427562626c6567756102208201527f6d2053616e732671756f743b2220666f6e742d73697a653d2231342220666f6e6102408201527f742d7765696768743d223430302220666f6e742d7374796c653d226e6f726d616102608201527f6c222066696c6c3d222337353338303322207374726f6b652d77696474683d226102808201527f30223e3c215b43444154415b5265706c7920617420706d732e696f215d5d3e3c6102a08201527f2f747370616e3e3c2f746578743e3c746578742064783d2230222064793d22306102c08201527f2220666f6e742d66616d696c793d222671756f743b654e53496b3265466971616102e08201527f313a3a3a427562626c6567756d2053616e732671756f743b2220666f6e742d736103008201527f697a653d2232382220666f6e742d7765696768743d2234303022207472616e736103208201527f666f726d3d226d6174726978282d312e31393334332030203020312e323030326103408201527f322034302e303631392035342e3830313229222066696c6c3d222366386339616103608201527f6322207374726f6b652d77696474683d2230223e3c747370616e20793d2230226103808201527f20666f6e742d7765696768743d2234303022207374726f6b652d77696474683d6103a08201527f2230223e3c215b43444154415b50205d5d3e3c2f747370616e3e3c2f746578746103c08201527f3e3c746578742064783d2230222064793d22302220666f6e742d66616d696c796103e08201527f3d222671756f743b654e53496b326546697161313a3a3a427562626c6567756d6104008201527f2053616e732671756f743b2220666f6e742d73697a653d2232382220666f6e746104208201527f2d7765696768743d2234303022207472616e73666f726d3d226d6174726978286104408201527f312e35353337382d2e3036323339342d2e3035353536372d312e3338333735206104608201527f34352e383433372033342e3035353529222066696c6c3d2223663863396163226104808201527f207374726f6b652d77696474683d2230223e3c747370616e20793d22302220666104a08201527f6f6e742d7765696768743d2234303022207374726f6b652d77696474683d22306104c08201527f223e3c215b43444154415b50205d5d3e3c2f747370616e3e3c2f746578743e3c6104e08201527f746578742064783d2230222064793d22302220666f6e742d66616d696c793d226105008201527f2671756f743b654e53496b326546697161313a3a3a427562626c6567756d20536105208201527f616e732671756f743b2220666f6e742d73697a653d2232382220666f6e742d776105408201527f65696768743d2234303022207472616e73666f726d3d226d6174726978282d316105608201527f2e313635392030203020312e31373235342035362e323839382035342e3432366105808201527f3729222066696c6c3d222366386339616322207374726f6b652d77696474683d6105a08201527f2230223e3c747370616e20793d22302220666f6e742d7765696768743d2234306105c08201527f3022207374726f6b652d77696474683d2230223e3c215b43444154415b4d5d5d6105e08201527f3e3c2f747370616e3e3c2f746578743e3c7374796c653e3c215b43444154415b6106008201527f40666f6e742d66616365207b666f6e742d66616d696c793a000000000000000061062082015250565b7f3c747370616e20783d22302220793d2232342220666f6e742d7765696768743d60008201527f2233303022207374726f6b652d77696474683d2230223e3c215b43444154415b602082015250565b7f3c747370616e20783d22302220793d2234382220666f6e742d7765696768743d60008201527f2233303022207374726f6b652d77696474683d2230223e3c215b43444154415b602082015250565b7f5d5d3e0000000000000000000000000000000000000000000000000000000000600082015250565b7f22696d616765223a2022646174613a696d6167652f7376672b786d6c3b62617360008201527f6536342c00000000000000000000000000000000000000000000000000000000602082015250565b7f4552433732313a206d696e7420746f20746865207a65726f2061646472657373600082015250565b7f3c747370616e20783d22302220793d2233362220666f6e742d7765696768743d60008201527f2233303022207374726f6b652d77696474683d2230223e3c215b43444154415b602082015250565b7f7d00000000000000000000000000000000000000000000000000000000000000600082015250565b7f5d5d3e3c2f747370616e3e3c747370616e20783d22302220793d22313122206660008201527f6f6e742d66616d696c793d222671756f743b654e53496b326546697161313a3a60208201527f3a427562626c6567756d2053616e732671756f743b2220666f6e742d73697a6560408201527f3d2231312220666f6e742d7765696768743d223430302220666f6e742d73747960608201527f6c653d226e6f726d616c222066696c6c3d222361333439303822207374726f6b60808201527f652d77696474683d2230223e000000000000000000000000000000000000000060a082015250565b7f3c747370616e20783d22302220793d223133342220666f6e742d77656967687460008201527f3d2233303022207374726f6b652d77696474683d2230223e3c215b434441544160208201527f5b00000000000000000000000000000000000000000000000000000000000000604082015250565b7f4d61782031303020757365722070657220626174636800000000000000000000600082015250565b7f3c747370616e20783d22302220793d223130382220666f6e742d77656967687460008201527f3d2233303022207374726f6b652d77696474683d2230223e3c215b434441544160208201527f5b00000000000000000000000000000000000000000000000000000000000000604082015250565b7f7b00000000000000000000000000000000000000000000000000000000000000600082015250565b7f3c747370616e20783d22302220793d223132302220666f6e742d77656967687460008201527f3d2233303022207374726f6b652d77696474683d2230223e3c215b434441544160208201527f5b00000000000000000000000000000000000000000000000000000000000000604082015250565b7f3c747370616e20783d22302220793d2239362220666f6e742d7765696768743d60008201527f2233303022207374726f6b652d77696474683d2230223e3c215b43444154415b602082015250565b7f4552433732313a20696e76616c696420746f6b656e2049440000000000000000600082015250565b7f646174613a6170706c69636174696f6e2f6a736f6e3b6261736536342c000000600082015250565b7f226e616d65223a20224d65737361676520230000000000000000000000000000600082015250565b7f3c747370616e20783d22302220793d223134362220666f6e742d77656967687460008201527f3d2233303022207374726f6b652d77696474683d2230223e3c215b434441544160208201527f5b00000000000000000000000000000000000000000000000000000000000000604082015250565b7f5d5d3e3c2f747370616e3e3c747370616e20783d22302220793d22333622206660008201527f6f6e742d7765696768743d2233303022207374726f6b652d77696474683d223060208201527f223e000000000000000000000000000000000000000000000000000000000000604082015250565b7f226465736372697074696f6e223a2022566973697420706d732e696f22000000600082015250565b61570d816137fa565b811461571857600080fd5b50565b61572481613818565b811461572f57600080fd5b50565b61573b81613864565b811461574657600080fd5b5056fe4142434445464748494a4b4c4d4e4f505152535455565758595a6162636465666768696a6b6c6d6e6f707172737475767778797a303132333435363738392b2fa26469706673582212203b41fcd70fd48f67550703fd7b5e9d38af488795152dac3282fcba06c57528e064736f6c63430008070033",
			"opcodes": "PUSH1 0x80 PUSH1 0x40 MSTORE PUSH1 0x30 PUSH1 0x6 SSTORE CALLVALUE DUP1 ISZERO PUSH3 0x16 JUMPI PUSH1 0x0 DUP1 REVERT JUMPDEST POP PUSH1 0x40 MLOAD DUP1 PUSH1 0x40 ADD PUSH1 0x40 MSTORE DUP1 PUSH1 0xE DUP2 MSTORE PUSH1 0x20 ADD PUSH32 0x506F6C794D736753657276696365000000000000000000000000000000000000 DUP2 MSTORE POP PUSH1 0x40 MLOAD DUP1 PUSH1 0x40 ADD PUSH1 0x40 MSTORE DUP1 PUSH1 0x3 DUP2 MSTORE PUSH1 0x20 ADD PUSH32 0x504D530000000000000000000000000000000000000000000000000000000000 DUP2 MSTORE POP DUP2 PUSH1 0x0 SWAP1 DUP1 MLOAD SWAP1 PUSH1 0x20 ADD SWAP1 PUSH3 0x9B SWAP3 SWAP2 SWAP1 PUSH3 0xBD JUMP JUMPDEST POP DUP1 PUSH1 0x1 SWAP1 DUP1 MLOAD SWAP1 PUSH1 0x20 ADD SWAP1 PUSH3 0xB4 SWAP3 SWAP2 SWAP1 PUSH3 0xBD JUMP JUMPDEST POP POP POP PUSH3 0x1D2 JUMP JUMPDEST DUP3 DUP1 SLOAD PUSH3 0xCB SWAP1 PUSH3 0x16D JUMP JUMPDEST SWAP1 PUSH1 0x0 MSTORE PUSH1 0x20 PUSH1 0x0 KECCAK256 SWAP1 PUSH1 0x1F ADD PUSH1 0x20 SWAP1 DIV DUP2 ADD SWAP3 DUP3 PUSH3 0xEF JUMPI PUSH1 0x0 DUP6 SSTORE PUSH3 0x13B JUMP JUMPDEST DUP3 PUSH1 0x1F LT PUSH3 0x10A JUMPI DUP1 MLOAD PUSH1 0xFF NOT AND DUP4 DUP1 ADD OR DUP6 SSTORE PUSH3 0x13B JUMP JUMPDEST DUP3 DUP1 ADD PUSH1 0x1 ADD DUP6 SSTORE DUP3 ISZERO PUSH3 0x13B JUMPI SWAP2 DUP3 ADD JUMPDEST DUP3 DUP2 GT ISZERO PUSH3 0x13A JUMPI DUP3 MLOAD DUP3 SSTORE SWAP2 PUSH1 0x20 ADD SWAP2 SWAP1 PUSH1 0x1 ADD SWAP1 PUSH3 0x11D JUMP JUMPDEST JUMPDEST POP SWAP1 POP PUSH3 0x14A SWAP2 SWAP1 PUSH3 0x14E JUMP JUMPDEST POP SWAP1 JUMP JUMPDEST JUMPDEST DUP1 DUP3 GT ISZERO PUSH3 0x169 JUMPI PUSH1 0x0 DUP2 PUSH1 0x0 SWAP1 SSTORE POP PUSH1 0x1 ADD PUSH3 0x14F JUMP JUMPDEST POP SWAP1 JUMP JUMPDEST PUSH1 0x0 PUSH1 0x2 DUP3 DIV SWAP1 POP PUSH1 0x1 DUP3 AND DUP1 PUSH3 0x186 JUMPI PUSH1 0x7F DUP3 AND SWAP2 POP JUMPDEST PUSH1 0x20 DUP3 LT DUP2 EQ ISZERO PUSH3 0x19D JUMPI PUSH3 0x19C PUSH3 0x1A3 JUMP JUMPDEST JUMPDEST POP SWAP2 SWAP1 POP JUMP JUMPDEST PUSH32 0x4E487B7100000000000000000000000000000000000000000000000000000000 PUSH1 0x0 MSTORE PUSH1 0x22 PUSH1 0x4 MSTORE PUSH1 0x24 PUSH1 0x0 REVERT JUMPDEST PUSH2 0x57BF DUP1 PUSH3 0x1E2 PUSH1 0x0 CODECOPY PUSH1 0x0 RETURN INVALID PUSH1 0x80 PUSH1 0x40 MSTORE PUSH1 0x4 CALLDATASIZE LT PUSH2 0xC2 JUMPI PUSH1 0x0 CALLDATALOAD PUSH1 0xE0 SHR DUP1 PUSH4 0x70A08231 GT PUSH2 0x7F JUMPI DUP1 PUSH4 0x95D89B41 GT PUSH2 0x59 JUMPI DUP1 PUSH4 0x95D89B41 EQ PUSH2 0x2C8 JUMPI DUP1 PUSH4 0xAD75C91D EQ PUSH2 0x2F3 JUMPI DUP1 PUSH4 0xC87B56DD EQ PUSH2 0x330 JUMPI DUP1 PUSH4 0xD088DB40 EQ PUSH2 0x36D JUMPI PUSH2 0xC2 JUMP JUMPDEST DUP1 PUSH4 0x70A08231 EQ PUSH2 0x211 JUMPI DUP1 PUSH4 0x74EECAE5 EQ PUSH2 0x24E JUMPI DUP1 PUSH4 0x8FFAC192 EQ PUSH2 0x28B JUMPI PUSH2 0xC2 JUMP JUMPDEST DUP1 PUSH4 0x1FFC9A7 EQ PUSH2 0xC7 JUMPI DUP1 PUSH4 0x6FDDE03 EQ PUSH2 0x104 JUMPI DUP1 PUSH4 0x17902601 EQ PUSH2 0x12F JUMPI DUP1 PUSH4 0x18160DDD EQ PUSH2 0x16C JUMPI DUP1 PUSH4 0x5AB7ECB0 EQ PUSH2 0x197 JUMPI DUP1 PUSH4 0x6352211E EQ PUSH2 0x1D4 JUMPI JUMPDEST PUSH1 0x0 DUP1 REVERT JUMPDEST CALLVALUE DUP1 ISZERO PUSH2 0xD3 JUMPI PUSH1 0x0 DUP1 REVERT JUMPDEST POP PUSH2 0xEE PUSH1 0x4 DUP1 CALLDATASIZE SUB DUP2 ADD SWAP1 PUSH2 0xE9 SWAP2 SWAP1 PUSH2 0x272A JUMP JUMPDEST PUSH2 0x389 JUMP JUMPDEST PUSH1 0x40 MLOAD PUSH2 0xFB SWAP2 SWAP1 PUSH2 0x33FC JUMP JUMPDEST PUSH1 0x40 MLOAD DUP1 SWAP2 SUB SWAP1 RETURN JUMPDEST CALLVALUE DUP1 ISZERO PUSH2 0x110 JUMPI PUSH1 0x0 DUP1 REVERT JUMPDEST POP PUSH2 0x119 PUSH2 0x46B JUMP JUMPDEST PUSH1 0x40 MLOAD PUSH2 0x126 SWAP2 SWAP1 PUSH2 0x3417 JUMP JUMPDEST PUSH1 0x40 MLOAD DUP1 SWAP2 SUB SWAP1 RETURN JUMPDEST CALLVALUE DUP1 ISZERO PUSH2 0x13B JUMPI PUSH1 0x0 DUP1 REVERT JUMPDEST POP PUSH2 0x156 PUSH1 0x4 DUP1 CALLDATASIZE SUB DUP2 ADD SWAP1 PUSH2 0x151 SWAP2 SWAP1 PUSH2 0x2784 JUMP JUMPDEST PUSH2 0x4FD JUMP JUMPDEST PUSH1 0x40 MLOAD PUSH2 0x163 SWAP2 SWAP1 PUSH2 0x3599 JUMP JUMPDEST PUSH1 0x40 MLOAD DUP1 SWAP2 SUB SWAP1 RETURN JUMPDEST CALLVALUE DUP1 ISZERO PUSH2 0x178 JUMPI PUSH1 0x0 DUP1 REVERT JUMPDEST POP PUSH2 0x181 PUSH2 0x668 JUMP JUMPDEST PUSH1 0x40 MLOAD PUSH2 0x18E SWAP2 SWAP1 PUSH2 0x35BB JUMP JUMPDEST PUSH1 0x40 MLOAD DUP1 SWAP2 SUB SWAP1 RETURN JUMPDEST CALLVALUE DUP1 ISZERO PUSH2 0x1A3 JUMPI PUSH1 0x0 DUP1 REVERT JUMPDEST POP PUSH2 0x1BE PUSH1 0x4 DUP1 CALLDATASIZE SUB DUP2 ADD SWAP1 PUSH2 0x1B9 SWAP2 SWAP1 PUSH2 0x26B2 JUMP JUMPDEST PUSH2 0x672 JUMP JUMPDEST PUSH1 0x40 MLOAD PUSH2 0x1CB SWAP2 SWAP1 PUSH2 0x33FC JUMP JUMPDEST PUSH1 0x40 MLOAD DUP1 SWAP2 SUB SWAP1 RETURN JUMPDEST CALLVALUE DUP1 ISZERO PUSH2 0x1E0 JUMPI PUSH1 0x0 DUP1 REVERT JUMPDEST POP PUSH2 0x1FB PUSH1 0x4 DUP1 CALLDATASIZE SUB DUP2 ADD SWAP1 PUSH2 0x1F6 SWAP2 SWAP1 PUSH2 0x2784 JUMP JUMPDEST PUSH2 0x78B JUMP JUMPDEST PUSH1 0x40 MLOAD PUSH2 0x208 SWAP2 SWAP1 PUSH2 0x3373 JUMP JUMPDEST PUSH1 0x40 MLOAD DUP1 SWAP2 SUB SWAP1 RETURN JUMPDEST CALLVALUE DUP1 ISZERO PUSH2 0x21D JUMPI PUSH1 0x0 DUP1 REVERT JUMPDEST POP PUSH2 0x238 PUSH1 0x4 DUP1 CALLDATASIZE SUB DUP2 ADD SWAP1 PUSH2 0x233 SWAP2 SWAP1 PUSH2 0x25A9 JUMP JUMPDEST PUSH2 0x812 JUMP JUMPDEST PUSH1 0x40 MLOAD PUSH2 0x245 SWAP2 SWAP1 PUSH2 0x35BB JUMP JUMPDEST PUSH1 0x40 MLOAD DUP1 SWAP2 SUB SWAP1 RETURN JUMPDEST CALLVALUE DUP1 ISZERO PUSH2 0x25A JUMPI PUSH1 0x0 DUP1 REVERT JUMPDEST POP PUSH2 0x275 PUSH1 0x4 DUP1 CALLDATASIZE SUB DUP2 ADD SWAP1 PUSH2 0x270 SWAP2 SWAP1 PUSH2 0x25A9 JUMP JUMPDEST PUSH2 0x8CA JUMP JUMPDEST PUSH1 0x40 MLOAD PUSH2 0x282 SWAP2 SWAP1 PUSH2 0x35BB JUMP JUMPDEST PUSH1 0x40 MLOAD DUP1 SWAP2 SUB SWAP1 RETURN JUMPDEST CALLVALUE DUP1 ISZERO PUSH2 0x297 JUMPI PUSH1 0x0 DUP1 REVERT JUMPDEST POP PUSH2 0x2B2 PUSH1 0x4 DUP1 CALLDATASIZE SUB DUP2 ADD SWAP1 PUSH2 0x2AD SWAP2 SWAP1 PUSH2 0x25D6 JUMP JUMPDEST PUSH2 0x913 JUMP JUMPDEST PUSH1 0x40 MLOAD PUSH2 0x2BF SWAP2 SWAP1 PUSH2 0x33DA JUMP JUMPDEST PUSH1 0x40 MLOAD DUP1 SWAP2 SUB SWAP1 RETURN JUMPDEST CALLVALUE DUP1 ISZERO PUSH2 0x2D4 JUMPI PUSH1 0x0 DUP1 REVERT JUMPDEST POP PUSH2 0x2DD PUSH2 0xB50 JUMP JUMPDEST PUSH1 0x40 MLOAD PUSH2 0x2EA SWAP2 SWAP1 PUSH2 0x3417 JUMP JUMPDEST PUSH1 0x40 MLOAD DUP1 SWAP2 SUB SWAP1 RETURN JUMPDEST CALLVALUE DUP1 ISZERO PUSH2 0x2FF JUMPI PUSH1 0x0 DUP1 REVERT JUMPDEST POP PUSH2 0x31A PUSH1 0x4 DUP1 CALLDATASIZE SUB DUP2 ADD SWAP1 PUSH2 0x315 SWAP2 SWAP1 PUSH2 0x2672 JUMP JUMPDEST PUSH2 0xBE2 JUMP JUMPDEST PUSH1 0x40 MLOAD PUSH2 0x327 SWAP2 SWAP1 PUSH2 0x35BB JUMP JUMPDEST PUSH1 0x40 MLOAD DUP1 SWAP2 SUB SWAP1 RETURN JUMPDEST CALLVALUE DUP1 ISZERO PUSH2 0x33C JUMPI PUSH1 0x0 DUP1 REVERT JUMPDEST POP PUSH2 0x357 PUSH1 0x4 DUP1 CALLDATASIZE SUB DUP2 ADD SWAP1 PUSH2 0x352 SWAP2 SWAP1 PUSH2 0x2784 JUMP JUMPDEST PUSH2 0xC3D JUMP JUMPDEST PUSH1 0x40 MLOAD PUSH2 0x364 SWAP2 SWAP1 PUSH2 0x3417 JUMP JUMPDEST PUSH1 0x40 MLOAD DUP1 SWAP2 SUB SWAP1 RETURN JUMPDEST PUSH2 0x387 PUSH1 0x4 DUP1 CALLDATASIZE SUB DUP2 ADD SWAP1 PUSH2 0x382 SWAP2 SWAP1 PUSH2 0x2616 JUMP JUMPDEST PUSH2 0xCD2 JUMP JUMPDEST STOP JUMPDEST PUSH1 0x0 PUSH32 0x13F2A32F00000000000000000000000000000000000000000000000000000000 PUSH28 0xFFFFFFFFFFFFFFFFFFFFFFFFFFFFFFFFFFFFFFFFFFFFFFFFFFFFFFFF NOT AND DUP3 PUSH28 0xFFFFFFFFFFFFFFFFFFFFFFFFFFFFFFFFFFFFFFFFFFFFFFFFFFFFFFFF NOT AND EQ DUP1 PUSH2 0x454 JUMPI POP PUSH32 0x5B5E139F00000000000000000000000000000000000000000000000000000000 PUSH28 0xFFFFFFFFFFFFFFFFFFFFFFFFFFFFFFFFFFFFFFFFFFFFFFFFFFFFFFFF NOT AND DUP3 PUSH28 0xFFFFFFFFFFFFFFFFFFFFFFFFFFFFFFFFFFFFFFFFFFFFFFFFFFFFFFFF NOT AND EQ JUMPDEST DUP1 PUSH2 0x464 JUMPI POP PUSH2 0x463 DUP3 PUSH2 0xDD4 JUMP JUMPDEST JUMPDEST SWAP1 POP SWAP2 SWAP1 POP JUMP JUMPDEST PUSH1 0x60 PUSH1 0x0 DUP1 SLOAD PUSH2 0x47A SWAP1 PUSH2 0x38DA JUMP JUMPDEST DUP1 PUSH1 0x1F ADD PUSH1 0x20 DUP1 SWAP2 DIV MUL PUSH1 0x20 ADD PUSH1 0x40 MLOAD SWAP1 DUP2 ADD PUSH1 0x40 MSTORE DUP1 SWAP3 SWAP2 SWAP1 DUP2 DUP2 MSTORE PUSH1 0x20 ADD DUP3 DUP1 SLOAD PUSH2 0x4A6 SWAP1 PUSH2 0x38DA JUMP JUMPDEST DUP1 ISZERO PUSH2 0x4F3 JUMPI DUP1 PUSH1 0x1F LT PUSH2 0x4C8 JUMPI PUSH2 0x100 DUP1 DUP4 SLOAD DIV MUL DUP4 MSTORE SWAP2 PUSH1 0x20 ADD SWAP2 PUSH2 0x4F3 JUMP JUMPDEST DUP3 ADD SWAP2 SWAP1 PUSH1 0x0 MSTORE PUSH1 0x20 PUSH1 0x0 KECCAK256 SWAP1 JUMPDEST DUP2 SLOAD DUP2 MSTORE SWAP1 PUSH1 0x1 ADD SWAP1 PUSH1 0x20 ADD DUP1 DUP4 GT PUSH2 0x4D6 JUMPI DUP3 SWAP1 SUB PUSH1 0x1F AND DUP3 ADD SWAP2 JUMPDEST POP POP POP POP POP SWAP1 POP SWAP1 JUMP JUMPDEST PUSH2 0x505 PUSH2 0x2357 JUMP JUMPDEST PUSH1 0xA PUSH1 0x0 DUP4 DUP2 MSTORE PUSH1 0x20 ADD SWAP1 DUP2 MSTORE PUSH1 0x20 ADD PUSH1 0x0 KECCAK256 PUSH1 0x40 MLOAD DUP1 PUSH1 0x60 ADD PUSH1 0x40 MSTORE SWAP1 DUP2 PUSH1 0x0 DUP3 ADD PUSH1 0x0 SWAP1 SLOAD SWAP1 PUSH2 0x100 EXP SWAP1 DIV PUSH20 0xFFFFFFFFFFFFFFFFFFFFFFFFFFFFFFFFFFFFFFFF AND PUSH20 0xFFFFFFFFFFFFFFFFFFFFFFFFFFFFFFFFFFFFFFFF AND PUSH20 0xFFFFFFFFFFFFFFFFFFFFFFFFFFFFFFFFFFFFFFFF AND DUP2 MSTORE PUSH1 0x20 ADD PUSH1 0x1 DUP3 ADD PUSH1 0x0 SWAP1 SLOAD SWAP1 PUSH2 0x100 EXP SWAP1 DIV PUSH20 0xFFFFFFFFFFFFFFFFFFFFFFFFFFFFFFFFFFFFFFFF AND PUSH20 0xFFFFFFFFFFFFFFFFFFFFFFFFFFFFFFFFFFFFFFFF AND PUSH20 0xFFFFFFFFFFFFFFFFFFFFFFFFFFFFFFFFFFFFFFFF AND DUP2 MSTORE PUSH1 0x20 ADD PUSH1 0x2 DUP3 ADD DUP1 SLOAD PUSH2 0x5DF SWAP1 PUSH2 0x38DA JUMP JUMPDEST DUP1 PUSH1 0x1F ADD PUSH1 0x20 DUP1 SWAP2 DIV MUL PUSH1 0x20 ADD PUSH1 0x40 MLOAD SWAP1 DUP2 ADD PUSH1 0x40 MSTORE DUP1 SWAP3 SWAP2 SWAP1 DUP2 DUP2 MSTORE PUSH1 0x20 ADD DUP3 DUP1 SLOAD PUSH2 0x60B SWAP1 PUSH2 0x38DA JUMP JUMPDEST DUP1 ISZERO PUSH2 0x658 JUMPI DUP1 PUSH1 0x1F LT PUSH2 0x62D JUMPI PUSH2 0x100 DUP1 DUP4 SLOAD DIV MUL DUP4 MSTORE SWAP2 PUSH1 0x20 ADD SWAP2 PUSH2 0x658 JUMP JUMPDEST DUP3 ADD SWAP2 SWAP1 PUSH1 0x0 MSTORE PUSH1 0x20 PUSH1 0x0 KECCAK256 SWAP1 JUMPDEST DUP2 SLOAD DUP2 MSTORE SWAP1 PUSH1 0x1 ADD SWAP1 PUSH1 0x20 ADD DUP1 DUP4 GT PUSH2 0x63B JUMPI DUP3 SWAP1 SUB PUSH1 0x1F AND DUP3 ADD SWAP2 JUMPDEST POP POP POP POP POP DUP2 MSTORE POP POP SWAP1 POP SWAP2 SWAP1 POP JUMP JUMPDEST PUSH1 0x0 PUSH1 0x7 SLOAD SWAP1 POP SWAP1 JUMP JUMPDEST PUSH1 0x0 PUSH2 0x2A0 DUP3 MLOAD LT PUSH2 0x6B9 JUMPI PUSH1 0x40 MLOAD PUSH32 0x8C379A000000000000000000000000000000000000000000000000000000000 DUP2 MSTORE PUSH1 0x4 ADD PUSH2 0x6B0 SWAP1 PUSH2 0x3459 JUMP JUMPDEST PUSH1 0x40 MLOAD DUP1 SWAP2 SUB SWAP1 REVERT JUMPDEST PUSH1 0x64 DUP4 MLOAD LT PUSH2 0x6FD JUMPI PUSH1 0x40 MLOAD PUSH32 0x8C379A000000000000000000000000000000000000000000000000000000000 DUP2 MSTORE PUSH1 0x4 ADD PUSH2 0x6F4 SWAP1 PUSH2 0x3559 JUMP JUMPDEST PUSH1 0x40 MLOAD DUP1 SWAP2 SUB SWAP1 REVERT JUMPDEST PUSH1 0x0 JUMPDEST DUP4 MLOAD DUP2 LT ISZERO PUSH2 0x780 JUMPI PUSH2 0x72E CALLER DUP6 DUP4 DUP2 MLOAD DUP2 LT PUSH2 0x720 JUMPI PUSH2 0x71F PUSH2 0x3A13 JUMP JUMPDEST JUMPDEST PUSH1 0x20 MUL PUSH1 0x20 ADD ADD MLOAD DUP6 PUSH2 0xE3E JUMP JUMPDEST PUSH2 0x76D JUMPI PUSH1 0x40 MLOAD PUSH32 0x8C379A000000000000000000000000000000000000000000000000000000000 DUP2 MSTORE PUSH1 0x4 ADD PUSH2 0x764 SWAP1 PUSH2 0x34D9 JUMP JUMPDEST PUSH1 0x40 MLOAD DUP1 SWAP2 SUB SWAP1 REVERT JUMPDEST DUP1 DUP1 PUSH2 0x778 SWAP1 PUSH2 0x393D JUMP JUMPDEST SWAP2 POP POP PUSH2 0x700 JUMP JUMPDEST POP PUSH1 0x1 SWAP1 POP SWAP3 SWAP2 POP POP JUMP JUMPDEST PUSH1 0x0 DUP1 PUSH2 0x797 DUP4 PUSH2 0x1075 JUMP JUMPDEST SWAP1 POP PUSH1 0x0 PUSH20 0xFFFFFFFFFFFFFFFFFFFFFFFFFFFFFFFFFFFFFFFF AND DUP2 PUSH20 0xFFFFFFFFFFFFFFFFFFFFFFFFFFFFFFFFFFFFFFFF AND EQ ISZERO PUSH2 0x809 JUMPI PUSH1 0x40 MLOAD PUSH32 0x8C379A000000000000000000000000000000000000000000000000000000000 DUP2 MSTORE PUSH1 0x4 ADD PUSH2 0x800 SWAP1 PUSH2 0x3579 JUMP JUMPDEST PUSH1 0x40 MLOAD DUP1 SWAP2 SUB SWAP1 REVERT JUMPDEST DUP1 SWAP2 POP POP SWAP2 SWAP1 POP JUMP JUMPDEST PUSH1 0x0 DUP1 PUSH20 0xFFFFFFFFFFFFFFFFFFFFFFFFFFFFFFFFFFFFFFFF AND DUP3 PUSH20 0xFFFFFFFFFFFFFFFFFFFFFFFFFFFFFFFFFFFFFFFF AND EQ ISZERO PUSH2 0x883 JUMPI PUSH1 0x40 MLOAD PUSH32 0x8C379A000000000000000000000000000000000000000000000000000000000 DUP2 MSTORE PUSH1 0x4 ADD PUSH2 0x87A SWAP1 PUSH2 0x3519 JUMP JUMPDEST PUSH1 0x40 MLOAD DUP1 SWAP2 SUB SWAP1 REVERT JUMPDEST PUSH1 0x3 PUSH1 0x0 DUP4 PUSH20 0xFFFFFFFFFFFFFFFFFFFFFFFFFFFFFFFFFFFFFFFF AND PUSH20 0xFFFFFFFFFFFFFFFFFFFFFFFFFFFFFFFFFFFFFFFF AND DUP2 MSTORE PUSH1 0x20 ADD SWAP1 DUP2 MSTORE PUSH1 0x20 ADD PUSH1 0x0 KECCAK256 SLOAD SWAP1 POP SWAP2 SWAP1 POP JUMP JUMPDEST PUSH1 0x0 PUSH1 0x9 PUSH1 0x0 DUP4 PUSH20 0xFFFFFFFFFFFFFFFFFFFFFFFFFFFFFFFFFFFFFFFF AND PUSH20 0xFFFFFFFFFFFFFFFFFFFFFFFFFFFFFFFFFFFFFFFF AND DUP2 MSTORE PUSH1 0x20 ADD SWAP1 DUP2 MSTORE PUSH1 0x20 ADD PUSH1 0x0 KECCAK256 SLOAD SWAP1 POP SWAP2 SWAP1 POP JUMP JUMPDEST PUSH1 0x60 PUSH1 0x0 PUSH1 0x9 PUSH1 0x0 DUP6 PUSH20 0xFFFFFFFFFFFFFFFFFFFFFFFFFFFFFFFFFFFFFFFF AND PUSH20 0xFFFFFFFFFFFFFFFFFFFFFFFFFFFFFFFFFFFFFFFF AND DUP2 MSTORE PUSH1 0x20 ADD SWAP1 DUP2 MSTORE PUSH1 0x20 ADD PUSH1 0x0 KECCAK256 SLOAD PUSH8 0xFFFFFFFFFFFFFFFF DUP2 GT ISZERO PUSH2 0x970 JUMPI PUSH2 0x96F PUSH2 0x3A42 JUMP JUMPDEST JUMPDEST PUSH1 0x40 MLOAD SWAP1 DUP1 DUP3 MSTORE DUP1 PUSH1 0x20 MUL PUSH1 0x20 ADD DUP3 ADD PUSH1 0x40 MSTORE DUP1 ISZERO PUSH2 0x99E JUMPI DUP2 PUSH1 0x20 ADD PUSH1 0x20 DUP3 MUL DUP1 CALLDATASIZE DUP4 CALLDATACOPY DUP1 DUP3 ADD SWAP2 POP POP SWAP1 POP JUMPDEST POP SWAP1 POP PUSH1 0x0 PUSH1 0x1 SWAP1 POP JUMPDEST PUSH1 0x1 PUSH1 0x9 PUSH1 0x0 DUP8 PUSH20 0xFFFFFFFFFFFFFFFFFFFFFFFFFFFFFFFFFFFFFFFF AND PUSH20 0xFFFFFFFFFFFFFFFFFFFFFFFFFFFFFFFFFFFFFFFF AND DUP2 MSTORE PUSH1 0x20 ADD SWAP1 DUP2 MSTORE PUSH1 0x20 ADD PUSH1 0x0 KECCAK256 SLOAD PUSH2 0x9F4 SWAP2 SWAP1 PUSH2 0x36E5 JUMP JUMPDEST DUP2 LT ISZERO PUSH2 0xB45 JUMPI DUP4 PUSH20 0xFFFFFFFFFFFFFFFFFFFFFFFFFFFFFFFFFFFFFFFF AND PUSH1 0xA PUSH1 0x0 PUSH1 0x8 PUSH1 0x0 DUP10 PUSH20 0xFFFFFFFFFFFFFFFFFFFFFFFFFFFFFFFFFFFFFFFF AND PUSH20 0xFFFFFFFFFFFFFFFFFFFFFFFFFFFFFFFFFFFFFFFF AND DUP2 MSTORE PUSH1 0x20 ADD SWAP1 DUP2 MSTORE PUSH1 0x20 ADD PUSH1 0x0 KECCAK256 PUSH1 0x0 DUP6 DUP2 MSTORE PUSH1 0x20 ADD SWAP1 DUP2 MSTORE PUSH1 0x20 ADD PUSH1 0x0 KECCAK256 SLOAD DUP2 MSTORE PUSH1 0x20 ADD SWAP1 DUP2 MSTORE PUSH1 0x20 ADD PUSH1 0x0 KECCAK256 PUSH1 0x1 ADD PUSH1 0x0 SWAP1 SLOAD SWAP1 PUSH2 0x100 EXP SWAP1 DIV PUSH20 0xFFFFFFFFFFFFFFFFFFFFFFFFFFFFFFFFFFFFFFFF AND PUSH20 0xFFFFFFFFFFFFFFFFFFFFFFFFFFFFFFFFFFFFFFFF AND EQ ISZERO PUSH2 0xB32 JUMPI PUSH1 0x8 PUSH1 0x0 DUP7 PUSH20 0xFFFFFFFFFFFFFFFFFFFFFFFFFFFFFFFFFFFFFFFF AND PUSH20 0xFFFFFFFFFFFFFFFFFFFFFFFFFFFFFFFFFFFFFFFF AND DUP2 MSTORE PUSH1 0x20 ADD SWAP1 DUP2 MSTORE PUSH1 0x20 ADD PUSH1 0x0 KECCAK256 PUSH1 0x0 DUP3 DUP2 MSTORE PUSH1 0x20 ADD SWAP1 DUP2 MSTORE PUSH1 0x20 ADD PUSH1 0x0 KECCAK256 SLOAD DUP3 PUSH1 0x1 DUP4 PUSH2 0xB14 SWAP2 SWAP1 PUSH2 0x37C6 JUMP JUMPDEST DUP2 MLOAD DUP2 LT PUSH2 0xB25 JUMPI PUSH2 0xB24 PUSH2 0x3A13 JUMP JUMPDEST JUMPDEST PUSH1 0x20 MUL PUSH1 0x20 ADD ADD DUP2 DUP2 MSTORE POP POP JUMPDEST DUP1 DUP1 PUSH2 0xB3D SWAP1 PUSH2 0x393D JUMP JUMPDEST SWAP2 POP POP PUSH2 0x9A8 JUMP JUMPDEST POP DUP1 SWAP2 POP POP SWAP3 SWAP2 POP POP JUMP JUMPDEST PUSH1 0x60 PUSH1 0x1 DUP1 SLOAD PUSH2 0xB5F SWAP1 PUSH2 0x38DA JUMP JUMPDEST DUP1 PUSH1 0x1F ADD PUSH1 0x20 DUP1 SWAP2 DIV MUL PUSH1 0x20 ADD PUSH1 0x40 MLOAD SWAP1 DUP2 ADD PUSH1 0x40 MSTORE DUP1 SWAP3 SWAP2 SWAP1 DUP2 DUP2 MSTORE PUSH1 0x20 ADD DUP3 DUP1 SLOAD PUSH2 0xB8B SWAP1 PUSH2 0x38DA JUMP JUMPDEST DUP1 ISZERO PUSH2 0xBD8 JUMPI DUP1 PUSH1 0x1F LT PUSH2 0xBAD JUMPI PUSH2 0x100 DUP1 DUP4 SLOAD DIV MUL DUP4 MSTORE SWAP2 PUSH1 0x20 ADD SWAP2 PUSH2 0xBD8 JUMP JUMPDEST DUP3 ADD SWAP2 SWAP1 PUSH1 0x0 MSTORE PUSH1 0x20 PUSH1 0x0 KECCAK256 SWAP1 JUMPDEST DUP2 SLOAD DUP2 MSTORE SWAP1 PUSH1 0x1 ADD SWAP1 PUSH1 0x20 ADD DUP1 DUP4 GT PUSH2 0xBBB JUMPI DUP3 SWAP1 SUB PUSH1 0x1F AND DUP3 ADD SWAP2 JUMPDEST POP POP POP POP POP SWAP1 POP SWAP1 JUMP JUMPDEST PUSH1 0x0 PUSH1 0x8 PUSH1 0x0 DUP5 PUSH20 0xFFFFFFFFFFFFFFFFFFFFFFFFFFFFFFFFFFFFFFFF AND PUSH20 0xFFFFFFFFFFFFFFFFFFFFFFFFFFFFFFFFFFFFFFFF AND DUP2 MSTORE PUSH1 0x20 ADD SWAP1 DUP2 MSTORE PUSH1 0x20 ADD PUSH1 0x0 KECCAK256 PUSH1 0x0 DUP4 DUP2 MSTORE PUSH1 0x20 ADD SWAP1 DUP2 MSTORE PUSH1 0x20 ADD PUSH1 0x0 KECCAK256 SLOAD SWAP1 POP SWAP3 SWAP2 POP POP JUMP JUMPDEST PUSH1 0x60 PUSH1 0x0 PUSH2 0xC4A DUP4 PUSH2 0x10B2 JUMP JUMPDEST PUSH1 0x40 MLOAD PUSH1 0x20 ADD PUSH2 0xC5A SWAP2 SWAP1 PUSH2 0x2FCD JUMP JUMPDEST PUSH1 0x40 MLOAD PUSH1 0x20 DUP2 DUP4 SUB SUB DUP2 MSTORE SWAP1 PUSH1 0x40 MSTORE SWAP1 POP PUSH1 0x0 PUSH2 0xC76 DUP5 PUSH2 0x169D JUMP JUMPDEST PUSH2 0xC7F DUP4 PUSH2 0x1775 JUMP JUMPDEST PUSH1 0x40 MLOAD PUSH1 0x20 ADD PUSH2 0xC90 SWAP3 SWAP2 SWAP1 PUSH2 0x326D JUMP JUMPDEST PUSH1 0x40 MLOAD PUSH1 0x20 DUP2 DUP4 SUB SUB DUP2 MSTORE SWAP1 PUSH1 0x40 MSTORE SWAP1 POP PUSH2 0xCAA DUP2 PUSH2 0x1775 JUMP JUMPDEST PUSH1 0x40 MLOAD PUSH1 0x20 ADD PUSH2 0xCBA SWAP2 SWAP1 PUSH2 0x3351 JUMP JUMPDEST PUSH1 0x40 MLOAD PUSH1 0x20 DUP2 DUP4 SUB SUB DUP2 MSTORE SWAP1 PUSH1 0x40 MSTORE SWAP3 POP POP POP SWAP2 SWAP1 POP JUMP JUMPDEST PUSH2 0x2A0 DUP2 MLOAD LT PUSH2 0xD17 JUMPI PUSH1 0x40 MLOAD PUSH32 0x8C379A000000000000000000000000000000000000000000000000000000000 DUP2 MSTORE PUSH1 0x4 ADD PUSH2 0xD0E SWAP1 PUSH2 0x3459 JUMP JUMPDEST PUSH1 0x40 MLOAD DUP1 SWAP2 SUB SWAP1 REVERT JUMPDEST CALLER PUSH20 0xFFFFFFFFFFFFFFFFFFFFFFFFFFFFFFFFFFFFFFFF AND DUP3 PUSH20 0xFFFFFFFFFFFFFFFFFFFFFFFFFFFFFFFFFFFFFFFF AND EQ ISZERO PUSH2 0xD86 JUMPI PUSH1 0x40 MLOAD PUSH32 0x8C379A000000000000000000000000000000000000000000000000000000000 DUP2 MSTORE PUSH1 0x4 ADD PUSH2 0xD7D SWAP1 PUSH2 0x34F9 JUMP JUMPDEST PUSH1 0x40 MLOAD DUP1 SWAP2 SUB SWAP1 REVERT JUMPDEST PUSH2 0xD91 CALLER DUP4 DUP4 PUSH2 0xE3E JUMP JUMPDEST PUSH2 0xDD0 JUMPI PUSH1 0x40 MLOAD PUSH32 0x8C379A000000000000000000000000000000000000000000000000000000000 DUP2 MSTORE PUSH1 0x4 ADD PUSH2 0xDC7 SWAP1 PUSH2 0x3499 JUMP JUMPDEST PUSH1 0x40 MLOAD DUP1 SWAP2 SUB SWAP1 REVERT JUMPDEST POP POP JUMP JUMPDEST PUSH1 0x0 PUSH32 0x1FFC9A700000000000000000000000000000000000000000000000000000000 PUSH28 0xFFFFFFFFFFFFFFFFFFFFFFFFFFFFFFFFFFFFFFFFFFFFFFFFFFFFFFFF NOT AND DUP3 PUSH28 0xFFFFFFFFFFFFFFFFFFFFFFFFFFFFFFFFFFFFFFFFFFFFFFFFFFFFFFFF NOT AND EQ SWAP1 POP SWAP2 SWAP1 POP JUMP JUMPDEST PUSH1 0x0 PUSH1 0x1 PUSH1 0x9 PUSH1 0x0 DUP7 PUSH20 0xFFFFFFFFFFFFFFFFFFFFFFFFFFFFFFFFFFFFFFFF AND PUSH20 0xFFFFFFFFFFFFFFFFFFFFFFFFFFFFFFFFFFFFFFFF AND DUP2 MSTORE PUSH1 0x20 ADD SWAP1 DUP2 MSTORE PUSH1 0x20 ADD PUSH1 0x0 KECCAK256 PUSH1 0x0 DUP3 DUP3 SLOAD ADD SWAP3 POP POP DUP2 SWAP1 SSTORE POP PUSH1 0x1 PUSH1 0x7 PUSH1 0x0 DUP3 DUP3 SLOAD ADD SWAP3 POP POP DUP2 SWAP1 SSTORE POP PUSH1 0x0 PUSH1 0xA PUSH1 0x0 PUSH1 0x7 SLOAD DUP2 MSTORE PUSH1 0x20 ADD SWAP1 DUP2 MSTORE PUSH1 0x20 ADD PUSH1 0x0 KECCAK256 SWAP1 POP DUP5 DUP2 PUSH1 0x0 ADD PUSH1 0x0 PUSH2 0x100 EXP DUP2 SLOAD DUP2 PUSH20 0xFFFFFFFFFFFFFFFFFFFFFFFFFFFFFFFFFFFFFFFF MUL NOT AND SWAP1 DUP4 PUSH20 0xFFFFFFFFFFFFFFFFFFFFFFFFFFFFFFFFFFFFFFFF AND MUL OR SWAP1 SSTORE POP DUP4 DUP2 PUSH1 0x1 ADD PUSH1 0x0 PUSH2 0x100 EXP DUP2 SLOAD DUP2 PUSH20 0xFFFFFFFFFFFFFFFFFFFFFFFFFFFFFFFFFFFFFFFF MUL NOT AND SWAP1 DUP4 PUSH20 0xFFFFFFFFFFFFFFFFFFFFFFFFFFFFFFFFFFFFFFFF AND MUL OR SWAP1 SSTORE POP DUP3 DUP2 PUSH1 0x2 ADD SWAP1 DUP1 MLOAD SWAP1 PUSH1 0x20 ADD SWAP1 PUSH2 0xF56 SWAP3 SWAP2 SWAP1 PUSH2 0x23A4 JUMP JUMPDEST POP PUSH1 0x7 SLOAD PUSH1 0x8 PUSH1 0x0 DUP8 PUSH20 0xFFFFFFFFFFFFFFFFFFFFFFFFFFFFFFFFFFFFFFFF AND PUSH20 0xFFFFFFFFFFFFFFFFFFFFFFFFFFFFFFFFFFFFFFFF AND DUP2 MSTORE PUSH1 0x20 ADD SWAP1 DUP2 MSTORE PUSH1 0x20 ADD PUSH1 0x0 KECCAK256 PUSH1 0x0 PUSH1 0x9 PUSH1 0x0 DUP10 PUSH20 0xFFFFFFFFFFFFFFFFFFFFFFFFFFFFFFFFFFFFFFFF AND PUSH20 0xFFFFFFFFFFFFFFFFFFFFFFFFFFFFFFFFFFFFFFFF AND DUP2 MSTORE PUSH1 0x20 ADD SWAP1 DUP2 MSTORE PUSH1 0x20 ADD PUSH1 0x0 KECCAK256 SLOAD DUP2 MSTORE PUSH1 0x20 ADD SWAP1 DUP2 MSTORE PUSH1 0x20 ADD PUSH1 0x0 KECCAK256 DUP2 SWAP1 SSTORE POP PUSH2 0xFF9 DUP5 PUSH1 0x7 SLOAD PUSH2 0x18D9 JUMP JUMPDEST DUP3 PUSH1 0x40 MLOAD PUSH2 0x1007 SWAP2 SWAP1 PUSH2 0x2FCD JUMP JUMPDEST PUSH1 0x40 MLOAD DUP1 SWAP2 SUB SWAP1 KECCAK256 DUP5 PUSH20 0xFFFFFFFFFFFFFFFFFFFFFFFFFFFFFFFFFFFFFFFF AND DUP7 PUSH20 0xFFFFFFFFFFFFFFFFFFFFFFFFFFFFFFFFFFFFFFFF AND PUSH32 0x3E100F057239DB422C0EBF9142F67C98E9FF6AC4AEE1068A737CAC01B9CAA304 PUSH1 0x40 MLOAD PUSH1 0x40 MLOAD DUP1 SWAP2 SUB SWAP1 LOG4 PUSH1 0x1 SWAP2 POP POP SWAP4 SWAP3 POP POP POP JUMP JUMPDEST PUSH1 0x0 PUSH1 0x2 PUSH1 0x0 DUP4 DUP2 MSTORE PUSH1 0x20 ADD SWAP1 DUP2 MSTORE PUSH1 0x20 ADD PUSH1 0x0 KECCAK256 PUSH1 0x0 SWAP1 SLOAD SWAP1 PUSH2 0x100 EXP SWAP1 DIV PUSH20 0xFFFFFFFFFFFFFFFFFFFFFFFFFFFFFFFFFFFFFFFF AND SWAP1 POP SWAP2 SWAP1 POP JUMP JUMPDEST PUSH1 0x60 PUSH1 0x0 PUSH1 0xA PUSH1 0x0 DUP5 DUP2 MSTORE PUSH1 0x20 ADD SWAP1 DUP2 MSTORE PUSH1 0x20 ADD PUSH1 0x0 KECCAK256 PUSH1 0x2 ADD DUP1 SLOAD PUSH2 0x10D7 SWAP1 PUSH2 0x38DA JUMP JUMPDEST DUP1 PUSH1 0x1F ADD PUSH1 0x20 DUP1 SWAP2 DIV MUL PUSH1 0x20 ADD PUSH1 0x40 MLOAD SWAP1 DUP2 ADD PUSH1 0x40 MSTORE DUP1 SWAP3 SWAP2 SWAP1 DUP2 DUP2 MSTORE PUSH1 0x20 ADD DUP3 DUP1 SLOAD PUSH2 0x1103 SWAP1 PUSH2 0x38DA JUMP JUMPDEST DUP1 ISZERO PUSH2 0x1150 JUMPI DUP1 PUSH1 0x1F LT PUSH2 0x1125 JUMPI PUSH2 0x100 DUP1 DUP4 SLOAD DIV MUL DUP4 MSTORE SWAP2 PUSH1 0x20 ADD SWAP2 PUSH2 0x1150 JUMP JUMPDEST DUP3 ADD SWAP2 SWAP1 PUSH1 0x0 MSTORE PUSH1 0x20 PUSH1 0x0 KECCAK256 SWAP1 JUMPDEST DUP2 SLOAD DUP2 MSTORE SWAP1 PUSH1 0x1 ADD SWAP1 PUSH1 0x20 ADD DUP1 DUP4 GT PUSH2 0x1133 JUMPI DUP3 SWAP1 SUB PUSH1 0x1F AND DUP3 ADD SWAP2 JUMPDEST POP POP POP POP POP SWAP1 POP PUSH1 0x0 PUSH1 0xE PUSH8 0xFFFFFFFFFFFFFFFF DUP2 GT ISZERO PUSH2 0x1174 JUMPI PUSH2 0x1173 PUSH2 0x3A42 JUMP JUMPDEST JUMPDEST PUSH1 0x40 MLOAD SWAP1 DUP1 DUP3 MSTORE DUP1 PUSH1 0x20 MUL PUSH1 0x20 ADD DUP3 ADD PUSH1 0x40 MSTORE DUP1 ISZERO PUSH2 0x11A7 JUMPI DUP2 PUSH1 0x20 ADD JUMPDEST PUSH1 0x60 DUP2 MSTORE PUSH1 0x20 ADD SWAP1 PUSH1 0x1 SWAP1 SUB SWAP1 DUP2 PUSH2 0x1192 JUMPI SWAP1 POP JUMPDEST POP SWAP1 POP PUSH1 0x0 PUSH1 0x6 SLOAD DUP4 MLOAD PUSH2 0x11BB SWAP2 SWAP1 PUSH2 0x373B JUMP JUMPDEST SWAP1 POP PUSH1 0x0 JUMPDEST PUSH1 0x1 DUP3 PUSH2 0x11CD SWAP2 SWAP1 PUSH2 0x36E5 JUMP JUMPDEST DUP2 LT ISZERO PUSH2 0x12BC JUMPI PUSH2 0x128B PUSH1 0xA PUSH1 0x0 DUP9 DUP2 MSTORE PUSH1 0x20 ADD SWAP1 DUP2 MSTORE PUSH1 0x20 ADD PUSH1 0x0 KECCAK256 PUSH1 0x2 ADD DUP1 SLOAD PUSH2 0x11F8 SWAP1 PUSH2 0x38DA JUMP JUMPDEST DUP1 PUSH1 0x1F ADD PUSH1 0x20 DUP1 SWAP2 DIV MUL PUSH1 0x20 ADD PUSH1 0x40 MLOAD SWAP1 DUP2 ADD PUSH1 0x40 MSTORE DUP1 SWAP3 SWAP2 SWAP1 DUP2 DUP2 MSTORE PUSH1 0x20 ADD DUP3 DUP1 SLOAD PUSH2 0x1224 SWAP1 PUSH2 0x38DA JUMP JUMPDEST DUP1 ISZERO PUSH2 0x1271 JUMPI DUP1 PUSH1 0x1F LT PUSH2 0x1246 JUMPI PUSH2 0x100 DUP1 DUP4 SLOAD DIV MUL DUP4 MSTORE SWAP2 PUSH1 0x20 ADD SWAP2 PUSH2 0x1271 JUMP JUMPDEST DUP3 ADD SWAP2 SWAP1 PUSH1 0x0 MSTORE PUSH1 0x20 PUSH1 0x0 KECCAK256 SWAP1 JUMPDEST DUP2 SLOAD DUP2 MSTORE SWAP1 PUSH1 0x1 ADD SWAP1 PUSH1 0x20 ADD DUP1 DUP4 GT PUSH2 0x1254 JUMPI DUP3 SWAP1 SUB PUSH1 0x1F AND DUP3 ADD SWAP2 JUMPDEST POP POP POP POP POP PUSH1 0x6 SLOAD DUP4 PUSH2 0x1284 SWAP2 SWAP1 PUSH2 0x376C JUMP JUMPDEST DUP7 MLOAD PUSH2 0x18F7 JUMP JUMPDEST DUP4 DUP3 DUP2 MLOAD DUP2 LT PUSH2 0x129E JUMPI PUSH2 0x129D PUSH2 0x3A13 JUMP JUMPDEST JUMPDEST PUSH1 0x20 MUL PUSH1 0x20 ADD ADD DUP2 SWAP1 MSTORE POP DUP1 DUP1 PUSH2 0x12B4 SWAP1 PUSH2 0x393D JUMP JUMPDEST SWAP2 POP POP PUSH2 0x11C0 JUMP JUMPDEST POP PUSH1 0x0 JUMPDEST DUP3 MLOAD DUP2 LT ISZERO PUSH2 0x136F JUMPI PUSH1 0x0 DUP4 DUP3 DUP2 MLOAD DUP2 LT PUSH2 0x12DE JUMPI PUSH2 0x12DD PUSH2 0x3A13 JUMP JUMPDEST JUMPDEST PUSH1 0x20 MUL PUSH1 0x20 ADD ADD MLOAD MLOAD GT DUP1 ISZERO PUSH2 0x1310 JUMPI POP PUSH1 0x6 SLOAD DUP4 DUP3 DUP2 MLOAD DUP2 LT PUSH2 0x1305 JUMPI PUSH2 0x1304 PUSH2 0x3A13 JUMP JUMPDEST JUMPDEST PUSH1 0x20 MUL PUSH1 0x20 ADD ADD MLOAD MLOAD GT JUMPDEST ISZERO PUSH2 0x135C JUMPI PUSH2 0x133D DUP4 DUP3 DUP2 MLOAD DUP2 LT PUSH2 0x132B JUMPI PUSH2 0x132A PUSH2 0x3A13 JUMP JUMPDEST JUMPDEST PUSH1 0x20 MUL PUSH1 0x20 ADD ADD MLOAD PUSH1 0x0 PUSH1 0x6 SLOAD PUSH2 0x18F7 JUMP JUMPDEST DUP4 DUP3 DUP2 MLOAD DUP2 LT PUSH2 0x1350 JUMPI PUSH2 0x134F PUSH2 0x3A13 JUMP JUMPDEST JUMPDEST PUSH1 0x20 MUL PUSH1 0x20 ADD ADD DUP2 SWAP1 MSTORE POP JUMPDEST DUP1 DUP1 PUSH2 0x1367 SWAP1 PUSH2 0x393D JUMP JUMPDEST SWAP2 POP POP PUSH2 0x12C0 JUMP JUMPDEST POP PUSH1 0x0 PUSH2 0x13C7 PUSH1 0xA PUSH1 0x0 DUP9 DUP2 MSTORE PUSH1 0x20 ADD SWAP1 DUP2 MSTORE PUSH1 0x20 ADD PUSH1 0x0 KECCAK256 PUSH1 0x0 ADD PUSH1 0x0 SWAP1 SLOAD SWAP1 PUSH2 0x100 EXP SWAP1 DIV PUSH20 0xFFFFFFFFFFFFFFFFFFFFFFFFFFFFFFFFFFFFFFFF AND PUSH20 0xFFFFFFFFFFFFFFFFFFFFFFFFFFFFFFFFFFFFFFFF AND PUSH2 0x19F3 JUMP JUMPDEST PUSH2 0x141C PUSH1 0xA PUSH1 0x0 DUP10 DUP2 MSTORE PUSH1 0x20 ADD SWAP1 DUP2 MSTORE PUSH1 0x20 ADD PUSH1 0x0 KECCAK256 PUSH1 0x1 ADD PUSH1 0x0 SWAP1 SLOAD SWAP1 PUSH2 0x100 EXP SWAP1 DIV PUSH20 0xFFFFFFFFFFFFFFFFFFFFFFFFFFFFFFFFFFFFFFFF AND PUSH20 0xFFFFFFFFFFFFFFFFFFFFFFFFFFFFFFFFFFFFFFFF AND PUSH2 0x19F3 JUMP JUMPDEST PUSH2 0x1425 TIMESTAMP PUSH2 0x169D JUMP JUMPDEST DUP6 PUSH1 0x0 DUP2 MLOAD DUP2 LT PUSH2 0x1439 JUMPI PUSH2 0x1438 PUSH2 0x3A13 JUMP JUMPDEST JUMPDEST PUSH1 0x20 MUL PUSH1 0x20 ADD ADD MLOAD PUSH1 0x40 MLOAD PUSH1 0x20 ADD PUSH2 0x1454 SWAP5 SWAP4 SWAP3 SWAP2 SWAP1 PUSH2 0x317E JUMP JUMPDEST PUSH1 0x40 MLOAD PUSH1 0x20 DUP2 DUP4 SUB SUB DUP2 MSTORE SWAP1 PUSH1 0x40 MSTORE SWAP1 POP PUSH1 0x0 DUP4 PUSH1 0x1 DUP2 MLOAD DUP2 LT PUSH2 0x147B JUMPI PUSH2 0x147A PUSH2 0x3A13 JUMP JUMPDEST JUMPDEST PUSH1 0x20 MUL PUSH1 0x20 ADD ADD MLOAD DUP5 PUSH1 0x2 DUP2 MLOAD DUP2 LT PUSH2 0x1497 JUMPI PUSH2 0x1496 PUSH2 0x3A13 JUMP JUMPDEST JUMPDEST PUSH1 0x20 MUL PUSH1 0x20 ADD ADD MLOAD DUP6 PUSH1 0x3 DUP2 MLOAD DUP2 LT PUSH2 0x14B3 JUMPI PUSH2 0x14B2 PUSH2 0x3A13 JUMP JUMPDEST JUMPDEST PUSH1 0x20 MUL PUSH1 0x20 ADD ADD MLOAD DUP7 PUSH1 0x4 DUP2 MLOAD DUP2 LT PUSH2 0x14CF JUMPI PUSH2 0x14CE PUSH2 0x3A13 JUMP JUMPDEST JUMPDEST PUSH1 0x20 MUL PUSH1 0x20 ADD ADD MLOAD PUSH1 0x40 MLOAD PUSH1 0x20 ADD PUSH2 0x14EA SWAP5 SWAP4 SWAP3 SWAP2 SWAP1 PUSH2 0x302F JUMP JUMPDEST PUSH1 0x40 MLOAD PUSH1 0x20 DUP2 DUP4 SUB SUB DUP2 MSTORE SWAP1 PUSH1 0x40 MSTORE SWAP1 POP PUSH1 0x0 DUP5 PUSH1 0x5 DUP2 MLOAD DUP2 LT PUSH2 0x1511 JUMPI PUSH2 0x1510 PUSH2 0x3A13 JUMP JUMPDEST JUMPDEST PUSH1 0x20 MUL PUSH1 0x20 ADD ADD MLOAD DUP6 PUSH1 0x6 DUP2 MLOAD DUP2 LT PUSH2 0x152D JUMPI PUSH2 0x152C PUSH2 0x3A13 JUMP JUMPDEST JUMPDEST PUSH1 0x20 MUL PUSH1 0x20 ADD ADD MLOAD DUP7 PUSH1 0x7 DUP2 MLOAD DUP2 LT PUSH2 0x1549 JUMPI PUSH2 0x1548 PUSH2 0x3A13 JUMP JUMPDEST JUMPDEST PUSH1 0x20 MUL PUSH1 0x20 ADD ADD MLOAD DUP8 PUSH1 0x8 DUP2 MLOAD DUP2 LT PUSH2 0x1565 JUMPI PUSH2 0x1564 PUSH2 0x3A13 JUMP JUMPDEST JUMPDEST PUSH1 0x20 MUL PUSH1 0x20 ADD ADD MLOAD DUP9 PUSH1 0x9 DUP2 MLOAD DUP2 LT PUSH2 0x1581 JUMPI PUSH2 0x1580 PUSH2 0x3A13 JUMP JUMPDEST JUMPDEST PUSH1 0x20 MUL PUSH1 0x20 ADD ADD MLOAD PUSH1 0x40 MLOAD PUSH1 0x20 ADD PUSH2 0x159D SWAP6 SWAP5 SWAP4 SWAP3 SWAP2 SWAP1 PUSH2 0x30C5 JUMP JUMPDEST PUSH1 0x40 MLOAD PUSH1 0x20 DUP2 DUP4 SUB SUB DUP2 MSTORE SWAP1 PUSH1 0x40 MSTORE SWAP1 POP PUSH1 0x0 DUP6 PUSH1 0xA DUP2 MLOAD DUP2 LT PUSH2 0x15C4 JUMPI PUSH2 0x15C3 PUSH2 0x3A13 JUMP JUMPDEST JUMPDEST PUSH1 0x20 MUL PUSH1 0x20 ADD ADD MLOAD DUP7 PUSH1 0xB DUP2 MLOAD DUP2 LT PUSH2 0x15E0 JUMPI PUSH2 0x15DF PUSH2 0x3A13 JUMP JUMPDEST JUMPDEST PUSH1 0x20 MUL PUSH1 0x20 ADD ADD MLOAD DUP8 PUSH1 0xC DUP2 MLOAD DUP2 LT PUSH2 0x15FC JUMPI PUSH2 0x15FB PUSH2 0x3A13 JUMP JUMPDEST JUMPDEST PUSH1 0x20 MUL PUSH1 0x20 ADD ADD MLOAD PUSH1 0x40 MLOAD PUSH1 0x20 ADD PUSH2 0x1616 SWAP4 SWAP3 SWAP2 SWAP1 PUSH2 0x32DE JUMP JUMPDEST PUSH1 0x40 MLOAD PUSH1 0x20 DUP2 DUP4 SUB SUB DUP2 MSTORE SWAP1 PUSH1 0x40 MSTORE SWAP1 POP PUSH1 0x0 DUP7 PUSH1 0xD DUP2 MLOAD DUP2 LT PUSH2 0x163D JUMPI PUSH2 0x163C PUSH2 0x3A13 JUMP JUMPDEST JUMPDEST PUSH1 0x20 MUL PUSH1 0x20 ADD ADD MLOAD PUSH1 0x40 MLOAD PUSH1 0x20 ADD PUSH2 0x1655 SWAP2 SWAP1 PUSH2 0x321F JUMP JUMPDEST PUSH1 0x40 MLOAD PUSH1 0x20 DUP2 DUP4 SUB SUB DUP2 MSTORE SWAP1 PUSH1 0x40 MSTORE SWAP1 POP DUP5 DUP5 DUP5 DUP5 DUP5 PUSH1 0x40 MLOAD PUSH1 0x20 ADD PUSH2 0x167F SWAP6 SWAP5 SWAP4 SWAP3 SWAP2 SWAP1 PUSH2 0x2FE4 JUMP JUMPDEST PUSH1 0x40 MLOAD PUSH1 0x20 DUP2 DUP4 SUB SUB DUP2 MSTORE SWAP1 PUSH1 0x40 MSTORE SWAP9 POP POP POP POP POP POP POP POP POP SWAP2 SWAP1 POP JUMP JUMPDEST PUSH1 0x60 PUSH1 0x0 PUSH1 0x1 PUSH2 0x16AC DUP5 PUSH2 0x1A20 JUMP JUMPDEST ADD SWAP1 POP PUSH1 0x0 DUP2 PUSH8 0xFFFFFFFFFFFFFFFF DUP2 GT ISZERO PUSH2 0x16CB JUMPI PUSH2 0x16CA PUSH2 0x3A42 JUMP JUMPDEST JUMPDEST PUSH1 0x40 MLOAD SWAP1 DUP1 DUP3 MSTORE DUP1 PUSH1 0x1F ADD PUSH1 0x1F NOT AND PUSH1 0x20 ADD DUP3 ADD PUSH1 0x40 MSTORE DUP1 ISZERO PUSH2 0x16FD JUMPI DUP2 PUSH1 0x20 ADD PUSH1 0x1 DUP3 MUL DUP1 CALLDATASIZE DUP4 CALLDATACOPY DUP1 DUP3 ADD SWAP2 POP POP SWAP1 POP JUMPDEST POP SWAP1 POP PUSH1 0x0 DUP3 PUSH1 0x20 ADD DUP3 ADD SWAP1 POP JUMPDEST PUSH1 0x1 ISZERO PUSH2 0x176A JUMPI DUP1 DUP1 PUSH1 0x1 SWAP1 SUB SWAP2 POP POP PUSH32 0x3031323334353637383961626364656600000000000000000000000000000000 PUSH1 0xA DUP7 MOD BYTE DUP2 MSTORE8 PUSH1 0xA DUP6 DUP2 PUSH2 0x1754 JUMPI PUSH2 0x1753 PUSH2 0x39B5 JUMP JUMPDEST JUMPDEST DIV SWAP5 POP PUSH1 0x0 DUP6 EQ ISZERO PUSH2 0x1765 JUMPI PUSH2 0x176A JUMP JUMPDEST PUSH2 0x170B JUMP JUMPDEST DUP2 SWAP4 POP POP POP POP SWAP2 SWAP1 POP JUMP JUMPDEST PUSH1 0x60 PUSH1 0x0 DUP3 MLOAD EQ ISZERO PUSH2 0x1798 JUMPI PUSH1 0x40 MLOAD DUP1 PUSH1 0x20 ADD PUSH1 0x40 MSTORE DUP1 PUSH1 0x0 DUP2 MSTORE POP SWAP1 POP PUSH2 0x18D4 JUMP JUMPDEST PUSH1 0x0 PUSH1 0x40 MLOAD DUP1 PUSH1 0x60 ADD PUSH1 0x40 MSTORE DUP1 PUSH1 0x40 DUP2 MSTORE PUSH1 0x20 ADD PUSH2 0x574A PUSH1 0x40 SWAP2 CODECOPY SWAP1 POP PUSH1 0x0 PUSH1 0x3 PUSH1 0x2 DUP6 MLOAD PUSH2 0x17C7 SWAP2 SWAP1 PUSH2 0x36E5 JUMP JUMPDEST PUSH2 0x17D1 SWAP2 SWAP1 PUSH2 0x373B JUMP JUMPDEST PUSH1 0x4 PUSH2 0x17DD SWAP2 SWAP1 PUSH2 0x376C JUMP JUMPDEST PUSH8 0xFFFFFFFFFFFFFFFF DUP2 GT ISZERO PUSH2 0x17F6 JUMPI PUSH2 0x17F5 PUSH2 0x3A42 JUMP JUMPDEST JUMPDEST PUSH1 0x40 MLOAD SWAP1 DUP1 DUP3 MSTORE DUP1 PUSH1 0x1F ADD PUSH1 0x1F NOT AND PUSH1 0x20 ADD DUP3 ADD PUSH1 0x40 MSTORE DUP1 ISZERO PUSH2 0x1828 JUMPI DUP2 PUSH1 0x20 ADD PUSH1 0x1 DUP3 MUL DUP1 CALLDATASIZE DUP4 CALLDATACOPY DUP1 DUP3 ADD SWAP2 POP POP SWAP1 POP JUMPDEST POP SWAP1 POP PUSH1 0x1 DUP3 ADD PUSH1 0x20 DUP3 ADD DUP6 DUP7 MLOAD DUP8 ADD JUMPDEST DUP1 DUP3 LT ISZERO PUSH2 0x1894 JUMPI PUSH1 0x3 DUP3 ADD SWAP2 POP DUP2 MLOAD PUSH1 0x3F DUP2 PUSH1 0x12 SHR AND DUP6 ADD MLOAD DUP5 MSTORE8 PUSH1 0x1 DUP5 ADD SWAP4 POP PUSH1 0x3F DUP2 PUSH1 0xC SHR AND DUP6 ADD MLOAD DUP5 MSTORE8 PUSH1 0x1 DUP5 ADD SWAP4 POP PUSH1 0x3F DUP2 PUSH1 0x6 SHR AND DUP6 ADD MLOAD DUP5 MSTORE8 PUSH1 0x1 DUP5 ADD SWAP4 POP PUSH1 0x3F DUP2 AND DUP6 ADD MLOAD DUP5 MSTORE8 PUSH1 0x1 DUP5 ADD SWAP4 POP POP PUSH2 0x1839 JUMP JUMPDEST POP POP PUSH1 0x3 DUP7 MLOAD MOD PUSH1 0x1 DUP2 EQ PUSH2 0x18B0 JUMPI PUSH1 0x2 DUP2 EQ PUSH2 0x18C3 JUMPI PUSH2 0x18CB JUMP JUMPDEST PUSH1 0x3D PUSH1 0x1 DUP4 SUB MSTORE8 PUSH1 0x3D PUSH1 0x2 DUP4 SUB MSTORE8 PUSH2 0x18CB JUMP JUMPDEST PUSH1 0x3D PUSH1 0x1 DUP4 SUB MSTORE8 JUMPDEST POP POP POP DUP1 SWAP3 POP POP POP JUMPDEST SWAP2 SWAP1 POP JUMP JUMPDEST PUSH2 0x18F3 DUP3 DUP3 PUSH1 0x40 MLOAD DUP1 PUSH1 0x20 ADD PUSH1 0x40 MSTORE DUP1 PUSH1 0x0 DUP2 MSTORE POP PUSH2 0x1B73 JUMP JUMPDEST POP POP JUMP JUMPDEST PUSH1 0x60 PUSH1 0x0 DUP5 SWAP1 POP PUSH1 0x0 DUP5 DUP5 PUSH2 0x190C SWAP2 SWAP1 PUSH2 0x37C6 JUMP JUMPDEST PUSH8 0xFFFFFFFFFFFFFFFF DUP2 GT ISZERO PUSH2 0x1925 JUMPI PUSH2 0x1924 PUSH2 0x3A42 JUMP JUMPDEST JUMPDEST PUSH1 0x40 MLOAD SWAP1 DUP1 DUP3 MSTORE DUP1 PUSH1 0x1F ADD PUSH1 0x1F NOT AND PUSH1 0x20 ADD DUP3 ADD PUSH1 0x40 MSTORE DUP1 ISZERO PUSH2 0x1957 JUMPI DUP2 PUSH1 0x20 ADD PUSH1 0x1 DUP3 MUL DUP1 CALLDATASIZE DUP4 CALLDATACOPY DUP1 DUP3 ADD SWAP2 POP POP SWAP1 POP JUMPDEST POP SWAP1 POP PUSH1 0x0 DUP6 SWAP1 POP JUMPDEST DUP5 DUP2 LT ISZERO PUSH2 0x19E6 JUMPI DUP3 DUP2 DUP2 MLOAD DUP2 LT PUSH2 0x197B JUMPI PUSH2 0x197A PUSH2 0x3A13 JUMP JUMPDEST JUMPDEST PUSH1 0x20 ADD ADD MLOAD PUSH1 0xF8 SHR PUSH1 0xF8 SHL DUP3 DUP8 DUP4 PUSH2 0x1993 SWAP2 SWAP1 PUSH2 0x37C6 JUMP JUMPDEST DUP2 MLOAD DUP2 LT PUSH2 0x19A4 JUMPI PUSH2 0x19A3 PUSH2 0x3A13 JUMP JUMPDEST JUMPDEST PUSH1 0x20 ADD ADD SWAP1 PUSH31 0xFFFFFFFFFFFFFFFFFFFFFFFFFFFFFFFFFFFFFFFFFFFFFFFFFFFFFFFFFFFFFF NOT AND SWAP1 DUP2 PUSH1 0x0 BYTE SWAP1 MSTORE8 POP DUP1 DUP1 PUSH2 0x19DE SWAP1 PUSH2 0x393D JUMP JUMPDEST SWAP2 POP POP PUSH2 0x1960 JUMP JUMPDEST POP DUP1 SWAP3 POP POP POP SWAP4 SWAP3 POP POP POP JUMP JUMPDEST PUSH1 0x60 PUSH2 0x1A19 DUP3 PUSH20 0xFFFFFFFFFFFFFFFFFFFFFFFFFFFFFFFFFFFFFFFF AND PUSH1 0x14 PUSH1 0xFF AND PUSH2 0x1BCE JUMP JUMPDEST SWAP1 POP SWAP2 SWAP1 POP JUMP JUMPDEST PUSH1 0x0 DUP1 PUSH1 0x0 SWAP1 POP PUSH27 0x184F03E93FF9F4DAA797ED6E38ED64BF6A1F010000000000000000 DUP4 LT PUSH2 0x1A7E JUMPI PUSH27 0x184F03E93FF9F4DAA797ED6E38ED64BF6A1F010000000000000000 DUP4 DUP2 PUSH2 0x1A74 JUMPI PUSH2 0x1A73 PUSH2 0x39B5 JUMP JUMPDEST JUMPDEST DIV SWAP3 POP PUSH1 0x40 DUP2 ADD SWAP1 POP JUMPDEST PUSH14 0x4EE2D6D415B85ACEF8100000000 DUP4 LT PUSH2 0x1ABB JUMPI PUSH14 0x4EE2D6D415B85ACEF8100000000 DUP4 DUP2 PUSH2 0x1AB1 JUMPI PUSH2 0x1AB0 PUSH2 0x39B5 JUMP JUMPDEST JUMPDEST DIV SWAP3 POP PUSH1 0x20 DUP2 ADD SWAP1 POP JUMPDEST PUSH7 0x2386F26FC10000 DUP4 LT PUSH2 0x1AEA JUMPI PUSH7 0x2386F26FC10000 DUP4 DUP2 PUSH2 0x1AE0 JUMPI PUSH2 0x1ADF PUSH2 0x39B5 JUMP JUMPDEST JUMPDEST DIV SWAP3 POP PUSH1 0x10 DUP2 ADD SWAP1 POP JUMPDEST PUSH4 0x5F5E100 DUP4 LT PUSH2 0x1B13 JUMPI PUSH4 0x5F5E100 DUP4 DUP2 PUSH2 0x1B09 JUMPI PUSH2 0x1B08 PUSH2 0x39B5 JUMP JUMPDEST JUMPDEST DIV SWAP3 POP PUSH1 0x8 DUP2 ADD SWAP1 POP JUMPDEST PUSH2 0x2710 DUP4 LT PUSH2 0x1B38 JUMPI PUSH2 0x2710 DUP4 DUP2 PUSH2 0x1B2E JUMPI PUSH2 0x1B2D PUSH2 0x39B5 JUMP JUMPDEST JUMPDEST DIV SWAP3 POP PUSH1 0x4 DUP2 ADD SWAP1 POP JUMPDEST PUSH1 0x64 DUP4 LT PUSH2 0x1B5B JUMPI PUSH1 0x64 DUP4 DUP2 PUSH2 0x1B51 JUMPI PUSH2 0x1B50 PUSH2 0x39B5 JUMP JUMPDEST JUMPDEST DIV SWAP3 POP PUSH1 0x2 DUP2 ADD SWAP1 POP JUMPDEST PUSH1 0xA DUP4 LT PUSH2 0x1B6A JUMPI PUSH1 0x1 DUP2 ADD SWAP1 POP JUMPDEST DUP1 SWAP2 POP POP SWAP2 SWAP1 POP JUMP JUMPDEST PUSH2 0x1B7D DUP4 DUP4 PUSH2 0x1E0A JUMP JUMPDEST PUSH2 0x1B8A PUSH1 0x0 DUP5 DUP5 DUP5 PUSH2 0x2028 JUMP JUMPDEST PUSH2 0x1BC9 JUMPI PUSH1 0x40 MLOAD PUSH32 0x8C379A000000000000000000000000000000000000000000000000000000000 DUP2 MSTORE PUSH1 0x4 ADD PUSH2 0x1BC0 SWAP1 PUSH2 0x3479 JUMP JUMPDEST PUSH1 0x40 MLOAD DUP1 SWAP2 SUB SWAP1 REVERT JUMPDEST POP POP POP JUMP JUMPDEST PUSH1 0x60 PUSH1 0x0 PUSH1 0x2 DUP4 PUSH1 0x2 PUSH2 0x1BE1 SWAP2 SWAP1 PUSH2 0x376C JUMP JUMPDEST PUSH2 0x1BEB SWAP2 SWAP1 PUSH2 0x36E5 JUMP JUMPDEST PUSH8 0xFFFFFFFFFFFFFFFF DUP2 GT ISZERO PUSH2 0x1C04 JUMPI PUSH2 0x1C03 PUSH2 0x3A42 JUMP JUMPDEST JUMPDEST PUSH1 0x40 MLOAD SWAP1 DUP1 DUP3 MSTORE DUP1 PUSH1 0x1F ADD PUSH1 0x1F NOT AND PUSH1 0x20 ADD DUP3 ADD PUSH1 0x40 MSTORE DUP1 ISZERO PUSH2 0x1C36 JUMPI DUP2 PUSH1 0x20 ADD PUSH1 0x1 DUP3 MUL DUP1 CALLDATASIZE DUP4 CALLDATACOPY DUP1 DUP3 ADD SWAP2 POP POP SWAP1 POP JUMPDEST POP SWAP1 POP PUSH32 0x3000000000000000000000000000000000000000000000000000000000000000 DUP2 PUSH1 0x0 DUP2 MLOAD DUP2 LT PUSH2 0x1C6E JUMPI PUSH2 0x1C6D PUSH2 0x3A13 JUMP JUMPDEST JUMPDEST PUSH1 0x20 ADD ADD SWAP1 PUSH31 0xFFFFFFFFFFFFFFFFFFFFFFFFFFFFFFFFFFFFFFFFFFFFFFFFFFFFFFFFFFFFFF NOT AND SWAP1 DUP2 PUSH1 0x0 BYTE SWAP1 MSTORE8 POP PUSH32 0x7800000000000000000000000000000000000000000000000000000000000000 DUP2 PUSH1 0x1 DUP2 MLOAD DUP2 LT PUSH2 0x1CD2 JUMPI PUSH2 0x1CD1 PUSH2 0x3A13 JUMP JUMPDEST JUMPDEST PUSH1 0x20 ADD ADD SWAP1 PUSH31 0xFFFFFFFFFFFFFFFFFFFFFFFFFFFFFFFFFFFFFFFFFFFFFFFFFFFFFFFFFFFFFF NOT AND SWAP1 DUP2 PUSH1 0x0 BYTE SWAP1 MSTORE8 POP PUSH1 0x0 PUSH1 0x1 DUP5 PUSH1 0x2 PUSH2 0x1D12 SWAP2 SWAP1 PUSH2 0x376C JUMP JUMPDEST PUSH2 0x1D1C SWAP2 SWAP1 PUSH2 0x36E5 JUMP JUMPDEST SWAP1 POP JUMPDEST PUSH1 0x1 DUP2 GT ISZERO PUSH2 0x1DBC JUMPI PUSH32 0x3031323334353637383961626364656600000000000000000000000000000000 PUSH1 0xF DUP7 AND PUSH1 0x10 DUP2 LT PUSH2 0x1D5E JUMPI PUSH2 0x1D5D PUSH2 0x3A13 JUMP JUMPDEST JUMPDEST BYTE PUSH1 0xF8 SHL DUP3 DUP3 DUP2 MLOAD DUP2 LT PUSH2 0x1D75 JUMPI PUSH2 0x1D74 PUSH2 0x3A13 JUMP JUMPDEST JUMPDEST PUSH1 0x20 ADD ADD SWAP1 PUSH31 0xFFFFFFFFFFFFFFFFFFFFFFFFFFFFFFFFFFFFFFFFFFFFFFFFFFFFFFFFFFFFFF NOT AND SWAP1 DUP2 PUSH1 0x0 BYTE SWAP1 MSTORE8 POP PUSH1 0x4 DUP6 SWAP1 SHR SWAP5 POP DUP1 PUSH2 0x1DB5 SWAP1 PUSH2 0x38B0 JUMP JUMPDEST SWAP1 POP PUSH2 0x1D1F JUMP JUMPDEST POP PUSH1 0x0 DUP5 EQ PUSH2 0x1E00 JUMPI PUSH1 0x40 MLOAD PUSH32 0x8C379A000000000000000000000000000000000000000000000000000000000 DUP2 MSTORE PUSH1 0x4 ADD PUSH2 0x1DF7 SWAP1 PUSH2 0x3439 JUMP JUMPDEST PUSH1 0x40 MLOAD DUP1 SWAP2 SUB SWAP1 REVERT JUMPDEST DUP1 SWAP2 POP POP SWAP3 SWAP2 POP POP JUMP JUMPDEST PUSH1 0x0 PUSH20 0xFFFFFFFFFFFFFFFFFFFFFFFFFFFFFFFFFFFFFFFF AND DUP3 PUSH20 0xFFFFFFFFFFFFFFFFFFFFFFFFFFFFFFFFFFFFFFFF AND EQ ISZERO PUSH2 0x1E7A JUMPI PUSH1 0x40 MLOAD PUSH32 0x8C379A000000000000000000000000000000000000000000000000000000000 DUP2 MSTORE PUSH1 0x4 ADD PUSH2 0x1E71 SWAP1 PUSH2 0x3539 JUMP JUMPDEST PUSH1 0x40 MLOAD DUP1 SWAP2 SUB SWAP1 REVERT JUMPDEST PUSH2 0x1E83 DUP2 PUSH2 0x21BF JUMP JUMPDEST ISZERO PUSH2 0x1EC3 JUMPI PUSH1 0x40 MLOAD PUSH32 0x8C379A000000000000000000000000000000000000000000000000000000000 DUP2 MSTORE PUSH1 0x4 ADD PUSH2 0x1EBA SWAP1 PUSH2 0x34B9 JUMP JUMPDEST PUSH1 0x40 MLOAD DUP1 SWAP2 SUB SWAP1 REVERT JUMPDEST PUSH2 0x1ED1 PUSH1 0x0 DUP4 DUP4 PUSH1 0x1 PUSH2 0x2200 JUMP JUMPDEST PUSH2 0x1EDA DUP2 PUSH2 0x21BF JUMP JUMPDEST ISZERO PUSH2 0x1F1A JUMPI PUSH1 0x40 MLOAD PUSH32 0x8C379A000000000000000000000000000000000000000000000000000000000 DUP2 MSTORE PUSH1 0x4 ADD PUSH2 0x1F11 SWAP1 PUSH2 0x34B9 JUMP JUMPDEST PUSH1 0x40 MLOAD DUP1 SWAP2 SUB SWAP1 REVERT JUMPDEST PUSH1 0x1 PUSH1 0x3 PUSH1 0x0 DUP5 PUSH20 0xFFFFFFFFFFFFFFFFFFFFFFFFFFFFFFFFFFFFFFFF AND PUSH20 0xFFFFFFFFFFFFFFFFFFFFFFFFFFFFFFFFFFFFFFFF AND DUP2 MSTORE PUSH1 0x20 ADD SWAP1 DUP2 MSTORE PUSH1 0x20 ADD PUSH1 0x0 KECCAK256 PUSH1 0x0 DUP3 DUP3 SLOAD ADD SWAP3 POP POP DUP2 SWAP1 SSTORE POP DUP2 PUSH1 0x2 PUSH1 0x0 DUP4 DUP2 MSTORE PUSH1 0x20 ADD SWAP1 DUP2 MSTORE PUSH1 0x20 ADD PUSH1 0x0 KECCAK256 PUSH1 0x0 PUSH2 0x100 EXP DUP2 SLOAD DUP2 PUSH20 0xFFFFFFFFFFFFFFFFFFFFFFFFFFFFFFFFFFFFFFFF MUL NOT AND SWAP1 DUP4 PUSH20 0xFFFFFFFFFFFFFFFFFFFFFFFFFFFFFFFFFFFFFFFF AND MUL OR SWAP1 SSTORE POP DUP1 DUP3 PUSH20 0xFFFFFFFFFFFFFFFFFFFFFFFFFFFFFFFFFFFFFFFF AND PUSH1 0x0 PUSH20 0xFFFFFFFFFFFFFFFFFFFFFFFFFFFFFFFFFFFFFFFF AND PUSH32 0xDDF252AD1BE2C89B69C2B068FC378DAA952BA7F163C4A11628F55A4DF523B3EF PUSH1 0x40 MLOAD PUSH1 0x40 MLOAD DUP1 SWAP2 SUB SWAP1 LOG4 PUSH2 0x2024 PUSH1 0x0 DUP4 DUP4 PUSH1 0x1 PUSH2 0x2326 JUMP JUMPDEST POP POP JUMP JUMPDEST PUSH1 0x0 PUSH2 0x2049 DUP5 PUSH20 0xFFFFFFFFFFFFFFFFFFFFFFFFFFFFFFFFFFFFFFFF AND PUSH2 0x232C JUMP JUMPDEST ISZERO PUSH2 0x21B2 JUMPI DUP4 PUSH20 0xFFFFFFFFFFFFFFFFFFFFFFFFFFFFFFFFFFFFFFFF AND PUSH4 0x150B7A02 PUSH2 0x2072 PUSH2 0x234F JUMP JUMPDEST DUP8 DUP7 DUP7 PUSH1 0x40 MLOAD DUP6 PUSH4 0xFFFFFFFF AND PUSH1 0xE0 SHL DUP2 MSTORE PUSH1 0x4 ADD PUSH2 0x2094 SWAP5 SWAP4 SWAP3 SWAP2 SWAP1 PUSH2 0x338E JUMP JUMPDEST PUSH1 0x20 PUSH1 0x40 MLOAD DUP1 DUP4 SUB DUP2 PUSH1 0x0 DUP8 DUP1 EXTCODESIZE ISZERO DUP1 ISZERO PUSH2 0x20AE JUMPI PUSH1 0x0 DUP1 REVERT JUMPDEST POP GAS CALL SWAP3 POP POP POP DUP1 ISZERO PUSH2 0x20DF JUMPI POP PUSH1 0x40 MLOAD RETURNDATASIZE PUSH1 0x1F NOT PUSH1 0x1F DUP3 ADD AND DUP3 ADD DUP1 PUSH1 0x40 MSTORE POP DUP2 ADD SWAP1 PUSH2 0x20DC SWAP2 SWAP1 PUSH2 0x2757 JUMP JUMPDEST PUSH1 0x1 JUMPDEST PUSH2 0x2162 JUMPI RETURNDATASIZE DUP1 PUSH1 0x0 DUP2 EQ PUSH2 0x210F JUMPI PUSH1 0x40 MLOAD SWAP2 POP PUSH1 0x1F NOT PUSH1 0x3F RETURNDATASIZE ADD AND DUP3 ADD PUSH1 0x40 MSTORE RETURNDATASIZE DUP3 MSTORE RETURNDATASIZE PUSH1 0x0 PUSH1 0x20 DUP5 ADD RETURNDATACOPY PUSH2 0x2114 JUMP JUMPDEST PUSH1 0x60 SWAP2 POP JUMPDEST POP PUSH1 0x0 DUP2 MLOAD EQ ISZERO PUSH2 0x215A JUMPI PUSH1 0x40 MLOAD PUSH32 0x8C379A000000000000000000000000000000000000000000000000000000000 DUP2 MSTORE PUSH1 0x4 ADD PUSH2 0x2151 SWAP1 PUSH2 0x3479 JUMP JUMPDEST PUSH1 0x40 MLOAD DUP1 SWAP2 SUB SWAP1 REVERT JUMPDEST DUP1 MLOAD DUP2 PUSH1 0x20 ADD REVERT JUMPDEST PUSH4 0x150B7A02 PUSH1 0xE0 SHL PUSH28 0xFFFFFFFFFFFFFFFFFFFFFFFFFFFFFFFFFFFFFFFFFFFFFFFFFFFFFFFF NOT AND DUP2 PUSH28 0xFFFFFFFFFFFFFFFFFFFFFFFFFFFFFFFFFFFFFFFFFFFFFFFFFFFFFFFF NOT AND EQ SWAP2 POP POP PUSH2 0x21B7 JUMP JUMPDEST PUSH1 0x1 SWAP1 POP JUMPDEST SWAP5 SWAP4 POP POP POP POP JUMP JUMPDEST PUSH1 0x0 DUP1 PUSH20 0xFFFFFFFFFFFFFFFFFFFFFFFFFFFFFFFFFFFFFFFF AND PUSH2 0x21E1 DUP4 PUSH2 0x1075 JUMP JUMPDEST PUSH20 0xFFFFFFFFFFFFFFFFFFFFFFFFFFFFFFFFFFFFFFFF AND EQ ISZERO SWAP1 POP SWAP2 SWAP1 POP JUMP JUMPDEST PUSH1 0x1 DUP2 GT ISZERO PUSH2 0x2320 JUMPI PUSH1 0x0 PUSH20 0xFFFFFFFFFFFFFFFFFFFFFFFFFFFFFFFFFFFFFFFF AND DUP5 PUSH20 0xFFFFFFFFFFFFFFFFFFFFFFFFFFFFFFFFFFFFFFFF AND EQ PUSH2 0x2294 JUMPI DUP1 PUSH1 0x3 PUSH1 0x0 DUP7 PUSH20 0xFFFFFFFFFFFFFFFFFFFFFFFFFFFFFFFFFFFFFFFF AND PUSH20 0xFFFFFFFFFFFFFFFFFFFFFFFFFFFFFFFFFFFFFFFF AND DUP2 MSTORE PUSH1 0x20 ADD SWAP1 DUP2 MSTORE PUSH1 0x20 ADD PUSH1 0x0 KECCAK256 PUSH1 0x0 DUP3 DUP3 SLOAD PUSH2 0x228C SWAP2 SWAP1 PUSH2 0x37C6 JUMP JUMPDEST SWAP3 POP POP DUP2 SWAP1 SSTORE POP JUMPDEST PUSH1 0x0 PUSH20 0xFFFFFFFFFFFFFFFFFFFFFFFFFFFFFFFFFFFFFFFF AND DUP4 PUSH20 0xFFFFFFFFFFFFFFFFFFFFFFFFFFFFFFFFFFFFFFFF AND EQ PUSH2 0x231F JUMPI DUP1 PUSH1 0x3 PUSH1 0x0 DUP6 PUSH20 0xFFFFFFFFFFFFFFFFFFFFFFFFFFFFFFFFFFFFFFFF AND PUSH20 0xFFFFFFFFFFFFFFFFFFFFFFFFFFFFFFFFFFFFFFFF AND DUP2 MSTORE PUSH1 0x20 ADD SWAP1 DUP2 MSTORE PUSH1 0x20 ADD PUSH1 0x0 KECCAK256 PUSH1 0x0 DUP3 DUP3 SLOAD PUSH2 0x2317 SWAP2 SWAP1 PUSH2 0x36E5 JUMP JUMPDEST SWAP3 POP POP DUP2 SWAP1 SSTORE POP JUMPDEST JUMPDEST POP POP POP POP JUMP JUMPDEST POP POP POP POP JUMP JUMPDEST PUSH1 0x0 DUP1 DUP3 PUSH20 0xFFFFFFFFFFFFFFFFFFFFFFFFFFFFFFFFFFFFFFFF AND EXTCODESIZE GT SWAP1 POP SWAP2 SWAP1 POP JUMP JUMPDEST PUSH1 0x0 CALLER SWAP1 POP SWAP1 JUMP JUMPDEST PUSH1 0x40 MLOAD DUP1 PUSH1 0x60 ADD PUSH1 0x40 MSTORE DUP1 PUSH1 0x0 PUSH20 0xFFFFFFFFFFFFFFFFFFFFFFFFFFFFFFFFFFFFFFFF AND DUP2 MSTORE PUSH1 0x20 ADD PUSH1 0x0 PUSH20 0xFFFFFFFFFFFFFFFFFFFFFFFFFFFFFFFFFFFFFFFF AND DUP2 MSTORE PUSH1 0x20 ADD PUSH1 0x60 DUP2 MSTORE POP SWAP1 JUMP JUMPDEST DUP3 DUP1 SLOAD PUSH2 0x23B0 SWAP1 PUSH2 0x38DA JUMP JUMPDEST SWAP1 PUSH1 0x0 MSTORE PUSH1 0x20 PUSH1 0x0 KECCAK256 SWAP1 PUSH1 0x1F ADD PUSH1 0x20 SWAP1 DIV DUP2 ADD SWAP3 DUP3 PUSH2 0x23D2 JUMPI PUSH1 0x0 DUP6 SSTORE PUSH2 0x2419 JUMP JUMPDEST DUP3 PUSH1 0x1F LT PUSH2 0x23EB JUMPI DUP1 MLOAD PUSH1 0xFF NOT AND DUP4 DUP1 ADD OR DUP6 SSTORE PUSH2 0x2419 JUMP JUMPDEST DUP3 DUP1 ADD PUSH1 0x1 ADD DUP6 SSTORE DUP3 ISZERO PUSH2 0x2419 JUMPI SWAP2 DUP3 ADD JUMPDEST DUP3 DUP2 GT ISZERO PUSH2 0x2418 JUMPI DUP3 MLOAD DUP3 SSTORE SWAP2 PUSH1 0x20 ADD SWAP2 SWAP1 PUSH1 0x1 ADD SWAP1 PUSH2 0x23FD JUMP JUMPDEST JUMPDEST POP SWAP1 POP PUSH2 0x2426 SWAP2 SWAP1 PUSH2 0x242A JUMP JUMPDEST POP SWAP1 JUMP JUMPDEST JUMPDEST DUP1 DUP3 GT ISZERO PUSH2 0x2443 JUMPI PUSH1 0x0 DUP2 PUSH1 0x0 SWAP1 SSTORE POP PUSH1 0x1 ADD PUSH2 0x242B JUMP JUMPDEST POP SWAP1 JUMP JUMPDEST PUSH1 0x0 PUSH2 0x245A PUSH2 0x2455 DUP5 PUSH2 0x35FB JUMP JUMPDEST PUSH2 0x35D6 JUMP JUMPDEST SWAP1 POP DUP1 DUP4 DUP3 MSTORE PUSH1 0x20 DUP3 ADD SWAP1 POP DUP3 DUP6 PUSH1 0x20 DUP7 MUL DUP3 ADD GT ISZERO PUSH2 0x247D JUMPI PUSH2 0x247C PUSH2 0x3A76 JUMP JUMPDEST JUMPDEST PUSH1 0x0 JUMPDEST DUP6 DUP2 LT ISZERO PUSH2 0x24AD JUMPI DUP2 PUSH2 0x2493 DUP9 DUP3 PUSH2 0x24F9 JUMP JUMPDEST DUP5 MSTORE PUSH1 0x20 DUP5 ADD SWAP4 POP PUSH1 0x20 DUP4 ADD SWAP3 POP POP PUSH1 0x1 DUP2 ADD SWAP1 POP PUSH2 0x2480 JUMP JUMPDEST POP POP POP SWAP4 SWAP3 POP POP POP JUMP JUMPDEST PUSH1 0x0 PUSH2 0x24CA PUSH2 0x24C5 DUP5 PUSH2 0x3627 JUMP JUMPDEST PUSH2 0x35D6 JUMP JUMPDEST SWAP1 POP DUP3 DUP2 MSTORE PUSH1 0x20 DUP2 ADD DUP5 DUP5 DUP5 ADD GT ISZERO PUSH2 0x24E6 JUMPI PUSH2 0x24E5 PUSH2 0x3A7B JUMP JUMPDEST JUMPDEST PUSH2 0x24F1 DUP5 DUP3 DUP6 PUSH2 0x386E JUMP JUMPDEST POP SWAP4 SWAP3 POP POP POP JUMP JUMPDEST PUSH1 0x0 DUP2 CALLDATALOAD SWAP1 POP PUSH2 0x2508 DUP2 PUSH2 0x5704 JUMP JUMPDEST SWAP3 SWAP2 POP POP JUMP JUMPDEST PUSH1 0x0 DUP3 PUSH1 0x1F DUP4 ADD SLT PUSH2 0x2523 JUMPI PUSH2 0x2522 PUSH2 0x3A71 JUMP JUMPDEST JUMPDEST DUP2 CALLDATALOAD PUSH2 0x2533 DUP5 DUP3 PUSH1 0x20 DUP7 ADD PUSH2 0x2447 JUMP JUMPDEST SWAP2 POP POP SWAP3 SWAP2 POP POP JUMP JUMPDEST PUSH1 0x0 DUP2 CALLDATALOAD SWAP1 POP PUSH2 0x254B DUP2 PUSH2 0x571B JUMP JUMPDEST SWAP3 SWAP2 POP POP JUMP JUMPDEST PUSH1 0x0 DUP2 MLOAD SWAP1 POP PUSH2 0x2560 DUP2 PUSH2 0x571B JUMP JUMPDEST SWAP3 SWAP2 POP POP JUMP JUMPDEST PUSH1 0x0 DUP3 PUSH1 0x1F DUP4 ADD SLT PUSH2 0x257B JUMPI PUSH2 0x257A PUSH2 0x3A71 JUMP JUMPDEST JUMPDEST DUP2 CALLDATALOAD PUSH2 0x258B DUP5 DUP3 PUSH1 0x20 DUP7 ADD PUSH2 0x24B7 JUMP JUMPDEST SWAP2 POP POP SWAP3 SWAP2 POP POP JUMP JUMPDEST PUSH1 0x0 DUP2 CALLDATALOAD SWAP1 POP PUSH2 0x25A3 DUP2 PUSH2 0x5732 JUMP JUMPDEST SWAP3 SWAP2 POP POP JUMP JUMPDEST PUSH1 0x0 PUSH1 0x20 DUP3 DUP5 SUB SLT ISZERO PUSH2 0x25BF JUMPI PUSH2 0x25BE PUSH2 0x3A85 JUMP JUMPDEST JUMPDEST PUSH1 0x0 PUSH2 0x25CD DUP5 DUP3 DUP6 ADD PUSH2 0x24F9 JUMP JUMPDEST SWAP2 POP POP SWAP3 SWAP2 POP POP JUMP JUMPDEST PUSH1 0x0 DUP1 PUSH1 0x40 DUP4 DUP6 SUB SLT ISZERO PUSH2 0x25ED JUMPI PUSH2 0x25EC PUSH2 0x3A85 JUMP JUMPDEST JUMPDEST PUSH1 0x0 PUSH2 0x25FB DUP6 DUP3 DUP7 ADD PUSH2 0x24F9 JUMP JUMPDEST SWAP3 POP POP PUSH1 0x20 PUSH2 0x260C DUP6 DUP3 DUP7 ADD PUSH2 0x24F9 JUMP JUMPDEST SWAP2 POP POP SWAP3 POP SWAP3 SWAP1 POP JUMP JUMPDEST PUSH1 0x0 DUP1 PUSH1 0x40 DUP4 DUP6 SUB SLT ISZERO PUSH2 0x262D JUMPI PUSH2 0x262C PUSH2 0x3A85 JUMP JUMPDEST JUMPDEST PUSH1 0x0 PUSH2 0x263B DUP6 DUP3 DUP7 ADD PUSH2 0x24F9 JUMP JUMPDEST SWAP3 POP POP PUSH1 0x20 DUP4 ADD CALLDATALOAD PUSH8 0xFFFFFFFFFFFFFFFF DUP2 GT ISZERO PUSH2 0x265C JUMPI PUSH2 0x265B PUSH2 0x3A80 JUMP JUMPDEST JUMPDEST PUSH2 0x2668 DUP6 DUP3 DUP7 ADD PUSH2 0x2566 JUMP JUMPDEST SWAP2 POP POP SWAP3 POP SWAP3 SWAP1 POP JUMP JUMPDEST PUSH1 0x0 DUP1 PUSH1 0x40 DUP4 DUP6 SUB SLT ISZERO PUSH2 0x2689 JUMPI PUSH2 0x2688 PUSH2 0x3A85 JUMP JUMPDEST JUMPDEST PUSH1 0x0 PUSH2 0x2697 DUP6 DUP3 DUP7 ADD PUSH2 0x24F9 JUMP JUMPDEST SWAP3 POP POP PUSH1 0x20 PUSH2 0x26A8 DUP6 DUP3 DUP7 ADD PUSH2 0x2594 JUMP JUMPDEST SWAP2 POP POP SWAP3 POP SWAP3 SWAP1 POP JUMP JUMPDEST PUSH1 0x0 DUP1 PUSH1 0x40 DUP4 DUP6 SUB SLT ISZERO PUSH2 0x26C9 JUMPI PUSH2 0x26C8 PUSH2 0x3A85 JUMP JUMPDEST JUMPDEST PUSH1 0x0 DUP4 ADD CALLDATALOAD PUSH8 0xFFFFFFFFFFFFFFFF DUP2 GT ISZERO PUSH2 0x26E7 JUMPI PUSH2 0x26E6 PUSH2 0x3A80 JUMP JUMPDEST JUMPDEST PUSH2 0x26F3 DUP6 DUP3 DUP7 ADD PUSH2 0x250E JUMP JUMPDEST SWAP3 POP POP PUSH1 0x20 DUP4 ADD CALLDATALOAD PUSH8 0xFFFFFFFFFFFFFFFF DUP2 GT ISZERO PUSH2 0x2714 JUMPI PUSH2 0x2713 PUSH2 0x3A80 JUMP JUMPDEST JUMPDEST PUSH2 0x2720 DUP6 DUP3 DUP7 ADD PUSH2 0x2566 JUMP JUMPDEST SWAP2 POP POP SWAP3 POP SWAP3 SWAP1 POP JUMP JUMPDEST PUSH1 0x0 PUSH1 0x20 DUP3 DUP5 SUB SLT ISZERO PUSH2 0x2740 JUMPI PUSH2 0x273F PUSH2 0x3A85 JUMP JUMPDEST JUMPDEST PUSH1 0x0 PUSH2 0x274E DUP5 DUP3 DUP6 ADD PUSH2 0x253C JUMP JUMPDEST SWAP2 POP POP SWAP3 SWAP2 POP POP JUMP JUMPDEST PUSH1 0x0 PUSH1 0x20 DUP3 DUP5 SUB SLT ISZERO PUSH2 0x276D JUMPI PUSH2 0x276C PUSH2 0x3A85 JUMP JUMPDEST JUMPDEST PUSH1 0x0 PUSH2 0x277B DUP5 DUP3 DUP6 ADD PUSH2 0x2551 JUMP JUMPDEST SWAP2 POP POP SWAP3 SWAP2 POP POP JUMP JUMPDEST PUSH1 0x0 PUSH1 0x20 DUP3 DUP5 SUB SLT ISZERO PUSH2 0x279A JUMPI PUSH2 0x2799 PUSH2 0x3A85 JUMP JUMPDEST JUMPDEST PUSH1 0x0 PUSH2 0x27A8 DUP5 DUP3 DUP6 ADD PUSH2 0x2594 JUMP JUMPDEST SWAP2 POP POP SWAP3 SWAP2 POP POP JUMP JUMPDEST PUSH1 0x0 PUSH2 0x27BD DUP4 DUP4 PUSH2 0x2FAF JUMP JUMPDEST PUSH1 0x20 DUP4 ADD SWAP1 POP SWAP3 SWAP2 POP POP JUMP JUMPDEST PUSH2 0x27D2 DUP2 PUSH2 0x37FA JUMP JUMPDEST DUP3 MSTORE POP POP JUMP JUMPDEST PUSH2 0x27E1 DUP2 PUSH2 0x37FA JUMP JUMPDEST DUP3 MSTORE POP POP JUMP JUMPDEST PUSH1 0x0 PUSH2 0x27F2 DUP3 PUSH2 0x3668 JUMP JUMPDEST PUSH2 0x27FC DUP2 DUP6 PUSH2 0x3696 JUMP JUMPDEST SWAP4 POP PUSH2 0x2807 DUP4 PUSH2 0x3658 JUMP JUMPDEST DUP1 PUSH1 0x0 JUMPDEST DUP4 DUP2 LT ISZERO PUSH2 0x2838 JUMPI DUP2 MLOAD PUSH2 0x281F DUP9 DUP3 PUSH2 0x27B1 JUMP JUMPDEST SWAP8 POP PUSH2 0x282A DUP4 PUSH2 0x3689 JUMP JUMPDEST SWAP3 POP POP PUSH1 0x1 DUP2 ADD SWAP1 POP PUSH2 0x280B JUMP JUMPDEST POP DUP6 SWAP4 POP POP POP POP SWAP3 SWAP2 POP POP JUMP JUMPDEST PUSH2 0x284E DUP2 PUSH2 0x380C JUMP JUMPDEST DUP3 MSTORE POP POP JUMP JUMPDEST PUSH1 0x0 PUSH2 0x285F DUP3 PUSH2 0x3673 JUMP JUMPDEST PUSH2 0x2869 DUP2 DUP6 PUSH2 0x36A7 JUMP JUMPDEST SWAP4 POP PUSH2 0x2879 DUP2 DUP6 PUSH1 0x20 DUP7 ADD PUSH2 0x387D JUMP JUMPDEST PUSH2 0x2882 DUP2 PUSH2 0x3A8A JUMP JUMPDEST DUP5 ADD SWAP2 POP POP SWAP3 SWAP2 POP POP JUMP JUMPDEST PUSH1 0x0 PUSH2 0x2898 DUP3 PUSH2 0x367E JUMP JUMPDEST PUSH2 0x28A2 DUP2 DUP6 PUSH2 0x36B8 JUMP JUMPDEST SWAP4 POP PUSH2 0x28B2 DUP2 DUP6 PUSH1 0x20 DUP7 ADD PUSH2 0x387D JUMP JUMPDEST PUSH2 0x28BB DUP2 PUSH2 0x3A8A JUMP JUMPDEST DUP5 ADD SWAP2 POP POP SWAP3 SWAP2 POP POP JUMP JUMPDEST PUSH1 0x0 PUSH2 0x28D1 DUP3 PUSH2 0x367E JUMP JUMPDEST PUSH2 0x28DB DUP2 DUP6 PUSH2 0x36C9 JUMP JUMPDEST SWAP4 POP PUSH2 0x28EB DUP2 DUP6 PUSH1 0x20 DUP7 ADD PUSH2 0x387D JUMP JUMPDEST PUSH2 0x28F4 DUP2 PUSH2 0x3A8A JUMP JUMPDEST DUP5 ADD SWAP2 POP POP SWAP3 SWAP2 POP POP JUMP JUMPDEST PUSH1 0x0 PUSH2 0x290A DUP3 PUSH2 0x367E JUMP JUMPDEST PUSH2 0x2914 DUP2 DUP6 PUSH2 0x36DA JUMP JUMPDEST SWAP4 POP PUSH2 0x2924 DUP2 DUP6 PUSH1 0x20 DUP7 ADD PUSH2 0x387D JUMP JUMPDEST DUP1 DUP5 ADD SWAP2 POP POP SWAP3 SWAP2 POP POP JUMP JUMPDEST PUSH1 0x0 PUSH2 0x293D PUSH1 0x20 DUP4 PUSH2 0x36C9 JUMP JUMPDEST SWAP2 POP PUSH2 0x2948 DUP3 PUSH2 0x3A9B JUMP JUMPDEST PUSH1 0x20 DUP3 ADD SWAP1 POP SWAP2 SWAP1 POP JUMP JUMPDEST PUSH1 0x0 PUSH2 0x2960 PUSH1 0x40 DUP4 PUSH2 0x36DA JUMP JUMPDEST SWAP2 POP PUSH2 0x296B DUP3 PUSH2 0x3AC4 JUMP JUMPDEST PUSH1 0x40 DUP3 ADD SWAP1 POP SWAP2 SWAP1 POP JUMP JUMPDEST PUSH1 0x0 PUSH2 0x2983 PUSH1 0xB DUP4 PUSH2 0x36DA JUMP JUMPDEST SWAP2 POP PUSH2 0x298E DUP3 PUSH2 0x3B13 JUMP JUMPDEST PUSH1 0xB DUP3 ADD SWAP1 POP SWAP2 SWAP1 POP JUMP JUMPDEST PUSH1 0x0 PUSH2 0x29A6 PUSH1 0x40 DUP4 PUSH2 0x36DA JUMP JUMPDEST SWAP2 POP PUSH2 0x29B1 DUP3 PUSH2 0x3B3C JUMP JUMPDEST PUSH1 0x40 DUP3 ADD SWAP1 POP SWAP2 SWAP1 POP JUMP JUMPDEST PUSH1 0x0 PUSH2 0x29C9 PUSH1 0x40 DUP4 PUSH2 0x36DA JUMP JUMPDEST SWAP2 POP PUSH2 0x29D4 DUP3 PUSH2 0x3B8B JUMP JUMPDEST PUSH1 0x40 DUP3 ADD SWAP1 POP SWAP2 SWAP1 POP JUMP JUMPDEST PUSH1 0x0 PUSH2 0x29EC PUSH1 0x2B DUP4 PUSH2 0x36C9 JUMP JUMPDEST SWAP2 POP PUSH2 0x29F7 DUP3 PUSH2 0x3BDA JUMP JUMPDEST PUSH1 0x40 DUP3 ADD SWAP1 POP SWAP2 SWAP1 POP JUMP JUMPDEST PUSH1 0x0 PUSH2 0x2A0F PUSH1 0x32 DUP4 PUSH2 0x36C9 JUMP JUMPDEST SWAP2 POP PUSH2 0x2A1A DUP3 PUSH2 0x3C29 JUMP JUMPDEST PUSH1 0x40 DUP3 ADD SWAP1 POP SWAP2 SWAP1 POP JUMP JUMPDEST PUSH1 0x0 PUSH2 0x2A32 PUSH1 0x9 DUP4 PUSH2 0x36DA JUMP JUMPDEST SWAP2 POP PUSH2 0x2A3D DUP3 PUSH2 0x3C78 JUMP JUMPDEST PUSH1 0x9 DUP3 ADD SWAP1 POP SWAP2 SWAP1 POP JUMP JUMPDEST PUSH1 0x0 PUSH2 0x2A55 PUSH1 0x40 DUP4 PUSH2 0x36DA JUMP JUMPDEST SWAP2 POP PUSH2 0x2A60 DUP3 PUSH2 0x3CA1 JUMP JUMPDEST PUSH1 0x40 DUP3 ADD SWAP1 POP SWAP2 SWAP1 POP JUMP JUMPDEST PUSH1 0x0 PUSH2 0x2A79 PUSH2 0x3C8 DUP4 PUSH2 0x36DA JUMP JUMPDEST SWAP2 POP PUSH2 0x2A84 DUP3 PUSH2 0x3CF0 JUMP JUMPDEST PUSH2 0x3C8 DUP3 ADD SWAP1 POP SWAP2 SWAP1 POP JUMP JUMPDEST PUSH1 0x0 PUSH2 0x2A9D PUSH1 0x17 DUP4 PUSH2 0x36C9 JUMP JUMPDEST SWAP2 POP PUSH2 0x2AA8 DUP3 PUSH2 0x41A4 JUMP JUMPDEST PUSH1 0x20 DUP3 ADD SWAP1 POP SWAP2 SWAP1 POP JUMP JUMPDEST PUSH1 0x0 PUSH2 0x2AC0 PUSH1 0x2 DUP4 PUSH2 0x36DA JUMP JUMPDEST SWAP2 POP PUSH2 0x2ACB DUP3 PUSH2 0x41CD JUMP JUMPDEST PUSH1 0x2 DUP3 ADD SWAP1 POP SWAP2 SWAP1 POP JUMP JUMPDEST PUSH1 0x0 PUSH2 0x2AE3 PUSH1 0x1C DUP4 PUSH2 0x36C9 JUMP JUMPDEST SWAP2 POP PUSH2 0x2AEE DUP3 PUSH2 0x41F6 JUMP JUMPDEST PUSH1 0x20 DUP3 ADD SWAP1 POP SWAP2 SWAP1 POP JUMP JUMPDEST PUSH1 0x0 PUSH2 0x2B06 PUSH1 0x54 DUP4 PUSH2 0x36C9 JUMP JUMPDEST SWAP2 POP PUSH2 0x2B11 DUP3 PUSH2 0x421F JUMP JUMPDEST PUSH1 0x60 DUP3 ADD SWAP1 POP SWAP2 SWAP1 POP JUMP JUMPDEST PUSH1 0x0 PUSH2 0x2B29 PUSH1 0xF DUP4 PUSH2 0x36DA JUMP JUMPDEST SWAP2 POP PUSH2 0x2B34 DUP3 PUSH2 0x4294 JUMP JUMPDEST PUSH1 0xF DUP3 ADD SWAP1 POP SWAP2 SWAP1 POP JUMP JUMPDEST PUSH1 0x0 PUSH2 0x2B4C PUSH1 0x1A DUP4 PUSH2 0x36C9 JUMP JUMPDEST SWAP2 POP PUSH2 0x2B57 DUP3 PUSH2 0x42BD JUMP JUMPDEST PUSH1 0x20 DUP3 ADD SWAP1 POP SWAP2 SWAP1 POP JUMP JUMPDEST PUSH1 0x0 PUSH2 0x2B6F PUSH1 0xD DUP4 PUSH2 0x36DA JUMP JUMPDEST SWAP2 POP PUSH2 0x2B7A DUP3 PUSH2 0x42E6 JUMP JUMPDEST PUSH1 0xD DUP3 ADD SWAP1 POP SWAP2 SWAP1 POP JUMP JUMPDEST PUSH1 0x0 PUSH2 0x2B92 PUSH1 0xF DUP4 PUSH2 0x36DA JUMP JUMPDEST SWAP2 POP PUSH2 0x2B9D DUP3 PUSH2 0x430F JUMP JUMPDEST PUSH1 0xF DUP3 ADD SWAP1 POP SWAP2 SWAP1 POP JUMP JUMPDEST PUSH1 0x0 PUSH2 0x2BB5 PUSH1 0xAD DUP4 PUSH2 0x36DA JUMP JUMPDEST SWAP2 POP PUSH2 0x2BC0 DUP3 PUSH2 0x4338 JUMP JUMPDEST PUSH1 0xAD DUP3 ADD SWAP1 POP SWAP2 SWAP1 POP JUMP JUMPDEST PUSH1 0x0 PUSH2 0x2BD9 PUSH2 0x168 DUP4 PUSH2 0x36DA JUMP JUMPDEST SWAP2 POP PUSH2 0x2BE4 DUP3 PUSH2 0x441F JUMP JUMPDEST PUSH2 0x168 DUP3 ADD SWAP1 POP SWAP2 SWAP1 POP JUMP JUMPDEST PUSH1 0x0 PUSH2 0x2BFD PUSH1 0xFB DUP4 PUSH2 0x36DA JUMP JUMPDEST SWAP2 POP PUSH2 0x2C08 DUP3 PUSH2 0x45EE JUMP JUMPDEST PUSH1 0xFB DUP3 ADD SWAP1 POP SWAP2 SWAP1 POP JUMP JUMPDEST PUSH1 0x0 PUSH2 0x2C21 PUSH2 0x115 DUP4 PUSH2 0x36DA JUMP JUMPDEST SWAP2 POP PUSH2 0x2C2C DUP3 PUSH2 0x4721 JUMP JUMPDEST PUSH2 0x115 DUP3 ADD SWAP1 POP SWAP2 SWAP1 POP JUMP JUMPDEST PUSH1 0x0 PUSH2 0x2C45 PUSH1 0x41 DUP4 PUSH2 0x36DA JUMP JUMPDEST SWAP2 POP PUSH2 0x2C50 DUP3 PUSH2 0x487B JUMP JUMPDEST PUSH1 0x41 DUP3 ADD SWAP1 POP SWAP2 SWAP1 POP JUMP JUMPDEST PUSH1 0x0 PUSH2 0x2C68 PUSH1 0x29 DUP4 PUSH2 0x36C9 JUMP JUMPDEST SWAP2 POP PUSH2 0x2C73 DUP3 PUSH2 0x48F0 JUMP JUMPDEST PUSH1 0x40 DUP3 ADD SWAP1 POP SWAP2 SWAP1 POP JUMP JUMPDEST PUSH1 0x0 PUSH2 0x2C8C PUSH2 0x638 DUP4 PUSH2 0x36DA JUMP JUMPDEST SWAP2 POP PUSH2 0x2C97 DUP3 PUSH2 0x493F JUMP JUMPDEST PUSH2 0x638 DUP3 ADD SWAP1 POP SWAP2 SWAP1 POP JUMP JUMPDEST PUSH1 0x0 PUSH2 0x2CB0 PUSH1 0x40 DUP4 PUSH2 0x36DA JUMP JUMPDEST SWAP2 POP PUSH2 0x2CBB DUP3 PUSH2 0x50D8 JUMP JUMPDEST PUSH1 0x40 DUP3 ADD SWAP1 POP SWAP2 SWAP1 POP JUMP JUMPDEST PUSH1 0x0 PUSH2 0x2CD3 PUSH1 0x40 DUP4 PUSH2 0x36DA JUMP JUMPDEST SWAP2 POP PUSH2 0x2CDE DUP3 PUSH2 0x5127 JUMP JUMPDEST PUSH1 0x40 DUP3 ADD SWAP1 POP SWAP2 SWAP1 POP JUMP JUMPDEST PUSH1 0x0 PUSH2 0x2CF6 PUSH1 0x3 DUP4 PUSH2 0x36DA JUMP JUMPDEST SWAP2 POP PUSH2 0x2D01 DUP3 PUSH2 0x5176 JUMP JUMPDEST PUSH1 0x3 DUP3 ADD SWAP1 POP SWAP2 SWAP1 POP JUMP JUMPDEST PUSH1 0x0 PUSH2 0x2D19 PUSH1 0x24 DUP4 PUSH2 0x36DA JUMP JUMPDEST SWAP2 POP PUSH2 0x2D24 DUP3 PUSH2 0x519F JUMP JUMPDEST PUSH1 0x24 DUP3 ADD SWAP1 POP SWAP2 SWAP1 POP JUMP JUMPDEST PUSH1 0x0 PUSH2 0x2D3C PUSH1 0x20 DUP4 PUSH2 0x36C9 JUMP JUMPDEST SWAP2 POP PUSH2 0x2D47 DUP3 PUSH2 0x51EE JUMP JUMPDEST PUSH1 0x20 DUP3 ADD SWAP1 POP SWAP2 SWAP1 POP JUMP JUMPDEST PUSH1 0x0 PUSH2 0x2D5F PUSH1 0x40 DUP4 PUSH2 0x36DA JUMP JUMPDEST SWAP2 POP PUSH2 0x2D6A DUP3 PUSH2 0x5217 JUMP JUMPDEST PUSH1 0x40 DUP3 ADD SWAP1 POP SWAP2 SWAP1 POP JUMP JUMPDEST PUSH1 0x0 PUSH2 0x2D82 PUSH1 0x1 DUP4 PUSH2 0x36DA JUMP JUMPDEST SWAP2 POP PUSH2 0x2D8D DUP3 PUSH2 0x5266 JUMP JUMPDEST PUSH1 0x1 DUP3 ADD SWAP1 POP SWAP2 SWAP1 POP JUMP JUMPDEST PUSH1 0x0 PUSH2 0x2DA5 PUSH1 0xAC DUP4 PUSH2 0x36DA JUMP JUMPDEST SWAP2 POP PUSH2 0x2DB0 DUP3 PUSH2 0x528F JUMP JUMPDEST PUSH1 0xAC DUP3 ADD SWAP1 POP SWAP2 SWAP1 POP JUMP JUMPDEST PUSH1 0x0 PUSH2 0x2DC8 PUSH1 0x41 DUP4 PUSH2 0x36DA JUMP JUMPDEST SWAP2 POP PUSH2 0x2DD3 DUP3 PUSH2 0x5376 JUMP JUMPDEST PUSH1 0x41 DUP3 ADD SWAP1 POP SWAP2 SWAP1 POP JUMP JUMPDEST PUSH1 0x0 PUSH2 0x2DEB PUSH1 0x16 DUP4 PUSH2 0x36C9 JUMP JUMPDEST SWAP2 POP PUSH2 0x2DF6 DUP3 PUSH2 0x53EB JUMP JUMPDEST PUSH1 0x20 DUP3 ADD SWAP1 POP SWAP2 SWAP1 POP JUMP JUMPDEST PUSH1 0x0 PUSH2 0x2E0E PUSH1 0x41 DUP4 PUSH2 0x36DA JUMP JUMPDEST SWAP2 POP PUSH2 0x2E19 DUP3 PUSH2 0x5414 JUMP JUMPDEST PUSH1 0x41 DUP3 ADD SWAP1 POP SWAP2 SWAP1 POP JUMP JUMPDEST PUSH1 0x0 PUSH2 0x2E31 PUSH1 0x1 DUP4 PUSH2 0x36DA JUMP JUMPDEST SWAP2 POP PUSH2 0x2E3C DUP3 PUSH2 0x5489 JUMP JUMPDEST PUSH1 0x1 DUP3 ADD SWAP1 POP SWAP2 SWAP1 POP JUMP JUMPDEST PUSH1 0x0 PUSH2 0x2E54 PUSH1 0x41 DUP4 PUSH2 0x36DA JUMP JUMPDEST SWAP2 POP PUSH2 0x2E5F DUP3 PUSH2 0x54B2 JUMP JUMPDEST PUSH1 0x41 DUP3 ADD SWAP1 POP SWAP2 SWAP1 POP JUMP JUMPDEST PUSH1 0x0 PUSH2 0x2E77 PUSH1 0x40 DUP4 PUSH2 0x36DA JUMP JUMPDEST SWAP2 POP PUSH2 0x2E82 DUP3 PUSH2 0x5527 JUMP JUMPDEST PUSH1 0x40 DUP3 ADD SWAP1 POP SWAP2 SWAP1 POP JUMP JUMPDEST PUSH1 0x0 PUSH2 0x2E9A PUSH1 0x18 DUP4 PUSH2 0x36C9 JUMP JUMPDEST SWAP2 POP PUSH2 0x2EA5 DUP3 PUSH2 0x5576 JUMP JUMPDEST PUSH1 0x20 DUP3 ADD SWAP1 POP SWAP2 SWAP1 POP JUMP JUMPDEST PUSH1 0x0 PUSH2 0x2EBD PUSH1 0x1D DUP4 PUSH2 0x36DA JUMP JUMPDEST SWAP2 POP PUSH2 0x2EC8 DUP3 PUSH2 0x559F JUMP JUMPDEST PUSH1 0x1D DUP3 ADD SWAP1 POP SWAP2 SWAP1 POP JUMP JUMPDEST PUSH1 0x0 PUSH2 0x2EE0 PUSH1 0x12 DUP4 PUSH2 0x36DA JUMP JUMPDEST SWAP2 POP PUSH2 0x2EEB DUP3 PUSH2 0x55C8 JUMP JUMPDEST PUSH1 0x12 DUP3 ADD SWAP1 POP SWAP2 SWAP1 POP JUMP JUMPDEST PUSH1 0x0 PUSH2 0x2F03 PUSH1 0x41 DUP4 PUSH2 0x36DA JUMP JUMPDEST SWAP2 POP PUSH2 0x2F0E DUP3 PUSH2 0x55F1 JUMP JUMPDEST PUSH1 0x41 DUP3 ADD SWAP1 POP SWAP2 SWAP1 POP JUMP JUMPDEST PUSH1 0x0 PUSH2 0x2F26 PUSH1 0x42 DUP4 PUSH2 0x36DA JUMP JUMPDEST SWAP2 POP PUSH2 0x2F31 DUP3 PUSH2 0x5666 JUMP JUMPDEST PUSH1 0x42 DUP3 ADD SWAP1 POP SWAP2 SWAP1 POP JUMP JUMPDEST PUSH1 0x0 PUSH2 0x2F49 PUSH1 0x1D DUP4 PUSH2 0x36DA JUMP JUMPDEST SWAP2 POP PUSH2 0x2F54 DUP3 PUSH2 0x56DB JUMP JUMPDEST PUSH1 0x1D DUP3 ADD SWAP1 POP SWAP2 SWAP1 POP JUMP JUMPDEST PUSH1 0x0 PUSH1 0x60 DUP4 ADD PUSH1 0x0 DUP4 ADD MLOAD PUSH2 0x2F77 PUSH1 0x0 DUP7 ADD DUP3 PUSH2 0x27C9 JUMP JUMPDEST POP PUSH1 0x20 DUP4 ADD MLOAD PUSH2 0x2F8A PUSH1 0x20 DUP7 ADD DUP3 PUSH2 0x27C9 JUMP JUMPDEST POP PUSH1 0x40 DUP4 ADD MLOAD DUP5 DUP3 SUB PUSH1 0x40 DUP7 ADD MSTORE PUSH2 0x2FA2 DUP3 DUP3 PUSH2 0x288D JUMP JUMPDEST SWAP2 POP POP DUP1 SWAP2 POP POP SWAP3 SWAP2 POP POP JUMP JUMPDEST PUSH2 0x2FB8 DUP2 PUSH2 0x3864 JUMP JUMPDEST DUP3 MSTORE POP POP JUMP JUMPDEST PUSH2 0x2FC7 DUP2 PUSH2 0x3864 JUMP JUMPDEST DUP3 MSTORE POP POP JUMP JUMPDEST PUSH1 0x0 PUSH2 0x2FD9 DUP3 DUP5 PUSH2 0x28FF JUMP JUMPDEST SWAP2 POP DUP2 SWAP1 POP SWAP3 SWAP2 POP POP JUMP JUMPDEST PUSH1 0x0 PUSH2 0x2FF0 DUP3 DUP9 PUSH2 0x28FF JUMP JUMPDEST SWAP2 POP PUSH2 0x2FFC DUP3 DUP8 PUSH2 0x28FF JUMP JUMPDEST SWAP2 POP PUSH2 0x3008 DUP3 DUP7 PUSH2 0x28FF JUMP JUMPDEST SWAP2 POP PUSH2 0x3014 DUP3 DUP6 PUSH2 0x28FF JUMP JUMPDEST SWAP2 POP PUSH2 0x3020 DUP3 DUP5 PUSH2 0x28FF JUMP JUMPDEST SWAP2 POP DUP2 SWAP1 POP SWAP7 SWAP6 POP POP POP POP POP POP JUMP JUMPDEST PUSH1 0x0 PUSH2 0x303A DUP3 PUSH2 0x2953 JUMP JUMPDEST SWAP2 POP PUSH2 0x3046 DUP3 DUP8 PUSH2 0x28FF JUMP JUMPDEST SWAP2 POP PUSH2 0x3051 DUP3 PUSH2 0x2976 JUMP JUMPDEST SWAP2 POP PUSH2 0x305C DUP3 PUSH2 0x2CA3 JUMP JUMPDEST SWAP2 POP PUSH2 0x3068 DUP3 DUP7 PUSH2 0x28FF JUMP JUMPDEST SWAP2 POP PUSH2 0x3073 DUP3 PUSH2 0x2976 JUMP JUMPDEST SWAP2 POP PUSH2 0x307E DUP3 PUSH2 0x2D52 JUMP JUMPDEST SWAP2 POP PUSH2 0x308A DUP3 DUP6 PUSH2 0x28FF JUMP JUMPDEST SWAP2 POP PUSH2 0x3095 DUP3 PUSH2 0x2976 JUMP JUMPDEST SWAP2 POP PUSH2 0x30A0 DUP3 PUSH2 0x2CC6 JUMP JUMPDEST SWAP2 POP PUSH2 0x30AC DUP3 DUP5 PUSH2 0x28FF JUMP JUMPDEST SWAP2 POP PUSH2 0x30B7 DUP3 PUSH2 0x2976 JUMP JUMPDEST SWAP2 POP DUP2 SWAP1 POP SWAP6 SWAP5 POP POP POP POP POP JUMP JUMPDEST PUSH1 0x0 PUSH2 0x30D0 DUP3 PUSH2 0x29BC JUMP JUMPDEST SWAP2 POP PUSH2 0x30DC DUP3 DUP9 PUSH2 0x28FF JUMP JUMPDEST SWAP2 POP PUSH2 0x30E7 DUP3 PUSH2 0x2CE9 JUMP JUMPDEST SWAP2 POP PUSH2 0x30F2 DUP3 PUSH2 0x2999 JUMP JUMPDEST SWAP2 POP PUSH2 0x30FE DUP3 DUP8 PUSH2 0x28FF JUMP JUMPDEST SWAP2 POP PUSH2 0x3109 DUP3 PUSH2 0x2CE9 JUMP JUMPDEST SWAP2 POP PUSH2 0x3114 DUP3 PUSH2 0x2A48 JUMP JUMPDEST SWAP2 POP PUSH2 0x3120 DUP3 DUP7 PUSH2 0x28FF JUMP JUMPDEST SWAP2 POP PUSH2 0x312B DUP3 PUSH2 0x2CE9 JUMP JUMPDEST SWAP2 POP PUSH2 0x3136 DUP3 PUSH2 0x2E6A JUMP JUMPDEST SWAP2 POP PUSH2 0x3142 DUP3 DUP6 PUSH2 0x28FF JUMP JUMPDEST SWAP2 POP PUSH2 0x314D DUP3 PUSH2 0x2CE9 JUMP JUMPDEST SWAP2 POP PUSH2 0x3158 DUP3 PUSH2 0x2E01 JUMP JUMPDEST SWAP2 POP PUSH2 0x3164 DUP3 DUP5 PUSH2 0x28FF JUMP JUMPDEST SWAP2 POP PUSH2 0x316F DUP3 PUSH2 0x2CE9 JUMP JUMPDEST SWAP2 POP DUP2 SWAP1 POP SWAP7 SWAP6 POP POP POP POP POP POP JUMP JUMPDEST PUSH1 0x0 PUSH2 0x3189 DUP3 PUSH2 0x2A6B JUMP JUMPDEST SWAP2 POP PUSH2 0x3194 DUP3 PUSH2 0x2B1C JUMP JUMPDEST SWAP2 POP PUSH2 0x31A0 DUP3 DUP8 PUSH2 0x28FF JUMP JUMPDEST SWAP2 POP PUSH2 0x31AB DUP3 PUSH2 0x2D98 JUMP JUMPDEST SWAP2 POP PUSH2 0x31B6 DUP3 PUSH2 0x2B62 JUMP JUMPDEST SWAP2 POP PUSH2 0x31C2 DUP3 DUP7 PUSH2 0x28FF JUMP JUMPDEST SWAP2 POP PUSH2 0x31CD DUP3 PUSH2 0x2BA8 JUMP JUMPDEST SWAP2 POP PUSH2 0x31D8 DUP3 PUSH2 0x2B85 JUMP JUMPDEST SWAP2 POP PUSH2 0x31E4 DUP3 DUP6 PUSH2 0x28FF JUMP JUMPDEST SWAP2 POP PUSH2 0x31EF DUP3 PUSH2 0x2BF0 JUMP JUMPDEST SWAP2 POP PUSH2 0x31FA DUP3 PUSH2 0x2A25 JUMP JUMPDEST SWAP2 POP PUSH2 0x3206 DUP3 DUP5 PUSH2 0x28FF JUMP JUMPDEST SWAP2 POP PUSH2 0x3211 DUP3 PUSH2 0x2976 JUMP JUMPDEST SWAP2 POP DUP2 SWAP1 POP SWAP6 SWAP5 POP POP POP POP POP JUMP JUMPDEST PUSH1 0x0 PUSH2 0x322A DUP3 PUSH2 0x2C38 JUMP JUMPDEST SWAP2 POP PUSH2 0x3236 DUP3 DUP5 PUSH2 0x28FF JUMP JUMPDEST SWAP2 POP PUSH2 0x3241 DUP3 PUSH2 0x2F19 JUMP JUMPDEST SWAP2 POP PUSH2 0x324C DUP3 PUSH2 0x2BCB JUMP JUMPDEST SWAP2 POP PUSH2 0x3257 DUP3 PUSH2 0x2C7E JUMP JUMPDEST SWAP2 POP PUSH2 0x3262 DUP3 PUSH2 0x2C13 JUMP JUMPDEST SWAP2 POP DUP2 SWAP1 POP SWAP3 SWAP2 POP POP JUMP JUMPDEST PUSH1 0x0 PUSH2 0x3278 DUP3 PUSH2 0x2E24 JUMP JUMPDEST SWAP2 POP PUSH2 0x3283 DUP3 PUSH2 0x2ED3 JUMP JUMPDEST SWAP2 POP PUSH2 0x328F DUP3 DUP6 PUSH2 0x28FF JUMP JUMPDEST SWAP2 POP PUSH2 0x329A DUP3 PUSH2 0x2AB3 JUMP JUMPDEST SWAP2 POP PUSH2 0x32A5 DUP3 PUSH2 0x2D0C JUMP JUMPDEST SWAP2 POP PUSH2 0x32B1 DUP3 DUP5 PUSH2 0x28FF JUMP JUMPDEST SWAP2 POP PUSH2 0x32BC DUP3 PUSH2 0x2AB3 JUMP JUMPDEST SWAP2 POP PUSH2 0x32C7 DUP3 PUSH2 0x2F3C JUMP JUMPDEST SWAP2 POP PUSH2 0x32D2 DUP3 PUSH2 0x2D75 JUMP JUMPDEST SWAP2 POP DUP2 SWAP1 POP SWAP4 SWAP3 POP POP POP JUMP JUMPDEST PUSH1 0x0 PUSH2 0x32E9 DUP3 PUSH2 0x2E47 JUMP JUMPDEST SWAP2 POP PUSH2 0x32F5 DUP3 DUP7 PUSH2 0x28FF JUMP JUMPDEST SWAP2 POP PUSH2 0x3300 DUP3 PUSH2 0x2CE9 JUMP JUMPDEST SWAP2 POP PUSH2 0x330B DUP3 PUSH2 0x2DBB JUMP JUMPDEST SWAP2 POP PUSH2 0x3317 DUP3 DUP6 PUSH2 0x28FF JUMP JUMPDEST SWAP2 POP PUSH2 0x3322 DUP3 PUSH2 0x2CE9 JUMP JUMPDEST SWAP2 POP PUSH2 0x332D DUP3 PUSH2 0x2EF6 JUMP JUMPDEST SWAP2 POP PUSH2 0x3339 DUP3 DUP5 PUSH2 0x28FF JUMP JUMPDEST SWAP2 POP PUSH2 0x3344 DUP3 PUSH2 0x2CE9 JUMP JUMPDEST SWAP2 POP DUP2 SWAP1 POP SWAP5 SWAP4 POP POP POP POP JUMP JUMPDEST PUSH1 0x0 PUSH2 0x335C DUP3 PUSH2 0x2EB0 JUMP JUMPDEST SWAP2 POP PUSH2 0x3368 DUP3 DUP5 PUSH2 0x28FF JUMP JUMPDEST SWAP2 POP DUP2 SWAP1 POP SWAP3 SWAP2 POP POP JUMP JUMPDEST PUSH1 0x0 PUSH1 0x20 DUP3 ADD SWAP1 POP PUSH2 0x3388 PUSH1 0x0 DUP4 ADD DUP5 PUSH2 0x27D8 JUMP JUMPDEST SWAP3 SWAP2 POP POP JUMP JUMPDEST PUSH1 0x0 PUSH1 0x80 DUP3 ADD SWAP1 POP PUSH2 0x33A3 PUSH1 0x0 DUP4 ADD DUP8 PUSH2 0x27D8 JUMP JUMPDEST PUSH2 0x33B0 PUSH1 0x20 DUP4 ADD DUP7 PUSH2 0x27D8 JUMP JUMPDEST PUSH2 0x33BD PUSH1 0x40 DUP4 ADD DUP6 PUSH2 0x2FBE JUMP JUMPDEST DUP2 DUP2 SUB PUSH1 0x60 DUP4 ADD MSTORE PUSH2 0x33CF DUP2 DUP5 PUSH2 0x2854 JUMP JUMPDEST SWAP1 POP SWAP6 SWAP5 POP POP POP POP POP JUMP JUMPDEST PUSH1 0x0 PUSH1 0x20 DUP3 ADD SWAP1 POP DUP2 DUP2 SUB PUSH1 0x0 DUP4 ADD MSTORE PUSH2 0x33F4 DUP2 DUP5 PUSH2 0x27E7 JUMP JUMPDEST SWAP1 POP SWAP3 SWAP2 POP POP JUMP JUMPDEST PUSH1 0x0 PUSH1 0x20 DUP3 ADD SWAP1 POP PUSH2 0x3411 PUSH1 0x0 DUP4 ADD DUP5 PUSH2 0x2845 JUMP JUMPDEST SWAP3 SWAP2 POP POP JUMP JUMPDEST PUSH1 0x0 PUSH1 0x20 DUP3 ADD SWAP1 POP DUP2 DUP2 SUB PUSH1 0x0 DUP4 ADD MSTORE PUSH2 0x3431 DUP2 DUP5 PUSH2 0x28C6 JUMP JUMPDEST SWAP1 POP SWAP3 SWAP2 POP POP JUMP JUMPDEST PUSH1 0x0 PUSH1 0x20 DUP3 ADD SWAP1 POP DUP2 DUP2 SUB PUSH1 0x0 DUP4 ADD MSTORE PUSH2 0x3452 DUP2 PUSH2 0x2930 JUMP JUMPDEST SWAP1 POP SWAP2 SWAP1 POP JUMP JUMPDEST PUSH1 0x0 PUSH1 0x20 DUP3 ADD SWAP1 POP DUP2 DUP2 SUB PUSH1 0x0 DUP4 ADD MSTORE PUSH2 0x3472 DUP2 PUSH2 0x29DF JUMP JUMPDEST SWAP1 POP SWAP2 SWAP1 POP JUMP JUMPDEST PUSH1 0x0 PUSH1 0x20 DUP3 ADD SWAP1 POP DUP2 DUP2 SUB PUSH1 0x0 DUP4 ADD MSTORE PUSH2 0x3492 DUP2 PUSH2 0x2A02 JUMP JUMPDEST SWAP1 POP SWAP2 SWAP1 POP JUMP JUMPDEST PUSH1 0x0 PUSH1 0x20 DUP3 ADD SWAP1 POP DUP2 DUP2 SUB PUSH1 0x0 DUP4 ADD MSTORE PUSH2 0x34B2 DUP2 PUSH2 0x2A90 JUMP JUMPDEST SWAP1 POP SWAP2 SWAP1 POP JUMP JUMPDEST PUSH1 0x0 PUSH1 0x20 DUP3 ADD SWAP1 POP DUP2 DUP2 SUB PUSH1 0x0 DUP4 ADD MSTORE PUSH2 0x34D2 DUP2 PUSH2 0x2AD6 JUMP JUMPDEST SWAP1 POP SWAP2 SWAP1 POP JUMP JUMPDEST PUSH1 0x0 PUSH1 0x20 DUP3 ADD SWAP1 POP DUP2 DUP2 SUB PUSH1 0x0 DUP4 ADD MSTORE PUSH2 0x34F2 DUP2 PUSH2 0x2AF9 JUMP JUMPDEST SWAP1 POP SWAP2 SWAP1 POP JUMP JUMPDEST PUSH1 0x0 PUSH1 0x20 DUP3 ADD SWAP1 POP DUP2 DUP2 SUB PUSH1 0x0 DUP4 ADD MSTORE PUSH2 0x3512 DUP2 PUSH2 0x2B3F JUMP JUMPDEST SWAP1 POP SWAP2 SWAP1 POP JUMP JUMPDEST PUSH1 0x0 PUSH1 0x20 DUP3 ADD SWAP1 POP DUP2 DUP2 SUB PUSH1 0x0 DUP4 ADD MSTORE PUSH2 0x3532 DUP2 PUSH2 0x2C5B JUMP JUMPDEST SWAP1 POP SWAP2 SWAP1 POP JUMP JUMPDEST PUSH1 0x0 PUSH1 0x20 DUP3 ADD SWAP1 POP DUP2 DUP2 SUB PUSH1 0x0 DUP4 ADD MSTORE PUSH2 0x3552 DUP2 PUSH2 0x2D2F JUMP JUMPDEST SWAP1 POP SWAP2 SWAP1 POP JUMP JUMPDEST PUSH1 0x0 PUSH1 0x20 DUP3 ADD SWAP1 POP DUP2 DUP2 SUB PUSH1 0x0 DUP4 ADD MSTORE PUSH2 0x3572 DUP2 PUSH2 0x2DDE JUMP JUMPDEST SWAP1 POP SWAP2 SWAP1 POP JUMP JUMPDEST PUSH1 0x0 PUSH1 0x20 DUP3 ADD SWAP1 POP DUP2 DUP2 SUB PUSH1 0x0 DUP4 ADD MSTORE PUSH2 0x3592 DUP2 PUSH2 0x2E8D JUMP JUMPDEST SWAP1 POP SWAP2 SWAP1 POP JUMP JUMPDEST PUSH1 0x0 PUSH1 0x20 DUP3 ADD SWAP1 POP DUP2 DUP2 SUB PUSH1 0x0 DUP4 ADD MSTORE PUSH2 0x35B3 DUP2 DUP5 PUSH2 0x2F5F JUMP JUMPDEST SWAP1 POP SWAP3 SWAP2 POP POP JUMP JUMPDEST PUSH1 0x0 PUSH1 0x20 DUP3 ADD SWAP1 POP PUSH2 0x35D0 PUSH1 0x0 DUP4 ADD DUP5 PUSH2 0x2FBE JUMP JUMPDEST SWAP3 SWAP2 POP POP JUMP JUMPDEST PUSH1 0x0 PUSH2 0x35E0 PUSH2 0x35F1 JUMP JUMPDEST SWAP1 POP PUSH2 0x35EC DUP3 DUP3 PUSH2 0x390C JUMP JUMPDEST SWAP2 SWAP1 POP JUMP JUMPDEST PUSH1 0x0 PUSH1 0x40 MLOAD SWAP1 POP SWAP1 JUMP JUMPDEST PUSH1 0x0 PUSH8 0xFFFFFFFFFFFFFFFF DUP3 GT ISZERO PUSH2 0x3616 JUMPI PUSH2 0x3615 PUSH2 0x3A42 JUMP JUMPDEST JUMPDEST PUSH1 0x20 DUP3 MUL SWAP1 POP PUSH1 0x20 DUP2 ADD SWAP1 POP SWAP2 SWAP1 POP JUMP JUMPDEST PUSH1 0x0 PUSH8 0xFFFFFFFFFFFFFFFF DUP3 GT ISZERO PUSH2 0x3642 JUMPI PUSH2 0x3641 PUSH2 0x3A42 JUMP JUMPDEST JUMPDEST PUSH2 0x364B DUP3 PUSH2 0x3A8A JUMP JUMPDEST SWAP1 POP PUSH1 0x20 DUP2 ADD SWAP1 POP SWAP2 SWAP1 POP JUMP JUMPDEST PUSH1 0x0 DUP2 SWAP1 POP PUSH1 0x20 DUP3 ADD SWAP1 POP SWAP2 SWAP1 POP JUMP JUMPDEST PUSH1 0x0 DUP2 MLOAD SWAP1 POP SWAP2 SWAP1 POP JUMP JUMPDEST PUSH1 0x0 DUP2 MLOAD SWAP1 POP SWAP2 SWAP1 POP JUMP JUMPDEST PUSH1 0x0 DUP2 MLOAD SWAP1 POP SWAP2 SWAP1 POP JUMP JUMPDEST PUSH1 0x0 PUSH1 0x20 DUP3 ADD SWAP1 POP SWAP2 SWAP1 POP JUMP JUMPDEST PUSH1 0x0 DUP3 DUP3 MSTORE PUSH1 0x20 DUP3 ADD SWAP1 POP SWAP3 SWAP2 POP POP JUMP JUMPDEST PUSH1 0x0 DUP3 DUP3 MSTORE PUSH1 0x20 DUP3 ADD SWAP1 POP SWAP3 SWAP2 POP POP JUMP JUMPDEST PUSH1 0x0 DUP3 DUP3 MSTORE PUSH1 0x20 DUP3 ADD SWAP1 POP SWAP3 SWAP2 POP POP JUMP JUMPDEST PUSH1 0x0 DUP3 DUP3 MSTORE PUSH1 0x20 DUP3 ADD SWAP1 POP SWAP3 SWAP2 POP POP JUMP JUMPDEST PUSH1 0x0 DUP2 SWAP1 POP SWAP3 SWAP2 POP POP JUMP JUMPDEST PUSH1 0x0 PUSH2 0x36F0 DUP3 PUSH2 0x3864 JUMP JUMPDEST SWAP2 POP PUSH2 0x36FB DUP4 PUSH2 0x3864 JUMP JUMPDEST SWAP3 POP DUP3 PUSH32 0xFFFFFFFFFFFFFFFFFFFFFFFFFFFFFFFFFFFFFFFFFFFFFFFFFFFFFFFFFFFFFFFF SUB DUP3 GT ISZERO PUSH2 0x3730 JUMPI PUSH2 0x372F PUSH2 0x3986 JUMP JUMPDEST JUMPDEST DUP3 DUP3 ADD SWAP1 POP SWAP3 SWAP2 POP POP JUMP JUMPDEST PUSH1 0x0 PUSH2 0x3746 DUP3 PUSH2 0x3864 JUMP JUMPDEST SWAP2 POP PUSH2 0x3751 DUP4 PUSH2 0x3864 JUMP JUMPDEST SWAP3 POP DUP3 PUSH2 0x3761 JUMPI PUSH2 0x3760 PUSH2 0x39B5 JUMP JUMPDEST JUMPDEST DUP3 DUP3 DIV SWAP1 POP SWAP3 SWAP2 POP POP JUMP JUMPDEST PUSH1 0x0 PUSH2 0x3777 DUP3 PUSH2 0x3864 JUMP JUMPDEST SWAP2 POP PUSH2 0x3782 DUP4 PUSH2 0x3864 JUMP JUMPDEST SWAP3 POP DUP2 PUSH32 0xFFFFFFFFFFFFFFFFFFFFFFFFFFFFFFFFFFFFFFFFFFFFFFFFFFFFFFFFFFFFFFFF DIV DUP4 GT DUP3 ISZERO ISZERO AND ISZERO PUSH2 0x37BB JUMPI PUSH2 0x37BA PUSH2 0x3986 JUMP JUMPDEST JUMPDEST DUP3 DUP3 MUL SWAP1 POP SWAP3 SWAP2 POP POP JUMP JUMPDEST PUSH1 0x0 PUSH2 0x37D1 DUP3 PUSH2 0x3864 JUMP JUMPDEST SWAP2 POP PUSH2 0x37DC DUP4 PUSH2 0x3864 JUMP JUMPDEST SWAP3 POP DUP3 DUP3 LT ISZERO PUSH2 0x37EF JUMPI PUSH2 0x37EE PUSH2 0x3986 JUMP JUMPDEST JUMPDEST DUP3 DUP3 SUB SWAP1 POP SWAP3 SWAP2 POP POP JUMP JUMPDEST PUSH1 0x0 PUSH2 0x3805 DUP3 PUSH2 0x3844 JUMP JUMPDEST SWAP1 POP SWAP2 SWAP1 POP JUMP JUMPDEST PUSH1 0x0 DUP2 ISZERO ISZERO SWAP1 POP SWAP2 SWAP1 POP JUMP JUMPDEST PUSH1 0x0 PUSH32 0xFFFFFFFF00000000000000000000000000000000000000000000000000000000 DUP3 AND SWAP1 POP SWAP2 SWAP1 POP JUMP JUMPDEST PUSH1 0x0 PUSH20 0xFFFFFFFFFFFFFFFFFFFFFFFFFFFFFFFFFFFFFFFF DUP3 AND SWAP1 POP SWAP2 SWAP1 POP JUMP JUMPDEST PUSH1 0x0 DUP2 SWAP1 POP SWAP2 SWAP1 POP JUMP JUMPDEST DUP3 DUP2 DUP4 CALLDATACOPY PUSH1 0x0 DUP4 DUP4 ADD MSTORE POP POP POP JUMP JUMPDEST PUSH1 0x0 JUMPDEST DUP4 DUP2 LT ISZERO PUSH2 0x389B JUMPI DUP1 DUP3 ADD MLOAD DUP2 DUP5 ADD MSTORE PUSH1 0x20 DUP2 ADD SWAP1 POP PUSH2 0x3880 JUMP JUMPDEST DUP4 DUP2 GT ISZERO PUSH2 0x38AA JUMPI PUSH1 0x0 DUP5 DUP5 ADD MSTORE JUMPDEST POP POP POP POP JUMP JUMPDEST PUSH1 0x0 PUSH2 0x38BB DUP3 PUSH2 0x3864 JUMP JUMPDEST SWAP2 POP PUSH1 0x0 DUP3 EQ ISZERO PUSH2 0x38CF JUMPI PUSH2 0x38CE PUSH2 0x3986 JUMP JUMPDEST JUMPDEST PUSH1 0x1 DUP3 SUB SWAP1 POP SWAP2 SWAP1 POP JUMP JUMPDEST PUSH1 0x0 PUSH1 0x2 DUP3 DIV SWAP1 POP PUSH1 0x1 DUP3 AND DUP1 PUSH2 0x38F2 JUMPI PUSH1 0x7F DUP3 AND SWAP2 POP JUMPDEST PUSH1 0x20 DUP3 LT DUP2 EQ ISZERO PUSH2 0x3906 JUMPI PUSH2 0x3905 PUSH2 0x39E4 JUMP JUMPDEST JUMPDEST POP SWAP2 SWAP1 POP JUMP JUMPDEST PUSH2 0x3915 DUP3 PUSH2 0x3A8A JUMP JUMPDEST DUP2 ADD DUP2 DUP2 LT PUSH8 0xFFFFFFFFFFFFFFFF DUP3 GT OR ISZERO PUSH2 0x3934 JUMPI PUSH2 0x3933 PUSH2 0x3A42 JUMP JUMPDEST JUMPDEST DUP1 PUSH1 0x40 MSTORE POP POP POP JUMP JUMPDEST PUSH1 0x0 PUSH2 0x3948 DUP3 PUSH2 0x3864 JUMP JUMPDEST SWAP2 POP PUSH32 0xFFFFFFFFFFFFFFFFFFFFFFFFFFFFFFFFFFFFFFFFFFFFFFFFFFFFFFFFFFFFFFFF DUP3 EQ ISZERO PUSH2 0x397B JUMPI PUSH2 0x397A PUSH2 0x3986 JUMP JUMPDEST JUMPDEST PUSH1 0x1 DUP3 ADD SWAP1 POP SWAP2 SWAP1 POP JUMP JUMPDEST PUSH32 0x4E487B7100000000000000000000000000000000000000000000000000000000 PUSH1 0x0 MSTORE PUSH1 0x11 PUSH1 0x4 MSTORE PUSH1 0x24 PUSH1 0x0 REVERT JUMPDEST PUSH32 0x4E487B7100000000000000000000000000000000000000000000000000000000 PUSH1 0x0 MSTORE PUSH1 0x12 PUSH1 0x4 MSTORE PUSH1 0x24 PUSH1 0x0 REVERT JUMPDEST PUSH32 0x4E487B7100000000000000000000000000000000000000000000000000000000 PUSH1 0x0 MSTORE PUSH1 0x22 PUSH1 0x4 MSTORE PUSH1 0x24 PUSH1 0x0 REVERT JUMPDEST PUSH32 0x4E487B7100000000000000000000000000000000000000000000000000000000 PUSH1 0x0 MSTORE PUSH1 0x32 PUSH1 0x4 MSTORE PUSH1 0x24 PUSH1 0x0 REVERT JUMPDEST PUSH32 0x4E487B7100000000000000000000000000000000000000000000000000000000 PUSH1 0x0 MSTORE PUSH1 0x41 PUSH1 0x4 MSTORE PUSH1 0x24 PUSH1 0x0 REVERT JUMPDEST PUSH1 0x0 DUP1 REVERT JUMPDEST PUSH1 0x0 DUP1 REVERT JUMPDEST PUSH1 0x0 DUP1 REVERT JUMPDEST PUSH1 0x0 DUP1 REVERT JUMPDEST PUSH1 0x0 DUP1 REVERT JUMPDEST PUSH1 0x0 PUSH1 0x1F NOT PUSH1 0x1F DUP4 ADD AND SWAP1 POP SWAP2 SWAP1 POP JUMP JUMPDEST PUSH32 0x537472696E67733A20686578206C656E67746820696E73756666696369656E74 PUSH1 0x0 DUP3 ADD MSTORE POP JUMP JUMPDEST PUSH32 0x3C747370616E20783D22302220793D2231322220666F6E742D7765696768743D PUSH1 0x0 DUP3 ADD MSTORE PUSH32 0x2233303022207374726F6B652D77696474683D2230223E3C215B43444154415B PUSH1 0x20 DUP3 ADD MSTORE POP JUMP JUMPDEST PUSH32 0x5D5D3E3C2F747370616E3E000000000000000000000000000000000000000000 PUSH1 0x0 DUP3 ADD MSTORE POP JUMP JUMPDEST PUSH32 0x3C747370616E20783D22302220793D2237322220666F6E742D7765696768743D PUSH1 0x0 DUP3 ADD MSTORE PUSH32 0x2233303022207374726F6B652D77696474683D2230223E3C215B43444154415B PUSH1 0x20 DUP3 ADD MSTORE POP JUMP JUMPDEST PUSH32 0x3C747370616E20783D22302220793D2236302220666F6E742D7765696768743D PUSH1 0x0 DUP3 ADD MSTORE PUSH32 0x2233303022207374726F6B652D77696474683D2230223E3C215B43444154415B PUSH1 0x20 DUP3 ADD MSTORE POP JUMP JUMPDEST PUSH32 0x54686973206D65737361676520697320746F6F206269672E204D617820363732 PUSH1 0x0 DUP3 ADD MSTORE PUSH32 0x2063686172616374657273000000000000000000000000000000000000000000 PUSH1 0x20 DUP3 ADD MSTORE POP JUMP JUMPDEST PUSH32 0x4552433732313A207472616E7366657220746F206E6F6E204552433732315265 PUSH1 0x0 DUP3 ADD MSTORE PUSH32 0x63656976657220696D706C656D656E7465720000000000000000000000000000 PUSH1 0x20 DUP3 ADD MSTORE POP JUMP JUMPDEST PUSH32 0x3C215B43444154415B0000000000000000000000000000000000000000000000 PUSH1 0x0 DUP3 ADD MSTORE POP JUMP JUMPDEST PUSH32 0x3C747370616E20783D22302220793D2238342220666F6E742D7765696768743D PUSH1 0x0 DUP3 ADD MSTORE PUSH32 0x2233303022207374726F6B652D77696474683D2230223E3C215B43444154415B PUSH1 0x20 DUP3 ADD MSTORE POP JUMP JUMPDEST PUSH32 0x3C7376672069643D22654E53496B326546697161312220786D6C6E733D226874 PUSH1 0x0 DUP3 ADD MSTORE PUSH32 0x74703A2F2F7777772E77332E6F72672F323030302F7376672220786D6C6E733A PUSH1 0x20 DUP3 ADD MSTORE PUSH32 0x786C696E6B3D22687474703A2F2F7777772E77332E6F72672F313939392F786C PUSH1 0x40 DUP3 ADD MSTORE PUSH32 0x696E6B222076696577426F783D22302030203336302033363022207368617065 PUSH1 0x60 DUP3 ADD MSTORE PUSH32 0x2D72656E646572696E673D2267656F6D6574726963507265636973696F6E2220 PUSH1 0x80 DUP3 ADD MSTORE PUSH32 0x746578742D72656E646572696E673D2267656F6D657472696350726563697369 PUSH1 0xA0 DUP3 ADD MSTORE PUSH32 0x6F6E22207374796C653D226261636B67726F756E642D636F6C6F723A72676261 PUSH1 0xC0 DUP3 ADD MSTORE PUSH32 0x28332C302C32352C302E383429223E3C726563742077696474683D2233362220 PUSH1 0xE0 DUP3 ADD MSTORE PUSH32 0x6865696768743D223336222072783D2232222072793D223222207472616E7366 PUSH2 0x100 DUP3 ADD MSTORE PUSH32 0x6F726D3D226D617472697828392E37373132382030203020392E373731323820 PUSH2 0x120 DUP3 ADD MSTORE PUSH32 0x342E313137303120342E313137303129222066696C6C3D222365633633353222 PUSH2 0x140 DUP3 ADD MSTORE PUSH32 0x207374726F6B652D77696474683D2230222F3E3C726563742077696474683D22 PUSH2 0x160 DUP3 ADD MSTORE PUSH32 0x333622206865696768743D2233362E38383238222072783D2232222072793D22 PUSH2 0x180 DUP3 ADD MSTORE PUSH32 0x3222207472616E73666F726D3D226D617472697828392E333033323320302030 PUSH2 0x1A0 DUP3 ADD MSTORE PUSH32 0x20372E30323535372031332E3031372039302E3337383129222066696C6C3D22 PUSH2 0x1C0 DUP3 ADD MSTORE PUSH32 0x2366386339616322207374726F6B652D77696474683D2230222F3E3C72656374 PUSH2 0x1E0 DUP3 ADD MSTORE PUSH32 0x2077696474683D223333342E39313622206865696768743D2236392E39363739 PUSH2 0x200 DUP3 ADD MSTORE PUSH32 0x222072783D223138222072793D22313822207472616E73666F726D3D22747261 PUSH2 0x220 DUP3 ADD MSTORE PUSH32 0x6E736C6174652831322E353431392031322E3337383529222066696C6C3D2223 PUSH2 0x240 DUP3 ADD MSTORE PUSH32 0x66386339616322207374726F6B652D77696474683D2230222F3E3C7465787420 PUSH2 0x260 DUP3 ADD MSTORE PUSH32 0x64783D2230222064793D22302220666F6E742D66616D696C793D222671756F74 PUSH2 0x280 DUP3 ADD MSTORE PUSH32 0x3B654E53496B326546697161313A3A3A427562626C6567756D2053616E732671 PUSH2 0x2A0 DUP3 ADD MSTORE PUSH32 0x756F743B2220666F6E742D73697A653D2231312220666F6E742D776569676874 PUSH2 0x2C0 DUP3 ADD MSTORE PUSH32 0x3D2234303022207472616E73666F726D3D227472616E736C6174652837352E39 PUSH2 0x2E0 DUP3 ADD MSTORE PUSH32 0x3332322034302E3031333129222066696C6C3D22236133343930382220737472 PUSH2 0x300 DUP3 ADD MSTORE PUSH32 0x6F6B652D77696474683D2230223E3C747370616E20793D22302220666F6E742D PUSH2 0x320 DUP3 ADD MSTORE PUSH32 0x66616D696C793D222671756F743B654E53496B326546697161313A3A3A427562 PUSH2 0x340 DUP3 ADD MSTORE PUSH32 0x626C6567756D2053616E732671756F743B2220666F6E742D73697A653D223131 PUSH2 0x360 DUP3 ADD MSTORE PUSH32 0x2220666F6E742D7765696768743D223430302220666F6E742D7374796C653D22 PUSH2 0x380 DUP3 ADD MSTORE PUSH32 0x6E6F726D616C222066696C6C3D222361333439303822207374726F6B652D7769 PUSH2 0x3A0 DUP3 ADD MSTORE PUSH32 0x6474683D2230223E000000000000000000000000000000000000000000000000 PUSH2 0x3C0 DUP3 ADD MSTORE POP JUMP JUMPDEST PUSH32 0x546F6B656E206372656174696F6E207265766572746564000000000000000000 PUSH1 0x0 DUP3 ADD MSTORE POP JUMP JUMPDEST PUSH32 0x222C000000000000000000000000000000000000000000000000000000000000 PUSH1 0x0 DUP3 ADD MSTORE POP JUMP JUMPDEST PUSH32 0x4552433732313A20746F6B656E20616C7265616479206D696E74656400000000 PUSH1 0x0 DUP3 ADD MSTORE POP JUMP JUMPDEST PUSH32 0x4F6E65206F72206D6F7265206D6573736167657320686173206661696C656420 PUSH1 0x0 DUP3 ADD MSTORE PUSH32 0x746F206172726976652C20616C6C20726563697069656E747320686176652074 PUSH1 0x20 DUP3 ADD MSTORE PUSH32 0x6F20626520455243373231205265636569766572000000000000000000000000 PUSH1 0x40 DUP3 ADD MSTORE POP JUMP JUMPDEST PUSH32 0x3C215B43444154415B46726F6D3A200000000000000000000000000000000000 PUSH1 0x0 DUP3 ADD MSTORE POP JUMP JUMPDEST PUSH32 0x43616E27742073656E64206D65737361676520746F2073656C66000000000000 PUSH1 0x0 DUP3 ADD MSTORE POP JUMP JUMPDEST PUSH32 0x3C215B43444154415B546F3A2000000000000000000000000000000000000000 PUSH1 0x0 DUP3 ADD MSTORE POP JUMP JUMPDEST PUSH32 0x3C215B43444154415B446174653A200000000000000000000000000000000000 PUSH1 0x0 DUP3 ADD MSTORE POP JUMP JUMPDEST PUSH32 0x205D5D3E3C2F747370616E3E3C747370616E20783D22302220793D2232322220 PUSH1 0x0 DUP3 ADD MSTORE PUSH32 0x666F6E742D66616D696C793D222671756F743B654E53496B326546697161313A PUSH1 0x20 DUP3 ADD MSTORE PUSH32 0x3A3A427562626C6567756D2053616E732671756F743B2220666F6E742D73697A PUSH1 0x40 DUP3 ADD MSTORE PUSH32 0x653D2231312220666F6E742D7765696768743D223430302220666F6E742D7374 PUSH1 0x60 DUP3 ADD MSTORE PUSH32 0x796C653D226E6F726D616C222066696C6C3D222361333439303822207374726F PUSH1 0x80 DUP3 ADD MSTORE PUSH32 0x6B652D77696474683D2230223E00000000000000000000000000000000000000 PUSH1 0xA0 DUP3 ADD MSTORE POP JUMP JUMPDEST PUSH32 0x3C215B43444154415B5D5D3E3C2F747370616E3E3C2F746578743E3C74657874 PUSH1 0x0 DUP3 ADD MSTORE PUSH32 0x2064783D2230222064793D22302220666F6E742D66616D696C793D222671756F PUSH1 0x20 DUP3 ADD MSTORE PUSH32 0x743B654E53496B326546697161313A3A3A427562626C6567756D2053616E7326 PUSH1 0x40 DUP3 ADD MSTORE PUSH32 0x71756F743B2220666F6E742D73697A653D2231302220666F6E742D7765696768 PUSH1 0x60 DUP3 ADD MSTORE PUSH32 0x743D2233303022207472616E73666F726D3D227472616E736C6174652833372E PUSH1 0x80 DUP3 ADD MSTORE PUSH32 0x38343238203333312E323329222066696C6C3D22233863346630352220737472 PUSH1 0xA0 DUP3 ADD MSTORE PUSH32 0x6F6B652D77696474683D2230223E3C747370616E20793D22302220666F6E742D PUSH1 0xC0 DUP3 ADD MSTORE PUSH32 0x66616D696C793D222671756F743B654E53496B326546697161313A3A3A427562 PUSH1 0xE0 DUP3 ADD MSTORE PUSH32 0x626C6567756D2053616E732671756F743B2220666F6E742D73697A653D223130 PUSH2 0x100 DUP3 ADD MSTORE PUSH32 0x2220666F6E742D7765696768743D223330302220666F6E742D7374796C653D22 PUSH2 0x120 DUP3 ADD MSTORE PUSH32 0x6E6F726D616C222066696C6C3D222338633466303522207374726F6B652D7769 PUSH2 0x140 DUP3 ADD MSTORE PUSH32 0x6474683D2230223E000000000000000000000000000000000000000000000000 PUSH2 0x160 DUP3 ADD MSTORE POP JUMP JUMPDEST PUSH32 0x5D5D3E3C2F747370616E3E3C2F746578743E3C746578742064783D2230222064 PUSH1 0x0 DUP3 ADD MSTORE PUSH32 0x793D22302220666F6E742D66616D696C793D222671756F743B654E53496B3265 PUSH1 0x20 DUP3 ADD MSTORE PUSH32 0x46697161313A3A3A427562626C6567756D2053616E732671756F743B2220666F PUSH1 0x40 DUP3 ADD MSTORE PUSH32 0x6E742D73697A653D2231322220666F6E742D7765696768743D22333030222074 PUSH1 0x60 DUP3 ADD MSTORE PUSH32 0x72616E73666F726D3D227472616E736C6174652833372E383432373734203132 PUSH1 0x80 DUP3 ADD MSTORE PUSH32 0x382E32343739333329222066696C6C3D222338633466303522207374726F6B65 PUSH1 0xA0 DUP3 ADD MSTORE PUSH32 0x2D77696474683D2230223E3C747370616E20793D22302220666F6E742D776569 PUSH1 0xC0 DUP3 ADD MSTORE PUSH32 0x6768743D2233303022207374726F6B652D77696474683D2230223E0000000000 PUSH1 0xE0 DUP3 ADD MSTORE POP JUMP JUMPDEST PUSH32 0x27654E53496B326546697161313A3A3A427562626C6567756D2053616E73273B PUSH1 0x0 DUP3 ADD MSTORE PUSH32 0x666F6E742D7374796C653A206E6F726D616C3B666F6E742D7765696768743A20 PUSH1 0x20 DUP3 ADD MSTORE PUSH32 0x3430303B7372633A2075726C2868747470733A2F2F666F6E74732E6773746174 PUSH1 0x40 DUP3 ADD MSTORE PUSH32 0x69632E636F6D2F6C2F666F6E743F6B69743D415943537058625F5A39454F5276 PUSH1 0x60 DUP3 ADD MSTORE PUSH32 0x314D3551546A457A4D45746461483172624E5934785941436E33456634636A67 PUSH1 0x80 DUP3 ADD MSTORE PUSH32 0x4374357577513964476F5A37353064634B4D6B4F6761556D3764763079637543 PUSH1 0xA0 DUP3 ADD MSTORE PUSH32 0x324C476737433973424E64516665484B677526736B65793D3930376663663936 PUSH1 0xC0 DUP3 ADD MSTORE PUSH32 0x323131633865376526763D7631362920666F726D617428277472756574797065 PUSH1 0xE0 DUP3 ADD MSTORE PUSH32 0x27293B7D5D5D3E3C2F7374796C653E3C2F7376673E0000000000000000000000 PUSH2 0x100 DUP3 ADD MSTORE POP JUMP JUMPDEST PUSH32 0x3C747370616E20783D22302220793D223135382220666F6E742D776569676874 PUSH1 0x0 DUP3 ADD MSTORE PUSH32 0x3D2233303022207374726F6B652D77696474683D2230223E3C215B4344415441 PUSH1 0x20 DUP3 ADD MSTORE PUSH32 0x5B00000000000000000000000000000000000000000000000000000000000000 PUSH1 0x40 DUP3 ADD MSTORE POP JUMP JUMPDEST PUSH32 0x4552433732313A2061646472657373207A65726F206973206E6F742061207661 PUSH1 0x0 DUP3 ADD MSTORE PUSH32 0x6C6964206F776E65720000000000000000000000000000000000000000000000 PUSH1 0x20 DUP3 ADD MSTORE POP JUMP JUMPDEST PUSH32 0x3C215B43444154415B4D736756616C75653A2031303030303030303030303030 PUSH1 0x0 DUP3 ADD MSTORE PUSH32 0x3030303030305D5D3E3C2F747370616E3E3C2F746578743E3C72656374207769 PUSH1 0x20 DUP3 ADD MSTORE PUSH32 0x6474683D223130332E35333122206865696768743D2232332E32393436222072 PUSH1 0x40 DUP3 ADD MSTORE PUSH32 0x783D223131222072793D22313122207472616E73666F726D3D226D6174726978 PUSH1 0x60 DUP3 ADD MSTORE PUSH32 0x28312E312030203020312E3232323232203232382E343737203331342E343737 PUSH1 0x80 DUP3 ADD MSTORE PUSH32 0x29222066696C6C3D222366646265366222207374726F6B653D22726762612835 PUSH1 0xA0 DUP3 ADD MSTORE PUSH32 0x362C36362C362C302E3229222F3E3C656C6C697073652072783D2232332E3834 PUSH1 0xC0 DUP3 ADD MSTORE PUSH32 0x3938222072793D2231312E3536373922207472616E73666F726D3D226D617472 PUSH1 0xE0 DUP3 ADD MSTORE PUSH32 0x697828312E303430393220302E3633383439382D2E37313134323820312E3135 PUSH2 0x100 DUP3 ADD MSTORE PUSH32 0x3938322034362E303732352034352E35353129222066696C6C3D222365633633 PUSH2 0x120 DUP3 ADD MSTORE PUSH32 0x353222207374726F6B652D77696474683D2230222F3E3C746578742064783D22 PUSH2 0x140 DUP3 ADD MSTORE PUSH32 0x30222064793D22302220666F6E742D66616D696C793D222671756F743B654E53 PUSH2 0x160 DUP3 ADD MSTORE PUSH32 0x496B326546697161313A3A3A427562626C6567756D2053616E732671756F743B PUSH2 0x180 DUP3 ADD MSTORE PUSH32 0x2220666F6E742D73697A653D2231342220666F6E742D7765696768743D223430 PUSH2 0x1A0 DUP3 ADD MSTORE PUSH32 0x3022207472616E73666F726D3D227472616E736C617465283234312E39312033 PUSH2 0x1C0 DUP3 ADD MSTORE PUSH32 0x33322E33353329222066696C6C3D222337353338303322207374726F6B652D77 PUSH2 0x1E0 DUP3 ADD MSTORE PUSH32 0x696474683D2230223E3C747370616E20793D22302220666F6E742D66616D696C PUSH2 0x200 DUP3 ADD MSTORE PUSH32 0x793D222671756F743B654E53496B326546697161313A3A3A427562626C656775 PUSH2 0x220 DUP3 ADD MSTORE PUSH32 0x6D2053616E732671756F743B2220666F6E742D73697A653D2231342220666F6E PUSH2 0x240 DUP3 ADD MSTORE PUSH32 0x742D7765696768743D223430302220666F6E742D7374796C653D226E6F726D61 PUSH2 0x260 DUP3 ADD MSTORE PUSH32 0x6C222066696C6C3D222337353338303322207374726F6B652D77696474683D22 PUSH2 0x280 DUP3 ADD MSTORE PUSH32 0x30223E3C215B43444154415B5265706C7920617420706D732E696F215D5D3E3C PUSH2 0x2A0 DUP3 ADD MSTORE PUSH32 0x2F747370616E3E3C2F746578743E3C746578742064783D2230222064793D2230 PUSH2 0x2C0 DUP3 ADD MSTORE PUSH32 0x2220666F6E742D66616D696C793D222671756F743B654E53496B326546697161 PUSH2 0x2E0 DUP3 ADD MSTORE PUSH32 0x313A3A3A427562626C6567756D2053616E732671756F743B2220666F6E742D73 PUSH2 0x300 DUP3 ADD MSTORE PUSH32 0x697A653D2232382220666F6E742D7765696768743D2234303022207472616E73 PUSH2 0x320 DUP3 ADD MSTORE PUSH32 0x666F726D3D226D6174726978282D312E31393334332030203020312E32303032 PUSH2 0x340 DUP3 ADD MSTORE PUSH32 0x322034302E303631392035342E3830313229222066696C6C3D22236638633961 PUSH2 0x360 DUP3 ADD MSTORE PUSH32 0x6322207374726F6B652D77696474683D2230223E3C747370616E20793D223022 PUSH2 0x380 DUP3 ADD MSTORE PUSH32 0x20666F6E742D7765696768743D2234303022207374726F6B652D77696474683D PUSH2 0x3A0 DUP3 ADD MSTORE PUSH32 0x2230223E3C215B43444154415B50205D5D3E3C2F747370616E3E3C2F74657874 PUSH2 0x3C0 DUP3 ADD MSTORE PUSH32 0x3E3C746578742064783D2230222064793D22302220666F6E742D66616D696C79 PUSH2 0x3E0 DUP3 ADD MSTORE PUSH32 0x3D222671756F743B654E53496B326546697161313A3A3A427562626C6567756D PUSH2 0x400 DUP3 ADD MSTORE PUSH32 0x2053616E732671756F743B2220666F6E742D73697A653D2232382220666F6E74 PUSH2 0x420 DUP3 ADD MSTORE PUSH32 0x2D7765696768743D2234303022207472616E73666F726D3D226D617472697828 PUSH2 0x440 DUP3 ADD MSTORE PUSH32 0x312E35353337382D2E3036323339342D2E3035353536372D312E333833373520 PUSH2 0x460 DUP3 ADD MSTORE PUSH32 0x34352E383433372033342E3035353529222066696C6C3D222366386339616322 PUSH2 0x480 DUP3 ADD MSTORE PUSH32 0x207374726F6B652D77696474683D2230223E3C747370616E20793D2230222066 PUSH2 0x4A0 DUP3 ADD MSTORE PUSH32 0x6F6E742D7765696768743D2234303022207374726F6B652D77696474683D2230 PUSH2 0x4C0 DUP3 ADD MSTORE PUSH32 0x223E3C215B43444154415B50205D5D3E3C2F747370616E3E3C2F746578743E3C PUSH2 0x4E0 DUP3 ADD MSTORE PUSH32 0x746578742064783D2230222064793D22302220666F6E742D66616D696C793D22 PUSH2 0x500 DUP3 ADD MSTORE PUSH32 0x2671756F743B654E53496B326546697161313A3A3A427562626C6567756D2053 PUSH2 0x520 DUP3 ADD MSTORE PUSH32 0x616E732671756F743B2220666F6E742D73697A653D2232382220666F6E742D77 PUSH2 0x540 DUP3 ADD MSTORE PUSH32 0x65696768743D2234303022207472616E73666F726D3D226D6174726978282D31 PUSH2 0x560 DUP3 ADD MSTORE PUSH32 0x2E313635392030203020312E31373235342035362E323839382035342E343236 PUSH2 0x580 DUP3 ADD MSTORE PUSH32 0x3729222066696C6C3D222366386339616322207374726F6B652D77696474683D PUSH2 0x5A0 DUP3 ADD MSTORE PUSH32 0x2230223E3C747370616E20793D22302220666F6E742D7765696768743D223430 PUSH2 0x5C0 DUP3 ADD MSTORE PUSH32 0x3022207374726F6B652D77696474683D2230223E3C215B43444154415B4D5D5D PUSH2 0x5E0 DUP3 ADD MSTORE PUSH32 0x3E3C2F747370616E3E3C2F746578743E3C7374796C653E3C215B43444154415B PUSH2 0x600 DUP3 ADD MSTORE PUSH32 0x40666F6E742D66616365207B666F6E742D66616D696C793A0000000000000000 PUSH2 0x620 DUP3 ADD MSTORE POP JUMP JUMPDEST PUSH32 0x3C747370616E20783D22302220793D2232342220666F6E742D7765696768743D PUSH1 0x0 DUP3 ADD MSTORE PUSH32 0x2233303022207374726F6B652D77696474683D2230223E3C215B43444154415B PUSH1 0x20 DUP3 ADD MSTORE POP JUMP JUMPDEST PUSH32 0x3C747370616E20783D22302220793D2234382220666F6E742D7765696768743D PUSH1 0x0 DUP3 ADD MSTORE PUSH32 0x2233303022207374726F6B652D77696474683D2230223E3C215B43444154415B PUSH1 0x20 DUP3 ADD MSTORE POP JUMP JUMPDEST PUSH32 0x5D5D3E0000000000000000000000000000000000000000000000000000000000 PUSH1 0x0 DUP3 ADD MSTORE POP JUMP JUMPDEST PUSH32 0x22696D616765223A2022646174613A696D6167652F7376672B786D6C3B626173 PUSH1 0x0 DUP3 ADD MSTORE PUSH32 0x6536342C00000000000000000000000000000000000000000000000000000000 PUSH1 0x20 DUP3 ADD MSTORE POP JUMP JUMPDEST PUSH32 0x4552433732313A206D696E7420746F20746865207A65726F2061646472657373 PUSH1 0x0 DUP3 ADD MSTORE POP JUMP JUMPDEST PUSH32 0x3C747370616E20783D22302220793D2233362220666F6E742D7765696768743D PUSH1 0x0 DUP3 ADD MSTORE PUSH32 0x2233303022207374726F6B652D77696474683D2230223E3C215B43444154415B PUSH1 0x20 DUP3 ADD MSTORE POP JUMP JUMPDEST PUSH32 0x7D00000000000000000000000000000000000000000000000000000000000000 PUSH1 0x0 DUP3 ADD MSTORE POP JUMP JUMPDEST PUSH32 0x5D5D3E3C2F747370616E3E3C747370616E20783D22302220793D223131222066 PUSH1 0x0 DUP3 ADD MSTORE PUSH32 0x6F6E742D66616D696C793D222671756F743B654E53496B326546697161313A3A PUSH1 0x20 DUP3 ADD MSTORE PUSH32 0x3A427562626C6567756D2053616E732671756F743B2220666F6E742D73697A65 PUSH1 0x40 DUP3 ADD MSTORE PUSH32 0x3D2231312220666F6E742D7765696768743D223430302220666F6E742D737479 PUSH1 0x60 DUP3 ADD MSTORE PUSH32 0x6C653D226E6F726D616C222066696C6C3D222361333439303822207374726F6B PUSH1 0x80 DUP3 ADD MSTORE PUSH32 0x652D77696474683D2230223E0000000000000000000000000000000000000000 PUSH1 0xA0 DUP3 ADD MSTORE POP JUMP JUMPDEST PUSH32 0x3C747370616E20783D22302220793D223133342220666F6E742D776569676874 PUSH1 0x0 DUP3 ADD MSTORE PUSH32 0x3D2233303022207374726F6B652D77696474683D2230223E3C215B4344415441 PUSH1 0x20 DUP3 ADD MSTORE PUSH32 0x5B00000000000000000000000000000000000000000000000000000000000000 PUSH1 0x40 DUP3 ADD MSTORE POP JUMP JUMPDEST PUSH32 0x4D61782031303020757365722070657220626174636800000000000000000000 PUSH1 0x0 DUP3 ADD MSTORE POP JUMP JUMPDEST PUSH32 0x3C747370616E20783D22302220793D223130382220666F6E742D776569676874 PUSH1 0x0 DUP3 ADD MSTORE PUSH32 0x3D2233303022207374726F6B652D77696474683D2230223E3C215B4344415441 PUSH1 0x20 DUP3 ADD MSTORE PUSH32 0x5B00000000000000000000000000000000000000000000000000000000000000 PUSH1 0x40 DUP3 ADD MSTORE POP JUMP JUMPDEST PUSH32 0x7B00000000000000000000000000000000000000000000000000000000000000 PUSH1 0x0 DUP3 ADD MSTORE POP JUMP JUMPDEST PUSH32 0x3C747370616E20783D22302220793D223132302220666F6E742D776569676874 PUSH1 0x0 DUP3 ADD MSTORE PUSH32 0x3D2233303022207374726F6B652D77696474683D2230223E3C215B4344415441 PUSH1 0x20 DUP3 ADD MSTORE PUSH32 0x5B00000000000000000000000000000000000000000000000000000000000000 PUSH1 0x40 DUP3 ADD MSTORE POP JUMP JUMPDEST PUSH32 0x3C747370616E20783D22302220793D2239362220666F6E742D7765696768743D PUSH1 0x0 DUP3 ADD MSTORE PUSH32 0x2233303022207374726F6B652D77696474683D2230223E3C215B43444154415B PUSH1 0x20 DUP3 ADD MSTORE POP JUMP JUMPDEST PUSH32 0x4552433732313A20696E76616C696420746F6B656E2049440000000000000000 PUSH1 0x0 DUP3 ADD MSTORE POP JUMP JUMPDEST PUSH32 0x646174613A6170706C69636174696F6E2F6A736F6E3B6261736536342C000000 PUSH1 0x0 DUP3 ADD MSTORE POP JUMP JUMPDEST PUSH32 0x226E616D65223A20224D65737361676520230000000000000000000000000000 PUSH1 0x0 DUP3 ADD MSTORE POP JUMP JUMPDEST PUSH32 0x3C747370616E20783D22302220793D223134362220666F6E742D776569676874 PUSH1 0x0 DUP3 ADD MSTORE PUSH32 0x3D2233303022207374726F6B652D77696474683D2230223E3C215B4344415441 PUSH1 0x20 DUP3 ADD MSTORE PUSH32 0x5B00000000000000000000000000000000000000000000000000000000000000 PUSH1 0x40 DUP3 ADD MSTORE POP JUMP JUMPDEST PUSH32 0x5D5D3E3C2F747370616E3E3C747370616E20783D22302220793D223336222066 PUSH1 0x0 DUP3 ADD MSTORE PUSH32 0x6F6E742D7765696768743D2233303022207374726F6B652D77696474683D2230 PUSH1 0x20 DUP3 ADD MSTORE PUSH32 0x223E000000000000000000000000000000000000000000000000000000000000 PUSH1 0x40 DUP3 ADD MSTORE POP JUMP JUMPDEST PUSH32 0x226465736372697074696F6E223A2022566973697420706D732E696F22000000 PUSH1 0x0 DUP3 ADD MSTORE POP JUMP JUMPDEST PUSH2 0x570D DUP2 PUSH2 0x37FA JUMP JUMPDEST DUP2 EQ PUSH2 0x5718 JUMPI PUSH1 0x0 DUP1 REVERT JUMPDEST POP JUMP JUMPDEST PUSH2 0x5724 DUP2 PUSH2 0x3818 JUMP JUMPDEST DUP2 EQ PUSH2 0x572F JUMPI PUSH1 0x0 DUP1 REVERT JUMPDEST POP JUMP JUMPDEST PUSH2 0x573B DUP2 PUSH2 0x3864 JUMP JUMPDEST DUP2 EQ PUSH2 0x5746 JUMPI PUSH1 0x0 DUP1 REVERT JUMPDEST POP JUMP INVALID COINBASE TIMESTAMP NUMBER DIFFICULTY GASLIMIT CHAINID SELFBALANCE BASEFEE 0x49 0x4A 0x4B 0x4C 0x4D 0x4E 0x4F POP MLOAD MSTORE MSTORE8 SLOAD SSTORE JUMP JUMPI PC MSIZE GAS PUSH2 0x6263 PUSH5 0x6566676869 PUSH11 0x6B6C6D6E6F707172737475 PUSH23 0x7778797A303132333435363738392B2FA2646970667358 0x22 SLT KECCAK256 EXTCODESIZE COINBASE 0xFC 0xD7 0xF 0xD4 DUP16 PUSH8 0x550703FD7B5E9D38 0xAF BASEFEE DUP8 SWAP6 ISZERO 0x2D 0xAC ORIGIN DUP3 0xFC 0xBA MOD 0xC5 PUSH22 0x28E064736F6C63430008070033000000000000000000 "
		},
		"gasEstimates": {
			"creation": {
				"codeDepositCost": "4492600",
				"executionCost": "infinite",
				"totalCost": "infinite"
			},
			"external": {
				"BatchSendMessage(address[],string)": "infinite",
				"SendMessage(address,string)": "infinite",
				"balanceOf(address)": "2902",
				"getChatProgressive(address,address)": "infinite",
				"getMessageById(uint256)": "infinite",
				"getMessageNumberOf(address,uint256)": "infinite",
				"getPerAddressCounter(address)": "2886",
				"name()": "infinite",
				"ownerOf(uint256)": "3113",
				"supportsInterface(bytes4)": "774",
				"symbol()": "infinite",
				"tokenURI(uint256)": "infinite",
				"totalSupply()": "2504"
			},
			"internal": {
				"_sendMessage(address,address,string memory)": "infinite",
				"substring(string memory,uint256,uint256)": "infinite",
				"svgContent(uint256)": "infinite"
			}
		},
		"methodIdentifiers": {
			"BatchSendMessage(address[],string)": "5ab7ecb0",
			"SendMessage(address,string)": "d088db40",
			"balanceOf(address)": "70a08231",
			"getChatProgressive(address,address)": "8ffac192",
			"getMessageById(uint256)": "17902601",
			"getMessageNumberOf(address,uint256)": "ad75c91d",
			"getPerAddressCounter(address)": "74eecae5",
			"name()": "06fdde03",
			"ownerOf(uint256)": "6352211e",
			"supportsInterface(bytes4)": "01ffc9a7",
			"symbol()": "95d89b41",
			"tokenURI(uint256)": "c87b56dd",
			"totalSupply()": "18160ddd"
		}
	},
	"abi": [
		{
			"inputs": [],
			"stateMutability": "nonpayable",
			"type": "constructor"
		},
		{
			"anonymous": false,
			"inputs": [
				{
					"indexed": true,
					"internalType": "address",
					"name": "from",
					"type": "address"
				},
				{
					"indexed": true,
					"internalType": "address",
					"name": "to",
					"type": "address"
				},
				{
					"indexed": true,
					"internalType": "uint256",
					"name": "tokenId",
					"type": "uint256"
				}
			],
			"name": "Transfer",
			"type": "event"
		},
		{
			"anonymous": false,
			"inputs": [
				{
					"indexed": true,
					"internalType": "address",
					"name": "from",
					"type": "address"
				},
				{
					"indexed": true,
					"internalType": "address",
					"name": "to",
					"type": "address"
				},
				{
					"indexed": true,
					"internalType": "string",
					"name": "content",
					"type": "string"
				}
			],
			"name": "messageReceived",
			"type": "event"
		},
		{
			"inputs": [
				{
					"internalType": "address[]",
					"name": "addrs",
					"type": "address[]"
				},
				{
					"internalType": "string",
					"name": "content",
					"type": "string"
				}
			],
			"name": "BatchSendMessage",
			"outputs": [
				{
					"internalType": "bool",
					"name": "",
					"type": "bool"
				}
			],
			"stateMutability": "nonpayable",
			"type": "function"
		},
		{
			"inputs": [
				{
					"internalType": "address",
					"name": "to",
					"type": "address"
				},
				{
					"internalType": "string",
					"name": "content",
					"type": "string"
				}
			],
			"name": "SendMessage",
			"outputs": [],
			"stateMutability": "payable",
			"type": "function"
		},
		{
			"inputs": [
				{
					"internalType": "address",
					"name": "owner",
					"type": "address"
				}
			],
			"name": "balanceOf",
			"outputs": [
				{
					"internalType": "uint256",
					"name": "",
					"type": "uint256"
				}
			],
			"stateMutability": "view",
			"type": "function"
		},
		{
			"inputs": [
				{
					"internalType": "address",
					"name": "sender",
					"type": "address"
				},
				{
					"internalType": "address",
					"name": "recipient",
					"type": "address"
				}
			],
			"name": "getChatProgressive",
			"outputs": [
				{
					"internalType": "uint256[]",
					"name": "",
					"type": "uint256[]"
				}
			],
			"stateMutability": "view",
			"type": "function"
		},
		{
			"inputs": [
				{
					"internalType": "uint256",
					"name": "tokenId",
					"type": "uint256"
				}
			],
			"name": "getMessageById",
			"outputs": [
				{
					"components": [
						{
							"internalType": "address",
							"name": "from",
							"type": "address"
						},
						{
							"internalType": "address",
							"name": "to",
							"type": "address"
						},
						{
							"internalType": "string",
							"name": "content",
							"type": "string"
						}
					],
					"internalType": "struct PmsV2.message",
					"name": "",
					"type": "tuple"
				}
			],
			"stateMutability": "view",
			"type": "function"
		},
		{
			"inputs": [
				{
					"internalType": "address",
					"name": "addr",
					"type": "address"
				},
				{
					"internalType": "uint256",
					"name": "index",
					"type": "uint256"
				}
			],
			"name": "getMessageNumberOf",
			"outputs": [
				{
					"internalType": "uint256",
					"name": "",
					"type": "uint256"
				}
			],
			"stateMutability": "view",
			"type": "function"
		},
		{
			"inputs": [
				{
					"internalType": "address",
					"name": "addr",
					"type": "address"
				}
			],
			"name": "getPerAddressCounter",
			"outputs": [
				{
					"internalType": "uint256",
					"name": "",
					"type": "uint256"
				}
			],
			"stateMutability": "view",
			"type": "function"
		},
		{
			"inputs": [],
			"name": "name",
			"outputs": [
				{
					"internalType": "string",
					"name": "",
					"type": "string"
				}
			],
			"stateMutability": "view",
			"type": "function"
		},
		{
			"inputs": [
				{
					"internalType": "uint256",
					"name": "tokenId",
					"type": "uint256"
				}
			],
			"name": "ownerOf",
			"outputs": [
				{
					"internalType": "address",
					"name": "",
					"type": "address"
				}
			],
			"stateMutability": "view",
			"type": "function"
		},
		{
			"inputs": [
				{
					"internalType": "bytes4",
					"name": "interfaceId",
					"type": "bytes4"
				}
			],
			"name": "supportsInterface",
			"outputs": [
				{
					"internalType": "bool",
					"name": "",
					"type": "bool"
				}
			],
			"stateMutability": "view",
			"type": "function"
		},
		{
			"inputs": [],
			"name": "symbol",
			"outputs": [
				{
					"internalType": "string",
					"name": "",
					"type": "string"
				}
			],
			"stateMutability": "view",
			"type": "function"
		},
		{
			"inputs": [
				{
					"internalType": "uint256",
					"name": "tokenId",
					"type": "uint256"
				}
			],
			"name": "tokenURI",
			"outputs": [
				{
					"internalType": "string",
					"name": "",
					"type": "string"
				}
			],
			"stateMutability": "view",
			"type": "function"
		},
		{
			"inputs": [],
			"name": "totalSupply",
			"outputs": [
				{
					"internalType": "uint256",
					"name": "",
					"type": "uint256"
				}
			],
			"stateMutability": "view",
			"type": "function"
		}
	]
}