{
	"data": {
		"bytecode": {
			"linkReferences": {},
			"object": "608060405260306006553480156200001657600080fd5b506040518060400160405280600e81526020017f506f6c794d7367536572766963650000000000000000000000000000000000008152506040518060400160405280600381526020017f504d53000000000000000000000000000000000000000000000000000000000081525081600090805190602001906200009b929190620000bd565b508060019080519060200190620000b4929190620000bd565b505050620001d2565b828054620000cb906200016d565b90600052602060002090601f016020900481019282620000ef57600085556200013b565b82601f106200010a57805160ff19168380011785556200013b565b828001600101855582156200013b579182015b828111156200013a5782518255916020019190600101906200011d565b5b5090506200014a91906200014e565b5090565b5b80821115620001695760008160009055506001016200014f565b5090565b600060028204905060018216806200018657607f821691505b602082108114156200019d576200019c620001a3565b5b50919050565b7f4e487b7100000000000000000000000000000000000000000000000000000000600052602260045260246000fd5b61592080620001e26000396000f3fe6080604052600436106100c25760003560e01c806370a082311161007f57806395d89b411161005957806395d89b41146102c8578063ad75c91d146102f3578063c87b56dd14610330578063d088db401461036d576100c2565b806370a082311461021157806374eecae51461024e5780638ffac1921461028b576100c2565b806301ffc9a7146100c757806306fdde0314610104578063179026011461012f57806318160ddd1461016c5780635ab7ecb0146101975780636352211e146101d4575b600080fd5b3480156100d357600080fd5b506100ee60048036038101906100e99190612705565b610389565b6040516100fb919061336d565b60405180910390f35b34801561011057600080fd5b5061011961046b565b6040516101269190613388565b60405180910390f35b34801561013b57600080fd5b506101566004803603810190610151919061275f565b6104fd565b604051610163919061350a565b60405180910390f35b34801561017857600080fd5b50610181610668565b60405161018e919061352c565b60405180910390f35b3480156101a357600080fd5b506101be60048036038101906101b9919061268d565b610672565b6040516101cb919061336d565b60405180910390f35b3480156101e057600080fd5b506101fb60048036038101906101f6919061275f565b61078b565b60405161020891906132e4565b60405180910390f35b34801561021d57600080fd5b5061023860048036038101906102339190612584565b610812565b604051610245919061352c565b60405180910390f35b34801561025a57600080fd5b5061027560048036038101906102709190612584565b6108ca565b604051610282919061352c565b60405180910390f35b34801561029757600080fd5b506102b260048036038101906102ad91906125b1565b610913565b6040516102bf919061334b565b60405180910390f35b3480156102d457600080fd5b506102dd610b50565b6040516102ea9190613388565b60405180910390f35b3480156102ff57600080fd5b5061031a6004803603810190610315919061264d565b610be2565b604051610327919061352c565b60405180910390f35b34801561033c57600080fd5b506103576004803603810190610352919061275f565b610c3d565b6040516103649190613388565b60405180910390f35b610387600480360381019061038291906125f1565b610cd2565b005b60007f13f2a32f000000000000000000000000000000000000000000000000000000007bffffffffffffffffffffffffffffffffffffffffffffffffffffffff1916827bffffffffffffffffffffffffffffffffffffffffffffffffffffffff1916148061045457507f5b5e139f000000000000000000000000000000000000000000000000000000007bffffffffffffffffffffffffffffffffffffffffffffffffffffffff1916827bffffffffffffffffffffffffffffffffffffffffffffffffffffffff1916145b80610464575061046382610dd4565b5b9050919050565b60606000805461047a9061384b565b80601f01602080910402602001604051908101604052809291908181526020018280546104a69061384b565b80156104f35780601f106104c8576101008083540402835291602001916104f3565b820191906000526020600020905b8154815290600101906020018083116104d657829003601f168201915b5050505050905090565b610505612332565b600a60008381526020019081526020016000206040518060600160405290816000820160009054906101000a900473ffffffffffffffffffffffffffffffffffffffff1673ffffffffffffffffffffffffffffffffffffffff1673ffffffffffffffffffffffffffffffffffffffff1681526020016001820160009054906101000a900473ffffffffffffffffffffffffffffffffffffffff1673ffffffffffffffffffffffffffffffffffffffff1673ffffffffffffffffffffffffffffffffffffffff1681526020016002820180546105df9061384b565b80601f016020809104026020016040519081016040528092919081815260200182805461060b9061384b565b80156106585780601f1061062d57610100808354040283529160200191610658565b820191906000526020600020905b81548152906001019060200180831161063b57829003601f168201915b5050505050815250509050919050565b6000600754905090565b60006102a08251106106b9576040517f08c379a00000000000000000000000000000000000000000000000000000000081526004016106b0906133ca565b60405180910390fd5b60648351106106fd576040517f08c379a00000000000000000000000000000000000000000000000000000000081526004016106f4906134ca565b60405180910390fd5b60005b83518110156107805761072e338583815181106107205761071f613984565b5b602002602001015185610e3e565b61076d576040517f08c379a00000000000000000000000000000000000000000000000000000000081526004016107649061344a565b60405180910390fd5b8080610778906138ae565b915050610700565b506001905092915050565b60008061079783611075565b9050600073ffffffffffffffffffffffffffffffffffffffff168173ffffffffffffffffffffffffffffffffffffffff161415610809576040517f08c379a0000000000000000000000000000000000000000000000000000000008152600401610800906134ea565b60405180910390fd5b80915050919050565b60008073ffffffffffffffffffffffffffffffffffffffff168273ffffffffffffffffffffffffffffffffffffffff161415610883576040517f08c379a000000000000000000000000000000000000000000000000000000000815260040161087a9061348a565b60405180910390fd5b600360008373ffffffffffffffffffffffffffffffffffffffff1673ffffffffffffffffffffffffffffffffffffffff168152602001908152602001600020549050919050565b6000600960008373ffffffffffffffffffffffffffffffffffffffff1673ffffffffffffffffffffffffffffffffffffffff168152602001908152602001600020549050919050565b60606000600960008573ffffffffffffffffffffffffffffffffffffffff1673ffffffffffffffffffffffffffffffffffffffff1681526020019081526020016000205467ffffffffffffffff8111156109705761096f6139b3565b5b60405190808252806020026020018201604052801561099e5781602001602082028036833780820191505090505b5090506000600190505b6001600960008773ffffffffffffffffffffffffffffffffffffffff1673ffffffffffffffffffffffffffffffffffffffff168152602001908152602001600020546109f49190613656565b811015610b45578373ffffffffffffffffffffffffffffffffffffffff16600a6000600860008973ffffffffffffffffffffffffffffffffffffffff1673ffffffffffffffffffffffffffffffffffffffff168152602001908152602001600020600085815260200190815260200160002054815260200190815260200160002060010160009054906101000a900473ffffffffffffffffffffffffffffffffffffffff1673ffffffffffffffffffffffffffffffffffffffff161415610b3257600860008673ffffffffffffffffffffffffffffffffffffffff1673ffffffffffffffffffffffffffffffffffffffff16815260200190815260200160002060008281526020019081526020016000205482600183610b149190613737565b81518110610b2557610b24613984565b5b6020026020010181815250505b8080610b3d906138ae565b9150506109a8565b508091505092915050565b606060018054610b5f9061384b565b80601f0160208091040260200160405190810160405280929190818152602001828054610b8b9061384b565b8015610bd85780601f10610bad57610100808354040283529160200191610bd8565b820191906000526020600020905b815481529060010190602001808311610bbb57829003601f168201915b5050505050905090565b6000600860008473ffffffffffffffffffffffffffffffffffffffff1673ffffffffffffffffffffffffffffffffffffffff168152602001908152602001600020600083815260200190815260200160002054905092915050565b60606000610c4a836110b2565b604051602001610c5a9190612f3f565b60405160208183030381529060405290506000610c7684611678565b610c7f83611750565b604051602001610c90929190613251565b6040516020818303038152906040529050610caa81611750565b604051602001610cba91906132c2565b60405160208183030381529060405292505050919050565b6102a0815110610d17576040517f08c379a0000000000000000000000000000000000000000000000000000000008152600401610d0e906133ca565b60405180910390fd5b3373ffffffffffffffffffffffffffffffffffffffff168273ffffffffffffffffffffffffffffffffffffffff161415610d86576040517f08c379a0000000000000000000000000000000000000000000000000000000008152600401610d7d9061346a565b60405180910390fd5b610d91338383610e3e565b610dd0576040517f08c379a0000000000000000000000000000000000000000000000000000000008152600401610dc79061340a565b60405180910390fd5b5050565b60007f01ffc9a7000000000000000000000000000000000000000000000000000000007bffffffffffffffffffffffffffffffffffffffffffffffffffffffff1916827bffffffffffffffffffffffffffffffffffffffffffffffffffffffff1916149050919050565b60006001600960008673ffffffffffffffffffffffffffffffffffffffff1673ffffffffffffffffffffffffffffffffffffffff1681526020019081526020016000206000828254019250508190555060016007600082825401925050819055506000600a600060075481526020019081526020016000209050848160000160006101000a81548173ffffffffffffffffffffffffffffffffffffffff021916908373ffffffffffffffffffffffffffffffffffffffff160217905550838160010160006101000a81548173ffffffffffffffffffffffffffffffffffffffff021916908373ffffffffffffffffffffffffffffffffffffffff16021790555082816002019080519060200190610f5692919061237f565b50600754600860008773ffffffffffffffffffffffffffffffffffffffff1673ffffffffffffffffffffffffffffffffffffffff1681526020019081526020016000206000600960008973ffffffffffffffffffffffffffffffffffffffff1673ffffffffffffffffffffffffffffffffffffffff16815260200190815260200160002054815260200190815260200160002081905550610ff9846007546118b4565b826040516110079190612f3f565b60405180910390208473ffffffffffffffffffffffffffffffffffffffff168673ffffffffffffffffffffffffffffffffffffffff167f3e100f057239db422c0ebf9142f67c98e9ff6ac4aee1068a737cac01b9caa30460405160405180910390a460019150509392505050565b60006002600083815260200190815260200160002060009054906101000a900473ffffffffffffffffffffffffffffffffffffffff169050919050565b60606000600a600084815260200190815260200160002060020180546110d79061384b565b80601f01602080910402602001604051908101604052809291908181526020018280546111039061384b565b80156111505780601f1061112557610100808354040283529160200191611150565b820191906000526020600020905b81548152906001019060200180831161113357829003601f168201915b505050505090506000600e67ffffffffffffffff811115611174576111736139b3565b5b6040519080825280602002602001820160405280156111a757816020015b60608152602001906001900390816111925790505b509050600060065483516111bb91906136ac565b905060005b6001826111cd9190613656565b8110156112bc5761128b600a600088815260200190815260200160002060020180546111f89061384b565b80601f01602080910402602001604051908101604052809291908181526020018280546112249061384b565b80156112715780601f1061124657610100808354040283529160200191611271565b820191906000526020600020905b81548152906001019060200180831161125457829003601f168201915b50505050506006548361128491906136dd565b86516118d2565b83828151811061129e5761129d613984565b5b602002602001018190525080806112b4906138ae565b9150506111c0565b5060005b825181101561136f5760008382815181106112de576112dd613984565b5b602002602001015151118015611310575060065483828151811061130557611304613984565b5b602002602001015151115b1561135c5761133d83828151811061132b5761132a613984565b5b602002602001015160006006546118d2565b8382815181106113505761134f613984565b5b60200260200101819052505b8080611367906138ae565b9150506112c0565b5060006113c7600a600088815260200190815260200160002060000160009054906101000a900473ffffffffffffffffffffffffffffffffffffffff1673ffffffffffffffffffffffffffffffffffffffff166119ce565b61141c600a600089815260200190815260200160002060010160009054906101000a900473ffffffffffffffffffffffffffffffffffffffff1673ffffffffffffffffffffffffffffffffffffffff166119ce565b61142542611678565b604051602001611437939291906131c8565b604051602081830303815290604052905060008360008151811061145e5761145d613984565b5b60200260200101518460018151811061147a57611479613984565b5b60200260200101518560028151811061149657611495613984565b5b6020026020010151866003815181106114b2576114b1613984565b5b6020026020010151876004815181106114ce576114cd613984565b5b6020026020010151886005815181106114ea576114e9613984565b5b6020026020010151604051602001611507969594939291906130ec565b604051602081830303815290604052905060008460068151811061152e5761152d613984565b5b60200260200101518560078151811061154a57611549613984565b5b60200260200101518660088151811061156657611565613984565b5b60200260200101518760098151811061158257611581613984565b5b602002602001015188600a8151811061159e5761159d613984565b5b60200260200101516040516020016115ba959493929190612f94565b6040516020818303038152906040529050600085600b815181106115e1576115e0613984565b5b602002602001015186600c815181106115fd576115fc613984565b5b602002602001015187600d8151811061161957611618613984565b5b60200260200101516040516020016116339392919061304d565b60405160208183030381529060405290508383838360405160200161165b9493929190612f56565b604051602081830303815290604052975050505050505050919050565b606060006001611687846119fb565b01905060008167ffffffffffffffff8111156116a6576116a56139b3565b5b6040519080825280601f01601f1916602001820160405280156116d85781602001600182028036833780820191505090505b509050600082602001820190505b600115611745578080600190039150507f3031323334353637383961626364656600000000000000000000000000000000600a86061a8153600a858161172f5761172e613926565b5b049450600085141561174057611745565b6116e6565b819350505050919050565b6060600082511415611773576040518060200160405280600081525090506118af565b60006040518060600160405280604081526020016158ab60409139905060006003600285516117a29190613656565b6117ac91906136ac565b60046117b891906136dd565b67ffffffffffffffff8111156117d1576117d06139b3565b5b6040519080825280601f01601f1916602001820160405280156118035781602001600182028036833780820191505090505b509050600182016020820185865187015b8082101561186f576003820191508151603f8160121c168501518453600184019350603f81600c1c168501518453600184019350603f8160061c168501518453600184019350603f8116850151845360018401935050611814565b505060038651066001811461188b576002811461189e576118a6565b603d6001830353603d60028303536118a6565b603d60018303535b50505080925050505b919050565b6118ce828260405180602001604052806000815250611b4e565b5050565b60606000849050600084846118e79190613737565b67ffffffffffffffff811115611900576118ff6139b3565b5b6040519080825280601f01601f1916602001820160405280156119325781602001600182028036833780820191505090505b50905060008590505b848110156119c15782818151811061195657611955613984565b5b602001015160f81c60f81b82878361196e9190613737565b8151811061197f5761197e613984565b5b60200101907effffffffffffffffffffffffffffffffffffffffffffffffffffffffffffff1916908160001a90535080806119b9906138ae565b91505061193b565b5080925050509392505050565b60606119f48273ffffffffffffffffffffffffffffffffffffffff16601460ff16611ba9565b9050919050565b600080600090507a184f03e93ff9f4daa797ed6e38ed64bf6a1f0100000000000000008310611a59577a184f03e93ff9f4daa797ed6e38ed64bf6a1f0100000000000000008381611a4f57611a4e613926565b5b0492506040810190505b6d04ee2d6d415b85acef81000000008310611a96576d04ee2d6d415b85acef81000000008381611a8c57611a8b613926565b5b0492506020810190505b662386f26fc100008310611ac557662386f26fc100008381611abb57611aba613926565b5b0492506010810190505b6305f5e1008310611aee576305f5e1008381611ae457611ae3613926565b5b0492506008810190505b6127108310611b13576127108381611b0957611b08613926565b5b0492506004810190505b60648310611b365760648381611b2c57611b2b613926565b5b0492506002810190505b600a8310611b45576001810190505b80915050919050565b611b588383611de5565b611b656000848484612003565b611ba4576040517f08c379a0000000000000000000000000000000000000000000000000000000008152600401611b9b906133ea565b60405180910390fd5b505050565b606060006002836002611bbc91906136dd565b611bc69190613656565b67ffffffffffffffff811115611bdf57611bde6139b3565b5b6040519080825280601f01601f191660200182016040528015611c115781602001600182028036833780820191505090505b5090507f300000000000000000000000000000000000000000000000000000000000000081600081518110611c4957611c48613984565b5b60200101907effffffffffffffffffffffffffffffffffffffffffffffffffffffffffffff1916908160001a9053507f780000000000000000000000000000000000000000000000000000000000000081600181518110611cad57611cac613984565b5b60200101907effffffffffffffffffffffffffffffffffffffffffffffffffffffffffffff1916908160001a90535060006001846002611ced91906136dd565b611cf79190613656565b90505b6001811115611d97577f3031323334353637383961626364656600000000000000000000000000000000600f861660108110611d3957611d38613984565b5b1a60f81b828281518110611d5057611d4f613984565b5b60200101907effffffffffffffffffffffffffffffffffffffffffffffffffffffffffffff1916908160001a905350600485901c945080611d9090613821565b9050611cfa565b5060008414611ddb576040517f08c379a0000000000000000000000000000000000000000000000000000000008152600401611dd2906133aa565b60405180910390fd5b8091505092915050565b600073ffffffffffffffffffffffffffffffffffffffff168273ffffffffffffffffffffffffffffffffffffffff161415611e55576040517f08c379a0000000000000000000000000000000000000000000000000000000008152600401611e4c906134aa565b60405180910390fd5b611e5e8161219a565b15611e9e576040517f08c379a0000000000000000000000000000000000000000000000000000000008152600401611e959061342a565b60405180910390fd5b611eac6000838360016121db565b611eb58161219a565b15611ef5576040517f08c379a0000000000000000000000000000000000000000000000000000000008152600401611eec9061342a565b60405180910390fd5b6001600360008473ffffffffffffffffffffffffffffffffffffffff1673ffffffffffffffffffffffffffffffffffffffff16815260200190815260200160002060008282540192505081905550816002600083815260200190815260200160002060006101000a81548173ffffffffffffffffffffffffffffffffffffffff021916908373ffffffffffffffffffffffffffffffffffffffff160217905550808273ffffffffffffffffffffffffffffffffffffffff16600073ffffffffffffffffffffffffffffffffffffffff167fddf252ad1be2c89b69c2b068fc378daa952ba7f163c4a11628f55a4df523b3ef60405160405180910390a4611fff600083836001612301565b5050565b60006120248473ffffffffffffffffffffffffffffffffffffffff16612307565b1561218d578373ffffffffffffffffffffffffffffffffffffffff1663150b7a0261204d61232a565b8786866040518563ffffffff1660e01b815260040161206f94939291906132ff565b602060405180830381600087803b15801561208957600080fd5b505af19250505080156120ba57506040513d601f19601f820116820180604052508101906120b79190612732565b60015b61213d573d80600081146120ea576040519150601f19603f3d011682016040523d82523d6000602084013e6120ef565b606091505b50600081511415612135576040517f08c379a000000000000000000000000000000000000000000000000000000000815260040161212c906133ea565b60405180910390fd5b805181602001fd5b63150b7a0260e01b7bffffffffffffffffffffffffffffffffffffffffffffffffffffffff1916817bffffffffffffffffffffffffffffffffffffffffffffffffffffffff191614915050612192565b600190505b949350505050565b60008073ffffffffffffffffffffffffffffffffffffffff166121bc83611075565b73ffffffffffffffffffffffffffffffffffffffff1614159050919050565b60018111156122fb57600073ffffffffffffffffffffffffffffffffffffffff168473ffffffffffffffffffffffffffffffffffffffff161461226f5780600360008673ffffffffffffffffffffffffffffffffffffffff1673ffffffffffffffffffffffffffffffffffffffff16815260200190815260200160002060008282546122679190613737565b925050819055505b600073ffffffffffffffffffffffffffffffffffffffff168373ffffffffffffffffffffffffffffffffffffffff16146122fa5780600360008573ffffffffffffffffffffffffffffffffffffffff1673ffffffffffffffffffffffffffffffffffffffff16815260200190815260200160002060008282546122f29190613656565b925050819055505b5b50505050565b50505050565b6000808273ffffffffffffffffffffffffffffffffffffffff163b119050919050565b600033905090565b6040518060600160405280600073ffffffffffffffffffffffffffffffffffffffff168152602001600073ffffffffffffffffffffffffffffffffffffffff168152602001606081525090565b82805461238b9061384b565b90600052602060002090601f0160209004810192826123ad57600085556123f4565b82601f106123c657805160ff19168380011785556123f4565b828001600101855582156123f4579182015b828111156123f35782518255916020019190600101906123d8565b5b5090506124019190612405565b5090565b5b8082111561241e576000816000905550600101612406565b5090565b60006124356124308461356c565b613547565b90508083825260208201905082856020860282011115612458576124576139e7565b5b60005b85811015612488578161246e88826124d4565b84526020840193506020830192505060018101905061245b565b5050509392505050565b60006124a56124a084613598565b613547565b9050828152602081018484840111156124c1576124c06139ec565b5b6124cc8482856137df565b509392505050565b6000813590506124e381615865565b92915050565b600082601f8301126124fe576124fd6139e2565b5b813561250e848260208601612422565b91505092915050565b6000813590506125268161587c565b92915050565b60008151905061253b8161587c565b92915050565b600082601f830112612556576125556139e2565b5b8135612566848260208601612492565b91505092915050565b60008135905061257e81615893565b92915050565b60006020828403121561259a576125996139f6565b5b60006125a8848285016124d4565b91505092915050565b600080604083850312156125c8576125c76139f6565b5b60006125d6858286016124d4565b92505060206125e7858286016124d4565b9150509250929050565b60008060408385031215612608576126076139f6565b5b6000612616858286016124d4565b925050602083013567ffffffffffffffff811115612637576126366139f1565b5b61264385828601612541565b9150509250929050565b60008060408385031215612664576126636139f6565b5b6000612672858286016124d4565b92505060206126838582860161256f565b9150509250929050565b600080604083850312156126a4576126a36139f6565b5b600083013567ffffffffffffffff8111156126c2576126c16139f1565b5b6126ce858286016124e9565b925050602083013567ffffffffffffffff8111156126ef576126ee6139f1565b5b6126fb85828601612541565b9150509250929050565b60006020828403121561271b5761271a6139f6565b5b600061272984828501612517565b91505092915050565b600060208284031215612748576127476139f6565b5b60006127568482850161252c565b91505092915050565b600060208284031215612775576127746139f6565b5b60006127838482850161256f565b91505092915050565b60006127988383612f21565b60208301905092915050565b6127ad8161376b565b82525050565b6127bc8161376b565b82525050565b60006127cd826135d9565b6127d78185613607565b93506127e2836135c9565b8060005b838110156128135781516127fa888261278c565b9750612805836135fa565b9250506001810190506127e6565b5085935050505092915050565b6128298161377d565b82525050565b600061283a826135e4565b6128448185613618565b93506128548185602086016137ee565b61285d816139fb565b840191505092915050565b6000612873826135ef565b61287d8185613629565b935061288d8185602086016137ee565b612896816139fb565b840191505092915050565b60006128ac826135ef565b6128b6818561363a565b93506128c68185602086016137ee565b6128cf816139fb565b840191505092915050565b60006128e5826135ef565b6128ef818561364b565b93506128ff8185602086016137ee565b80840191505092915050565b600061291860208361363a565b915061292382613a0c565b602082019050919050565b600061293b602b8361363a565b915061294682613a35565b604082019050919050565b600061295e60328361363a565b915061296982613a84565b604082019050919050565b600061298160098361364b565b915061298c82613ad3565b600982019050919050565b60006129a4604f8361364b565b91506129af82613afc565b604f82019050919050565b60006129c86103c88361364b565b91506129d382613b71565b6103c882019050919050565b60006129ec60178361363a565b91506129f782614025565b602082019050919050565b6000612a0f60028361364b565b9150612a1a8261404e565b600282019050919050565b6000612a32601c8361363a565b9150612a3d82614077565b602082019050919050565b6000612a5560548361363a565b9150612a60826140a0565b606082019050919050565b6000612a78600f8361364b565b9150612a8382614115565b600f82019050919050565b6000612a9b601a8361363a565b9150612aa68261413e565b602082019050919050565b6000612abe60428361364b565b9150612ac982614167565b604282019050919050565b6000612ae1600d8361364b565b9150612aec826141dc565b600d82019050919050565b6000612b04600f8361364b565b9150612b0f82614205565b600f82019050919050565b6000612b2760ad8361364b565b9150612b328261422e565b60ad82019050919050565b6000612b4b6101688361364b565b9150612b5682614315565b61016882019050919050565b6000612b6f60fb8361364b565b9150612b7a826144e4565b60fb82019050919050565b6000612b936101158361364b565b9150612b9e82614617565b61011582019050919050565b6000612bb760428361364b565b9150612bc282614771565b604282019050919050565b6000612bda60298361363a565b9150612be5826147e6565b604082019050919050565b6000612bfd60438361364b565b9150612c0882614835565b604382019050919050565b6000612c2060248361364b565b9150612c2b826148aa565b602482019050919050565b6000612c4360438361364b565b9150612c4e826148f9565b604382019050919050565b6000612c6660438361364b565b9150612c718261496e565b604382019050919050565b6000612c8960208361363a565b9150612c94826149e3565b602082019050919050565b6000612cac60018361364b565b9150612cb782614a0c565b600182019050919050565b6000612ccf60ac8361364b565b9150612cda82614a35565b60ac82019050919050565b6000612cf260288361364b565b9150612cfd82614b1c565b602882019050919050565b6000612d1560428361364b565b9150612d2082614b6b565b604282019050919050565b6000612d3860168361363a565b9150612d4382614be0565b602082019050919050565b6000612d5b60018361364b565b9150612d6682614c09565b600182019050919050565b6000612d7e60188361363a565b9150612d8982614c32565b602082019050919050565b6000612da160428361364b565b9150612dac82614c5b565b604282019050919050565b6000612dc4601d8361364b565b9150612dcf82614cd0565b601d82019050919050565b6000612de86107868361364b565b9150612df382614cf9565b61078682019050919050565b6000612e0c60128361364b565b9150612e178261563f565b601282019050919050565b6000612e2f60428361364b565b9150612e3a82615668565b604282019050919050565b6000612e52601d8361364b565b9150612e5d826156dd565b601d82019050919050565b6000612e7560438361364b565b9150612e8082615706565b604382019050919050565b6000612e9860428361364b565b9150612ea38261577b565b604282019050919050565b6000612ebb60428361364b565b9150612ec6826157f0565b604282019050919050565b6000606083016000830151612ee960008601826127a4565b506020830151612efc60208601826127a4565b5060408301518482036040860152612f148282612868565b9150508091505092915050565b612f2a816137d5565b82525050565b612f39816137d5565b82525050565b6000612f4b82846128da565b915081905092915050565b6000612f6282876128da565b9150612f6e82866128da565b9150612f7a82856128da565b9150612f8682846128da565b915081905095945050505050565b6000612f9f82612974565b9150612fab82886128da565b9150612fb682612d94565b9150612fc182612974565b9150612fcd82876128da565b9150612fd882612c36565b9150612fe382612974565b9150612fef82866128da565b9150612ffa82612c59565b915061300582612974565b915061301182856128da565b915061301c82612bf0565b915061302782612974565b915061303382846128da565b915061303e82612e68565b91508190509695505050505050565b600061305882612974565b915061306482866128da565b915061306f82612e22565b915061307a82612974565b915061308682856128da565b915061309182612e22565b915061309c82612974565b91506130a882846128da565b91506130b382612e22565b91506130be82612b3d565b91506130c982612dda565b91506130d482612ce5565b91506130df82612b85565b9150819050949350505050565b60006130f782612974565b915061310382896128da565b915061310e82612eae565b915061311982612974565b915061312582886128da565b915061313082612e22565b915061313b82612974565b915061314782876128da565b915061315282612d08565b915061315d82612974565b915061316982866128da565b915061317482612baa565b915061317f82612974565b915061318b82856128da565b915061319682612e8b565b91506131a182612974565b91506131ad82846128da565b91506131b882612ab1565b9150819050979650505050505050565b60006131d3826129ba565b91506131de82612a6b565b91506131ea82866128da565b91506131f582612cc2565b915061320082612ad4565b915061320c82856128da565b915061321782612b1a565b915061322282612af7565b915061322e82846128da565b915061323982612b62565b915061324482612997565b9150819050949350505050565b600061325c82612d4e565b915061326782612dff565b915061327382856128da565b915061327e82612a02565b915061328982612c13565b915061329582846128da565b91506132a082612a02565b91506132ab82612e45565b91506132b682612c9f565b91508190509392505050565b60006132cd82612db7565b91506132d982846128da565b915081905092915050565b60006020820190506132f960008301846127b3565b92915050565b600060808201905061331460008301876127b3565b61332160208301866127b3565b61332e6040830185612f30565b8181036060830152613340818461282f565b905095945050505050565b6000602082019050818103600083015261336581846127c2565b905092915050565b60006020820190506133826000830184612820565b92915050565b600060208201905081810360008301526133a281846128a1565b905092915050565b600060208201905081810360008301526133c38161290b565b9050919050565b600060208201905081810360008301526133e38161292e565b9050919050565b6000602082019050818103600083015261340381612951565b9050919050565b60006020820190508181036000830152613423816129df565b9050919050565b6000602082019050818103600083015261344381612a25565b9050919050565b6000602082019050818103600083015261346381612a48565b9050919050565b6000602082019050818103600083015261348381612a8e565b9050919050565b600060208201905081810360008301526134a381612bcd565b9050919050565b600060208201905081810360008301526134c381612c7c565b9050919050565b600060208201905081810360008301526134e381612d2b565b9050919050565b6000602082019050818103600083015261350381612d71565b9050919050565b600060208201905081810360008301526135248184612ed1565b905092915050565b60006020820190506135416000830184612f30565b92915050565b6000613551613562565b905061355d828261387d565b919050565b6000604051905090565b600067ffffffffffffffff821115613587576135866139b3565b5b602082029050602081019050919050565b600067ffffffffffffffff8211156135b3576135b26139b3565b5b6135bc826139fb565b9050602081019050919050565b6000819050602082019050919050565b600081519050919050565b600081519050919050565b600081519050919050565b6000602082019050919050565b600082825260208201905092915050565b600082825260208201905092915050565b600082825260208201905092915050565b600082825260208201905092915050565b600081905092915050565b6000613661826137d5565b915061366c836137d5565b9250827fffffffffffffffffffffffffffffffffffffffffffffffffffffffffffffffff038211156136a1576136a06138f7565b5b828201905092915050565b60006136b7826137d5565b91506136c2836137d5565b9250826136d2576136d1613926565b5b828204905092915050565b60006136e8826137d5565b91506136f3836137d5565b9250817fffffffffffffffffffffffffffffffffffffffffffffffffffffffffffffffff048311821515161561372c5761372b6138f7565b5b828202905092915050565b6000613742826137d5565b915061374d836137d5565b9250828210156137605761375f6138f7565b5b828203905092915050565b6000613776826137b5565b9050919050565b60008115159050919050565b60007fffffffff0000000000000000000000000000000000000000000000000000000082169050919050565b600073ffffffffffffffffffffffffffffffffffffffff82169050919050565b6000819050919050565b82818337600083830152505050565b60005b8381101561380c5780820151818401526020810190506137f1565b8381111561381b576000848401525b50505050565b600061382c826137d5565b915060008214156138405761383f6138f7565b5b600182039050919050565b6000600282049050600182168061386357607f821691505b6020821081141561387757613876613955565b5b50919050565b613886826139fb565b810181811067ffffffffffffffff821117156138a5576138a46139b3565b5b80604052505050565b60006138b9826137d5565b91507fffffffffffffffffffffffffffffffffffffffffffffffffffffffffffffffff8214156138ec576138eb6138f7565b5b600182019050919050565b7f4e487b7100000000000000000000000000000000000000000000000000000000600052601160045260246000fd5b7f4e487b7100000000000000000000000000000000000000000000000000000000600052601260045260246000fd5b7f4e487b7100000000000000000000000000000000000000000000000000000000600052602260045260246000fd5b7f4e487b7100000000000000000000000000000000000000000000000000000000600052603260045260246000fd5b7f4e487b7100000000000000000000000000000000000000000000000000000000600052604160045260246000fd5b600080fd5b600080fd5b600080fd5b600080fd5b600080fd5b6000601f19601f8301169050919050565b7f537472696e67733a20686578206c656e67746820696e73756666696369656e74600082015250565b7f54686973206d65737361676520697320746f6f206269672e204d61782036373260008201527f2063686172616374657273000000000000000000000000000000000000000000602082015250565b7f4552433732313a207472616e7366657220746f206e6f6e20455243373231526560008201527f63656976657220696d706c656d656e7465720000000000000000000000000000602082015250565b7f3c215b43444154415b0000000000000000000000000000000000000000000000600082015250565b7f3c215b43444154415b426f64795d5d3e3c2f747370616e3e3c747370616e207860008201527f3d22302220793d2231322220666f6e742d7765696768743d223330302220737460208201527f726f6b652d77696474683d2230223e0000000000000000000000000000000000604082015250565b7f3c7376672069643d22654e53496b326546697161312220786d6c6e733d22687460008201527f74703a2f2f7777772e77332e6f72672f323030302f7376672220786d6c6e733a60208201527f786c696e6b3d22687474703a2f2f7777772e77332e6f72672f313939392f786c60408201527f696e6b222076696577426f783d2230203020333630203336302220736861706560608201527f2d72656e646572696e673d2267656f6d6574726963507265636973696f6e222060808201527f746578742d72656e646572696e673d2267656f6d65747269635072656369736960a08201527f6f6e22207374796c653d226261636b67726f756e642d636f6c6f723a7267626160c08201527f28332c302c32352c302e383429223e3c726563742077696474683d223336222060e08201527f6865696768743d223336222072783d2232222072793d223222207472616e73666101008201527f6f726d3d226d617472697828392e37373132382030203020392e3737313238206101208201527f342e313137303120342e313137303129222066696c6c3d2223656336333532226101408201527f207374726f6b652d77696474683d2230222f3e3c726563742077696474683d226101608201527f333622206865696768743d2233362e38383238222072783d2232222072793d226101808201527f3222207472616e73666f726d3d226d617472697828392e3330333233203020306101a08201527f20372e30323535372031332e3031372039302e3337383129222066696c6c3d226101c08201527f2366386339616322207374726f6b652d77696474683d2230222f3e3c726563746101e08201527f2077696474683d223333342e39313622206865696768743d2236392e393637396102008201527f222072783d223138222072793d22313822207472616e73666f726d3d227472616102208201527f6e736c6174652831322e353431392031322e3337383529222066696c6c3d22236102408201527f66386339616322207374726f6b652d77696474683d2230222f3e3c74657874206102608201527f64783d2230222064793d22302220666f6e742d66616d696c793d222671756f746102808201527f3b654e53496b326546697161313a3a3a427562626c6567756d2053616e7326716102a08201527f756f743b2220666f6e742d73697a653d2231312220666f6e742d7765696768746102c08201527f3d2234303022207472616e73666f726d3d227472616e736c6174652837352e396102e08201527f3332322034302e3031333129222066696c6c3d222361333439303822207374726103008201527f6f6b652d77696474683d2230223e3c747370616e20793d22302220666f6e742d6103208201527f66616d696c793d222671756f743b654e53496b326546697161313a3a3a4275626103408201527f626c6567756d2053616e732671756f743b2220666f6e742d73697a653d2231316103608201527f2220666f6e742d7765696768743d223430302220666f6e742d7374796c653d226103808201527f6e6f726d616c222066696c6c3d222361333439303822207374726f6b652d77696103a08201527f6474683d2230223e0000000000000000000000000000000000000000000000006103c082015250565b7f546f6b656e206372656174696f6e207265766572746564000000000000000000600082015250565b7f222c000000000000000000000000000000000000000000000000000000000000600082015250565b7f4552433732313a20746f6b656e20616c7265616479206d696e74656400000000600082015250565b7f4f6e65206f72206d6f7265206d6573736167657320686173206661696c65642060008201527f746f206172726976652c20616c6c20726563697069656e74732068617665207460208201527f6f20626520455243373231205265636569766572000000000000000000000000604082015250565b7f3c215b43444154415b46726f6d3a200000000000000000000000000000000000600082015250565b7f43616e27742073656e64206d65737361676520746f2073656c66000000000000600082015250565b7f5d5d3e3c2f747370616e3e3c747370616e20783d22302220793d22383422206660008201527f6f6e742d7765696768743d2233303022207374726f6b652d77696474683d223060208201527f223e000000000000000000000000000000000000000000000000000000000000604082015250565b7f3c215b43444154415b546f3a2000000000000000000000000000000000000000600082015250565b7f3c215b43444154415b446174653a200000000000000000000000000000000000600082015250565b7f205d5d3e3c2f747370616e3e3c747370616e20783d22302220793d223232222060008201527f666f6e742d66616d696c793d222671756f743b654e53496b326546697161313a60208201527f3a3a427562626c6567756d2053616e732671756f743b2220666f6e742d73697a60408201527f653d2231312220666f6e742d7765696768743d223430302220666f6e742d737460608201527f796c653d226e6f726d616c222066696c6c3d222361333439303822207374726f60808201527f6b652d77696474683d2230223e0000000000000000000000000000000000000060a082015250565b7f3c215b43444154415b5d5d3e3c2f747370616e3e3c2f746578743e3c7465787460008201527f2064783d2230222064793d22302220666f6e742d66616d696c793d222671756f60208201527f743b654e53496b326546697161313a3a3a427562626c6567756d2053616e732660408201527f71756f743b2220666f6e742d73697a653d2231302220666f6e742d776569676860608201527f743d2233303022207472616e73666f726d3d227472616e736c6174652833372e60808201527f38343238203333312e323329222066696c6c3d2223386334663035222073747260a08201527f6f6b652d77696474683d2230223e3c747370616e20793d22302220666f6e742d60c08201527f66616d696c793d222671756f743b654e53496b326546697161313a3a3a42756260e08201527f626c6567756d2053616e732671756f743b2220666f6e742d73697a653d2231306101008201527f2220666f6e742d7765696768743d223330302220666f6e742d7374796c653d226101208201527f6e6f726d616c222066696c6c3d222338633466303522207374726f6b652d77696101408201527f6474683d2230223e00000000000000000000000000000000000000000000000061016082015250565b7f5d5d3e3c2f747370616e3e3c2f746578743e3c746578742064783d223022206460008201527f793d22302220666f6e742d66616d696c793d222671756f743b654e53496b326560208201527f46697161313a3a3a427562626c6567756d2053616e732671756f743b2220666f60408201527f6e742d73697a653d2231322220666f6e742d7765696768743d2233303022207460608201527f72616e73666f726d3d227472616e736c6174652833372e38343237373420313260808201527f382e32343739333329222066696c6c3d222338633466303522207374726f6b6560a08201527f2d77696474683d2230223e3c747370616e20793d22302220666f6e742d77656960c08201527f6768743d2233303022207374726f6b652d77696474683d2230223e000000000060e082015250565b7f27654e53496b326546697161313a3a3a427562626c6567756d2053616e73273b60008201527f666f6e742d7374796c653a206e6f726d616c3b666f6e742d7765696768743a2060208201527f3430303b7372633a2075726c2868747470733a2f2f666f6e74732e677374617460408201527f69632e636f6d2f6c2f666f6e743f6b69743d415943537058625f5a39454f527660608201527f314d3551546a457a4d45746461483172624e5934785941436e33456634636a6760808201527f4374357577513964476f5a37353064634b4d6b4f6761556d376476307963754360a08201527f324c476737433973424e64516665484b677526736b65793d393037666366393660c08201527f323131633865376526763d7631362920666f726d61742827747275657479706560e08201527f27293b7d5d5d3e3c2f7374796c653e3c2f7376673e000000000000000000000061010082015250565b7f5d5d3e3c2f747370616e3e3c747370616e20783d22302220793d22363022206660008201527f6f6e742d7765696768743d2233303022207374726f6b652d77696474683d223060208201527f223e000000000000000000000000000000000000000000000000000000000000604082015250565b7f4552433732313a2061646472657373207a65726f206973206e6f74206120766160008201527f6c6964206f776e65720000000000000000000000000000000000000000000000602082015250565b7f5d5d3e3c2f747370616e3e3c747370616e20783d22302220793d22313334222060008201527f666f6e742d7765696768743d2233303022207374726f6b652d77696474683d2260208201527f30223e0000000000000000000000000000000000000000000000000000000000604082015250565b7f22696d616765223a2022646174613a696d6167652f7376672b786d6c3b62617360008201527f6536342c00000000000000000000000000000000000000000000000000000000602082015250565b7f5d5d3e3c2f747370616e3e3c747370616e20783d22302220793d22313038222060008201527f666f6e742d7765696768743d2233303022207374726f6b652d77696474683d2260208201527f30223e0000000000000000000000000000000000000000000000000000000000604082015250565b7f5d5d3e3c2f747370616e3e3c747370616e20783d22302220793d22313230222060008201527f666f6e742d7765696768743d2233303022207374726f6b652d77696474683d2260208201527f30223e0000000000000000000000000000000000000000000000000000000000604082015250565b7f4552433732313a206d696e7420746f20746865207a65726f2061646472657373600082015250565b7f7d00000000000000000000000000000000000000000000000000000000000000600082015250565b7f5d5d3e3c2f747370616e3e3c747370616e20783d22302220793d22313122206660008201527f6f6e742d66616d696c793d222671756f743b654e53496b326546697161313a3a60208201527f3a427562626c6567756d2053616e732671756f743b2220666f6e742d73697a6560408201527f3d2231312220666f6e742d7765696768743d223430302220666f6e742d73747960608201527f6c653d226e6f726d616c222066696c6c3d222361333439303822207374726f6b60808201527f652d77696474683d2230223e000000000000000000000000000000000000000060a082015250565b7f3c7374796c653e3c215b43444154415b40666f6e742d66616365207b666f6e7460008201527f2d66616d696c793a000000000000000000000000000000000000000000000000602082015250565b7f5d5d3e3c2f747370616e3e3c747370616e20783d22302220793d22343822206660008201527f6f6e742d7765696768743d2233303022207374726f6b652d77696474683d223060208201527f223e000000000000000000000000000000000000000000000000000000000000604082015250565b7f4d61782031303020757365722070657220626174636800000000000000000000600082015250565b7f7b00000000000000000000000000000000000000000000000000000000000000600082015250565b7f4552433732313a20696e76616c696420746f6b656e2049440000000000000000600082015250565b7f5d5d3e3c2f747370616e3e3c747370616e20783d22302220793d22393622206660008201527f6f6e742d7765696768743d2233303022207374726f6b652d77696474683d223060208201527f223e000000000000000000000000000000000000000000000000000000000000604082015250565b7f646174613a6170706c69636174696f6e2f6a736f6e3b6261736536342c000000600082015250565b7f3c215b43444154415b4d736756616c75653a203130303030303030303030303060008201527f3030303030305d5d3e3c2f747370616e3e3c2f746578743e3c7265637420776960208201527f6474683d223130332e35333122206865696768743d2232332e3239343622207260408201527f783d223131222072793d22313122207472616e73666f726d3d226d617472697860608201527f28312e312030203020312e3232323232203232382e343737203331342e34373760808201527f29222066696c6c3d222366643864303922207374726f6b653d2272676261283560a08201527f362c36362c362c302e3229222f3e3c656c6c697073652072783d2232332e383460c08201527f3938222072793d2231312e3536373922207472616e73666f726d3d226d61747260e08201527f697828312e303430393220302e3633383439382d2e37313134323820312e31356101008201527f3938322034362e303732352034352e35353129222066696c6c3d2223656336336101208201527f353222207374726f6b652d77696474683d2230222f3e3c7061746820643d224d6101408201527f33332e3132353735362c35352e313135353536712e3035363736342c302c2e326101608201527f38333831382d382e313733393633632d362e3030323133392e3031363835382d6101808201527f31322e32303132342d332e3837343438362d31322e3136323831362d372e39346101a08201527f363930392d2e3430383032362d362e3432313433342c392e3131353036362d386101c08201527f2e3536333934322c31372e3332383330372d362e32343463322e3732383233356101e08201527f2c312e3236343038322c342e3830363034362c372e3139393333392c352e33396102008201527f323534352c31302e393838393339712e3039303231392e3538323934332c342e6102208201527f3038363938312d31302e353334383363312e3836373030342d2e3237363739316102408201527f2c352e3534313332372d2e3431333334362c362e3735343837322c3076392e336102608201527f303932333663372e3133383532392d2e3031353735342c31362e3031343937366102808201527f2c332e3834333738362c31362e3038383737392c392e3330393233352e3434366102a08201527f3530362c362e3831333239392d31322e3334353138352c382e3739303334362d6102c08201527f32322e30343839362c372e36303633323763312e3730383631352d332e3037386102e08201527f3037372c312e3630303930312d31322e37343635332e3536373633362d31382e6103008201527f3738383736322d332e3137393839382c372e3232323534322d342e33353133386103208201527f392c31302e3533383730372d332e3937333435342c31302e3333303938312e316103408201527f31313233342d2e3036313133382d312e3735393637332e3936343938322d322e6103608201527f3636373839312d2e313730323931712d2e3930383231382d312e3133353237336103808201527f2d342e3230303530382d31312e3830363833356c2d2e3733323239312c31362e6103a08201527f383032303334632d322e3130333536362e3138333435362d322e37353835392e6103c08201527f3439383435332d342e3731373031382d2e3638313136325a22207472616e73666103e08201527f6f726d3d227472616e736c617465283020302e30303030303129222066696c6c6104008201527f3d222366386339616322207374726f6b653d22726762612836332c38372c31336104208201527f352c302922207374726f6b652d77696474683d22302e3732222f3e3c746578746104408201527f2064783d2230222064793d22302220666f6e742d66616d696c793d222671756f6104608201527f743b65366a6f5051654c307863313a3a3a427562626c6567756d2053616e73266104808201527f71756f743b2220666f6e742d73697a653d2231342220666f6e742d77656967686104a08201527f743d2234303022207472616e73666f726d3d227472616e736c617465283234316104c08201527f2e3931203333322e33353329222066696c6c3d222337353338303322207374726104e08201527f6f6b652d77696474683d2230223e3c747370616e20793d22302220666f6e742d6105008201527f66616d696c793d222671756f743b65366a6f5051654c307863313a3a3a4275626105208201527f626c6567756d2053616e732671756f743b2220666f6e742d73697a653d2231346105408201527f2220666f6e742d7765696768743d223430302220666f6e742d7374796c653d226105608201527f6e6f726d616c222066696c6c3d222337353338303322207374726f6b652d77696105808201527f6474683d2230223e3c215b43444154415b5265706c7920617420706d732e696f6105a08201527f215d5d3e3c2f747370616e3e3c2f746578743e3c7061746820643d224d33332e6105c08201527f3430393537342c33362e30353238313276372e363836383132632d332e3734376105e08201527f3739312d2e3130313433372d372e3439383132342d322e3437363031312d372e6106008201527f35303739342d342e3734343933392e3033353931372d322e32303838362c332e6106208201527f3537313033342d332e3833343531352c372e3232343132322d332e313330346c6106408201527f2e3238333831382e3138383532375a222066696c6c3d222365633633353222206106608201527f7374726f6b653d22726762612836332c38372c3133352c302922207374726f6b6106808201527f652d77696474683d22302e3732222f3e3c7061746820643d224d35342e3830396106a08201527f3436332c34362e3934313539346c2e39323735322c382e38353531323563372e6106c08201527f3932383838372e3030373136352c392e3734313833362d322e3333343139332c6106e08201527f392e332d332e3937333435342d2e3738393330322d332e3135373635382d352e6107008201527f3835333438372d352e3335383131382d392e37362d342e383831363731682d2e6107208201527f3436373532222066696c6c3d222365633633353222207374726f6b653d2272676107408201527f62612836332c38372c3133352c302922207374726f6b652d77696474683d22306107608201527f2e3732222f3e000000000000000000000000000000000000000000000000000061078082015250565b7f226e616d65223a20224d65737361676520230000000000000000000000000000600082015250565b7f5d5d3e3c2f747370616e3e3c747370616e20783d22302220793d22333622206660008201527f6f6e742d7765696768743d2233303022207374726f6b652d77696474683d223060208201527f223e000000000000000000000000000000000000000000000000000000000000604082015250565b7f226465736372697074696f6e223a2022566973697420706d732e696f22000000600082015250565b7f5d5d3e3c2f747370616e3e3c747370616e20783d22302220793d22313436222060008201527f666f6e742d7765696768743d2233303022207374726f6b652d77696474683d2260208201527f30223e0000000000000000000000000000000000000000000000000000000000604082015250565b7f5d5d3e3c2f747370616e3e3c747370616e20783d22302220793d22373222206660008201527f6f6e742d7765696768743d2233303022207374726f6b652d77696474683d223060208201527f223e000000000000000000000000000000000000000000000000000000000000604082015250565b7f5d5d3e3c2f747370616e3e3c747370616e20783d22302220793d22323422206660008201527f6f6e742d7765696768743d2233303022207374726f6b652d77696474683d223060208201527f223e000000000000000000000000000000000000000000000000000000000000604082015250565b61586e8161376b565b811461587957600080fd5b50565b61588581613789565b811461589057600080fd5b50565b61589c816137d5565b81146158a757600080fd5b5056fe4142434445464748494a4b4c4d4e4f505152535455565758595a6162636465666768696a6b6c6d6e6f707172737475767778797a303132333435363738392b2fa2646970667358221220d241b8a41e5b63f964d112b443cd22222d6f4a9b4348a7852cc4713a749227e364736f6c63430008070033",
			"opcodes": "PUSH1 0x80 PUSH1 0x40 MSTORE PUSH1 0x30 PUSH1 0x6 SSTORE CALLVALUE DUP1 ISZERO PUSH3 0x16 JUMPI PUSH1 0x0 DUP1 REVERT JUMPDEST POP PUSH1 0x40 MLOAD DUP1 PUSH1 0x40 ADD PUSH1 0x40 MSTORE DUP1 PUSH1 0xE DUP2 MSTORE PUSH1 0x20 ADD PUSH32 0x506F6C794D736753657276696365000000000000000000000000000000000000 DUP2 MSTORE POP PUSH1 0x40 MLOAD DUP1 PUSH1 0x40 ADD PUSH1 0x40 MSTORE DUP1 PUSH1 0x3 DUP2 MSTORE PUSH1 0x20 ADD PUSH32 0x504D530000000000000000000000000000000000000000000000000000000000 DUP2 MSTORE POP DUP2 PUSH1 0x0 SWAP1 DUP1 MLOAD SWAP1 PUSH1 0x20 ADD SWAP1 PUSH3 0x9B SWAP3 SWAP2 SWAP1 PUSH3 0xBD JUMP JUMPDEST POP DUP1 PUSH1 0x1 SWAP1 DUP1 MLOAD SWAP1 PUSH1 0x20 ADD SWAP1 PUSH3 0xB4 SWAP3 SWAP2 SWAP1 PUSH3 0xBD JUMP JUMPDEST POP POP POP PUSH3 0x1D2 JUMP JUMPDEST DUP3 DUP1 SLOAD PUSH3 0xCB SWAP1 PUSH3 0x16D JUMP JUMPDEST SWAP1 PUSH1 0x0 MSTORE PUSH1 0x20 PUSH1 0x0 KECCAK256 SWAP1 PUSH1 0x1F ADD PUSH1 0x20 SWAP1 DIV DUP2 ADD SWAP3 DUP3 PUSH3 0xEF JUMPI PUSH1 0x0 DUP6 SSTORE PUSH3 0x13B JUMP JUMPDEST DUP3 PUSH1 0x1F LT PUSH3 0x10A JUMPI DUP1 MLOAD PUSH1 0xFF NOT AND DUP4 DUP1 ADD OR DUP6 SSTORE PUSH3 0x13B JUMP JUMPDEST DUP3 DUP1 ADD PUSH1 0x1 ADD DUP6 SSTORE DUP3 ISZERO PUSH3 0x13B JUMPI SWAP2 DUP3 ADD JUMPDEST DUP3 DUP2 GT ISZERO PUSH3 0x13A JUMPI DUP3 MLOAD DUP3 SSTORE SWAP2 PUSH1 0x20 ADD SWAP2 SWAP1 PUSH1 0x1 ADD SWAP1 PUSH3 0x11D JUMP JUMPDEST JUMPDEST POP SWAP1 POP PUSH3 0x14A SWAP2 SWAP1 PUSH3 0x14E JUMP JUMPDEST POP SWAP1 JUMP JUMPDEST JUMPDEST DUP1 DUP3 GT ISZERO PUSH3 0x169 JUMPI PUSH1 0x0 DUP2 PUSH1 0x0 SWAP1 SSTORE POP PUSH1 0x1 ADD PUSH3 0x14F JUMP JUMPDEST POP SWAP1 JUMP JUMPDEST PUSH1 0x0 PUSH1 0x2 DUP3 DIV SWAP1 POP PUSH1 0x1 DUP3 AND DUP1 PUSH3 0x186 JUMPI PUSH1 0x7F DUP3 AND SWAP2 POP JUMPDEST PUSH1 0x20 DUP3 LT DUP2 EQ ISZERO PUSH3 0x19D JUMPI PUSH3 0x19C PUSH3 0x1A3 JUMP JUMPDEST JUMPDEST POP SWAP2 SWAP1 POP JUMP JUMPDEST PUSH32 0x4E487B7100000000000000000000000000000000000000000000000000000000 PUSH1 0x0 MSTORE PUSH1 0x22 PUSH1 0x4 MSTORE PUSH1 0x24 PUSH1 0x0 REVERT JUMPDEST PUSH2 0x5920 DUP1 PUSH3 0x1E2 PUSH1 0x0 CODECOPY PUSH1 0x0 RETURN INVALID PUSH1 0x80 PUSH1 0x40 MSTORE PUSH1 0x4 CALLDATASIZE LT PUSH2 0xC2 JUMPI PUSH1 0x0 CALLDATALOAD PUSH1 0xE0 SHR DUP1 PUSH4 0x70A08231 GT PUSH2 0x7F JUMPI DUP1 PUSH4 0x95D89B41 GT PUSH2 0x59 JUMPI DUP1 PUSH4 0x95D89B41 EQ PUSH2 0x2C8 JUMPI DUP1 PUSH4 0xAD75C91D EQ PUSH2 0x2F3 JUMPI DUP1 PUSH4 0xC87B56DD EQ PUSH2 0x330 JUMPI DUP1 PUSH4 0xD088DB40 EQ PUSH2 0x36D JUMPI PUSH2 0xC2 JUMP JUMPDEST DUP1 PUSH4 0x70A08231 EQ PUSH2 0x211 JUMPI DUP1 PUSH4 0x74EECAE5 EQ PUSH2 0x24E JUMPI DUP1 PUSH4 0x8FFAC192 EQ PUSH2 0x28B JUMPI PUSH2 0xC2 JUMP JUMPDEST DUP1 PUSH4 0x1FFC9A7 EQ PUSH2 0xC7 JUMPI DUP1 PUSH4 0x6FDDE03 EQ PUSH2 0x104 JUMPI DUP1 PUSH4 0x17902601 EQ PUSH2 0x12F JUMPI DUP1 PUSH4 0x18160DDD EQ PUSH2 0x16C JUMPI DUP1 PUSH4 0x5AB7ECB0 EQ PUSH2 0x197 JUMPI DUP1 PUSH4 0x6352211E EQ PUSH2 0x1D4 JUMPI JUMPDEST PUSH1 0x0 DUP1 REVERT JUMPDEST CALLVALUE DUP1 ISZERO PUSH2 0xD3 JUMPI PUSH1 0x0 DUP1 REVERT JUMPDEST POP PUSH2 0xEE PUSH1 0x4 DUP1 CALLDATASIZE SUB DUP2 ADD SWAP1 PUSH2 0xE9 SWAP2 SWAP1 PUSH2 0x2705 JUMP JUMPDEST PUSH2 0x389 JUMP JUMPDEST PUSH1 0x40 MLOAD PUSH2 0xFB SWAP2 SWAP1 PUSH2 0x336D JUMP JUMPDEST PUSH1 0x40 MLOAD DUP1 SWAP2 SUB SWAP1 RETURN JUMPDEST CALLVALUE DUP1 ISZERO PUSH2 0x110 JUMPI PUSH1 0x0 DUP1 REVERT JUMPDEST POP PUSH2 0x119 PUSH2 0x46B JUMP JUMPDEST PUSH1 0x40 MLOAD PUSH2 0x126 SWAP2 SWAP1 PUSH2 0x3388 JUMP JUMPDEST PUSH1 0x40 MLOAD DUP1 SWAP2 SUB SWAP1 RETURN JUMPDEST CALLVALUE DUP1 ISZERO PUSH2 0x13B JUMPI PUSH1 0x0 DUP1 REVERT JUMPDEST POP PUSH2 0x156 PUSH1 0x4 DUP1 CALLDATASIZE SUB DUP2 ADD SWAP1 PUSH2 0x151 SWAP2 SWAP1 PUSH2 0x275F JUMP JUMPDEST PUSH2 0x4FD JUMP JUMPDEST PUSH1 0x40 MLOAD PUSH2 0x163 SWAP2 SWAP1 PUSH2 0x350A JUMP JUMPDEST PUSH1 0x40 MLOAD DUP1 SWAP2 SUB SWAP1 RETURN JUMPDEST CALLVALUE DUP1 ISZERO PUSH2 0x178 JUMPI PUSH1 0x0 DUP1 REVERT JUMPDEST POP PUSH2 0x181 PUSH2 0x668 JUMP JUMPDEST PUSH1 0x40 MLOAD PUSH2 0x18E SWAP2 SWAP1 PUSH2 0x352C JUMP JUMPDEST PUSH1 0x40 MLOAD DUP1 SWAP2 SUB SWAP1 RETURN JUMPDEST CALLVALUE DUP1 ISZERO PUSH2 0x1A3 JUMPI PUSH1 0x0 DUP1 REVERT JUMPDEST POP PUSH2 0x1BE PUSH1 0x4 DUP1 CALLDATASIZE SUB DUP2 ADD SWAP1 PUSH2 0x1B9 SWAP2 SWAP1 PUSH2 0x268D JUMP JUMPDEST PUSH2 0x672 JUMP JUMPDEST PUSH1 0x40 MLOAD PUSH2 0x1CB SWAP2 SWAP1 PUSH2 0x336D JUMP JUMPDEST PUSH1 0x40 MLOAD DUP1 SWAP2 SUB SWAP1 RETURN JUMPDEST CALLVALUE DUP1 ISZERO PUSH2 0x1E0 JUMPI PUSH1 0x0 DUP1 REVERT JUMPDEST POP PUSH2 0x1FB PUSH1 0x4 DUP1 CALLDATASIZE SUB DUP2 ADD SWAP1 PUSH2 0x1F6 SWAP2 SWAP1 PUSH2 0x275F JUMP JUMPDEST PUSH2 0x78B JUMP JUMPDEST PUSH1 0x40 MLOAD PUSH2 0x208 SWAP2 SWAP1 PUSH2 0x32E4 JUMP JUMPDEST PUSH1 0x40 MLOAD DUP1 SWAP2 SUB SWAP1 RETURN JUMPDEST CALLVALUE DUP1 ISZERO PUSH2 0x21D JUMPI PUSH1 0x0 DUP1 REVERT JUMPDEST POP PUSH2 0x238 PUSH1 0x4 DUP1 CALLDATASIZE SUB DUP2 ADD SWAP1 PUSH2 0x233 SWAP2 SWAP1 PUSH2 0x2584 JUMP JUMPDEST PUSH2 0x812 JUMP JUMPDEST PUSH1 0x40 MLOAD PUSH2 0x245 SWAP2 SWAP1 PUSH2 0x352C JUMP JUMPDEST PUSH1 0x40 MLOAD DUP1 SWAP2 SUB SWAP1 RETURN JUMPDEST CALLVALUE DUP1 ISZERO PUSH2 0x25A JUMPI PUSH1 0x0 DUP1 REVERT JUMPDEST POP PUSH2 0x275 PUSH1 0x4 DUP1 CALLDATASIZE SUB DUP2 ADD SWAP1 PUSH2 0x270 SWAP2 SWAP1 PUSH2 0x2584 JUMP JUMPDEST PUSH2 0x8CA JUMP JUMPDEST PUSH1 0x40 MLOAD PUSH2 0x282 SWAP2 SWAP1 PUSH2 0x352C JUMP JUMPDEST PUSH1 0x40 MLOAD DUP1 SWAP2 SUB SWAP1 RETURN JUMPDEST CALLVALUE DUP1 ISZERO PUSH2 0x297 JUMPI PUSH1 0x0 DUP1 REVERT JUMPDEST POP PUSH2 0x2B2 PUSH1 0x4 DUP1 CALLDATASIZE SUB DUP2 ADD SWAP1 PUSH2 0x2AD SWAP2 SWAP1 PUSH2 0x25B1 JUMP JUMPDEST PUSH2 0x913 JUMP JUMPDEST PUSH1 0x40 MLOAD PUSH2 0x2BF SWAP2 SWAP1 PUSH2 0x334B JUMP JUMPDEST PUSH1 0x40 MLOAD DUP1 SWAP2 SUB SWAP1 RETURN JUMPDEST CALLVALUE DUP1 ISZERO PUSH2 0x2D4 JUMPI PUSH1 0x0 DUP1 REVERT JUMPDEST POP PUSH2 0x2DD PUSH2 0xB50 JUMP JUMPDEST PUSH1 0x40 MLOAD PUSH2 0x2EA SWAP2 SWAP1 PUSH2 0x3388 JUMP JUMPDEST PUSH1 0x40 MLOAD DUP1 SWAP2 SUB SWAP1 RETURN JUMPDEST CALLVALUE DUP1 ISZERO PUSH2 0x2FF JUMPI PUSH1 0x0 DUP1 REVERT JUMPDEST POP PUSH2 0x31A PUSH1 0x4 DUP1 CALLDATASIZE SUB DUP2 ADD SWAP1 PUSH2 0x315 SWAP2 SWAP1 PUSH2 0x264D JUMP JUMPDEST PUSH2 0xBE2 JUMP JUMPDEST PUSH1 0x40 MLOAD PUSH2 0x327 SWAP2 SWAP1 PUSH2 0x352C JUMP JUMPDEST PUSH1 0x40 MLOAD DUP1 SWAP2 SUB SWAP1 RETURN JUMPDEST CALLVALUE DUP1 ISZERO PUSH2 0x33C JUMPI PUSH1 0x0 DUP1 REVERT JUMPDEST POP PUSH2 0x357 PUSH1 0x4 DUP1 CALLDATASIZE SUB DUP2 ADD SWAP1 PUSH2 0x352 SWAP2 SWAP1 PUSH2 0x275F JUMP JUMPDEST PUSH2 0xC3D JUMP JUMPDEST PUSH1 0x40 MLOAD PUSH2 0x364 SWAP2 SWAP1 PUSH2 0x3388 JUMP JUMPDEST PUSH1 0x40 MLOAD DUP1 SWAP2 SUB SWAP1 RETURN JUMPDEST PUSH2 0x387 PUSH1 0x4 DUP1 CALLDATASIZE SUB DUP2 ADD SWAP1 PUSH2 0x382 SWAP2 SWAP1 PUSH2 0x25F1 JUMP JUMPDEST PUSH2 0xCD2 JUMP JUMPDEST STOP JUMPDEST PUSH1 0x0 PUSH32 0x13F2A32F00000000000000000000000000000000000000000000000000000000 PUSH28 0xFFFFFFFFFFFFFFFFFFFFFFFFFFFFFFFFFFFFFFFFFFFFFFFFFFFFFFFF NOT AND DUP3 PUSH28 0xFFFFFFFFFFFFFFFFFFFFFFFFFFFFFFFFFFFFFFFFFFFFFFFFFFFFFFFF NOT AND EQ DUP1 PUSH2 0x454 JUMPI POP PUSH32 0x5B5E139F00000000000000000000000000000000000000000000000000000000 PUSH28 0xFFFFFFFFFFFFFFFFFFFFFFFFFFFFFFFFFFFFFFFFFFFFFFFFFFFFFFFF NOT AND DUP3 PUSH28 0xFFFFFFFFFFFFFFFFFFFFFFFFFFFFFFFFFFFFFFFFFFFFFFFFFFFFFFFF NOT AND EQ JUMPDEST DUP1 PUSH2 0x464 JUMPI POP PUSH2 0x463 DUP3 PUSH2 0xDD4 JUMP JUMPDEST JUMPDEST SWAP1 POP SWAP2 SWAP1 POP JUMP JUMPDEST PUSH1 0x60 PUSH1 0x0 DUP1 SLOAD PUSH2 0x47A SWAP1 PUSH2 0x384B JUMP JUMPDEST DUP1 PUSH1 0x1F ADD PUSH1 0x20 DUP1 SWAP2 DIV MUL PUSH1 0x20 ADD PUSH1 0x40 MLOAD SWAP1 DUP2 ADD PUSH1 0x40 MSTORE DUP1 SWAP3 SWAP2 SWAP1 DUP2 DUP2 MSTORE PUSH1 0x20 ADD DUP3 DUP1 SLOAD PUSH2 0x4A6 SWAP1 PUSH2 0x384B JUMP JUMPDEST DUP1 ISZERO PUSH2 0x4F3 JUMPI DUP1 PUSH1 0x1F LT PUSH2 0x4C8 JUMPI PUSH2 0x100 DUP1 DUP4 SLOAD DIV MUL DUP4 MSTORE SWAP2 PUSH1 0x20 ADD SWAP2 PUSH2 0x4F3 JUMP JUMPDEST DUP3 ADD SWAP2 SWAP1 PUSH1 0x0 MSTORE PUSH1 0x20 PUSH1 0x0 KECCAK256 SWAP1 JUMPDEST DUP2 SLOAD DUP2 MSTORE SWAP1 PUSH1 0x1 ADD SWAP1 PUSH1 0x20 ADD DUP1 DUP4 GT PUSH2 0x4D6 JUMPI DUP3 SWAP1 SUB PUSH1 0x1F AND DUP3 ADD SWAP2 JUMPDEST POP POP POP POP POP SWAP1 POP SWAP1 JUMP JUMPDEST PUSH2 0x505 PUSH2 0x2332 JUMP JUMPDEST PUSH1 0xA PUSH1 0x0 DUP4 DUP2 MSTORE PUSH1 0x20 ADD SWAP1 DUP2 MSTORE PUSH1 0x20 ADD PUSH1 0x0 KECCAK256 PUSH1 0x40 MLOAD DUP1 PUSH1 0x60 ADD PUSH1 0x40 MSTORE SWAP1 DUP2 PUSH1 0x0 DUP3 ADD PUSH1 0x0 SWAP1 SLOAD SWAP1 PUSH2 0x100 EXP SWAP1 DIV PUSH20 0xFFFFFFFFFFFFFFFFFFFFFFFFFFFFFFFFFFFFFFFF AND PUSH20 0xFFFFFFFFFFFFFFFFFFFFFFFFFFFFFFFFFFFFFFFF AND PUSH20 0xFFFFFFFFFFFFFFFFFFFFFFFFFFFFFFFFFFFFFFFF AND DUP2 MSTORE PUSH1 0x20 ADD PUSH1 0x1 DUP3 ADD PUSH1 0x0 SWAP1 SLOAD SWAP1 PUSH2 0x100 EXP SWAP1 DIV PUSH20 0xFFFFFFFFFFFFFFFFFFFFFFFFFFFFFFFFFFFFFFFF AND PUSH20 0xFFFFFFFFFFFFFFFFFFFFFFFFFFFFFFFFFFFFFFFF AND PUSH20 0xFFFFFFFFFFFFFFFFFFFFFFFFFFFFFFFFFFFFFFFF AND DUP2 MSTORE PUSH1 0x20 ADD PUSH1 0x2 DUP3 ADD DUP1 SLOAD PUSH2 0x5DF SWAP1 PUSH2 0x384B JUMP JUMPDEST DUP1 PUSH1 0x1F ADD PUSH1 0x20 DUP1 SWAP2 DIV MUL PUSH1 0x20 ADD PUSH1 0x40 MLOAD SWAP1 DUP2 ADD PUSH1 0x40 MSTORE DUP1 SWAP3 SWAP2 SWAP1 DUP2 DUP2 MSTORE PUSH1 0x20 ADD DUP3 DUP1 SLOAD PUSH2 0x60B SWAP1 PUSH2 0x384B JUMP JUMPDEST DUP1 ISZERO PUSH2 0x658 JUMPI DUP1 PUSH1 0x1F LT PUSH2 0x62D JUMPI PUSH2 0x100 DUP1 DUP4 SLOAD DIV MUL DUP4 MSTORE SWAP2 PUSH1 0x20 ADD SWAP2 PUSH2 0x658 JUMP JUMPDEST DUP3 ADD SWAP2 SWAP1 PUSH1 0x0 MSTORE PUSH1 0x20 PUSH1 0x0 KECCAK256 SWAP1 JUMPDEST DUP2 SLOAD DUP2 MSTORE SWAP1 PUSH1 0x1 ADD SWAP1 PUSH1 0x20 ADD DUP1 DUP4 GT PUSH2 0x63B JUMPI DUP3 SWAP1 SUB PUSH1 0x1F AND DUP3 ADD SWAP2 JUMPDEST POP POP POP POP POP DUP2 MSTORE POP POP SWAP1 POP SWAP2 SWAP1 POP JUMP JUMPDEST PUSH1 0x0 PUSH1 0x7 SLOAD SWAP1 POP SWAP1 JUMP JUMPDEST PUSH1 0x0 PUSH2 0x2A0 DUP3 MLOAD LT PUSH2 0x6B9 JUMPI PUSH1 0x40 MLOAD PUSH32 0x8C379A000000000000000000000000000000000000000000000000000000000 DUP2 MSTORE PUSH1 0x4 ADD PUSH2 0x6B0 SWAP1 PUSH2 0x33CA JUMP JUMPDEST PUSH1 0x40 MLOAD DUP1 SWAP2 SUB SWAP1 REVERT JUMPDEST PUSH1 0x64 DUP4 MLOAD LT PUSH2 0x6FD JUMPI PUSH1 0x40 MLOAD PUSH32 0x8C379A000000000000000000000000000000000000000000000000000000000 DUP2 MSTORE PUSH1 0x4 ADD PUSH2 0x6F4 SWAP1 PUSH2 0x34CA JUMP JUMPDEST PUSH1 0x40 MLOAD DUP1 SWAP2 SUB SWAP1 REVERT JUMPDEST PUSH1 0x0 JUMPDEST DUP4 MLOAD DUP2 LT ISZERO PUSH2 0x780 JUMPI PUSH2 0x72E CALLER DUP6 DUP4 DUP2 MLOAD DUP2 LT PUSH2 0x720 JUMPI PUSH2 0x71F PUSH2 0x3984 JUMP JUMPDEST JUMPDEST PUSH1 0x20 MUL PUSH1 0x20 ADD ADD MLOAD DUP6 PUSH2 0xE3E JUMP JUMPDEST PUSH2 0x76D JUMPI PUSH1 0x40 MLOAD PUSH32 0x8C379A000000000000000000000000000000000000000000000000000000000 DUP2 MSTORE PUSH1 0x4 ADD PUSH2 0x764 SWAP1 PUSH2 0x344A JUMP JUMPDEST PUSH1 0x40 MLOAD DUP1 SWAP2 SUB SWAP1 REVERT JUMPDEST DUP1 DUP1 PUSH2 0x778 SWAP1 PUSH2 0x38AE JUMP JUMPDEST SWAP2 POP POP PUSH2 0x700 JUMP JUMPDEST POP PUSH1 0x1 SWAP1 POP SWAP3 SWAP2 POP POP JUMP JUMPDEST PUSH1 0x0 DUP1 PUSH2 0x797 DUP4 PUSH2 0x1075 JUMP JUMPDEST SWAP1 POP PUSH1 0x0 PUSH20 0xFFFFFFFFFFFFFFFFFFFFFFFFFFFFFFFFFFFFFFFF AND DUP2 PUSH20 0xFFFFFFFFFFFFFFFFFFFFFFFFFFFFFFFFFFFFFFFF AND EQ ISZERO PUSH2 0x809 JUMPI PUSH1 0x40 MLOAD PUSH32 0x8C379A000000000000000000000000000000000000000000000000000000000 DUP2 MSTORE PUSH1 0x4 ADD PUSH2 0x800 SWAP1 PUSH2 0x34EA JUMP JUMPDEST PUSH1 0x40 MLOAD DUP1 SWAP2 SUB SWAP1 REVERT JUMPDEST DUP1 SWAP2 POP POP SWAP2 SWAP1 POP JUMP JUMPDEST PUSH1 0x0 DUP1 PUSH20 0xFFFFFFFFFFFFFFFFFFFFFFFFFFFFFFFFFFFFFFFF AND DUP3 PUSH20 0xFFFFFFFFFFFFFFFFFFFFFFFFFFFFFFFFFFFFFFFF AND EQ ISZERO PUSH2 0x883 JUMPI PUSH1 0x40 MLOAD PUSH32 0x8C379A000000000000000000000000000000000000000000000000000000000 DUP2 MSTORE PUSH1 0x4 ADD PUSH2 0x87A SWAP1 PUSH2 0x348A JUMP JUMPDEST PUSH1 0x40 MLOAD DUP1 SWAP2 SUB SWAP1 REVERT JUMPDEST PUSH1 0x3 PUSH1 0x0 DUP4 PUSH20 0xFFFFFFFFFFFFFFFFFFFFFFFFFFFFFFFFFFFFFFFF AND PUSH20 0xFFFFFFFFFFFFFFFFFFFFFFFFFFFFFFFFFFFFFFFF AND DUP2 MSTORE PUSH1 0x20 ADD SWAP1 DUP2 MSTORE PUSH1 0x20 ADD PUSH1 0x0 KECCAK256 SLOAD SWAP1 POP SWAP2 SWAP1 POP JUMP JUMPDEST PUSH1 0x0 PUSH1 0x9 PUSH1 0x0 DUP4 PUSH20 0xFFFFFFFFFFFFFFFFFFFFFFFFFFFFFFFFFFFFFFFF AND PUSH20 0xFFFFFFFFFFFFFFFFFFFFFFFFFFFFFFFFFFFFFFFF AND DUP2 MSTORE PUSH1 0x20 ADD SWAP1 DUP2 MSTORE PUSH1 0x20 ADD PUSH1 0x0 KECCAK256 SLOAD SWAP1 POP SWAP2 SWAP1 POP JUMP JUMPDEST PUSH1 0x60 PUSH1 0x0 PUSH1 0x9 PUSH1 0x0 DUP6 PUSH20 0xFFFFFFFFFFFFFFFFFFFFFFFFFFFFFFFFFFFFFFFF AND PUSH20 0xFFFFFFFFFFFFFFFFFFFFFFFFFFFFFFFFFFFFFFFF AND DUP2 MSTORE PUSH1 0x20 ADD SWAP1 DUP2 MSTORE PUSH1 0x20 ADD PUSH1 0x0 KECCAK256 SLOAD PUSH8 0xFFFFFFFFFFFFFFFF DUP2 GT ISZERO PUSH2 0x970 JUMPI PUSH2 0x96F PUSH2 0x39B3 JUMP JUMPDEST JUMPDEST PUSH1 0x40 MLOAD SWAP1 DUP1 DUP3 MSTORE DUP1 PUSH1 0x20 MUL PUSH1 0x20 ADD DUP3 ADD PUSH1 0x40 MSTORE DUP1 ISZERO PUSH2 0x99E JUMPI DUP2 PUSH1 0x20 ADD PUSH1 0x20 DUP3 MUL DUP1 CALLDATASIZE DUP4 CALLDATACOPY DUP1 DUP3 ADD SWAP2 POP POP SWAP1 POP JUMPDEST POP SWAP1 POP PUSH1 0x0 PUSH1 0x1 SWAP1 POP JUMPDEST PUSH1 0x1 PUSH1 0x9 PUSH1 0x0 DUP8 PUSH20 0xFFFFFFFFFFFFFFFFFFFFFFFFFFFFFFFFFFFFFFFF AND PUSH20 0xFFFFFFFFFFFFFFFFFFFFFFFFFFFFFFFFFFFFFFFF AND DUP2 MSTORE PUSH1 0x20 ADD SWAP1 DUP2 MSTORE PUSH1 0x20 ADD PUSH1 0x0 KECCAK256 SLOAD PUSH2 0x9F4 SWAP2 SWAP1 PUSH2 0x3656 JUMP JUMPDEST DUP2 LT ISZERO PUSH2 0xB45 JUMPI DUP4 PUSH20 0xFFFFFFFFFFFFFFFFFFFFFFFFFFFFFFFFFFFFFFFF AND PUSH1 0xA PUSH1 0x0 PUSH1 0x8 PUSH1 0x0 DUP10 PUSH20 0xFFFFFFFFFFFFFFFFFFFFFFFFFFFFFFFFFFFFFFFF AND PUSH20 0xFFFFFFFFFFFFFFFFFFFFFFFFFFFFFFFFFFFFFFFF AND DUP2 MSTORE PUSH1 0x20 ADD SWAP1 DUP2 MSTORE PUSH1 0x20 ADD PUSH1 0x0 KECCAK256 PUSH1 0x0 DUP6 DUP2 MSTORE PUSH1 0x20 ADD SWAP1 DUP2 MSTORE PUSH1 0x20 ADD PUSH1 0x0 KECCAK256 SLOAD DUP2 MSTORE PUSH1 0x20 ADD SWAP1 DUP2 MSTORE PUSH1 0x20 ADD PUSH1 0x0 KECCAK256 PUSH1 0x1 ADD PUSH1 0x0 SWAP1 SLOAD SWAP1 PUSH2 0x100 EXP SWAP1 DIV PUSH20 0xFFFFFFFFFFFFFFFFFFFFFFFFFFFFFFFFFFFFFFFF AND PUSH20 0xFFFFFFFFFFFFFFFFFFFFFFFFFFFFFFFFFFFFFFFF AND EQ ISZERO PUSH2 0xB32 JUMPI PUSH1 0x8 PUSH1 0x0 DUP7 PUSH20 0xFFFFFFFFFFFFFFFFFFFFFFFFFFFFFFFFFFFFFFFF AND PUSH20 0xFFFFFFFFFFFFFFFFFFFFFFFFFFFFFFFFFFFFFFFF AND DUP2 MSTORE PUSH1 0x20 ADD SWAP1 DUP2 MSTORE PUSH1 0x20 ADD PUSH1 0x0 KECCAK256 PUSH1 0x0 DUP3 DUP2 MSTORE PUSH1 0x20 ADD SWAP1 DUP2 MSTORE PUSH1 0x20 ADD PUSH1 0x0 KECCAK256 SLOAD DUP3 PUSH1 0x1 DUP4 PUSH2 0xB14 SWAP2 SWAP1 PUSH2 0x3737 JUMP JUMPDEST DUP2 MLOAD DUP2 LT PUSH2 0xB25 JUMPI PUSH2 0xB24 PUSH2 0x3984 JUMP JUMPDEST JUMPDEST PUSH1 0x20 MUL PUSH1 0x20 ADD ADD DUP2 DUP2 MSTORE POP POP JUMPDEST DUP1 DUP1 PUSH2 0xB3D SWAP1 PUSH2 0x38AE JUMP JUMPDEST SWAP2 POP POP PUSH2 0x9A8 JUMP JUMPDEST POP DUP1 SWAP2 POP POP SWAP3 SWAP2 POP POP JUMP JUMPDEST PUSH1 0x60 PUSH1 0x1 DUP1 SLOAD PUSH2 0xB5F SWAP1 PUSH2 0x384B JUMP JUMPDEST DUP1 PUSH1 0x1F ADD PUSH1 0x20 DUP1 SWAP2 DIV MUL PUSH1 0x20 ADD PUSH1 0x40 MLOAD SWAP1 DUP2 ADD PUSH1 0x40 MSTORE DUP1 SWAP3 SWAP2 SWAP1 DUP2 DUP2 MSTORE PUSH1 0x20 ADD DUP3 DUP1 SLOAD PUSH2 0xB8B SWAP1 PUSH2 0x384B JUMP JUMPDEST DUP1 ISZERO PUSH2 0xBD8 JUMPI DUP1 PUSH1 0x1F LT PUSH2 0xBAD JUMPI PUSH2 0x100 DUP1 DUP4 SLOAD DIV MUL DUP4 MSTORE SWAP2 PUSH1 0x20 ADD SWAP2 PUSH2 0xBD8 JUMP JUMPDEST DUP3 ADD SWAP2 SWAP1 PUSH1 0x0 MSTORE PUSH1 0x20 PUSH1 0x0 KECCAK256 SWAP1 JUMPDEST DUP2 SLOAD DUP2 MSTORE SWAP1 PUSH1 0x1 ADD SWAP1 PUSH1 0x20 ADD DUP1 DUP4 GT PUSH2 0xBBB JUMPI DUP3 SWAP1 SUB PUSH1 0x1F AND DUP3 ADD SWAP2 JUMPDEST POP POP POP POP POP SWAP1 POP SWAP1 JUMP JUMPDEST PUSH1 0x0 PUSH1 0x8 PUSH1 0x0 DUP5 PUSH20 0xFFFFFFFFFFFFFFFFFFFFFFFFFFFFFFFFFFFFFFFF AND PUSH20 0xFFFFFFFFFFFFFFFFFFFFFFFFFFFFFFFFFFFFFFFF AND DUP2 MSTORE PUSH1 0x20 ADD SWAP1 DUP2 MSTORE PUSH1 0x20 ADD PUSH1 0x0 KECCAK256 PUSH1 0x0 DUP4 DUP2 MSTORE PUSH1 0x20 ADD SWAP1 DUP2 MSTORE PUSH1 0x20 ADD PUSH1 0x0 KECCAK256 SLOAD SWAP1 POP SWAP3 SWAP2 POP POP JUMP JUMPDEST PUSH1 0x60 PUSH1 0x0 PUSH2 0xC4A DUP4 PUSH2 0x10B2 JUMP JUMPDEST PUSH1 0x40 MLOAD PUSH1 0x20 ADD PUSH2 0xC5A SWAP2 SWAP1 PUSH2 0x2F3F JUMP JUMPDEST PUSH1 0x40 MLOAD PUSH1 0x20 DUP2 DUP4 SUB SUB DUP2 MSTORE SWAP1 PUSH1 0x40 MSTORE SWAP1 POP PUSH1 0x0 PUSH2 0xC76 DUP5 PUSH2 0x1678 JUMP JUMPDEST PUSH2 0xC7F DUP4 PUSH2 0x1750 JUMP JUMPDEST PUSH1 0x40 MLOAD PUSH1 0x20 ADD PUSH2 0xC90 SWAP3 SWAP2 SWAP1 PUSH2 0x3251 JUMP JUMPDEST PUSH1 0x40 MLOAD PUSH1 0x20 DUP2 DUP4 SUB SUB DUP2 MSTORE SWAP1 PUSH1 0x40 MSTORE SWAP1 POP PUSH2 0xCAA DUP2 PUSH2 0x1750 JUMP JUMPDEST PUSH1 0x40 MLOAD PUSH1 0x20 ADD PUSH2 0xCBA SWAP2 SWAP1 PUSH2 0x32C2 JUMP JUMPDEST PUSH1 0x40 MLOAD PUSH1 0x20 DUP2 DUP4 SUB SUB DUP2 MSTORE SWAP1 PUSH1 0x40 MSTORE SWAP3 POP POP POP SWAP2 SWAP1 POP JUMP JUMPDEST PUSH2 0x2A0 DUP2 MLOAD LT PUSH2 0xD17 JUMPI PUSH1 0x40 MLOAD PUSH32 0x8C379A000000000000000000000000000000000000000000000000000000000 DUP2 MSTORE PUSH1 0x4 ADD PUSH2 0xD0E SWAP1 PUSH2 0x33CA JUMP JUMPDEST PUSH1 0x40 MLOAD DUP1 SWAP2 SUB SWAP1 REVERT JUMPDEST CALLER PUSH20 0xFFFFFFFFFFFFFFFFFFFFFFFFFFFFFFFFFFFFFFFF AND DUP3 PUSH20 0xFFFFFFFFFFFFFFFFFFFFFFFFFFFFFFFFFFFFFFFF AND EQ ISZERO PUSH2 0xD86 JUMPI PUSH1 0x40 MLOAD PUSH32 0x8C379A000000000000000000000000000000000000000000000000000000000 DUP2 MSTORE PUSH1 0x4 ADD PUSH2 0xD7D SWAP1 PUSH2 0x346A JUMP JUMPDEST PUSH1 0x40 MLOAD DUP1 SWAP2 SUB SWAP1 REVERT JUMPDEST PUSH2 0xD91 CALLER DUP4 DUP4 PUSH2 0xE3E JUMP JUMPDEST PUSH2 0xDD0 JUMPI PUSH1 0x40 MLOAD PUSH32 0x8C379A000000000000000000000000000000000000000000000000000000000 DUP2 MSTORE PUSH1 0x4 ADD PUSH2 0xDC7 SWAP1 PUSH2 0x340A JUMP JUMPDEST PUSH1 0x40 MLOAD DUP1 SWAP2 SUB SWAP1 REVERT JUMPDEST POP POP JUMP JUMPDEST PUSH1 0x0 PUSH32 0x1FFC9A700000000000000000000000000000000000000000000000000000000 PUSH28 0xFFFFFFFFFFFFFFFFFFFFFFFFFFFFFFFFFFFFFFFFFFFFFFFFFFFFFFFF NOT AND DUP3 PUSH28 0xFFFFFFFFFFFFFFFFFFFFFFFFFFFFFFFFFFFFFFFFFFFFFFFFFFFFFFFF NOT AND EQ SWAP1 POP SWAP2 SWAP1 POP JUMP JUMPDEST PUSH1 0x0 PUSH1 0x1 PUSH1 0x9 PUSH1 0x0 DUP7 PUSH20 0xFFFFFFFFFFFFFFFFFFFFFFFFFFFFFFFFFFFFFFFF AND PUSH20 0xFFFFFFFFFFFFFFFFFFFFFFFFFFFFFFFFFFFFFFFF AND DUP2 MSTORE PUSH1 0x20 ADD SWAP1 DUP2 MSTORE PUSH1 0x20 ADD PUSH1 0x0 KECCAK256 PUSH1 0x0 DUP3 DUP3 SLOAD ADD SWAP3 POP POP DUP2 SWAP1 SSTORE POP PUSH1 0x1 PUSH1 0x7 PUSH1 0x0 DUP3 DUP3 SLOAD ADD SWAP3 POP POP DUP2 SWAP1 SSTORE POP PUSH1 0x0 PUSH1 0xA PUSH1 0x0 PUSH1 0x7 SLOAD DUP2 MSTORE PUSH1 0x20 ADD SWAP1 DUP2 MSTORE PUSH1 0x20 ADD PUSH1 0x0 KECCAK256 SWAP1 POP DUP5 DUP2 PUSH1 0x0 ADD PUSH1 0x0 PUSH2 0x100 EXP DUP2 SLOAD DUP2 PUSH20 0xFFFFFFFFFFFFFFFFFFFFFFFFFFFFFFFFFFFFFFFF MUL NOT AND SWAP1 DUP4 PUSH20 0xFFFFFFFFFFFFFFFFFFFFFFFFFFFFFFFFFFFFFFFF AND MUL OR SWAP1 SSTORE POP DUP4 DUP2 PUSH1 0x1 ADD PUSH1 0x0 PUSH2 0x100 EXP DUP2 SLOAD DUP2 PUSH20 0xFFFFFFFFFFFFFFFFFFFFFFFFFFFFFFFFFFFFFFFF MUL NOT AND SWAP1 DUP4 PUSH20 0xFFFFFFFFFFFFFFFFFFFFFFFFFFFFFFFFFFFFFFFF AND MUL OR SWAP1 SSTORE POP DUP3 DUP2 PUSH1 0x2 ADD SWAP1 DUP1 MLOAD SWAP1 PUSH1 0x20 ADD SWAP1 PUSH2 0xF56 SWAP3 SWAP2 SWAP1 PUSH2 0x237F JUMP JUMPDEST POP PUSH1 0x7 SLOAD PUSH1 0x8 PUSH1 0x0 DUP8 PUSH20 0xFFFFFFFFFFFFFFFFFFFFFFFFFFFFFFFFFFFFFFFF AND PUSH20 0xFFFFFFFFFFFFFFFFFFFFFFFFFFFFFFFFFFFFFFFF AND DUP2 MSTORE PUSH1 0x20 ADD SWAP1 DUP2 MSTORE PUSH1 0x20 ADD PUSH1 0x0 KECCAK256 PUSH1 0x0 PUSH1 0x9 PUSH1 0x0 DUP10 PUSH20 0xFFFFFFFFFFFFFFFFFFFFFFFFFFFFFFFFFFFFFFFF AND PUSH20 0xFFFFFFFFFFFFFFFFFFFFFFFFFFFFFFFFFFFFFFFF AND DUP2 MSTORE PUSH1 0x20 ADD SWAP1 DUP2 MSTORE PUSH1 0x20 ADD PUSH1 0x0 KECCAK256 SLOAD DUP2 MSTORE PUSH1 0x20 ADD SWAP1 DUP2 MSTORE PUSH1 0x20 ADD PUSH1 0x0 KECCAK256 DUP2 SWAP1 SSTORE POP PUSH2 0xFF9 DUP5 PUSH1 0x7 SLOAD PUSH2 0x18B4 JUMP JUMPDEST DUP3 PUSH1 0x40 MLOAD PUSH2 0x1007 SWAP2 SWAP1 PUSH2 0x2F3F JUMP JUMPDEST PUSH1 0x40 MLOAD DUP1 SWAP2 SUB SWAP1 KECCAK256 DUP5 PUSH20 0xFFFFFFFFFFFFFFFFFFFFFFFFFFFFFFFFFFFFFFFF AND DUP7 PUSH20 0xFFFFFFFFFFFFFFFFFFFFFFFFFFFFFFFFFFFFFFFF AND PUSH32 0x3E100F057239DB422C0EBF9142F67C98E9FF6AC4AEE1068A737CAC01B9CAA304 PUSH1 0x40 MLOAD PUSH1 0x40 MLOAD DUP1 SWAP2 SUB SWAP1 LOG4 PUSH1 0x1 SWAP2 POP POP SWAP4 SWAP3 POP POP POP JUMP JUMPDEST PUSH1 0x0 PUSH1 0x2 PUSH1 0x0 DUP4 DUP2 MSTORE PUSH1 0x20 ADD SWAP1 DUP2 MSTORE PUSH1 0x20 ADD PUSH1 0x0 KECCAK256 PUSH1 0x0 SWAP1 SLOAD SWAP1 PUSH2 0x100 EXP SWAP1 DIV PUSH20 0xFFFFFFFFFFFFFFFFFFFFFFFFFFFFFFFFFFFFFFFF AND SWAP1 POP SWAP2 SWAP1 POP JUMP JUMPDEST PUSH1 0x60 PUSH1 0x0 PUSH1 0xA PUSH1 0x0 DUP5 DUP2 MSTORE PUSH1 0x20 ADD SWAP1 DUP2 MSTORE PUSH1 0x20 ADD PUSH1 0x0 KECCAK256 PUSH1 0x2 ADD DUP1 SLOAD PUSH2 0x10D7 SWAP1 PUSH2 0x384B JUMP JUMPDEST DUP1 PUSH1 0x1F ADD PUSH1 0x20 DUP1 SWAP2 DIV MUL PUSH1 0x20 ADD PUSH1 0x40 MLOAD SWAP1 DUP2 ADD PUSH1 0x40 MSTORE DUP1 SWAP3 SWAP2 SWAP1 DUP2 DUP2 MSTORE PUSH1 0x20 ADD DUP3 DUP1 SLOAD PUSH2 0x1103 SWAP1 PUSH2 0x384B JUMP JUMPDEST DUP1 ISZERO PUSH2 0x1150 JUMPI DUP1 PUSH1 0x1F LT PUSH2 0x1125 JUMPI PUSH2 0x100 DUP1 DUP4 SLOAD DIV MUL DUP4 MSTORE SWAP2 PUSH1 0x20 ADD SWAP2 PUSH2 0x1150 JUMP JUMPDEST DUP3 ADD SWAP2 SWAP1 PUSH1 0x0 MSTORE PUSH1 0x20 PUSH1 0x0 KECCAK256 SWAP1 JUMPDEST DUP2 SLOAD DUP2 MSTORE SWAP1 PUSH1 0x1 ADD SWAP1 PUSH1 0x20 ADD DUP1 DUP4 GT PUSH2 0x1133 JUMPI DUP3 SWAP1 SUB PUSH1 0x1F AND DUP3 ADD SWAP2 JUMPDEST POP POP POP POP POP SWAP1 POP PUSH1 0x0 PUSH1 0xE PUSH8 0xFFFFFFFFFFFFFFFF DUP2 GT ISZERO PUSH2 0x1174 JUMPI PUSH2 0x1173 PUSH2 0x39B3 JUMP JUMPDEST JUMPDEST PUSH1 0x40 MLOAD SWAP1 DUP1 DUP3 MSTORE DUP1 PUSH1 0x20 MUL PUSH1 0x20 ADD DUP3 ADD PUSH1 0x40 MSTORE DUP1 ISZERO PUSH2 0x11A7 JUMPI DUP2 PUSH1 0x20 ADD JUMPDEST PUSH1 0x60 DUP2 MSTORE PUSH1 0x20 ADD SWAP1 PUSH1 0x1 SWAP1 SUB SWAP1 DUP2 PUSH2 0x1192 JUMPI SWAP1 POP JUMPDEST POP SWAP1 POP PUSH1 0x0 PUSH1 0x6 SLOAD DUP4 MLOAD PUSH2 0x11BB SWAP2 SWAP1 PUSH2 0x36AC JUMP JUMPDEST SWAP1 POP PUSH1 0x0 JUMPDEST PUSH1 0x1 DUP3 PUSH2 0x11CD SWAP2 SWAP1 PUSH2 0x3656 JUMP JUMPDEST DUP2 LT ISZERO PUSH2 0x12BC JUMPI PUSH2 0x128B PUSH1 0xA PUSH1 0x0 DUP9 DUP2 MSTORE PUSH1 0x20 ADD SWAP1 DUP2 MSTORE PUSH1 0x20 ADD PUSH1 0x0 KECCAK256 PUSH1 0x2 ADD DUP1 SLOAD PUSH2 0x11F8 SWAP1 PUSH2 0x384B JUMP JUMPDEST DUP1 PUSH1 0x1F ADD PUSH1 0x20 DUP1 SWAP2 DIV MUL PUSH1 0x20 ADD PUSH1 0x40 MLOAD SWAP1 DUP2 ADD PUSH1 0x40 MSTORE DUP1 SWAP3 SWAP2 SWAP1 DUP2 DUP2 MSTORE PUSH1 0x20 ADD DUP3 DUP1 SLOAD PUSH2 0x1224 SWAP1 PUSH2 0x384B JUMP JUMPDEST DUP1 ISZERO PUSH2 0x1271 JUMPI DUP1 PUSH1 0x1F LT PUSH2 0x1246 JUMPI PUSH2 0x100 DUP1 DUP4 SLOAD DIV MUL DUP4 MSTORE SWAP2 PUSH1 0x20 ADD SWAP2 PUSH2 0x1271 JUMP JUMPDEST DUP3 ADD SWAP2 SWAP1 PUSH1 0x0 MSTORE PUSH1 0x20 PUSH1 0x0 KECCAK256 SWAP1 JUMPDEST DUP2 SLOAD DUP2 MSTORE SWAP1 PUSH1 0x1 ADD SWAP1 PUSH1 0x20 ADD DUP1 DUP4 GT PUSH2 0x1254 JUMPI DUP3 SWAP1 SUB PUSH1 0x1F AND DUP3 ADD SWAP2 JUMPDEST POP POP POP POP POP PUSH1 0x6 SLOAD DUP4 PUSH2 0x1284 SWAP2 SWAP1 PUSH2 0x36DD JUMP JUMPDEST DUP7 MLOAD PUSH2 0x18D2 JUMP JUMPDEST DUP4 DUP3 DUP2 MLOAD DUP2 LT PUSH2 0x129E JUMPI PUSH2 0x129D PUSH2 0x3984 JUMP JUMPDEST JUMPDEST PUSH1 0x20 MUL PUSH1 0x20 ADD ADD DUP2 SWAP1 MSTORE POP DUP1 DUP1 PUSH2 0x12B4 SWAP1 PUSH2 0x38AE JUMP JUMPDEST SWAP2 POP POP PUSH2 0x11C0 JUMP JUMPDEST POP PUSH1 0x0 JUMPDEST DUP3 MLOAD DUP2 LT ISZERO PUSH2 0x136F JUMPI PUSH1 0x0 DUP4 DUP3 DUP2 MLOAD DUP2 LT PUSH2 0x12DE JUMPI PUSH2 0x12DD PUSH2 0x3984 JUMP JUMPDEST JUMPDEST PUSH1 0x20 MUL PUSH1 0x20 ADD ADD MLOAD MLOAD GT DUP1 ISZERO PUSH2 0x1310 JUMPI POP PUSH1 0x6 SLOAD DUP4 DUP3 DUP2 MLOAD DUP2 LT PUSH2 0x1305 JUMPI PUSH2 0x1304 PUSH2 0x3984 JUMP JUMPDEST JUMPDEST PUSH1 0x20 MUL PUSH1 0x20 ADD ADD MLOAD MLOAD GT JUMPDEST ISZERO PUSH2 0x135C JUMPI PUSH2 0x133D DUP4 DUP3 DUP2 MLOAD DUP2 LT PUSH2 0x132B JUMPI PUSH2 0x132A PUSH2 0x3984 JUMP JUMPDEST JUMPDEST PUSH1 0x20 MUL PUSH1 0x20 ADD ADD MLOAD PUSH1 0x0 PUSH1 0x6 SLOAD PUSH2 0x18D2 JUMP JUMPDEST DUP4 DUP3 DUP2 MLOAD DUP2 LT PUSH2 0x1350 JUMPI PUSH2 0x134F PUSH2 0x3984 JUMP JUMPDEST JUMPDEST PUSH1 0x20 MUL PUSH1 0x20 ADD ADD DUP2 SWAP1 MSTORE POP JUMPDEST DUP1 DUP1 PUSH2 0x1367 SWAP1 PUSH2 0x38AE JUMP JUMPDEST SWAP2 POP POP PUSH2 0x12C0 JUMP JUMPDEST POP PUSH1 0x0 PUSH2 0x13C7 PUSH1 0xA PUSH1 0x0 DUP9 DUP2 MSTORE PUSH1 0x20 ADD SWAP1 DUP2 MSTORE PUSH1 0x20 ADD PUSH1 0x0 KECCAK256 PUSH1 0x0 ADD PUSH1 0x0 SWAP1 SLOAD SWAP1 PUSH2 0x100 EXP SWAP1 DIV PUSH20 0xFFFFFFFFFFFFFFFFFFFFFFFFFFFFFFFFFFFFFFFF AND PUSH20 0xFFFFFFFFFFFFFFFFFFFFFFFFFFFFFFFFFFFFFFFF AND PUSH2 0x19CE JUMP JUMPDEST PUSH2 0x141C PUSH1 0xA PUSH1 0x0 DUP10 DUP2 MSTORE PUSH1 0x20 ADD SWAP1 DUP2 MSTORE PUSH1 0x20 ADD PUSH1 0x0 KECCAK256 PUSH1 0x1 ADD PUSH1 0x0 SWAP1 SLOAD SWAP1 PUSH2 0x100 EXP SWAP1 DIV PUSH20 0xFFFFFFFFFFFFFFFFFFFFFFFFFFFFFFFFFFFFFFFF AND PUSH20 0xFFFFFFFFFFFFFFFFFFFFFFFFFFFFFFFFFFFFFFFF AND PUSH2 0x19CE JUMP JUMPDEST PUSH2 0x1425 TIMESTAMP PUSH2 0x1678 JUMP JUMPDEST PUSH1 0x40 MLOAD PUSH1 0x20 ADD PUSH2 0x1437 SWAP4 SWAP3 SWAP2 SWAP1 PUSH2 0x31C8 JUMP JUMPDEST PUSH1 0x40 MLOAD PUSH1 0x20 DUP2 DUP4 SUB SUB DUP2 MSTORE SWAP1 PUSH1 0x40 MSTORE SWAP1 POP PUSH1 0x0 DUP4 PUSH1 0x0 DUP2 MLOAD DUP2 LT PUSH2 0x145E JUMPI PUSH2 0x145D PUSH2 0x3984 JUMP JUMPDEST JUMPDEST PUSH1 0x20 MUL PUSH1 0x20 ADD ADD MLOAD DUP5 PUSH1 0x1 DUP2 MLOAD DUP2 LT PUSH2 0x147A JUMPI PUSH2 0x1479 PUSH2 0x3984 JUMP JUMPDEST JUMPDEST PUSH1 0x20 MUL PUSH1 0x20 ADD ADD MLOAD DUP6 PUSH1 0x2 DUP2 MLOAD DUP2 LT PUSH2 0x1496 JUMPI PUSH2 0x1495 PUSH2 0x3984 JUMP JUMPDEST JUMPDEST PUSH1 0x20 MUL PUSH1 0x20 ADD ADD MLOAD DUP7 PUSH1 0x3 DUP2 MLOAD DUP2 LT PUSH2 0x14B2 JUMPI PUSH2 0x14B1 PUSH2 0x3984 JUMP JUMPDEST JUMPDEST PUSH1 0x20 MUL PUSH1 0x20 ADD ADD MLOAD DUP8 PUSH1 0x4 DUP2 MLOAD DUP2 LT PUSH2 0x14CE JUMPI PUSH2 0x14CD PUSH2 0x3984 JUMP JUMPDEST JUMPDEST PUSH1 0x20 MUL PUSH1 0x20 ADD ADD MLOAD DUP9 PUSH1 0x5 DUP2 MLOAD DUP2 LT PUSH2 0x14EA JUMPI PUSH2 0x14E9 PUSH2 0x3984 JUMP JUMPDEST JUMPDEST PUSH1 0x20 MUL PUSH1 0x20 ADD ADD MLOAD PUSH1 0x40 MLOAD PUSH1 0x20 ADD PUSH2 0x1507 SWAP7 SWAP6 SWAP5 SWAP4 SWAP3 SWAP2 SWAP1 PUSH2 0x30EC JUMP JUMPDEST PUSH1 0x40 MLOAD PUSH1 0x20 DUP2 DUP4 SUB SUB DUP2 MSTORE SWAP1 PUSH1 0x40 MSTORE SWAP1 POP PUSH1 0x0 DUP5 PUSH1 0x6 DUP2 MLOAD DUP2 LT PUSH2 0x152E JUMPI PUSH2 0x152D PUSH2 0x3984 JUMP JUMPDEST JUMPDEST PUSH1 0x20 MUL PUSH1 0x20 ADD ADD MLOAD DUP6 PUSH1 0x7 DUP2 MLOAD DUP2 LT PUSH2 0x154A JUMPI PUSH2 0x1549 PUSH2 0x3984 JUMP JUMPDEST JUMPDEST PUSH1 0x20 MUL PUSH1 0x20 ADD ADD MLOAD DUP7 PUSH1 0x8 DUP2 MLOAD DUP2 LT PUSH2 0x1566 JUMPI PUSH2 0x1565 PUSH2 0x3984 JUMP JUMPDEST JUMPDEST PUSH1 0x20 MUL PUSH1 0x20 ADD ADD MLOAD DUP8 PUSH1 0x9 DUP2 MLOAD DUP2 LT PUSH2 0x1582 JUMPI PUSH2 0x1581 PUSH2 0x3984 JUMP JUMPDEST JUMPDEST PUSH1 0x20 MUL PUSH1 0x20 ADD ADD MLOAD DUP9 PUSH1 0xA DUP2 MLOAD DUP2 LT PUSH2 0x159E JUMPI PUSH2 0x159D PUSH2 0x3984 JUMP JUMPDEST JUMPDEST PUSH1 0x20 MUL PUSH1 0x20 ADD ADD MLOAD PUSH1 0x40 MLOAD PUSH1 0x20 ADD PUSH2 0x15BA SWAP6 SWAP5 SWAP4 SWAP3 SWAP2 SWAP1 PUSH2 0x2F94 JUMP JUMPDEST PUSH1 0x40 MLOAD PUSH1 0x20 DUP2 DUP4 SUB SUB DUP2 MSTORE SWAP1 PUSH1 0x40 MSTORE SWAP1 POP PUSH1 0x0 DUP6 PUSH1 0xB DUP2 MLOAD DUP2 LT PUSH2 0x15E1 JUMPI PUSH2 0x15E0 PUSH2 0x3984 JUMP JUMPDEST JUMPDEST PUSH1 0x20 MUL PUSH1 0x20 ADD ADD MLOAD DUP7 PUSH1 0xC DUP2 MLOAD DUP2 LT PUSH2 0x15FD JUMPI PUSH2 0x15FC PUSH2 0x3984 JUMP JUMPDEST JUMPDEST PUSH1 0x20 MUL PUSH1 0x20 ADD ADD MLOAD DUP8 PUSH1 0xD DUP2 MLOAD DUP2 LT PUSH2 0x1619 JUMPI PUSH2 0x1618 PUSH2 0x3984 JUMP JUMPDEST JUMPDEST PUSH1 0x20 MUL PUSH1 0x20 ADD ADD MLOAD PUSH1 0x40 MLOAD PUSH1 0x20 ADD PUSH2 0x1633 SWAP4 SWAP3 SWAP2 SWAP1 PUSH2 0x304D JUMP JUMPDEST PUSH1 0x40 MLOAD PUSH1 0x20 DUP2 DUP4 SUB SUB DUP2 MSTORE SWAP1 PUSH1 0x40 MSTORE SWAP1 POP DUP4 DUP4 DUP4 DUP4 PUSH1 0x40 MLOAD PUSH1 0x20 ADD PUSH2 0x165B SWAP5 SWAP4 SWAP3 SWAP2 SWAP1 PUSH2 0x2F56 JUMP JUMPDEST PUSH1 0x40 MLOAD PUSH1 0x20 DUP2 DUP4 SUB SUB DUP2 MSTORE SWAP1 PUSH1 0x40 MSTORE SWAP8 POP POP POP POP POP POP POP POP SWAP2 SWAP1 POP JUMP JUMPDEST PUSH1 0x60 PUSH1 0x0 PUSH1 0x1 PUSH2 0x1687 DUP5 PUSH2 0x19FB JUMP JUMPDEST ADD SWAP1 POP PUSH1 0x0 DUP2 PUSH8 0xFFFFFFFFFFFFFFFF DUP2 GT ISZERO PUSH2 0x16A6 JUMPI PUSH2 0x16A5 PUSH2 0x39B3 JUMP JUMPDEST JUMPDEST PUSH1 0x40 MLOAD SWAP1 DUP1 DUP3 MSTORE DUP1 PUSH1 0x1F ADD PUSH1 0x1F NOT AND PUSH1 0x20 ADD DUP3 ADD PUSH1 0x40 MSTORE DUP1 ISZERO PUSH2 0x16D8 JUMPI DUP2 PUSH1 0x20 ADD PUSH1 0x1 DUP3 MUL DUP1 CALLDATASIZE DUP4 CALLDATACOPY DUP1 DUP3 ADD SWAP2 POP POP SWAP1 POP JUMPDEST POP SWAP1 POP PUSH1 0x0 DUP3 PUSH1 0x20 ADD DUP3 ADD SWAP1 POP JUMPDEST PUSH1 0x1 ISZERO PUSH2 0x1745 JUMPI DUP1 DUP1 PUSH1 0x1 SWAP1 SUB SWAP2 POP POP PUSH32 0x3031323334353637383961626364656600000000000000000000000000000000 PUSH1 0xA DUP7 MOD BYTE DUP2 MSTORE8 PUSH1 0xA DUP6 DUP2 PUSH2 0x172F JUMPI PUSH2 0x172E PUSH2 0x3926 JUMP JUMPDEST JUMPDEST DIV SWAP5 POP PUSH1 0x0 DUP6 EQ ISZERO PUSH2 0x1740 JUMPI PUSH2 0x1745 JUMP JUMPDEST PUSH2 0x16E6 JUMP JUMPDEST DUP2 SWAP4 POP POP POP POP SWAP2 SWAP1 POP JUMP JUMPDEST PUSH1 0x60 PUSH1 0x0 DUP3 MLOAD EQ ISZERO PUSH2 0x1773 JUMPI PUSH1 0x40 MLOAD DUP1 PUSH1 0x20 ADD PUSH1 0x40 MSTORE DUP1 PUSH1 0x0 DUP2 MSTORE POP SWAP1 POP PUSH2 0x18AF JUMP JUMPDEST PUSH1 0x0 PUSH1 0x40 MLOAD DUP1 PUSH1 0x60 ADD PUSH1 0x40 MSTORE DUP1 PUSH1 0x40 DUP2 MSTORE PUSH1 0x20 ADD PUSH2 0x58AB PUSH1 0x40 SWAP2 CODECOPY SWAP1 POP PUSH1 0x0 PUSH1 0x3 PUSH1 0x2 DUP6 MLOAD PUSH2 0x17A2 SWAP2 SWAP1 PUSH2 0x3656 JUMP JUMPDEST PUSH2 0x17AC SWAP2 SWAP1 PUSH2 0x36AC JUMP JUMPDEST PUSH1 0x4 PUSH2 0x17B8 SWAP2 SWAP1 PUSH2 0x36DD JUMP JUMPDEST PUSH8 0xFFFFFFFFFFFFFFFF DUP2 GT ISZERO PUSH2 0x17D1 JUMPI PUSH2 0x17D0 PUSH2 0x39B3 JUMP JUMPDEST JUMPDEST PUSH1 0x40 MLOAD SWAP1 DUP1 DUP3 MSTORE DUP1 PUSH1 0x1F ADD PUSH1 0x1F NOT AND PUSH1 0x20 ADD DUP3 ADD PUSH1 0x40 MSTORE DUP1 ISZERO PUSH2 0x1803 JUMPI DUP2 PUSH1 0x20 ADD PUSH1 0x1 DUP3 MUL DUP1 CALLDATASIZE DUP4 CALLDATACOPY DUP1 DUP3 ADD SWAP2 POP POP SWAP1 POP JUMPDEST POP SWAP1 POP PUSH1 0x1 DUP3 ADD PUSH1 0x20 DUP3 ADD DUP6 DUP7 MLOAD DUP8 ADD JUMPDEST DUP1 DUP3 LT ISZERO PUSH2 0x186F JUMPI PUSH1 0x3 DUP3 ADD SWAP2 POP DUP2 MLOAD PUSH1 0x3F DUP2 PUSH1 0x12 SHR AND DUP6 ADD MLOAD DUP5 MSTORE8 PUSH1 0x1 DUP5 ADD SWAP4 POP PUSH1 0x3F DUP2 PUSH1 0xC SHR AND DUP6 ADD MLOAD DUP5 MSTORE8 PUSH1 0x1 DUP5 ADD SWAP4 POP PUSH1 0x3F DUP2 PUSH1 0x6 SHR AND DUP6 ADD MLOAD DUP5 MSTORE8 PUSH1 0x1 DUP5 ADD SWAP4 POP PUSH1 0x3F DUP2 AND DUP6 ADD MLOAD DUP5 MSTORE8 PUSH1 0x1 DUP5 ADD SWAP4 POP POP PUSH2 0x1814 JUMP JUMPDEST POP POP PUSH1 0x3 DUP7 MLOAD MOD PUSH1 0x1 DUP2 EQ PUSH2 0x188B JUMPI PUSH1 0x2 DUP2 EQ PUSH2 0x189E JUMPI PUSH2 0x18A6 JUMP JUMPDEST PUSH1 0x3D PUSH1 0x1 DUP4 SUB MSTORE8 PUSH1 0x3D PUSH1 0x2 DUP4 SUB MSTORE8 PUSH2 0x18A6 JUMP JUMPDEST PUSH1 0x3D PUSH1 0x1 DUP4 SUB MSTORE8 JUMPDEST POP POP POP DUP1 SWAP3 POP POP POP JUMPDEST SWAP2 SWAP1 POP JUMP JUMPDEST PUSH2 0x18CE DUP3 DUP3 PUSH1 0x40 MLOAD DUP1 PUSH1 0x20 ADD PUSH1 0x40 MSTORE DUP1 PUSH1 0x0 DUP2 MSTORE POP PUSH2 0x1B4E JUMP JUMPDEST POP POP JUMP JUMPDEST PUSH1 0x60 PUSH1 0x0 DUP5 SWAP1 POP PUSH1 0x0 DUP5 DUP5 PUSH2 0x18E7 SWAP2 SWAP1 PUSH2 0x3737 JUMP JUMPDEST PUSH8 0xFFFFFFFFFFFFFFFF DUP2 GT ISZERO PUSH2 0x1900 JUMPI PUSH2 0x18FF PUSH2 0x39B3 JUMP JUMPDEST JUMPDEST PUSH1 0x40 MLOAD SWAP1 DUP1 DUP3 MSTORE DUP1 PUSH1 0x1F ADD PUSH1 0x1F NOT AND PUSH1 0x20 ADD DUP3 ADD PUSH1 0x40 MSTORE DUP1 ISZERO PUSH2 0x1932 JUMPI DUP2 PUSH1 0x20 ADD PUSH1 0x1 DUP3 MUL DUP1 CALLDATASIZE DUP4 CALLDATACOPY DUP1 DUP3 ADD SWAP2 POP POP SWAP1 POP JUMPDEST POP SWAP1 POP PUSH1 0x0 DUP6 SWAP1 POP JUMPDEST DUP5 DUP2 LT ISZERO PUSH2 0x19C1 JUMPI DUP3 DUP2 DUP2 MLOAD DUP2 LT PUSH2 0x1956 JUMPI PUSH2 0x1955 PUSH2 0x3984 JUMP JUMPDEST JUMPDEST PUSH1 0x20 ADD ADD MLOAD PUSH1 0xF8 SHR PUSH1 0xF8 SHL DUP3 DUP8 DUP4 PUSH2 0x196E SWAP2 SWAP1 PUSH2 0x3737 JUMP JUMPDEST DUP2 MLOAD DUP2 LT PUSH2 0x197F JUMPI PUSH2 0x197E PUSH2 0x3984 JUMP JUMPDEST JUMPDEST PUSH1 0x20 ADD ADD SWAP1 PUSH31 0xFFFFFFFFFFFFFFFFFFFFFFFFFFFFFFFFFFFFFFFFFFFFFFFFFFFFFFFFFFFFFF NOT AND SWAP1 DUP2 PUSH1 0x0 BYTE SWAP1 MSTORE8 POP DUP1 DUP1 PUSH2 0x19B9 SWAP1 PUSH2 0x38AE JUMP JUMPDEST SWAP2 POP POP PUSH2 0x193B JUMP JUMPDEST POP DUP1 SWAP3 POP POP POP SWAP4 SWAP3 POP POP POP JUMP JUMPDEST PUSH1 0x60 PUSH2 0x19F4 DUP3 PUSH20 0xFFFFFFFFFFFFFFFFFFFFFFFFFFFFFFFFFFFFFFFF AND PUSH1 0x14 PUSH1 0xFF AND PUSH2 0x1BA9 JUMP JUMPDEST SWAP1 POP SWAP2 SWAP1 POP JUMP JUMPDEST PUSH1 0x0 DUP1 PUSH1 0x0 SWAP1 POP PUSH27 0x184F03E93FF9F4DAA797ED6E38ED64BF6A1F010000000000000000 DUP4 LT PUSH2 0x1A59 JUMPI PUSH27 0x184F03E93FF9F4DAA797ED6E38ED64BF6A1F010000000000000000 DUP4 DUP2 PUSH2 0x1A4F JUMPI PUSH2 0x1A4E PUSH2 0x3926 JUMP JUMPDEST JUMPDEST DIV SWAP3 POP PUSH1 0x40 DUP2 ADD SWAP1 POP JUMPDEST PUSH14 0x4EE2D6D415B85ACEF8100000000 DUP4 LT PUSH2 0x1A96 JUMPI PUSH14 0x4EE2D6D415B85ACEF8100000000 DUP4 DUP2 PUSH2 0x1A8C JUMPI PUSH2 0x1A8B PUSH2 0x3926 JUMP JUMPDEST JUMPDEST DIV SWAP3 POP PUSH1 0x20 DUP2 ADD SWAP1 POP JUMPDEST PUSH7 0x2386F26FC10000 DUP4 LT PUSH2 0x1AC5 JUMPI PUSH7 0x2386F26FC10000 DUP4 DUP2 PUSH2 0x1ABB JUMPI PUSH2 0x1ABA PUSH2 0x3926 JUMP JUMPDEST JUMPDEST DIV SWAP3 POP PUSH1 0x10 DUP2 ADD SWAP1 POP JUMPDEST PUSH4 0x5F5E100 DUP4 LT PUSH2 0x1AEE JUMPI PUSH4 0x5F5E100 DUP4 DUP2 PUSH2 0x1AE4 JUMPI PUSH2 0x1AE3 PUSH2 0x3926 JUMP JUMPDEST JUMPDEST DIV SWAP3 POP PUSH1 0x8 DUP2 ADD SWAP1 POP JUMPDEST PUSH2 0x2710 DUP4 LT PUSH2 0x1B13 JUMPI PUSH2 0x2710 DUP4 DUP2 PUSH2 0x1B09 JUMPI PUSH2 0x1B08 PUSH2 0x3926 JUMP JUMPDEST JUMPDEST DIV SWAP3 POP PUSH1 0x4 DUP2 ADD SWAP1 POP JUMPDEST PUSH1 0x64 DUP4 LT PUSH2 0x1B36 JUMPI PUSH1 0x64 DUP4 DUP2 PUSH2 0x1B2C JUMPI PUSH2 0x1B2B PUSH2 0x3926 JUMP JUMPDEST JUMPDEST DIV SWAP3 POP PUSH1 0x2 DUP2 ADD SWAP1 POP JUMPDEST PUSH1 0xA DUP4 LT PUSH2 0x1B45 JUMPI PUSH1 0x1 DUP2 ADD SWAP1 POP JUMPDEST DUP1 SWAP2 POP POP SWAP2 SWAP1 POP JUMP JUMPDEST PUSH2 0x1B58 DUP4 DUP4 PUSH2 0x1DE5 JUMP JUMPDEST PUSH2 0x1B65 PUSH1 0x0 DUP5 DUP5 DUP5 PUSH2 0x2003 JUMP JUMPDEST PUSH2 0x1BA4 JUMPI PUSH1 0x40 MLOAD PUSH32 0x8C379A000000000000000000000000000000000000000000000000000000000 DUP2 MSTORE PUSH1 0x4 ADD PUSH2 0x1B9B SWAP1 PUSH2 0x33EA JUMP JUMPDEST PUSH1 0x40 MLOAD DUP1 SWAP2 SUB SWAP1 REVERT JUMPDEST POP POP POP JUMP JUMPDEST PUSH1 0x60 PUSH1 0x0 PUSH1 0x2 DUP4 PUSH1 0x2 PUSH2 0x1BBC SWAP2 SWAP1 PUSH2 0x36DD JUMP JUMPDEST PUSH2 0x1BC6 SWAP2 SWAP1 PUSH2 0x3656 JUMP JUMPDEST PUSH8 0xFFFFFFFFFFFFFFFF DUP2 GT ISZERO PUSH2 0x1BDF JUMPI PUSH2 0x1BDE PUSH2 0x39B3 JUMP JUMPDEST JUMPDEST PUSH1 0x40 MLOAD SWAP1 DUP1 DUP3 MSTORE DUP1 PUSH1 0x1F ADD PUSH1 0x1F NOT AND PUSH1 0x20 ADD DUP3 ADD PUSH1 0x40 MSTORE DUP1 ISZERO PUSH2 0x1C11 JUMPI DUP2 PUSH1 0x20 ADD PUSH1 0x1 DUP3 MUL DUP1 CALLDATASIZE DUP4 CALLDATACOPY DUP1 DUP3 ADD SWAP2 POP POP SWAP1 POP JUMPDEST POP SWAP1 POP PUSH32 0x3000000000000000000000000000000000000000000000000000000000000000 DUP2 PUSH1 0x0 DUP2 MLOAD DUP2 LT PUSH2 0x1C49 JUMPI PUSH2 0x1C48 PUSH2 0x3984 JUMP JUMPDEST JUMPDEST PUSH1 0x20 ADD ADD SWAP1 PUSH31 0xFFFFFFFFFFFFFFFFFFFFFFFFFFFFFFFFFFFFFFFFFFFFFFFFFFFFFFFFFFFFFF NOT AND SWAP1 DUP2 PUSH1 0x0 BYTE SWAP1 MSTORE8 POP PUSH32 0x7800000000000000000000000000000000000000000000000000000000000000 DUP2 PUSH1 0x1 DUP2 MLOAD DUP2 LT PUSH2 0x1CAD JUMPI PUSH2 0x1CAC PUSH2 0x3984 JUMP JUMPDEST JUMPDEST PUSH1 0x20 ADD ADD SWAP1 PUSH31 0xFFFFFFFFFFFFFFFFFFFFFFFFFFFFFFFFFFFFFFFFFFFFFFFFFFFFFFFFFFFFFF NOT AND SWAP1 DUP2 PUSH1 0x0 BYTE SWAP1 MSTORE8 POP PUSH1 0x0 PUSH1 0x1 DUP5 PUSH1 0x2 PUSH2 0x1CED SWAP2 SWAP1 PUSH2 0x36DD JUMP JUMPDEST PUSH2 0x1CF7 SWAP2 SWAP1 PUSH2 0x3656 JUMP JUMPDEST SWAP1 POP JUMPDEST PUSH1 0x1 DUP2 GT ISZERO PUSH2 0x1D97 JUMPI PUSH32 0x3031323334353637383961626364656600000000000000000000000000000000 PUSH1 0xF DUP7 AND PUSH1 0x10 DUP2 LT PUSH2 0x1D39 JUMPI PUSH2 0x1D38 PUSH2 0x3984 JUMP JUMPDEST JUMPDEST BYTE PUSH1 0xF8 SHL DUP3 DUP3 DUP2 MLOAD DUP2 LT PUSH2 0x1D50 JUMPI PUSH2 0x1D4F PUSH2 0x3984 JUMP JUMPDEST JUMPDEST PUSH1 0x20 ADD ADD SWAP1 PUSH31 0xFFFFFFFFFFFFFFFFFFFFFFFFFFFFFFFFFFFFFFFFFFFFFFFFFFFFFFFFFFFFFF NOT AND SWAP1 DUP2 PUSH1 0x0 BYTE SWAP1 MSTORE8 POP PUSH1 0x4 DUP6 SWAP1 SHR SWAP5 POP DUP1 PUSH2 0x1D90 SWAP1 PUSH2 0x3821 JUMP JUMPDEST SWAP1 POP PUSH2 0x1CFA JUMP JUMPDEST POP PUSH1 0x0 DUP5 EQ PUSH2 0x1DDB JUMPI PUSH1 0x40 MLOAD PUSH32 0x8C379A000000000000000000000000000000000000000000000000000000000 DUP2 MSTORE PUSH1 0x4 ADD PUSH2 0x1DD2 SWAP1 PUSH2 0x33AA JUMP JUMPDEST PUSH1 0x40 MLOAD DUP1 SWAP2 SUB SWAP1 REVERT JUMPDEST DUP1 SWAP2 POP POP SWAP3 SWAP2 POP POP JUMP JUMPDEST PUSH1 0x0 PUSH20 0xFFFFFFFFFFFFFFFFFFFFFFFFFFFFFFFFFFFFFFFF AND DUP3 PUSH20 0xFFFFFFFFFFFFFFFFFFFFFFFFFFFFFFFFFFFFFFFF AND EQ ISZERO PUSH2 0x1E55 JUMPI PUSH1 0x40 MLOAD PUSH32 0x8C379A000000000000000000000000000000000000000000000000000000000 DUP2 MSTORE PUSH1 0x4 ADD PUSH2 0x1E4C SWAP1 PUSH2 0x34AA JUMP JUMPDEST PUSH1 0x40 MLOAD DUP1 SWAP2 SUB SWAP1 REVERT JUMPDEST PUSH2 0x1E5E DUP2 PUSH2 0x219A JUMP JUMPDEST ISZERO PUSH2 0x1E9E JUMPI PUSH1 0x40 MLOAD PUSH32 0x8C379A000000000000000000000000000000000000000000000000000000000 DUP2 MSTORE PUSH1 0x4 ADD PUSH2 0x1E95 SWAP1 PUSH2 0x342A JUMP JUMPDEST PUSH1 0x40 MLOAD DUP1 SWAP2 SUB SWAP1 REVERT JUMPDEST PUSH2 0x1EAC PUSH1 0x0 DUP4 DUP4 PUSH1 0x1 PUSH2 0x21DB JUMP JUMPDEST PUSH2 0x1EB5 DUP2 PUSH2 0x219A JUMP JUMPDEST ISZERO PUSH2 0x1EF5 JUMPI PUSH1 0x40 MLOAD PUSH32 0x8C379A000000000000000000000000000000000000000000000000000000000 DUP2 MSTORE PUSH1 0x4 ADD PUSH2 0x1EEC SWAP1 PUSH2 0x342A JUMP JUMPDEST PUSH1 0x40 MLOAD DUP1 SWAP2 SUB SWAP1 REVERT JUMPDEST PUSH1 0x1 PUSH1 0x3 PUSH1 0x0 DUP5 PUSH20 0xFFFFFFFFFFFFFFFFFFFFFFFFFFFFFFFFFFFFFFFF AND PUSH20 0xFFFFFFFFFFFFFFFFFFFFFFFFFFFFFFFFFFFFFFFF AND DUP2 MSTORE PUSH1 0x20 ADD SWAP1 DUP2 MSTORE PUSH1 0x20 ADD PUSH1 0x0 KECCAK256 PUSH1 0x0 DUP3 DUP3 SLOAD ADD SWAP3 POP POP DUP2 SWAP1 SSTORE POP DUP2 PUSH1 0x2 PUSH1 0x0 DUP4 DUP2 MSTORE PUSH1 0x20 ADD SWAP1 DUP2 MSTORE PUSH1 0x20 ADD PUSH1 0x0 KECCAK256 PUSH1 0x0 PUSH2 0x100 EXP DUP2 SLOAD DUP2 PUSH20 0xFFFFFFFFFFFFFFFFFFFFFFFFFFFFFFFFFFFFFFFF MUL NOT AND SWAP1 DUP4 PUSH20 0xFFFFFFFFFFFFFFFFFFFFFFFFFFFFFFFFFFFFFFFF AND MUL OR SWAP1 SSTORE POP DUP1 DUP3 PUSH20 0xFFFFFFFFFFFFFFFFFFFFFFFFFFFFFFFFFFFFFFFF AND PUSH1 0x0 PUSH20 0xFFFFFFFFFFFFFFFFFFFFFFFFFFFFFFFFFFFFFFFF AND PUSH32 0xDDF252AD1BE2C89B69C2B068FC378DAA952BA7F163C4A11628F55A4DF523B3EF PUSH1 0x40 MLOAD PUSH1 0x40 MLOAD DUP1 SWAP2 SUB SWAP1 LOG4 PUSH2 0x1FFF PUSH1 0x0 DUP4 DUP4 PUSH1 0x1 PUSH2 0x2301 JUMP JUMPDEST POP POP JUMP JUMPDEST PUSH1 0x0 PUSH2 0x2024 DUP5 PUSH20 0xFFFFFFFFFFFFFFFFFFFFFFFFFFFFFFFFFFFFFFFF AND PUSH2 0x2307 JUMP JUMPDEST ISZERO PUSH2 0x218D JUMPI DUP4 PUSH20 0xFFFFFFFFFFFFFFFFFFFFFFFFFFFFFFFFFFFFFFFF AND PUSH4 0x150B7A02 PUSH2 0x204D PUSH2 0x232A JUMP JUMPDEST DUP8 DUP7 DUP7 PUSH1 0x40 MLOAD DUP6 PUSH4 0xFFFFFFFF AND PUSH1 0xE0 SHL DUP2 MSTORE PUSH1 0x4 ADD PUSH2 0x206F SWAP5 SWAP4 SWAP3 SWAP2 SWAP1 PUSH2 0x32FF JUMP JUMPDEST PUSH1 0x20 PUSH1 0x40 MLOAD DUP1 DUP4 SUB DUP2 PUSH1 0x0 DUP8 DUP1 EXTCODESIZE ISZERO DUP1 ISZERO PUSH2 0x2089 JUMPI PUSH1 0x0 DUP1 REVERT JUMPDEST POP GAS CALL SWAP3 POP POP POP DUP1 ISZERO PUSH2 0x20BA JUMPI POP PUSH1 0x40 MLOAD RETURNDATASIZE PUSH1 0x1F NOT PUSH1 0x1F DUP3 ADD AND DUP3 ADD DUP1 PUSH1 0x40 MSTORE POP DUP2 ADD SWAP1 PUSH2 0x20B7 SWAP2 SWAP1 PUSH2 0x2732 JUMP JUMPDEST PUSH1 0x1 JUMPDEST PUSH2 0x213D JUMPI RETURNDATASIZE DUP1 PUSH1 0x0 DUP2 EQ PUSH2 0x20EA JUMPI PUSH1 0x40 MLOAD SWAP2 POP PUSH1 0x1F NOT PUSH1 0x3F RETURNDATASIZE ADD AND DUP3 ADD PUSH1 0x40 MSTORE RETURNDATASIZE DUP3 MSTORE RETURNDATASIZE PUSH1 0x0 PUSH1 0x20 DUP5 ADD RETURNDATACOPY PUSH2 0x20EF JUMP JUMPDEST PUSH1 0x60 SWAP2 POP JUMPDEST POP PUSH1 0x0 DUP2 MLOAD EQ ISZERO PUSH2 0x2135 JUMPI PUSH1 0x40 MLOAD PUSH32 0x8C379A000000000000000000000000000000000000000000000000000000000 DUP2 MSTORE PUSH1 0x4 ADD PUSH2 0x212C SWAP1 PUSH2 0x33EA JUMP JUMPDEST PUSH1 0x40 MLOAD DUP1 SWAP2 SUB SWAP1 REVERT JUMPDEST DUP1 MLOAD DUP2 PUSH1 0x20 ADD REVERT JUMPDEST PUSH4 0x150B7A02 PUSH1 0xE0 SHL PUSH28 0xFFFFFFFFFFFFFFFFFFFFFFFFFFFFFFFFFFFFFFFFFFFFFFFFFFFFFFFF NOT AND DUP2 PUSH28 0xFFFFFFFFFFFFFFFFFFFFFFFFFFFFFFFFFFFFFFFFFFFFFFFFFFFFFFFF NOT AND EQ SWAP2 POP POP PUSH2 0x2192 JUMP JUMPDEST PUSH1 0x1 SWAP1 POP JUMPDEST SWAP5 SWAP4 POP POP POP POP JUMP JUMPDEST PUSH1 0x0 DUP1 PUSH20 0xFFFFFFFFFFFFFFFFFFFFFFFFFFFFFFFFFFFFFFFF AND PUSH2 0x21BC DUP4 PUSH2 0x1075 JUMP JUMPDEST PUSH20 0xFFFFFFFFFFFFFFFFFFFFFFFFFFFFFFFFFFFFFFFF AND EQ ISZERO SWAP1 POP SWAP2 SWAP1 POP JUMP JUMPDEST PUSH1 0x1 DUP2 GT ISZERO PUSH2 0x22FB JUMPI PUSH1 0x0 PUSH20 0xFFFFFFFFFFFFFFFFFFFFFFFFFFFFFFFFFFFFFFFF AND DUP5 PUSH20 0xFFFFFFFFFFFFFFFFFFFFFFFFFFFFFFFFFFFFFFFF AND EQ PUSH2 0x226F JUMPI DUP1 PUSH1 0x3 PUSH1 0x0 DUP7 PUSH20 0xFFFFFFFFFFFFFFFFFFFFFFFFFFFFFFFFFFFFFFFF AND PUSH20 0xFFFFFFFFFFFFFFFFFFFFFFFFFFFFFFFFFFFFFFFF AND DUP2 MSTORE PUSH1 0x20 ADD SWAP1 DUP2 MSTORE PUSH1 0x20 ADD PUSH1 0x0 KECCAK256 PUSH1 0x0 DUP3 DUP3 SLOAD PUSH2 0x2267 SWAP2 SWAP1 PUSH2 0x3737 JUMP JUMPDEST SWAP3 POP POP DUP2 SWAP1 SSTORE POP JUMPDEST PUSH1 0x0 PUSH20 0xFFFFFFFFFFFFFFFFFFFFFFFFFFFFFFFFFFFFFFFF AND DUP4 PUSH20 0xFFFFFFFFFFFFFFFFFFFFFFFFFFFFFFFFFFFFFFFF AND EQ PUSH2 0x22FA JUMPI DUP1 PUSH1 0x3 PUSH1 0x0 DUP6 PUSH20 0xFFFFFFFFFFFFFFFFFFFFFFFFFFFFFFFFFFFFFFFF AND PUSH20 0xFFFFFFFFFFFFFFFFFFFFFFFFFFFFFFFFFFFFFFFF AND DUP2 MSTORE PUSH1 0x20 ADD SWAP1 DUP2 MSTORE PUSH1 0x20 ADD PUSH1 0x0 KECCAK256 PUSH1 0x0 DUP3 DUP3 SLOAD PUSH2 0x22F2 SWAP2 SWAP1 PUSH2 0x3656 JUMP JUMPDEST SWAP3 POP POP DUP2 SWAP1 SSTORE POP JUMPDEST JUMPDEST POP POP POP POP JUMP JUMPDEST POP POP POP POP JUMP JUMPDEST PUSH1 0x0 DUP1 DUP3 PUSH20 0xFFFFFFFFFFFFFFFFFFFFFFFFFFFFFFFFFFFFFFFF AND EXTCODESIZE GT SWAP1 POP SWAP2 SWAP1 POP JUMP JUMPDEST PUSH1 0x0 CALLER SWAP1 POP SWAP1 JUMP JUMPDEST PUSH1 0x40 MLOAD DUP1 PUSH1 0x60 ADD PUSH1 0x40 MSTORE DUP1 PUSH1 0x0 PUSH20 0xFFFFFFFFFFFFFFFFFFFFFFFFFFFFFFFFFFFFFFFF AND DUP2 MSTORE PUSH1 0x20 ADD PUSH1 0x0 PUSH20 0xFFFFFFFFFFFFFFFFFFFFFFFFFFFFFFFFFFFFFFFF AND DUP2 MSTORE PUSH1 0x20 ADD PUSH1 0x60 DUP2 MSTORE POP SWAP1 JUMP JUMPDEST DUP3 DUP1 SLOAD PUSH2 0x238B SWAP1 PUSH2 0x384B JUMP JUMPDEST SWAP1 PUSH1 0x0 MSTORE PUSH1 0x20 PUSH1 0x0 KECCAK256 SWAP1 PUSH1 0x1F ADD PUSH1 0x20 SWAP1 DIV DUP2 ADD SWAP3 DUP3 PUSH2 0x23AD JUMPI PUSH1 0x0 DUP6 SSTORE PUSH2 0x23F4 JUMP JUMPDEST DUP3 PUSH1 0x1F LT PUSH2 0x23C6 JUMPI DUP1 MLOAD PUSH1 0xFF NOT AND DUP4 DUP1 ADD OR DUP6 SSTORE PUSH2 0x23F4 JUMP JUMPDEST DUP3 DUP1 ADD PUSH1 0x1 ADD DUP6 SSTORE DUP3 ISZERO PUSH2 0x23F4 JUMPI SWAP2 DUP3 ADD JUMPDEST DUP3 DUP2 GT ISZERO PUSH2 0x23F3 JUMPI DUP3 MLOAD DUP3 SSTORE SWAP2 PUSH1 0x20 ADD SWAP2 SWAP1 PUSH1 0x1 ADD SWAP1 PUSH2 0x23D8 JUMP JUMPDEST JUMPDEST POP SWAP1 POP PUSH2 0x2401 SWAP2 SWAP1 PUSH2 0x2405 JUMP JUMPDEST POP SWAP1 JUMP JUMPDEST JUMPDEST DUP1 DUP3 GT ISZERO PUSH2 0x241E JUMPI PUSH1 0x0 DUP2 PUSH1 0x0 SWAP1 SSTORE POP PUSH1 0x1 ADD PUSH2 0x2406 JUMP JUMPDEST POP SWAP1 JUMP JUMPDEST PUSH1 0x0 PUSH2 0x2435 PUSH2 0x2430 DUP5 PUSH2 0x356C JUMP JUMPDEST PUSH2 0x3547 JUMP JUMPDEST SWAP1 POP DUP1 DUP4 DUP3 MSTORE PUSH1 0x20 DUP3 ADD SWAP1 POP DUP3 DUP6 PUSH1 0x20 DUP7 MUL DUP3 ADD GT ISZERO PUSH2 0x2458 JUMPI PUSH2 0x2457 PUSH2 0x39E7 JUMP JUMPDEST JUMPDEST PUSH1 0x0 JUMPDEST DUP6 DUP2 LT ISZERO PUSH2 0x2488 JUMPI DUP2 PUSH2 0x246E DUP9 DUP3 PUSH2 0x24D4 JUMP JUMPDEST DUP5 MSTORE PUSH1 0x20 DUP5 ADD SWAP4 POP PUSH1 0x20 DUP4 ADD SWAP3 POP POP PUSH1 0x1 DUP2 ADD SWAP1 POP PUSH2 0x245B JUMP JUMPDEST POP POP POP SWAP4 SWAP3 POP POP POP JUMP JUMPDEST PUSH1 0x0 PUSH2 0x24A5 PUSH2 0x24A0 DUP5 PUSH2 0x3598 JUMP JUMPDEST PUSH2 0x3547 JUMP JUMPDEST SWAP1 POP DUP3 DUP2 MSTORE PUSH1 0x20 DUP2 ADD DUP5 DUP5 DUP5 ADD GT ISZERO PUSH2 0x24C1 JUMPI PUSH2 0x24C0 PUSH2 0x39EC JUMP JUMPDEST JUMPDEST PUSH2 0x24CC DUP5 DUP3 DUP6 PUSH2 0x37DF JUMP JUMPDEST POP SWAP4 SWAP3 POP POP POP JUMP JUMPDEST PUSH1 0x0 DUP2 CALLDATALOAD SWAP1 POP PUSH2 0x24E3 DUP2 PUSH2 0x5865 JUMP JUMPDEST SWAP3 SWAP2 POP POP JUMP JUMPDEST PUSH1 0x0 DUP3 PUSH1 0x1F DUP4 ADD SLT PUSH2 0x24FE JUMPI PUSH2 0x24FD PUSH2 0x39E2 JUMP JUMPDEST JUMPDEST DUP2 CALLDATALOAD PUSH2 0x250E DUP5 DUP3 PUSH1 0x20 DUP7 ADD PUSH2 0x2422 JUMP JUMPDEST SWAP2 POP POP SWAP3 SWAP2 POP POP JUMP JUMPDEST PUSH1 0x0 DUP2 CALLDATALOAD SWAP1 POP PUSH2 0x2526 DUP2 PUSH2 0x587C JUMP JUMPDEST SWAP3 SWAP2 POP POP JUMP JUMPDEST PUSH1 0x0 DUP2 MLOAD SWAP1 POP PUSH2 0x253B DUP2 PUSH2 0x587C JUMP JUMPDEST SWAP3 SWAP2 POP POP JUMP JUMPDEST PUSH1 0x0 DUP3 PUSH1 0x1F DUP4 ADD SLT PUSH2 0x2556 JUMPI PUSH2 0x2555 PUSH2 0x39E2 JUMP JUMPDEST JUMPDEST DUP2 CALLDATALOAD PUSH2 0x2566 DUP5 DUP3 PUSH1 0x20 DUP7 ADD PUSH2 0x2492 JUMP JUMPDEST SWAP2 POP POP SWAP3 SWAP2 POP POP JUMP JUMPDEST PUSH1 0x0 DUP2 CALLDATALOAD SWAP1 POP PUSH2 0x257E DUP2 PUSH2 0x5893 JUMP JUMPDEST SWAP3 SWAP2 POP POP JUMP JUMPDEST PUSH1 0x0 PUSH1 0x20 DUP3 DUP5 SUB SLT ISZERO PUSH2 0x259A JUMPI PUSH2 0x2599 PUSH2 0x39F6 JUMP JUMPDEST JUMPDEST PUSH1 0x0 PUSH2 0x25A8 DUP5 DUP3 DUP6 ADD PUSH2 0x24D4 JUMP JUMPDEST SWAP2 POP POP SWAP3 SWAP2 POP POP JUMP JUMPDEST PUSH1 0x0 DUP1 PUSH1 0x40 DUP4 DUP6 SUB SLT ISZERO PUSH2 0x25C8 JUMPI PUSH2 0x25C7 PUSH2 0x39F6 JUMP JUMPDEST JUMPDEST PUSH1 0x0 PUSH2 0x25D6 DUP6 DUP3 DUP7 ADD PUSH2 0x24D4 JUMP JUMPDEST SWAP3 POP POP PUSH1 0x20 PUSH2 0x25E7 DUP6 DUP3 DUP7 ADD PUSH2 0x24D4 JUMP JUMPDEST SWAP2 POP POP SWAP3 POP SWAP3 SWAP1 POP JUMP JUMPDEST PUSH1 0x0 DUP1 PUSH1 0x40 DUP4 DUP6 SUB SLT ISZERO PUSH2 0x2608 JUMPI PUSH2 0x2607 PUSH2 0x39F6 JUMP JUMPDEST JUMPDEST PUSH1 0x0 PUSH2 0x2616 DUP6 DUP3 DUP7 ADD PUSH2 0x24D4 JUMP JUMPDEST SWAP3 POP POP PUSH1 0x20 DUP4 ADD CALLDATALOAD PUSH8 0xFFFFFFFFFFFFFFFF DUP2 GT ISZERO PUSH2 0x2637 JUMPI PUSH2 0x2636 PUSH2 0x39F1 JUMP JUMPDEST JUMPDEST PUSH2 0x2643 DUP6 DUP3 DUP7 ADD PUSH2 0x2541 JUMP JUMPDEST SWAP2 POP POP SWAP3 POP SWAP3 SWAP1 POP JUMP JUMPDEST PUSH1 0x0 DUP1 PUSH1 0x40 DUP4 DUP6 SUB SLT ISZERO PUSH2 0x2664 JUMPI PUSH2 0x2663 PUSH2 0x39F6 JUMP JUMPDEST JUMPDEST PUSH1 0x0 PUSH2 0x2672 DUP6 DUP3 DUP7 ADD PUSH2 0x24D4 JUMP JUMPDEST SWAP3 POP POP PUSH1 0x20 PUSH2 0x2683 DUP6 DUP3 DUP7 ADD PUSH2 0x256F JUMP JUMPDEST SWAP2 POP POP SWAP3 POP SWAP3 SWAP1 POP JUMP JUMPDEST PUSH1 0x0 DUP1 PUSH1 0x40 DUP4 DUP6 SUB SLT ISZERO PUSH2 0x26A4 JUMPI PUSH2 0x26A3 PUSH2 0x39F6 JUMP JUMPDEST JUMPDEST PUSH1 0x0 DUP4 ADD CALLDATALOAD PUSH8 0xFFFFFFFFFFFFFFFF DUP2 GT ISZERO PUSH2 0x26C2 JUMPI PUSH2 0x26C1 PUSH2 0x39F1 JUMP JUMPDEST JUMPDEST PUSH2 0x26CE DUP6 DUP3 DUP7 ADD PUSH2 0x24E9 JUMP JUMPDEST SWAP3 POP POP PUSH1 0x20 DUP4 ADD CALLDATALOAD PUSH8 0xFFFFFFFFFFFFFFFF DUP2 GT ISZERO PUSH2 0x26EF JUMPI PUSH2 0x26EE PUSH2 0x39F1 JUMP JUMPDEST JUMPDEST PUSH2 0x26FB DUP6 DUP3 DUP7 ADD PUSH2 0x2541 JUMP JUMPDEST SWAP2 POP POP SWAP3 POP SWAP3 SWAP1 POP JUMP JUMPDEST PUSH1 0x0 PUSH1 0x20 DUP3 DUP5 SUB SLT ISZERO PUSH2 0x271B JUMPI PUSH2 0x271A PUSH2 0x39F6 JUMP JUMPDEST JUMPDEST PUSH1 0x0 PUSH2 0x2729 DUP5 DUP3 DUP6 ADD PUSH2 0x2517 JUMP JUMPDEST SWAP2 POP POP SWAP3 SWAP2 POP POP JUMP JUMPDEST PUSH1 0x0 PUSH1 0x20 DUP3 DUP5 SUB SLT ISZERO PUSH2 0x2748 JUMPI PUSH2 0x2747 PUSH2 0x39F6 JUMP JUMPDEST JUMPDEST PUSH1 0x0 PUSH2 0x2756 DUP5 DUP3 DUP6 ADD PUSH2 0x252C JUMP JUMPDEST SWAP2 POP POP SWAP3 SWAP2 POP POP JUMP JUMPDEST PUSH1 0x0 PUSH1 0x20 DUP3 DUP5 SUB SLT ISZERO PUSH2 0x2775 JUMPI PUSH2 0x2774 PUSH2 0x39F6 JUMP JUMPDEST JUMPDEST PUSH1 0x0 PUSH2 0x2783 DUP5 DUP3 DUP6 ADD PUSH2 0x256F JUMP JUMPDEST SWAP2 POP POP SWAP3 SWAP2 POP POP JUMP JUMPDEST PUSH1 0x0 PUSH2 0x2798 DUP4 DUP4 PUSH2 0x2F21 JUMP JUMPDEST PUSH1 0x20 DUP4 ADD SWAP1 POP SWAP3 SWAP2 POP POP JUMP JUMPDEST PUSH2 0x27AD DUP2 PUSH2 0x376B JUMP JUMPDEST DUP3 MSTORE POP POP JUMP JUMPDEST PUSH2 0x27BC DUP2 PUSH2 0x376B JUMP JUMPDEST DUP3 MSTORE POP POP JUMP JUMPDEST PUSH1 0x0 PUSH2 0x27CD DUP3 PUSH2 0x35D9 JUMP JUMPDEST PUSH2 0x27D7 DUP2 DUP6 PUSH2 0x3607 JUMP JUMPDEST SWAP4 POP PUSH2 0x27E2 DUP4 PUSH2 0x35C9 JUMP JUMPDEST DUP1 PUSH1 0x0 JUMPDEST DUP4 DUP2 LT ISZERO PUSH2 0x2813 JUMPI DUP2 MLOAD PUSH2 0x27FA DUP9 DUP3 PUSH2 0x278C JUMP JUMPDEST SWAP8 POP PUSH2 0x2805 DUP4 PUSH2 0x35FA JUMP JUMPDEST SWAP3 POP POP PUSH1 0x1 DUP2 ADD SWAP1 POP PUSH2 0x27E6 JUMP JUMPDEST POP DUP6 SWAP4 POP POP POP POP SWAP3 SWAP2 POP POP JUMP JUMPDEST PUSH2 0x2829 DUP2 PUSH2 0x377D JUMP JUMPDEST DUP3 MSTORE POP POP JUMP JUMPDEST PUSH1 0x0 PUSH2 0x283A DUP3 PUSH2 0x35E4 JUMP JUMPDEST PUSH2 0x2844 DUP2 DUP6 PUSH2 0x3618 JUMP JUMPDEST SWAP4 POP PUSH2 0x2854 DUP2 DUP6 PUSH1 0x20 DUP7 ADD PUSH2 0x37EE JUMP JUMPDEST PUSH2 0x285D DUP2 PUSH2 0x39FB JUMP JUMPDEST DUP5 ADD SWAP2 POP POP SWAP3 SWAP2 POP POP JUMP JUMPDEST PUSH1 0x0 PUSH2 0x2873 DUP3 PUSH2 0x35EF JUMP JUMPDEST PUSH2 0x287D DUP2 DUP6 PUSH2 0x3629 JUMP JUMPDEST SWAP4 POP PUSH2 0x288D DUP2 DUP6 PUSH1 0x20 DUP7 ADD PUSH2 0x37EE JUMP JUMPDEST PUSH2 0x2896 DUP2 PUSH2 0x39FB JUMP JUMPDEST DUP5 ADD SWAP2 POP POP SWAP3 SWAP2 POP POP JUMP JUMPDEST PUSH1 0x0 PUSH2 0x28AC DUP3 PUSH2 0x35EF JUMP JUMPDEST PUSH2 0x28B6 DUP2 DUP6 PUSH2 0x363A JUMP JUMPDEST SWAP4 POP PUSH2 0x28C6 DUP2 DUP6 PUSH1 0x20 DUP7 ADD PUSH2 0x37EE JUMP JUMPDEST PUSH2 0x28CF DUP2 PUSH2 0x39FB JUMP JUMPDEST DUP5 ADD SWAP2 POP POP SWAP3 SWAP2 POP POP JUMP JUMPDEST PUSH1 0x0 PUSH2 0x28E5 DUP3 PUSH2 0x35EF JUMP JUMPDEST PUSH2 0x28EF DUP2 DUP6 PUSH2 0x364B JUMP JUMPDEST SWAP4 POP PUSH2 0x28FF DUP2 DUP6 PUSH1 0x20 DUP7 ADD PUSH2 0x37EE JUMP JUMPDEST DUP1 DUP5 ADD SWAP2 POP POP SWAP3 SWAP2 POP POP JUMP JUMPDEST PUSH1 0x0 PUSH2 0x2918 PUSH1 0x20 DUP4 PUSH2 0x363A JUMP JUMPDEST SWAP2 POP PUSH2 0x2923 DUP3 PUSH2 0x3A0C JUMP JUMPDEST PUSH1 0x20 DUP3 ADD SWAP1 POP SWAP2 SWAP1 POP JUMP JUMPDEST PUSH1 0x0 PUSH2 0x293B PUSH1 0x2B DUP4 PUSH2 0x363A JUMP JUMPDEST SWAP2 POP PUSH2 0x2946 DUP3 PUSH2 0x3A35 JUMP JUMPDEST PUSH1 0x40 DUP3 ADD SWAP1 POP SWAP2 SWAP1 POP JUMP JUMPDEST PUSH1 0x0 PUSH2 0x295E PUSH1 0x32 DUP4 PUSH2 0x363A JUMP JUMPDEST SWAP2 POP PUSH2 0x2969 DUP3 PUSH2 0x3A84 JUMP JUMPDEST PUSH1 0x40 DUP3 ADD SWAP1 POP SWAP2 SWAP1 POP JUMP JUMPDEST PUSH1 0x0 PUSH2 0x2981 PUSH1 0x9 DUP4 PUSH2 0x364B JUMP JUMPDEST SWAP2 POP PUSH2 0x298C DUP3 PUSH2 0x3AD3 JUMP JUMPDEST PUSH1 0x9 DUP3 ADD SWAP1 POP SWAP2 SWAP1 POP JUMP JUMPDEST PUSH1 0x0 PUSH2 0x29A4 PUSH1 0x4F DUP4 PUSH2 0x364B JUMP JUMPDEST SWAP2 POP PUSH2 0x29AF DUP3 PUSH2 0x3AFC JUMP JUMPDEST PUSH1 0x4F DUP3 ADD SWAP1 POP SWAP2 SWAP1 POP JUMP JUMPDEST PUSH1 0x0 PUSH2 0x29C8 PUSH2 0x3C8 DUP4 PUSH2 0x364B JUMP JUMPDEST SWAP2 POP PUSH2 0x29D3 DUP3 PUSH2 0x3B71 JUMP JUMPDEST PUSH2 0x3C8 DUP3 ADD SWAP1 POP SWAP2 SWAP1 POP JUMP JUMPDEST PUSH1 0x0 PUSH2 0x29EC PUSH1 0x17 DUP4 PUSH2 0x363A JUMP JUMPDEST SWAP2 POP PUSH2 0x29F7 DUP3 PUSH2 0x4025 JUMP JUMPDEST PUSH1 0x20 DUP3 ADD SWAP1 POP SWAP2 SWAP1 POP JUMP JUMPDEST PUSH1 0x0 PUSH2 0x2A0F PUSH1 0x2 DUP4 PUSH2 0x364B JUMP JUMPDEST SWAP2 POP PUSH2 0x2A1A DUP3 PUSH2 0x404E JUMP JUMPDEST PUSH1 0x2 DUP3 ADD SWAP1 POP SWAP2 SWAP1 POP JUMP JUMPDEST PUSH1 0x0 PUSH2 0x2A32 PUSH1 0x1C DUP4 PUSH2 0x363A JUMP JUMPDEST SWAP2 POP PUSH2 0x2A3D DUP3 PUSH2 0x4077 JUMP JUMPDEST PUSH1 0x20 DUP3 ADD SWAP1 POP SWAP2 SWAP1 POP JUMP JUMPDEST PUSH1 0x0 PUSH2 0x2A55 PUSH1 0x54 DUP4 PUSH2 0x363A JUMP JUMPDEST SWAP2 POP PUSH2 0x2A60 DUP3 PUSH2 0x40A0 JUMP JUMPDEST PUSH1 0x60 DUP3 ADD SWAP1 POP SWAP2 SWAP1 POP JUMP JUMPDEST PUSH1 0x0 PUSH2 0x2A78 PUSH1 0xF DUP4 PUSH2 0x364B JUMP JUMPDEST SWAP2 POP PUSH2 0x2A83 DUP3 PUSH2 0x4115 JUMP JUMPDEST PUSH1 0xF DUP3 ADD SWAP1 POP SWAP2 SWAP1 POP JUMP JUMPDEST PUSH1 0x0 PUSH2 0x2A9B PUSH1 0x1A DUP4 PUSH2 0x363A JUMP JUMPDEST SWAP2 POP PUSH2 0x2AA6 DUP3 PUSH2 0x413E JUMP JUMPDEST PUSH1 0x20 DUP3 ADD SWAP1 POP SWAP2 SWAP1 POP JUMP JUMPDEST PUSH1 0x0 PUSH2 0x2ABE PUSH1 0x42 DUP4 PUSH2 0x364B JUMP JUMPDEST SWAP2 POP PUSH2 0x2AC9 DUP3 PUSH2 0x4167 JUMP JUMPDEST PUSH1 0x42 DUP3 ADD SWAP1 POP SWAP2 SWAP1 POP JUMP JUMPDEST PUSH1 0x0 PUSH2 0x2AE1 PUSH1 0xD DUP4 PUSH2 0x364B JUMP JUMPDEST SWAP2 POP PUSH2 0x2AEC DUP3 PUSH2 0x41DC JUMP JUMPDEST PUSH1 0xD DUP3 ADD SWAP1 POP SWAP2 SWAP1 POP JUMP JUMPDEST PUSH1 0x0 PUSH2 0x2B04 PUSH1 0xF DUP4 PUSH2 0x364B JUMP JUMPDEST SWAP2 POP PUSH2 0x2B0F DUP3 PUSH2 0x4205 JUMP JUMPDEST PUSH1 0xF DUP3 ADD SWAP1 POP SWAP2 SWAP1 POP JUMP JUMPDEST PUSH1 0x0 PUSH2 0x2B27 PUSH1 0xAD DUP4 PUSH2 0x364B JUMP JUMPDEST SWAP2 POP PUSH2 0x2B32 DUP3 PUSH2 0x422E JUMP JUMPDEST PUSH1 0xAD DUP3 ADD SWAP1 POP SWAP2 SWAP1 POP JUMP JUMPDEST PUSH1 0x0 PUSH2 0x2B4B PUSH2 0x168 DUP4 PUSH2 0x364B JUMP JUMPDEST SWAP2 POP PUSH2 0x2B56 DUP3 PUSH2 0x4315 JUMP JUMPDEST PUSH2 0x168 DUP3 ADD SWAP1 POP SWAP2 SWAP1 POP JUMP JUMPDEST PUSH1 0x0 PUSH2 0x2B6F PUSH1 0xFB DUP4 PUSH2 0x364B JUMP JUMPDEST SWAP2 POP PUSH2 0x2B7A DUP3 PUSH2 0x44E4 JUMP JUMPDEST PUSH1 0xFB DUP3 ADD SWAP1 POP SWAP2 SWAP1 POP JUMP JUMPDEST PUSH1 0x0 PUSH2 0x2B93 PUSH2 0x115 DUP4 PUSH2 0x364B JUMP JUMPDEST SWAP2 POP PUSH2 0x2B9E DUP3 PUSH2 0x4617 JUMP JUMPDEST PUSH2 0x115 DUP3 ADD SWAP1 POP SWAP2 SWAP1 POP JUMP JUMPDEST PUSH1 0x0 PUSH2 0x2BB7 PUSH1 0x42 DUP4 PUSH2 0x364B JUMP JUMPDEST SWAP2 POP PUSH2 0x2BC2 DUP3 PUSH2 0x4771 JUMP JUMPDEST PUSH1 0x42 DUP3 ADD SWAP1 POP SWAP2 SWAP1 POP JUMP JUMPDEST PUSH1 0x0 PUSH2 0x2BDA PUSH1 0x29 DUP4 PUSH2 0x363A JUMP JUMPDEST SWAP2 POP PUSH2 0x2BE5 DUP3 PUSH2 0x47E6 JUMP JUMPDEST PUSH1 0x40 DUP3 ADD SWAP1 POP SWAP2 SWAP1 POP JUMP JUMPDEST PUSH1 0x0 PUSH2 0x2BFD PUSH1 0x43 DUP4 PUSH2 0x364B JUMP JUMPDEST SWAP2 POP PUSH2 0x2C08 DUP3 PUSH2 0x4835 JUMP JUMPDEST PUSH1 0x43 DUP3 ADD SWAP1 POP SWAP2 SWAP1 POP JUMP JUMPDEST PUSH1 0x0 PUSH2 0x2C20 PUSH1 0x24 DUP4 PUSH2 0x364B JUMP JUMPDEST SWAP2 POP PUSH2 0x2C2B DUP3 PUSH2 0x48AA JUMP JUMPDEST PUSH1 0x24 DUP3 ADD SWAP1 POP SWAP2 SWAP1 POP JUMP JUMPDEST PUSH1 0x0 PUSH2 0x2C43 PUSH1 0x43 DUP4 PUSH2 0x364B JUMP JUMPDEST SWAP2 POP PUSH2 0x2C4E DUP3 PUSH2 0x48F9 JUMP JUMPDEST PUSH1 0x43 DUP3 ADD SWAP1 POP SWAP2 SWAP1 POP JUMP JUMPDEST PUSH1 0x0 PUSH2 0x2C66 PUSH1 0x43 DUP4 PUSH2 0x364B JUMP JUMPDEST SWAP2 POP PUSH2 0x2C71 DUP3 PUSH2 0x496E JUMP JUMPDEST PUSH1 0x43 DUP3 ADD SWAP1 POP SWAP2 SWAP1 POP JUMP JUMPDEST PUSH1 0x0 PUSH2 0x2C89 PUSH1 0x20 DUP4 PUSH2 0x363A JUMP JUMPDEST SWAP2 POP PUSH2 0x2C94 DUP3 PUSH2 0x49E3 JUMP JUMPDEST PUSH1 0x20 DUP3 ADD SWAP1 POP SWAP2 SWAP1 POP JUMP JUMPDEST PUSH1 0x0 PUSH2 0x2CAC PUSH1 0x1 DUP4 PUSH2 0x364B JUMP JUMPDEST SWAP2 POP PUSH2 0x2CB7 DUP3 PUSH2 0x4A0C JUMP JUMPDEST PUSH1 0x1 DUP3 ADD SWAP1 POP SWAP2 SWAP1 POP JUMP JUMPDEST PUSH1 0x0 PUSH2 0x2CCF PUSH1 0xAC DUP4 PUSH2 0x364B JUMP JUMPDEST SWAP2 POP PUSH2 0x2CDA DUP3 PUSH2 0x4A35 JUMP JUMPDEST PUSH1 0xAC DUP3 ADD SWAP1 POP SWAP2 SWAP1 POP JUMP JUMPDEST PUSH1 0x0 PUSH2 0x2CF2 PUSH1 0x28 DUP4 PUSH2 0x364B JUMP JUMPDEST SWAP2 POP PUSH2 0x2CFD DUP3 PUSH2 0x4B1C JUMP JUMPDEST PUSH1 0x28 DUP3 ADD SWAP1 POP SWAP2 SWAP1 POP JUMP JUMPDEST PUSH1 0x0 PUSH2 0x2D15 PUSH1 0x42 DUP4 PUSH2 0x364B JUMP JUMPDEST SWAP2 POP PUSH2 0x2D20 DUP3 PUSH2 0x4B6B JUMP JUMPDEST PUSH1 0x42 DUP3 ADD SWAP1 POP SWAP2 SWAP1 POP JUMP JUMPDEST PUSH1 0x0 PUSH2 0x2D38 PUSH1 0x16 DUP4 PUSH2 0x363A JUMP JUMPDEST SWAP2 POP PUSH2 0x2D43 DUP3 PUSH2 0x4BE0 JUMP JUMPDEST PUSH1 0x20 DUP3 ADD SWAP1 POP SWAP2 SWAP1 POP JUMP JUMPDEST PUSH1 0x0 PUSH2 0x2D5B PUSH1 0x1 DUP4 PUSH2 0x364B JUMP JUMPDEST SWAP2 POP PUSH2 0x2D66 DUP3 PUSH2 0x4C09 JUMP JUMPDEST PUSH1 0x1 DUP3 ADD SWAP1 POP SWAP2 SWAP1 POP JUMP JUMPDEST PUSH1 0x0 PUSH2 0x2D7E PUSH1 0x18 DUP4 PUSH2 0x363A JUMP JUMPDEST SWAP2 POP PUSH2 0x2D89 DUP3 PUSH2 0x4C32 JUMP JUMPDEST PUSH1 0x20 DUP3 ADD SWAP1 POP SWAP2 SWAP1 POP JUMP JUMPDEST PUSH1 0x0 PUSH2 0x2DA1 PUSH1 0x42 DUP4 PUSH2 0x364B JUMP JUMPDEST SWAP2 POP PUSH2 0x2DAC DUP3 PUSH2 0x4C5B JUMP JUMPDEST PUSH1 0x42 DUP3 ADD SWAP1 POP SWAP2 SWAP1 POP JUMP JUMPDEST PUSH1 0x0 PUSH2 0x2DC4 PUSH1 0x1D DUP4 PUSH2 0x364B JUMP JUMPDEST SWAP2 POP PUSH2 0x2DCF DUP3 PUSH2 0x4CD0 JUMP JUMPDEST PUSH1 0x1D DUP3 ADD SWAP1 POP SWAP2 SWAP1 POP JUMP JUMPDEST PUSH1 0x0 PUSH2 0x2DE8 PUSH2 0x786 DUP4 PUSH2 0x364B JUMP JUMPDEST SWAP2 POP PUSH2 0x2DF3 DUP3 PUSH2 0x4CF9 JUMP JUMPDEST PUSH2 0x786 DUP3 ADD SWAP1 POP SWAP2 SWAP1 POP JUMP JUMPDEST PUSH1 0x0 PUSH2 0x2E0C PUSH1 0x12 DUP4 PUSH2 0x364B JUMP JUMPDEST SWAP2 POP PUSH2 0x2E17 DUP3 PUSH2 0x563F JUMP JUMPDEST PUSH1 0x12 DUP3 ADD SWAP1 POP SWAP2 SWAP1 POP JUMP JUMPDEST PUSH1 0x0 PUSH2 0x2E2F PUSH1 0x42 DUP4 PUSH2 0x364B JUMP JUMPDEST SWAP2 POP PUSH2 0x2E3A DUP3 PUSH2 0x5668 JUMP JUMPDEST PUSH1 0x42 DUP3 ADD SWAP1 POP SWAP2 SWAP1 POP JUMP JUMPDEST PUSH1 0x0 PUSH2 0x2E52 PUSH1 0x1D DUP4 PUSH2 0x364B JUMP JUMPDEST SWAP2 POP PUSH2 0x2E5D DUP3 PUSH2 0x56DD JUMP JUMPDEST PUSH1 0x1D DUP3 ADD SWAP1 POP SWAP2 SWAP1 POP JUMP JUMPDEST PUSH1 0x0 PUSH2 0x2E75 PUSH1 0x43 DUP4 PUSH2 0x364B JUMP JUMPDEST SWAP2 POP PUSH2 0x2E80 DUP3 PUSH2 0x5706 JUMP JUMPDEST PUSH1 0x43 DUP3 ADD SWAP1 POP SWAP2 SWAP1 POP JUMP JUMPDEST PUSH1 0x0 PUSH2 0x2E98 PUSH1 0x42 DUP4 PUSH2 0x364B JUMP JUMPDEST SWAP2 POP PUSH2 0x2EA3 DUP3 PUSH2 0x577B JUMP JUMPDEST PUSH1 0x42 DUP3 ADD SWAP1 POP SWAP2 SWAP1 POP JUMP JUMPDEST PUSH1 0x0 PUSH2 0x2EBB PUSH1 0x42 DUP4 PUSH2 0x364B JUMP JUMPDEST SWAP2 POP PUSH2 0x2EC6 DUP3 PUSH2 0x57F0 JUMP JUMPDEST PUSH1 0x42 DUP3 ADD SWAP1 POP SWAP2 SWAP1 POP JUMP JUMPDEST PUSH1 0x0 PUSH1 0x60 DUP4 ADD PUSH1 0x0 DUP4 ADD MLOAD PUSH2 0x2EE9 PUSH1 0x0 DUP7 ADD DUP3 PUSH2 0x27A4 JUMP JUMPDEST POP PUSH1 0x20 DUP4 ADD MLOAD PUSH2 0x2EFC PUSH1 0x20 DUP7 ADD DUP3 PUSH2 0x27A4 JUMP JUMPDEST POP PUSH1 0x40 DUP4 ADD MLOAD DUP5 DUP3 SUB PUSH1 0x40 DUP7 ADD MSTORE PUSH2 0x2F14 DUP3 DUP3 PUSH2 0x2868 JUMP JUMPDEST SWAP2 POP POP DUP1 SWAP2 POP POP SWAP3 SWAP2 POP POP JUMP JUMPDEST PUSH2 0x2F2A DUP2 PUSH2 0x37D5 JUMP JUMPDEST DUP3 MSTORE POP POP JUMP JUMPDEST PUSH2 0x2F39 DUP2 PUSH2 0x37D5 JUMP JUMPDEST DUP3 MSTORE POP POP JUMP JUMPDEST PUSH1 0x0 PUSH2 0x2F4B DUP3 DUP5 PUSH2 0x28DA JUMP JUMPDEST SWAP2 POP DUP2 SWAP1 POP SWAP3 SWAP2 POP POP JUMP JUMPDEST PUSH1 0x0 PUSH2 0x2F62 DUP3 DUP8 PUSH2 0x28DA JUMP JUMPDEST SWAP2 POP PUSH2 0x2F6E DUP3 DUP7 PUSH2 0x28DA JUMP JUMPDEST SWAP2 POP PUSH2 0x2F7A DUP3 DUP6 PUSH2 0x28DA JUMP JUMPDEST SWAP2 POP PUSH2 0x2F86 DUP3 DUP5 PUSH2 0x28DA JUMP JUMPDEST SWAP2 POP DUP2 SWAP1 POP SWAP6 SWAP5 POP POP POP POP POP JUMP JUMPDEST PUSH1 0x0 PUSH2 0x2F9F DUP3 PUSH2 0x2974 JUMP JUMPDEST SWAP2 POP PUSH2 0x2FAB DUP3 DUP9 PUSH2 0x28DA JUMP JUMPDEST SWAP2 POP PUSH2 0x2FB6 DUP3 PUSH2 0x2D94 JUMP JUMPDEST SWAP2 POP PUSH2 0x2FC1 DUP3 PUSH2 0x2974 JUMP JUMPDEST SWAP2 POP PUSH2 0x2FCD DUP3 DUP8 PUSH2 0x28DA JUMP JUMPDEST SWAP2 POP PUSH2 0x2FD8 DUP3 PUSH2 0x2C36 JUMP JUMPDEST SWAP2 POP PUSH2 0x2FE3 DUP3 PUSH2 0x2974 JUMP JUMPDEST SWAP2 POP PUSH2 0x2FEF DUP3 DUP7 PUSH2 0x28DA JUMP JUMPDEST SWAP2 POP PUSH2 0x2FFA DUP3 PUSH2 0x2C59 JUMP JUMPDEST SWAP2 POP PUSH2 0x3005 DUP3 PUSH2 0x2974 JUMP JUMPDEST SWAP2 POP PUSH2 0x3011 DUP3 DUP6 PUSH2 0x28DA JUMP JUMPDEST SWAP2 POP PUSH2 0x301C DUP3 PUSH2 0x2BF0 JUMP JUMPDEST SWAP2 POP PUSH2 0x3027 DUP3 PUSH2 0x2974 JUMP JUMPDEST SWAP2 POP PUSH2 0x3033 DUP3 DUP5 PUSH2 0x28DA JUMP JUMPDEST SWAP2 POP PUSH2 0x303E DUP3 PUSH2 0x2E68 JUMP JUMPDEST SWAP2 POP DUP2 SWAP1 POP SWAP7 SWAP6 POP POP POP POP POP POP JUMP JUMPDEST PUSH1 0x0 PUSH2 0x3058 DUP3 PUSH2 0x2974 JUMP JUMPDEST SWAP2 POP PUSH2 0x3064 DUP3 DUP7 PUSH2 0x28DA JUMP JUMPDEST SWAP2 POP PUSH2 0x306F DUP3 PUSH2 0x2E22 JUMP JUMPDEST SWAP2 POP PUSH2 0x307A DUP3 PUSH2 0x2974 JUMP JUMPDEST SWAP2 POP PUSH2 0x3086 DUP3 DUP6 PUSH2 0x28DA JUMP JUMPDEST SWAP2 POP PUSH2 0x3091 DUP3 PUSH2 0x2E22 JUMP JUMPDEST SWAP2 POP PUSH2 0x309C DUP3 PUSH2 0x2974 JUMP JUMPDEST SWAP2 POP PUSH2 0x30A8 DUP3 DUP5 PUSH2 0x28DA JUMP JUMPDEST SWAP2 POP PUSH2 0x30B3 DUP3 PUSH2 0x2E22 JUMP JUMPDEST SWAP2 POP PUSH2 0x30BE DUP3 PUSH2 0x2B3D JUMP JUMPDEST SWAP2 POP PUSH2 0x30C9 DUP3 PUSH2 0x2DDA JUMP JUMPDEST SWAP2 POP PUSH2 0x30D4 DUP3 PUSH2 0x2CE5 JUMP JUMPDEST SWAP2 POP PUSH2 0x30DF DUP3 PUSH2 0x2B85 JUMP JUMPDEST SWAP2 POP DUP2 SWAP1 POP SWAP5 SWAP4 POP POP POP POP JUMP JUMPDEST PUSH1 0x0 PUSH2 0x30F7 DUP3 PUSH2 0x2974 JUMP JUMPDEST SWAP2 POP PUSH2 0x3103 DUP3 DUP10 PUSH2 0x28DA JUMP JUMPDEST SWAP2 POP PUSH2 0x310E DUP3 PUSH2 0x2EAE JUMP JUMPDEST SWAP2 POP PUSH2 0x3119 DUP3 PUSH2 0x2974 JUMP JUMPDEST SWAP2 POP PUSH2 0x3125 DUP3 DUP9 PUSH2 0x28DA JUMP JUMPDEST SWAP2 POP PUSH2 0x3130 DUP3 PUSH2 0x2E22 JUMP JUMPDEST SWAP2 POP PUSH2 0x313B DUP3 PUSH2 0x2974 JUMP JUMPDEST SWAP2 POP PUSH2 0x3147 DUP3 DUP8 PUSH2 0x28DA JUMP JUMPDEST SWAP2 POP PUSH2 0x3152 DUP3 PUSH2 0x2D08 JUMP JUMPDEST SWAP2 POP PUSH2 0x315D DUP3 PUSH2 0x2974 JUMP JUMPDEST SWAP2 POP PUSH2 0x3169 DUP3 DUP7 PUSH2 0x28DA JUMP JUMPDEST SWAP2 POP PUSH2 0x3174 DUP3 PUSH2 0x2BAA JUMP JUMPDEST SWAP2 POP PUSH2 0x317F DUP3 PUSH2 0x2974 JUMP JUMPDEST SWAP2 POP PUSH2 0x318B DUP3 DUP6 PUSH2 0x28DA JUMP JUMPDEST SWAP2 POP PUSH2 0x3196 DUP3 PUSH2 0x2E8B JUMP JUMPDEST SWAP2 POP PUSH2 0x31A1 DUP3 PUSH2 0x2974 JUMP JUMPDEST SWAP2 POP PUSH2 0x31AD DUP3 DUP5 PUSH2 0x28DA JUMP JUMPDEST SWAP2 POP PUSH2 0x31B8 DUP3 PUSH2 0x2AB1 JUMP JUMPDEST SWAP2 POP DUP2 SWAP1 POP SWAP8 SWAP7 POP POP POP POP POP POP POP JUMP JUMPDEST PUSH1 0x0 PUSH2 0x31D3 DUP3 PUSH2 0x29BA JUMP JUMPDEST SWAP2 POP PUSH2 0x31DE DUP3 PUSH2 0x2A6B JUMP JUMPDEST SWAP2 POP PUSH2 0x31EA DUP3 DUP7 PUSH2 0x28DA JUMP JUMPDEST SWAP2 POP PUSH2 0x31F5 DUP3 PUSH2 0x2CC2 JUMP JUMPDEST SWAP2 POP PUSH2 0x3200 DUP3 PUSH2 0x2AD4 JUMP JUMPDEST SWAP2 POP PUSH2 0x320C DUP3 DUP6 PUSH2 0x28DA JUMP JUMPDEST SWAP2 POP PUSH2 0x3217 DUP3 PUSH2 0x2B1A JUMP JUMPDEST SWAP2 POP PUSH2 0x3222 DUP3 PUSH2 0x2AF7 JUMP JUMPDEST SWAP2 POP PUSH2 0x322E DUP3 DUP5 PUSH2 0x28DA JUMP JUMPDEST SWAP2 POP PUSH2 0x3239 DUP3 PUSH2 0x2B62 JUMP JUMPDEST SWAP2 POP PUSH2 0x3244 DUP3 PUSH2 0x2997 JUMP JUMPDEST SWAP2 POP DUP2 SWAP1 POP SWAP5 SWAP4 POP POP POP POP JUMP JUMPDEST PUSH1 0x0 PUSH2 0x325C DUP3 PUSH2 0x2D4E JUMP JUMPDEST SWAP2 POP PUSH2 0x3267 DUP3 PUSH2 0x2DFF JUMP JUMPDEST SWAP2 POP PUSH2 0x3273 DUP3 DUP6 PUSH2 0x28DA JUMP JUMPDEST SWAP2 POP PUSH2 0x327E DUP3 PUSH2 0x2A02 JUMP JUMPDEST SWAP2 POP PUSH2 0x3289 DUP3 PUSH2 0x2C13 JUMP JUMPDEST SWAP2 POP PUSH2 0x3295 DUP3 DUP5 PUSH2 0x28DA JUMP JUMPDEST SWAP2 POP PUSH2 0x32A0 DUP3 PUSH2 0x2A02 JUMP JUMPDEST SWAP2 POP PUSH2 0x32AB DUP3 PUSH2 0x2E45 JUMP JUMPDEST SWAP2 POP PUSH2 0x32B6 DUP3 PUSH2 0x2C9F JUMP JUMPDEST SWAP2 POP DUP2 SWAP1 POP SWAP4 SWAP3 POP POP POP JUMP JUMPDEST PUSH1 0x0 PUSH2 0x32CD DUP3 PUSH2 0x2DB7 JUMP JUMPDEST SWAP2 POP PUSH2 0x32D9 DUP3 DUP5 PUSH2 0x28DA JUMP JUMPDEST SWAP2 POP DUP2 SWAP1 POP SWAP3 SWAP2 POP POP JUMP JUMPDEST PUSH1 0x0 PUSH1 0x20 DUP3 ADD SWAP1 POP PUSH2 0x32F9 PUSH1 0x0 DUP4 ADD DUP5 PUSH2 0x27B3 JUMP JUMPDEST SWAP3 SWAP2 POP POP JUMP JUMPDEST PUSH1 0x0 PUSH1 0x80 DUP3 ADD SWAP1 POP PUSH2 0x3314 PUSH1 0x0 DUP4 ADD DUP8 PUSH2 0x27B3 JUMP JUMPDEST PUSH2 0x3321 PUSH1 0x20 DUP4 ADD DUP7 PUSH2 0x27B3 JUMP JUMPDEST PUSH2 0x332E PUSH1 0x40 DUP4 ADD DUP6 PUSH2 0x2F30 JUMP JUMPDEST DUP2 DUP2 SUB PUSH1 0x60 DUP4 ADD MSTORE PUSH2 0x3340 DUP2 DUP5 PUSH2 0x282F JUMP JUMPDEST SWAP1 POP SWAP6 SWAP5 POP POP POP POP POP JUMP JUMPDEST PUSH1 0x0 PUSH1 0x20 DUP3 ADD SWAP1 POP DUP2 DUP2 SUB PUSH1 0x0 DUP4 ADD MSTORE PUSH2 0x3365 DUP2 DUP5 PUSH2 0x27C2 JUMP JUMPDEST SWAP1 POP SWAP3 SWAP2 POP POP JUMP JUMPDEST PUSH1 0x0 PUSH1 0x20 DUP3 ADD SWAP1 POP PUSH2 0x3382 PUSH1 0x0 DUP4 ADD DUP5 PUSH2 0x2820 JUMP JUMPDEST SWAP3 SWAP2 POP POP JUMP JUMPDEST PUSH1 0x0 PUSH1 0x20 DUP3 ADD SWAP1 POP DUP2 DUP2 SUB PUSH1 0x0 DUP4 ADD MSTORE PUSH2 0x33A2 DUP2 DUP5 PUSH2 0x28A1 JUMP JUMPDEST SWAP1 POP SWAP3 SWAP2 POP POP JUMP JUMPDEST PUSH1 0x0 PUSH1 0x20 DUP3 ADD SWAP1 POP DUP2 DUP2 SUB PUSH1 0x0 DUP4 ADD MSTORE PUSH2 0x33C3 DUP2 PUSH2 0x290B JUMP JUMPDEST SWAP1 POP SWAP2 SWAP1 POP JUMP JUMPDEST PUSH1 0x0 PUSH1 0x20 DUP3 ADD SWAP1 POP DUP2 DUP2 SUB PUSH1 0x0 DUP4 ADD MSTORE PUSH2 0x33E3 DUP2 PUSH2 0x292E JUMP JUMPDEST SWAP1 POP SWAP2 SWAP1 POP JUMP JUMPDEST PUSH1 0x0 PUSH1 0x20 DUP3 ADD SWAP1 POP DUP2 DUP2 SUB PUSH1 0x0 DUP4 ADD MSTORE PUSH2 0x3403 DUP2 PUSH2 0x2951 JUMP JUMPDEST SWAP1 POP SWAP2 SWAP1 POP JUMP JUMPDEST PUSH1 0x0 PUSH1 0x20 DUP3 ADD SWAP1 POP DUP2 DUP2 SUB PUSH1 0x0 DUP4 ADD MSTORE PUSH2 0x3423 DUP2 PUSH2 0x29DF JUMP JUMPDEST SWAP1 POP SWAP2 SWAP1 POP JUMP JUMPDEST PUSH1 0x0 PUSH1 0x20 DUP3 ADD SWAP1 POP DUP2 DUP2 SUB PUSH1 0x0 DUP4 ADD MSTORE PUSH2 0x3443 DUP2 PUSH2 0x2A25 JUMP JUMPDEST SWAP1 POP SWAP2 SWAP1 POP JUMP JUMPDEST PUSH1 0x0 PUSH1 0x20 DUP3 ADD SWAP1 POP DUP2 DUP2 SUB PUSH1 0x0 DUP4 ADD MSTORE PUSH2 0x3463 DUP2 PUSH2 0x2A48 JUMP JUMPDEST SWAP1 POP SWAP2 SWAP1 POP JUMP JUMPDEST PUSH1 0x0 PUSH1 0x20 DUP3 ADD SWAP1 POP DUP2 DUP2 SUB PUSH1 0x0 DUP4 ADD MSTORE PUSH2 0x3483 DUP2 PUSH2 0x2A8E JUMP JUMPDEST SWAP1 POP SWAP2 SWAP1 POP JUMP JUMPDEST PUSH1 0x0 PUSH1 0x20 DUP3 ADD SWAP1 POP DUP2 DUP2 SUB PUSH1 0x0 DUP4 ADD MSTORE PUSH2 0x34A3 DUP2 PUSH2 0x2BCD JUMP JUMPDEST SWAP1 POP SWAP2 SWAP1 POP JUMP JUMPDEST PUSH1 0x0 PUSH1 0x20 DUP3 ADD SWAP1 POP DUP2 DUP2 SUB PUSH1 0x0 DUP4 ADD MSTORE PUSH2 0x34C3 DUP2 PUSH2 0x2C7C JUMP JUMPDEST SWAP1 POP SWAP2 SWAP1 POP JUMP JUMPDEST PUSH1 0x0 PUSH1 0x20 DUP3 ADD SWAP1 POP DUP2 DUP2 SUB PUSH1 0x0 DUP4 ADD MSTORE PUSH2 0x34E3 DUP2 PUSH2 0x2D2B JUMP JUMPDEST SWAP1 POP SWAP2 SWAP1 POP JUMP JUMPDEST PUSH1 0x0 PUSH1 0x20 DUP3 ADD SWAP1 POP DUP2 DUP2 SUB PUSH1 0x0 DUP4 ADD MSTORE PUSH2 0x3503 DUP2 PUSH2 0x2D71 JUMP JUMPDEST SWAP1 POP SWAP2 SWAP1 POP JUMP JUMPDEST PUSH1 0x0 PUSH1 0x20 DUP3 ADD SWAP1 POP DUP2 DUP2 SUB PUSH1 0x0 DUP4 ADD MSTORE PUSH2 0x3524 DUP2 DUP5 PUSH2 0x2ED1 JUMP JUMPDEST SWAP1 POP SWAP3 SWAP2 POP POP JUMP JUMPDEST PUSH1 0x0 PUSH1 0x20 DUP3 ADD SWAP1 POP PUSH2 0x3541 PUSH1 0x0 DUP4 ADD DUP5 PUSH2 0x2F30 JUMP JUMPDEST SWAP3 SWAP2 POP POP JUMP JUMPDEST PUSH1 0x0 PUSH2 0x3551 PUSH2 0x3562 JUMP JUMPDEST SWAP1 POP PUSH2 0x355D DUP3 DUP3 PUSH2 0x387D JUMP JUMPDEST SWAP2 SWAP1 POP JUMP JUMPDEST PUSH1 0x0 PUSH1 0x40 MLOAD SWAP1 POP SWAP1 JUMP JUMPDEST PUSH1 0x0 PUSH8 0xFFFFFFFFFFFFFFFF DUP3 GT ISZERO PUSH2 0x3587 JUMPI PUSH2 0x3586 PUSH2 0x39B3 JUMP JUMPDEST JUMPDEST PUSH1 0x20 DUP3 MUL SWAP1 POP PUSH1 0x20 DUP2 ADD SWAP1 POP SWAP2 SWAP1 POP JUMP JUMPDEST PUSH1 0x0 PUSH8 0xFFFFFFFFFFFFFFFF DUP3 GT ISZERO PUSH2 0x35B3 JUMPI PUSH2 0x35B2 PUSH2 0x39B3 JUMP JUMPDEST JUMPDEST PUSH2 0x35BC DUP3 PUSH2 0x39FB JUMP JUMPDEST SWAP1 POP PUSH1 0x20 DUP2 ADD SWAP1 POP SWAP2 SWAP1 POP JUMP JUMPDEST PUSH1 0x0 DUP2 SWAP1 POP PUSH1 0x20 DUP3 ADD SWAP1 POP SWAP2 SWAP1 POP JUMP JUMPDEST PUSH1 0x0 DUP2 MLOAD SWAP1 POP SWAP2 SWAP1 POP JUMP JUMPDEST PUSH1 0x0 DUP2 MLOAD SWAP1 POP SWAP2 SWAP1 POP JUMP JUMPDEST PUSH1 0x0 DUP2 MLOAD SWAP1 POP SWAP2 SWAP1 POP JUMP JUMPDEST PUSH1 0x0 PUSH1 0x20 DUP3 ADD SWAP1 POP SWAP2 SWAP1 POP JUMP JUMPDEST PUSH1 0x0 DUP3 DUP3 MSTORE PUSH1 0x20 DUP3 ADD SWAP1 POP SWAP3 SWAP2 POP POP JUMP JUMPDEST PUSH1 0x0 DUP3 DUP3 MSTORE PUSH1 0x20 DUP3 ADD SWAP1 POP SWAP3 SWAP2 POP POP JUMP JUMPDEST PUSH1 0x0 DUP3 DUP3 MSTORE PUSH1 0x20 DUP3 ADD SWAP1 POP SWAP3 SWAP2 POP POP JUMP JUMPDEST PUSH1 0x0 DUP3 DUP3 MSTORE PUSH1 0x20 DUP3 ADD SWAP1 POP SWAP3 SWAP2 POP POP JUMP JUMPDEST PUSH1 0x0 DUP2 SWAP1 POP SWAP3 SWAP2 POP POP JUMP JUMPDEST PUSH1 0x0 PUSH2 0x3661 DUP3 PUSH2 0x37D5 JUMP JUMPDEST SWAP2 POP PUSH2 0x366C DUP4 PUSH2 0x37D5 JUMP JUMPDEST SWAP3 POP DUP3 PUSH32 0xFFFFFFFFFFFFFFFFFFFFFFFFFFFFFFFFFFFFFFFFFFFFFFFFFFFFFFFFFFFFFFFF SUB DUP3 GT ISZERO PUSH2 0x36A1 JUMPI PUSH2 0x36A0 PUSH2 0x38F7 JUMP JUMPDEST JUMPDEST DUP3 DUP3 ADD SWAP1 POP SWAP3 SWAP2 POP POP JUMP JUMPDEST PUSH1 0x0 PUSH2 0x36B7 DUP3 PUSH2 0x37D5 JUMP JUMPDEST SWAP2 POP PUSH2 0x36C2 DUP4 PUSH2 0x37D5 JUMP JUMPDEST SWAP3 POP DUP3 PUSH2 0x36D2 JUMPI PUSH2 0x36D1 PUSH2 0x3926 JUMP JUMPDEST JUMPDEST DUP3 DUP3 DIV SWAP1 POP SWAP3 SWAP2 POP POP JUMP JUMPDEST PUSH1 0x0 PUSH2 0x36E8 DUP3 PUSH2 0x37D5 JUMP JUMPDEST SWAP2 POP PUSH2 0x36F3 DUP4 PUSH2 0x37D5 JUMP JUMPDEST SWAP3 POP DUP2 PUSH32 0xFFFFFFFFFFFFFFFFFFFFFFFFFFFFFFFFFFFFFFFFFFFFFFFFFFFFFFFFFFFFFFFF DIV DUP4 GT DUP3 ISZERO ISZERO AND ISZERO PUSH2 0x372C JUMPI PUSH2 0x372B PUSH2 0x38F7 JUMP JUMPDEST JUMPDEST DUP3 DUP3 MUL SWAP1 POP SWAP3 SWAP2 POP POP JUMP JUMPDEST PUSH1 0x0 PUSH2 0x3742 DUP3 PUSH2 0x37D5 JUMP JUMPDEST SWAP2 POP PUSH2 0x374D DUP4 PUSH2 0x37D5 JUMP JUMPDEST SWAP3 POP DUP3 DUP3 LT ISZERO PUSH2 0x3760 JUMPI PUSH2 0x375F PUSH2 0x38F7 JUMP JUMPDEST JUMPDEST DUP3 DUP3 SUB SWAP1 POP SWAP3 SWAP2 POP POP JUMP JUMPDEST PUSH1 0x0 PUSH2 0x3776 DUP3 PUSH2 0x37B5 JUMP JUMPDEST SWAP1 POP SWAP2 SWAP1 POP JUMP JUMPDEST PUSH1 0x0 DUP2 ISZERO ISZERO SWAP1 POP SWAP2 SWAP1 POP JUMP JUMPDEST PUSH1 0x0 PUSH32 0xFFFFFFFF00000000000000000000000000000000000000000000000000000000 DUP3 AND SWAP1 POP SWAP2 SWAP1 POP JUMP JUMPDEST PUSH1 0x0 PUSH20 0xFFFFFFFFFFFFFFFFFFFFFFFFFFFFFFFFFFFFFFFF DUP3 AND SWAP1 POP SWAP2 SWAP1 POP JUMP JUMPDEST PUSH1 0x0 DUP2 SWAP1 POP SWAP2 SWAP1 POP JUMP JUMPDEST DUP3 DUP2 DUP4 CALLDATACOPY PUSH1 0x0 DUP4 DUP4 ADD MSTORE POP POP POP JUMP JUMPDEST PUSH1 0x0 JUMPDEST DUP4 DUP2 LT ISZERO PUSH2 0x380C JUMPI DUP1 DUP3 ADD MLOAD DUP2 DUP5 ADD MSTORE PUSH1 0x20 DUP2 ADD SWAP1 POP PUSH2 0x37F1 JUMP JUMPDEST DUP4 DUP2 GT ISZERO PUSH2 0x381B JUMPI PUSH1 0x0 DUP5 DUP5 ADD MSTORE JUMPDEST POP POP POP POP JUMP JUMPDEST PUSH1 0x0 PUSH2 0x382C DUP3 PUSH2 0x37D5 JUMP JUMPDEST SWAP2 POP PUSH1 0x0 DUP3 EQ ISZERO PUSH2 0x3840 JUMPI PUSH2 0x383F PUSH2 0x38F7 JUMP JUMPDEST JUMPDEST PUSH1 0x1 DUP3 SUB SWAP1 POP SWAP2 SWAP1 POP JUMP JUMPDEST PUSH1 0x0 PUSH1 0x2 DUP3 DIV SWAP1 POP PUSH1 0x1 DUP3 AND DUP1 PUSH2 0x3863 JUMPI PUSH1 0x7F DUP3 AND SWAP2 POP JUMPDEST PUSH1 0x20 DUP3 LT DUP2 EQ ISZERO PUSH2 0x3877 JUMPI PUSH2 0x3876 PUSH2 0x3955 JUMP JUMPDEST JUMPDEST POP SWAP2 SWAP1 POP JUMP JUMPDEST PUSH2 0x3886 DUP3 PUSH2 0x39FB JUMP JUMPDEST DUP2 ADD DUP2 DUP2 LT PUSH8 0xFFFFFFFFFFFFFFFF DUP3 GT OR ISZERO PUSH2 0x38A5 JUMPI PUSH2 0x38A4 PUSH2 0x39B3 JUMP JUMPDEST JUMPDEST DUP1 PUSH1 0x40 MSTORE POP POP POP JUMP JUMPDEST PUSH1 0x0 PUSH2 0x38B9 DUP3 PUSH2 0x37D5 JUMP JUMPDEST SWAP2 POP PUSH32 0xFFFFFFFFFFFFFFFFFFFFFFFFFFFFFFFFFFFFFFFFFFFFFFFFFFFFFFFFFFFFFFFF DUP3 EQ ISZERO PUSH2 0x38EC JUMPI PUSH2 0x38EB PUSH2 0x38F7 JUMP JUMPDEST JUMPDEST PUSH1 0x1 DUP3 ADD SWAP1 POP SWAP2 SWAP1 POP JUMP JUMPDEST PUSH32 0x4E487B7100000000000000000000000000000000000000000000000000000000 PUSH1 0x0 MSTORE PUSH1 0x11 PUSH1 0x4 MSTORE PUSH1 0x24 PUSH1 0x0 REVERT JUMPDEST PUSH32 0x4E487B7100000000000000000000000000000000000000000000000000000000 PUSH1 0x0 MSTORE PUSH1 0x12 PUSH1 0x4 MSTORE PUSH1 0x24 PUSH1 0x0 REVERT JUMPDEST PUSH32 0x4E487B7100000000000000000000000000000000000000000000000000000000 PUSH1 0x0 MSTORE PUSH1 0x22 PUSH1 0x4 MSTORE PUSH1 0x24 PUSH1 0x0 REVERT JUMPDEST PUSH32 0x4E487B7100000000000000000000000000000000000000000000000000000000 PUSH1 0x0 MSTORE PUSH1 0x32 PUSH1 0x4 MSTORE PUSH1 0x24 PUSH1 0x0 REVERT JUMPDEST PUSH32 0x4E487B7100000000000000000000000000000000000000000000000000000000 PUSH1 0x0 MSTORE PUSH1 0x41 PUSH1 0x4 MSTORE PUSH1 0x24 PUSH1 0x0 REVERT JUMPDEST PUSH1 0x0 DUP1 REVERT JUMPDEST PUSH1 0x0 DUP1 REVERT JUMPDEST PUSH1 0x0 DUP1 REVERT JUMPDEST PUSH1 0x0 DUP1 REVERT JUMPDEST PUSH1 0x0 DUP1 REVERT JUMPDEST PUSH1 0x0 PUSH1 0x1F NOT PUSH1 0x1F DUP4 ADD AND SWAP1 POP SWAP2 SWAP1 POP JUMP JUMPDEST PUSH32 0x537472696E67733A20686578206C656E67746820696E73756666696369656E74 PUSH1 0x0 DUP3 ADD MSTORE POP JUMP JUMPDEST PUSH32 0x54686973206D65737361676520697320746F6F206269672E204D617820363732 PUSH1 0x0 DUP3 ADD MSTORE PUSH32 0x2063686172616374657273000000000000000000000000000000000000000000 PUSH1 0x20 DUP3 ADD MSTORE POP JUMP JUMPDEST PUSH32 0x4552433732313A207472616E7366657220746F206E6F6E204552433732315265 PUSH1 0x0 DUP3 ADD MSTORE PUSH32 0x63656976657220696D706C656D656E7465720000000000000000000000000000 PUSH1 0x20 DUP3 ADD MSTORE POP JUMP JUMPDEST PUSH32 0x3C215B43444154415B0000000000000000000000000000000000000000000000 PUSH1 0x0 DUP3 ADD MSTORE POP JUMP JUMPDEST PUSH32 0x3C215B43444154415B426F64795D5D3E3C2F747370616E3E3C747370616E2078 PUSH1 0x0 DUP3 ADD MSTORE PUSH32 0x3D22302220793D2231322220666F6E742D7765696768743D2233303022207374 PUSH1 0x20 DUP3 ADD MSTORE PUSH32 0x726F6B652D77696474683D2230223E0000000000000000000000000000000000 PUSH1 0x40 DUP3 ADD MSTORE POP JUMP JUMPDEST PUSH32 0x3C7376672069643D22654E53496B326546697161312220786D6C6E733D226874 PUSH1 0x0 DUP3 ADD MSTORE PUSH32 0x74703A2F2F7777772E77332E6F72672F323030302F7376672220786D6C6E733A PUSH1 0x20 DUP3 ADD MSTORE PUSH32 0x786C696E6B3D22687474703A2F2F7777772E77332E6F72672F313939392F786C PUSH1 0x40 DUP3 ADD MSTORE PUSH32 0x696E6B222076696577426F783D22302030203336302033363022207368617065 PUSH1 0x60 DUP3 ADD MSTORE PUSH32 0x2D72656E646572696E673D2267656F6D6574726963507265636973696F6E2220 PUSH1 0x80 DUP3 ADD MSTORE PUSH32 0x746578742D72656E646572696E673D2267656F6D657472696350726563697369 PUSH1 0xA0 DUP3 ADD MSTORE PUSH32 0x6F6E22207374796C653D226261636B67726F756E642D636F6C6F723A72676261 PUSH1 0xC0 DUP3 ADD MSTORE PUSH32 0x28332C302C32352C302E383429223E3C726563742077696474683D2233362220 PUSH1 0xE0 DUP3 ADD MSTORE PUSH32 0x6865696768743D223336222072783D2232222072793D223222207472616E7366 PUSH2 0x100 DUP3 ADD MSTORE PUSH32 0x6F726D3D226D617472697828392E37373132382030203020392E373731323820 PUSH2 0x120 DUP3 ADD MSTORE PUSH32 0x342E313137303120342E313137303129222066696C6C3D222365633633353222 PUSH2 0x140 DUP3 ADD MSTORE PUSH32 0x207374726F6B652D77696474683D2230222F3E3C726563742077696474683D22 PUSH2 0x160 DUP3 ADD MSTORE PUSH32 0x333622206865696768743D2233362E38383238222072783D2232222072793D22 PUSH2 0x180 DUP3 ADD MSTORE PUSH32 0x3222207472616E73666F726D3D226D617472697828392E333033323320302030 PUSH2 0x1A0 DUP3 ADD MSTORE PUSH32 0x20372E30323535372031332E3031372039302E3337383129222066696C6C3D22 PUSH2 0x1C0 DUP3 ADD MSTORE PUSH32 0x2366386339616322207374726F6B652D77696474683D2230222F3E3C72656374 PUSH2 0x1E0 DUP3 ADD MSTORE PUSH32 0x2077696474683D223333342E39313622206865696768743D2236392E39363739 PUSH2 0x200 DUP3 ADD MSTORE PUSH32 0x222072783D223138222072793D22313822207472616E73666F726D3D22747261 PUSH2 0x220 DUP3 ADD MSTORE PUSH32 0x6E736C6174652831322E353431392031322E3337383529222066696C6C3D2223 PUSH2 0x240 DUP3 ADD MSTORE PUSH32 0x66386339616322207374726F6B652D77696474683D2230222F3E3C7465787420 PUSH2 0x260 DUP3 ADD MSTORE PUSH32 0x64783D2230222064793D22302220666F6E742D66616D696C793D222671756F74 PUSH2 0x280 DUP3 ADD MSTORE PUSH32 0x3B654E53496B326546697161313A3A3A427562626C6567756D2053616E732671 PUSH2 0x2A0 DUP3 ADD MSTORE PUSH32 0x756F743B2220666F6E742D73697A653D2231312220666F6E742D776569676874 PUSH2 0x2C0 DUP3 ADD MSTORE PUSH32 0x3D2234303022207472616E73666F726D3D227472616E736C6174652837352E39 PUSH2 0x2E0 DUP3 ADD MSTORE PUSH32 0x3332322034302E3031333129222066696C6C3D22236133343930382220737472 PUSH2 0x300 DUP3 ADD MSTORE PUSH32 0x6F6B652D77696474683D2230223E3C747370616E20793D22302220666F6E742D PUSH2 0x320 DUP3 ADD MSTORE PUSH32 0x66616D696C793D222671756F743B654E53496B326546697161313A3A3A427562 PUSH2 0x340 DUP3 ADD MSTORE PUSH32 0x626C6567756D2053616E732671756F743B2220666F6E742D73697A653D223131 PUSH2 0x360 DUP3 ADD MSTORE PUSH32 0x2220666F6E742D7765696768743D223430302220666F6E742D7374796C653D22 PUSH2 0x380 DUP3 ADD MSTORE PUSH32 0x6E6F726D616C222066696C6C3D222361333439303822207374726F6B652D7769 PUSH2 0x3A0 DUP3 ADD MSTORE PUSH32 0x6474683D2230223E000000000000000000000000000000000000000000000000 PUSH2 0x3C0 DUP3 ADD MSTORE POP JUMP JUMPDEST PUSH32 0x546F6B656E206372656174696F6E207265766572746564000000000000000000 PUSH1 0x0 DUP3 ADD MSTORE POP JUMP JUMPDEST PUSH32 0x222C000000000000000000000000000000000000000000000000000000000000 PUSH1 0x0 DUP3 ADD MSTORE POP JUMP JUMPDEST PUSH32 0x4552433732313A20746F6B656E20616C7265616479206D696E74656400000000 PUSH1 0x0 DUP3 ADD MSTORE POP JUMP JUMPDEST PUSH32 0x4F6E65206F72206D6F7265206D6573736167657320686173206661696C656420 PUSH1 0x0 DUP3 ADD MSTORE PUSH32 0x746F206172726976652C20616C6C20726563697069656E747320686176652074 PUSH1 0x20 DUP3 ADD MSTORE PUSH32 0x6F20626520455243373231205265636569766572000000000000000000000000 PUSH1 0x40 DUP3 ADD MSTORE POP JUMP JUMPDEST PUSH32 0x3C215B43444154415B46726F6D3A200000000000000000000000000000000000 PUSH1 0x0 DUP3 ADD MSTORE POP JUMP JUMPDEST PUSH32 0x43616E27742073656E64206D65737361676520746F2073656C66000000000000 PUSH1 0x0 DUP3 ADD MSTORE POP JUMP JUMPDEST PUSH32 0x5D5D3E3C2F747370616E3E3C747370616E20783D22302220793D223834222066 PUSH1 0x0 DUP3 ADD MSTORE PUSH32 0x6F6E742D7765696768743D2233303022207374726F6B652D77696474683D2230 PUSH1 0x20 DUP3 ADD MSTORE PUSH32 0x223E000000000000000000000000000000000000000000000000000000000000 PUSH1 0x40 DUP3 ADD MSTORE POP JUMP JUMPDEST PUSH32 0x3C215B43444154415B546F3A2000000000000000000000000000000000000000 PUSH1 0x0 DUP3 ADD MSTORE POP JUMP JUMPDEST PUSH32 0x3C215B43444154415B446174653A200000000000000000000000000000000000 PUSH1 0x0 DUP3 ADD MSTORE POP JUMP JUMPDEST PUSH32 0x205D5D3E3C2F747370616E3E3C747370616E20783D22302220793D2232322220 PUSH1 0x0 DUP3 ADD MSTORE PUSH32 0x666F6E742D66616D696C793D222671756F743B654E53496B326546697161313A PUSH1 0x20 DUP3 ADD MSTORE PUSH32 0x3A3A427562626C6567756D2053616E732671756F743B2220666F6E742D73697A PUSH1 0x40 DUP3 ADD MSTORE PUSH32 0x653D2231312220666F6E742D7765696768743D223430302220666F6E742D7374 PUSH1 0x60 DUP3 ADD MSTORE PUSH32 0x796C653D226E6F726D616C222066696C6C3D222361333439303822207374726F PUSH1 0x80 DUP3 ADD MSTORE PUSH32 0x6B652D77696474683D2230223E00000000000000000000000000000000000000 PUSH1 0xA0 DUP3 ADD MSTORE POP JUMP JUMPDEST PUSH32 0x3C215B43444154415B5D5D3E3C2F747370616E3E3C2F746578743E3C74657874 PUSH1 0x0 DUP3 ADD MSTORE PUSH32 0x2064783D2230222064793D22302220666F6E742D66616D696C793D222671756F PUSH1 0x20 DUP3 ADD MSTORE PUSH32 0x743B654E53496B326546697161313A3A3A427562626C6567756D2053616E7326 PUSH1 0x40 DUP3 ADD MSTORE PUSH32 0x71756F743B2220666F6E742D73697A653D2231302220666F6E742D7765696768 PUSH1 0x60 DUP3 ADD MSTORE PUSH32 0x743D2233303022207472616E73666F726D3D227472616E736C6174652833372E PUSH1 0x80 DUP3 ADD MSTORE PUSH32 0x38343238203333312E323329222066696C6C3D22233863346630352220737472 PUSH1 0xA0 DUP3 ADD MSTORE PUSH32 0x6F6B652D77696474683D2230223E3C747370616E20793D22302220666F6E742D PUSH1 0xC0 DUP3 ADD MSTORE PUSH32 0x66616D696C793D222671756F743B654E53496B326546697161313A3A3A427562 PUSH1 0xE0 DUP3 ADD MSTORE PUSH32 0x626C6567756D2053616E732671756F743B2220666F6E742D73697A653D223130 PUSH2 0x100 DUP3 ADD MSTORE PUSH32 0x2220666F6E742D7765696768743D223330302220666F6E742D7374796C653D22 PUSH2 0x120 DUP3 ADD MSTORE PUSH32 0x6E6F726D616C222066696C6C3D222338633466303522207374726F6B652D7769 PUSH2 0x140 DUP3 ADD MSTORE PUSH32 0x6474683D2230223E000000000000000000000000000000000000000000000000 PUSH2 0x160 DUP3 ADD MSTORE POP JUMP JUMPDEST PUSH32 0x5D5D3E3C2F747370616E3E3C2F746578743E3C746578742064783D2230222064 PUSH1 0x0 DUP3 ADD MSTORE PUSH32 0x793D22302220666F6E742D66616D696C793D222671756F743B654E53496B3265 PUSH1 0x20 DUP3 ADD MSTORE PUSH32 0x46697161313A3A3A427562626C6567756D2053616E732671756F743B2220666F PUSH1 0x40 DUP3 ADD MSTORE PUSH32 0x6E742D73697A653D2231322220666F6E742D7765696768743D22333030222074 PUSH1 0x60 DUP3 ADD MSTORE PUSH32 0x72616E73666F726D3D227472616E736C6174652833372E383432373734203132 PUSH1 0x80 DUP3 ADD MSTORE PUSH32 0x382E32343739333329222066696C6C3D222338633466303522207374726F6B65 PUSH1 0xA0 DUP3 ADD MSTORE PUSH32 0x2D77696474683D2230223E3C747370616E20793D22302220666F6E742D776569 PUSH1 0xC0 DUP3 ADD MSTORE PUSH32 0x6768743D2233303022207374726F6B652D77696474683D2230223E0000000000 PUSH1 0xE0 DUP3 ADD MSTORE POP JUMP JUMPDEST PUSH32 0x27654E53496B326546697161313A3A3A427562626C6567756D2053616E73273B PUSH1 0x0 DUP3 ADD MSTORE PUSH32 0x666F6E742D7374796C653A206E6F726D616C3B666F6E742D7765696768743A20 PUSH1 0x20 DUP3 ADD MSTORE PUSH32 0x3430303B7372633A2075726C2868747470733A2F2F666F6E74732E6773746174 PUSH1 0x40 DUP3 ADD MSTORE PUSH32 0x69632E636F6D2F6C2F666F6E743F6B69743D415943537058625F5A39454F5276 PUSH1 0x60 DUP3 ADD MSTORE PUSH32 0x314D3551546A457A4D45746461483172624E5934785941436E33456634636A67 PUSH1 0x80 DUP3 ADD MSTORE PUSH32 0x4374357577513964476F5A37353064634B4D6B4F6761556D3764763079637543 PUSH1 0xA0 DUP3 ADD MSTORE PUSH32 0x324C476737433973424E64516665484B677526736B65793D3930376663663936 PUSH1 0xC0 DUP3 ADD MSTORE PUSH32 0x323131633865376526763D7631362920666F726D617428277472756574797065 PUSH1 0xE0 DUP3 ADD MSTORE PUSH32 0x27293B7D5D5D3E3C2F7374796C653E3C2F7376673E0000000000000000000000 PUSH2 0x100 DUP3 ADD MSTORE POP JUMP JUMPDEST PUSH32 0x5D5D3E3C2F747370616E3E3C747370616E20783D22302220793D223630222066 PUSH1 0x0 DUP3 ADD MSTORE PUSH32 0x6F6E742D7765696768743D2233303022207374726F6B652D77696474683D2230 PUSH1 0x20 DUP3 ADD MSTORE PUSH32 0x223E000000000000000000000000000000000000000000000000000000000000 PUSH1 0x40 DUP3 ADD MSTORE POP JUMP JUMPDEST PUSH32 0x4552433732313A2061646472657373207A65726F206973206E6F742061207661 PUSH1 0x0 DUP3 ADD MSTORE PUSH32 0x6C6964206F776E65720000000000000000000000000000000000000000000000 PUSH1 0x20 DUP3 ADD MSTORE POP JUMP JUMPDEST PUSH32 0x5D5D3E3C2F747370616E3E3C747370616E20783D22302220793D223133342220 PUSH1 0x0 DUP3 ADD MSTORE PUSH32 0x666F6E742D7765696768743D2233303022207374726F6B652D77696474683D22 PUSH1 0x20 DUP3 ADD MSTORE PUSH32 0x30223E0000000000000000000000000000000000000000000000000000000000 PUSH1 0x40 DUP3 ADD MSTORE POP JUMP JUMPDEST PUSH32 0x22696D616765223A2022646174613A696D6167652F7376672B786D6C3B626173 PUSH1 0x0 DUP3 ADD MSTORE PUSH32 0x6536342C00000000000000000000000000000000000000000000000000000000 PUSH1 0x20 DUP3 ADD MSTORE POP JUMP JUMPDEST PUSH32 0x5D5D3E3C2F747370616E3E3C747370616E20783D22302220793D223130382220 PUSH1 0x0 DUP3 ADD MSTORE PUSH32 0x666F6E742D7765696768743D2233303022207374726F6B652D77696474683D22 PUSH1 0x20 DUP3 ADD MSTORE PUSH32 0x30223E0000000000000000000000000000000000000000000000000000000000 PUSH1 0x40 DUP3 ADD MSTORE POP JUMP JUMPDEST PUSH32 0x5D5D3E3C2F747370616E3E3C747370616E20783D22302220793D223132302220 PUSH1 0x0 DUP3 ADD MSTORE PUSH32 0x666F6E742D7765696768743D2233303022207374726F6B652D77696474683D22 PUSH1 0x20 DUP3 ADD MSTORE PUSH32 0x30223E0000000000000000000000000000000000000000000000000000000000 PUSH1 0x40 DUP3 ADD MSTORE POP JUMP JUMPDEST PUSH32 0x4552433732313A206D696E7420746F20746865207A65726F2061646472657373 PUSH1 0x0 DUP3 ADD MSTORE POP JUMP JUMPDEST PUSH32 0x7D00000000000000000000000000000000000000000000000000000000000000 PUSH1 0x0 DUP3 ADD MSTORE POP JUMP JUMPDEST PUSH32 0x5D5D3E3C2F747370616E3E3C747370616E20783D22302220793D223131222066 PUSH1 0x0 DUP3 ADD MSTORE PUSH32 0x6F6E742D66616D696C793D222671756F743B654E53496B326546697161313A3A PUSH1 0x20 DUP3 ADD MSTORE PUSH32 0x3A427562626C6567756D2053616E732671756F743B2220666F6E742D73697A65 PUSH1 0x40 DUP3 ADD MSTORE PUSH32 0x3D2231312220666F6E742D7765696768743D223430302220666F6E742D737479 PUSH1 0x60 DUP3 ADD MSTORE PUSH32 0x6C653D226E6F726D616C222066696C6C3D222361333439303822207374726F6B PUSH1 0x80 DUP3 ADD MSTORE PUSH32 0x652D77696474683D2230223E0000000000000000000000000000000000000000 PUSH1 0xA0 DUP3 ADD MSTORE POP JUMP JUMPDEST PUSH32 0x3C7374796C653E3C215B43444154415B40666F6E742D66616365207B666F6E74 PUSH1 0x0 DUP3 ADD MSTORE PUSH32 0x2D66616D696C793A000000000000000000000000000000000000000000000000 PUSH1 0x20 DUP3 ADD MSTORE POP JUMP JUMPDEST PUSH32 0x5D5D3E3C2F747370616E3E3C747370616E20783D22302220793D223438222066 PUSH1 0x0 DUP3 ADD MSTORE PUSH32 0x6F6E742D7765696768743D2233303022207374726F6B652D77696474683D2230 PUSH1 0x20 DUP3 ADD MSTORE PUSH32 0x223E000000000000000000000000000000000000000000000000000000000000 PUSH1 0x40 DUP3 ADD MSTORE POP JUMP JUMPDEST PUSH32 0x4D61782031303020757365722070657220626174636800000000000000000000 PUSH1 0x0 DUP3 ADD MSTORE POP JUMP JUMPDEST PUSH32 0x7B00000000000000000000000000000000000000000000000000000000000000 PUSH1 0x0 DUP3 ADD MSTORE POP JUMP JUMPDEST PUSH32 0x4552433732313A20696E76616C696420746F6B656E2049440000000000000000 PUSH1 0x0 DUP3 ADD MSTORE POP JUMP JUMPDEST PUSH32 0x5D5D3E3C2F747370616E3E3C747370616E20783D22302220793D223936222066 PUSH1 0x0 DUP3 ADD MSTORE PUSH32 0x6F6E742D7765696768743D2233303022207374726F6B652D77696474683D2230 PUSH1 0x20 DUP3 ADD MSTORE PUSH32 0x223E000000000000000000000000000000000000000000000000000000000000 PUSH1 0x40 DUP3 ADD MSTORE POP JUMP JUMPDEST PUSH32 0x646174613A6170706C69636174696F6E2F6A736F6E3B6261736536342C000000 PUSH1 0x0 DUP3 ADD MSTORE POP JUMP JUMPDEST PUSH32 0x3C215B43444154415B4D736756616C75653A2031303030303030303030303030 PUSH1 0x0 DUP3 ADD MSTORE PUSH32 0x3030303030305D5D3E3C2F747370616E3E3C2F746578743E3C72656374207769 PUSH1 0x20 DUP3 ADD MSTORE PUSH32 0x6474683D223130332E35333122206865696768743D2232332E32393436222072 PUSH1 0x40 DUP3 ADD MSTORE PUSH32 0x783D223131222072793D22313122207472616E73666F726D3D226D6174726978 PUSH1 0x60 DUP3 ADD MSTORE PUSH32 0x28312E312030203020312E3232323232203232382E343737203331342E343737 PUSH1 0x80 DUP3 ADD MSTORE PUSH32 0x29222066696C6C3D222366643864303922207374726F6B653D22726762612835 PUSH1 0xA0 DUP3 ADD MSTORE PUSH32 0x362C36362C362C302E3229222F3E3C656C6C697073652072783D2232332E3834 PUSH1 0xC0 DUP3 ADD MSTORE PUSH32 0x3938222072793D2231312E3536373922207472616E73666F726D3D226D617472 PUSH1 0xE0 DUP3 ADD MSTORE PUSH32 0x697828312E303430393220302E3633383439382D2E37313134323820312E3135 PUSH2 0x100 DUP3 ADD MSTORE PUSH32 0x3938322034362E303732352034352E35353129222066696C6C3D222365633633 PUSH2 0x120 DUP3 ADD MSTORE PUSH32 0x353222207374726F6B652D77696474683D2230222F3E3C7061746820643D224D PUSH2 0x140 DUP3 ADD MSTORE PUSH32 0x33332E3132353735362C35352E313135353536712E3035363736342C302C2E32 PUSH2 0x160 DUP3 ADD MSTORE PUSH32 0x38333831382D382E313733393633632D362E3030323133392E3031363835382D PUSH2 0x180 DUP3 ADD MSTORE PUSH32 0x31322E32303132342D332E3837343438362D31322E3136323831362D372E3934 PUSH2 0x1A0 DUP3 ADD MSTORE PUSH32 0x363930392D2E3430383032362D362E3432313433342C392E3131353036362D38 PUSH2 0x1C0 DUP3 ADD MSTORE PUSH32 0x2E3536333934322C31372E3332383330372D362E32343463322E373238323335 PUSH2 0x1E0 DUP3 ADD MSTORE PUSH32 0x2C312E3236343038322C342E3830363034362C372E3139393333392C352E3339 PUSH2 0x200 DUP3 ADD MSTORE PUSH32 0x323534352C31302E393838393339712E3039303231392E3538323934332C342E PUSH2 0x220 DUP3 ADD MSTORE PUSH32 0x3038363938312D31302E353334383363312E3836373030342D2E323736373931 PUSH2 0x240 DUP3 ADD MSTORE PUSH32 0x2C352E3534313332372D2E3431333334362C362E3735343837322C3076392E33 PUSH2 0x260 DUP3 ADD MSTORE PUSH32 0x303932333663372E3133383532392D2E3031353735342C31362E303134393736 PUSH2 0x280 DUP3 ADD MSTORE PUSH32 0x2C332E3834333738362C31362E3038383737392C392E3330393233352E343436 PUSH2 0x2A0 DUP3 ADD MSTORE PUSH32 0x3530362C362E3831333239392D31322E3334353138352C382E3739303334362D PUSH2 0x2C0 DUP3 ADD MSTORE PUSH32 0x32322E30343839362C372E36303633323763312E3730383631352D332E303738 PUSH2 0x2E0 DUP3 ADD MSTORE PUSH32 0x3037372C312E3630303930312D31322E37343635332E3536373633362D31382E PUSH2 0x300 DUP3 ADD MSTORE PUSH32 0x3738383736322D332E3137393839382C372E3232323534322D342E3335313338 PUSH2 0x320 DUP3 ADD MSTORE PUSH32 0x392C31302E3533383730372D332E3937333435342C31302E3333303938312E31 PUSH2 0x340 DUP3 ADD MSTORE PUSH32 0x31313233342D2E3036313133382D312E3735393637332E3936343938322D322E PUSH2 0x360 DUP3 ADD MSTORE PUSH32 0x3636373839312D2E313730323931712D2E3930383231382D312E313335323733 PUSH2 0x380 DUP3 ADD MSTORE PUSH32 0x2D342E3230303530382D31312E3830363833356C2D2E3733323239312C31362E PUSH2 0x3A0 DUP3 ADD MSTORE PUSH32 0x383032303334632D322E3130333536362E3138333435362D322E37353835392E PUSH2 0x3C0 DUP3 ADD MSTORE PUSH32 0x3439383435332D342E3731373031382D2E3638313136325A22207472616E7366 PUSH2 0x3E0 DUP3 ADD MSTORE PUSH32 0x6F726D3D227472616E736C617465283020302E30303030303129222066696C6C PUSH2 0x400 DUP3 ADD MSTORE PUSH32 0x3D222366386339616322207374726F6B653D22726762612836332C38372C3133 PUSH2 0x420 DUP3 ADD MSTORE PUSH32 0x352C302922207374726F6B652D77696474683D22302E3732222F3E3C74657874 PUSH2 0x440 DUP3 ADD MSTORE PUSH32 0x2064783D2230222064793D22302220666F6E742D66616D696C793D222671756F PUSH2 0x460 DUP3 ADD MSTORE PUSH32 0x743B65366A6F5051654C307863313A3A3A427562626C6567756D2053616E7326 PUSH2 0x480 DUP3 ADD MSTORE PUSH32 0x71756F743B2220666F6E742D73697A653D2231342220666F6E742D7765696768 PUSH2 0x4A0 DUP3 ADD MSTORE PUSH32 0x743D2234303022207472616E73666F726D3D227472616E736C61746528323431 PUSH2 0x4C0 DUP3 ADD MSTORE PUSH32 0x2E3931203333322E33353329222066696C6C3D22233735333830332220737472 PUSH2 0x4E0 DUP3 ADD MSTORE PUSH32 0x6F6B652D77696474683D2230223E3C747370616E20793D22302220666F6E742D PUSH2 0x500 DUP3 ADD MSTORE PUSH32 0x66616D696C793D222671756F743B65366A6F5051654C307863313A3A3A427562 PUSH2 0x520 DUP3 ADD MSTORE PUSH32 0x626C6567756D2053616E732671756F743B2220666F6E742D73697A653D223134 PUSH2 0x540 DUP3 ADD MSTORE PUSH32 0x2220666F6E742D7765696768743D223430302220666F6E742D7374796C653D22 PUSH2 0x560 DUP3 ADD MSTORE PUSH32 0x6E6F726D616C222066696C6C3D222337353338303322207374726F6B652D7769 PUSH2 0x580 DUP3 ADD MSTORE PUSH32 0x6474683D2230223E3C215B43444154415B5265706C7920617420706D732E696F PUSH2 0x5A0 DUP3 ADD MSTORE PUSH32 0x215D5D3E3C2F747370616E3E3C2F746578743E3C7061746820643D224D33332E PUSH2 0x5C0 DUP3 ADD MSTORE PUSH32 0x3430393537342C33362E30353238313276372E363836383132632D332E373437 PUSH2 0x5E0 DUP3 ADD MSTORE PUSH32 0x3739312D2E3130313433372D372E3439383132342D322E3437363031312D372E PUSH2 0x600 DUP3 ADD MSTORE PUSH32 0x35303739342D342E3734343933392E3033353931372D322E32303838362C332E PUSH2 0x620 DUP3 ADD MSTORE PUSH32 0x3537313033342D332E3833343531352C372E3232343132322D332E313330346C PUSH2 0x640 DUP3 ADD MSTORE PUSH32 0x2E3238333831382E3138383532375A222066696C6C3D22236563363335322220 PUSH2 0x660 DUP3 ADD MSTORE PUSH32 0x7374726F6B653D22726762612836332C38372C3133352C302922207374726F6B PUSH2 0x680 DUP3 ADD MSTORE PUSH32 0x652D77696474683D22302E3732222F3E3C7061746820643D224D35342E383039 PUSH2 0x6A0 DUP3 ADD MSTORE PUSH32 0x3436332C34362E3934313539346C2E39323735322C382E38353531323563372E PUSH2 0x6C0 DUP3 ADD MSTORE PUSH32 0x3932383838372E3030373136352C392E3734313833362D322E3333343139332C PUSH2 0x6E0 DUP3 ADD MSTORE PUSH32 0x392E332D332E3937333435342D2E3738393330322D332E3135373635382D352E PUSH2 0x700 DUP3 ADD MSTORE PUSH32 0x3835333438372D352E3335383131382D392E37362D342E383831363731682D2E PUSH2 0x720 DUP3 ADD MSTORE PUSH32 0x3436373532222066696C6C3D222365633633353222207374726F6B653D227267 PUSH2 0x740 DUP3 ADD MSTORE PUSH32 0x62612836332C38372C3133352C302922207374726F6B652D77696474683D2230 PUSH2 0x760 DUP3 ADD MSTORE PUSH32 0x2E3732222F3E0000000000000000000000000000000000000000000000000000 PUSH2 0x780 DUP3 ADD MSTORE POP JUMP JUMPDEST PUSH32 0x226E616D65223A20224D65737361676520230000000000000000000000000000 PUSH1 0x0 DUP3 ADD MSTORE POP JUMP JUMPDEST PUSH32 0x5D5D3E3C2F747370616E3E3C747370616E20783D22302220793D223336222066 PUSH1 0x0 DUP3 ADD MSTORE PUSH32 0x6F6E742D7765696768743D2233303022207374726F6B652D77696474683D2230 PUSH1 0x20 DUP3 ADD MSTORE PUSH32 0x223E000000000000000000000000000000000000000000000000000000000000 PUSH1 0x40 DUP3 ADD MSTORE POP JUMP JUMPDEST PUSH32 0x226465736372697074696F6E223A2022566973697420706D732E696F22000000 PUSH1 0x0 DUP3 ADD MSTORE POP JUMP JUMPDEST PUSH32 0x5D5D3E3C2F747370616E3E3C747370616E20783D22302220793D223134362220 PUSH1 0x0 DUP3 ADD MSTORE PUSH32 0x666F6E742D7765696768743D2233303022207374726F6B652D77696474683D22 PUSH1 0x20 DUP3 ADD MSTORE PUSH32 0x30223E0000000000000000000000000000000000000000000000000000000000 PUSH1 0x40 DUP3 ADD MSTORE POP JUMP JUMPDEST PUSH32 0x5D5D3E3C2F747370616E3E3C747370616E20783D22302220793D223732222066 PUSH1 0x0 DUP3 ADD MSTORE PUSH32 0x6F6E742D7765696768743D2233303022207374726F6B652D77696474683D2230 PUSH1 0x20 DUP3 ADD MSTORE PUSH32 0x223E000000000000000000000000000000000000000000000000000000000000 PUSH1 0x40 DUP3 ADD MSTORE POP JUMP JUMPDEST PUSH32 0x5D5D3E3C2F747370616E3E3C747370616E20783D22302220793D223234222066 PUSH1 0x0 DUP3 ADD MSTORE PUSH32 0x6F6E742D7765696768743D2233303022207374726F6B652D77696474683D2230 PUSH1 0x20 DUP3 ADD MSTORE PUSH32 0x223E000000000000000000000000000000000000000000000000000000000000 PUSH1 0x40 DUP3 ADD MSTORE POP JUMP JUMPDEST PUSH2 0x586E DUP2 PUSH2 0x376B JUMP JUMPDEST DUP2 EQ PUSH2 0x5879 JUMPI PUSH1 0x0 DUP1 REVERT JUMPDEST POP JUMP JUMPDEST PUSH2 0x5885 DUP2 PUSH2 0x3789 JUMP JUMPDEST DUP2 EQ PUSH2 0x5890 JUMPI PUSH1 0x0 DUP1 REVERT JUMPDEST POP JUMP JUMPDEST PUSH2 0x589C DUP2 PUSH2 0x37D5 JUMP JUMPDEST DUP2 EQ PUSH2 0x58A7 JUMPI PUSH1 0x0 DUP1 REVERT JUMPDEST POP JUMP INVALID COINBASE TIMESTAMP NUMBER DIFFICULTY GASLIMIT CHAINID SELFBALANCE BASEFEE 0x49 0x4A 0x4B 0x4C 0x4D 0x4E 0x4F POP MLOAD MSTORE MSTORE8 SLOAD SSTORE JUMP JUMPI PC MSIZE GAS PUSH2 0x6263 PUSH5 0x6566676869 PUSH11 0x6B6C6D6E6F707172737475 PUSH23 0x7778797A303132333435363738392B2FA2646970667358 0x22 SLT KECCAK256 0xD2 COINBASE 0xB8 LOG4 0x1E JUMPDEST PUSH4 0xF964D112 0xB4 NUMBER 0xCD 0x22 0x22 0x2D PUSH16 0x4A9B4348A7852CC4713A749227E36473 PUSH16 0x6C634300080700330000000000000000 "
		},
		"gasEstimates": {
			"creation": {
				"codeDepositCost": "4563200",
				"executionCost": "infinite",
				"totalCost": "infinite"
			},
			"external": {
				"BatchSendMessage(address[],string)": "infinite",
				"SendMessage(address,string)": "infinite",
				"balanceOf(address)": "2902",
				"getChatProgressive(address,address)": "infinite",
				"getMessageById(uint256)": "infinite",
				"getMessageNumberOf(address,uint256)": "infinite",
				"getPerAddressCounter(address)": "2886",
				"name()": "infinite",
				"ownerOf(uint256)": "3113",
				"supportsInterface(bytes4)": "774",
				"symbol()": "infinite",
				"tokenURI(uint256)": "infinite",
				"totalSupply()": "2504"
			},
			"internal": {
				"_sendMessage(address,address,string memory)": "infinite",
				"substring(string memory,uint256,uint256)": "infinite",
				"svgContent(uint256)": "infinite"
			}
		},
		"methodIdentifiers": {
			"BatchSendMessage(address[],string)": "5ab7ecb0",
			"SendMessage(address,string)": "d088db40",
			"balanceOf(address)": "70a08231",
			"getChatProgressive(address,address)": "8ffac192",
			"getMessageById(uint256)": "17902601",
			"getMessageNumberOf(address,uint256)": "ad75c91d",
			"getPerAddressCounter(address)": "74eecae5",
			"name()": "06fdde03",
			"ownerOf(uint256)": "6352211e",
			"supportsInterface(bytes4)": "01ffc9a7",
			"symbol()": "95d89b41",
			"tokenURI(uint256)": "c87b56dd",
			"totalSupply()": "18160ddd"
		}
	},
	"abi": [
		{
			"inputs": [],
			"stateMutability": "nonpayable",
			"type": "constructor"
		},
		{
			"anonymous": false,
			"inputs": [
				{
					"indexed": true,
					"internalType": "address",
					"name": "from",
					"type": "address"
				},
				{
					"indexed": true,
					"internalType": "address",
					"name": "to",
					"type": "address"
				},
				{
					"indexed": true,
					"internalType": "uint256",
					"name": "tokenId",
					"type": "uint256"
				}
			],
			"name": "Transfer",
			"type": "event"
		},
		{
			"anonymous": false,
			"inputs": [
				{
					"indexed": true,
					"internalType": "address",
					"name": "from",
					"type": "address"
				},
				{
					"indexed": true,
					"internalType": "address",
					"name": "to",
					"type": "address"
				},
				{
					"indexed": true,
					"internalType": "string",
					"name": "content",
					"type": "string"
				}
			],
			"name": "messageReceived",
			"type": "event"
		},
		{
			"inputs": [
				{
					"internalType": "address[]",
					"name": "addrs",
					"type": "address[]"
				},
				{
					"internalType": "string",
					"name": "content",
					"type": "string"
				}
			],
			"name": "BatchSendMessage",
			"outputs": [
				{
					"internalType": "bool",
					"name": "",
					"type": "bool"
				}
			],
			"stateMutability": "nonpayable",
			"type": "function"
		},
		{
			"inputs": [
				{
					"internalType": "address",
					"name": "to",
					"type": "address"
				},
				{
					"internalType": "string",
					"name": "content",
					"type": "string"
				}
			],
			"name": "SendMessage",
			"outputs": [],
			"stateMutability": "payable",
			"type": "function"
		},
		{
			"inputs": [
				{
					"internalType": "address",
					"name": "owner",
					"type": "address"
				}
			],
			"name": "balanceOf",
			"outputs": [
				{
					"internalType": "uint256",
					"name": "",
					"type": "uint256"
				}
			],
			"stateMutability": "view",
			"type": "function"
		},
		{
			"inputs": [
				{
					"internalType": "address",
					"name": "sender",
					"type": "address"
				},
				{
					"internalType": "address",
					"name": "recipient",
					"type": "address"
				}
			],
			"name": "getChatProgressive",
			"outputs": [
				{
					"internalType": "uint256[]",
					"name": "",
					"type": "uint256[]"
				}
			],
			"stateMutability": "view",
			"type": "function"
		},
		{
			"inputs": [
				{
					"internalType": "uint256",
					"name": "tokenId",
					"type": "uint256"
				}
			],
			"name": "getMessageById",
			"outputs": [
				{
					"components": [
						{
							"internalType": "address",
							"name": "from",
							"type": "address"
						},
						{
							"internalType": "address",
							"name": "to",
							"type": "address"
						},
						{
							"internalType": "string",
							"name": "content",
							"type": "string"
						}
					],
					"internalType": "struct PmsV1.message",
					"name": "",
					"type": "tuple"
				}
			],
			"stateMutability": "view",
			"type": "function"
		},
		{
			"inputs": [
				{
					"internalType": "address",
					"name": "addr",
					"type": "address"
				},
				{
					"internalType": "uint256",
					"name": "index",
					"type": "uint256"
				}
			],
			"name": "getMessageNumberOf",
			"outputs": [
				{
					"internalType": "uint256",
					"name": "",
					"type": "uint256"
				}
			],
			"stateMutability": "view",
			"type": "function"
		},
		{
			"inputs": [
				{
					"internalType": "address",
					"name": "addr",
					"type": "address"
				}
			],
			"name": "getPerAddressCounter",
			"outputs": [
				{
					"internalType": "uint256",
					"name": "",
					"type": "uint256"
				}
			],
			"stateMutability": "view",
			"type": "function"
		},
		{
			"inputs": [],
			"name": "name",
			"outputs": [
				{
					"internalType": "string",
					"name": "",
					"type": "string"
				}
			],
			"stateMutability": "view",
			"type": "function"
		},
		{
			"inputs": [
				{
					"internalType": "uint256",
					"name": "tokenId",
					"type": "uint256"
				}
			],
			"name": "ownerOf",
			"outputs": [
				{
					"internalType": "address",
					"name": "",
					"type": "address"
				}
			],
			"stateMutability": "view",
			"type": "function"
		},
		{
			"inputs": [
				{
					"internalType": "bytes4",
					"name": "interfaceId",
					"type": "bytes4"
				}
			],
			"name": "supportsInterface",
			"outputs": [
				{
					"internalType": "bool",
					"name": "",
					"type": "bool"
				}
			],
			"stateMutability": "view",
			"type": "function"
		},
		{
			"inputs": [],
			"name": "symbol",
			"outputs": [
				{
					"internalType": "string",
					"name": "",
					"type": "string"
				}
			],
			"stateMutability": "view",
			"type": "function"
		},
		{
			"inputs": [
				{
					"internalType": "uint256",
					"name": "tokenId",
					"type": "uint256"
				}
			],
			"name": "tokenURI",
			"outputs": [
				{
					"internalType": "string",
					"name": "",
					"type": "string"
				}
			],
			"stateMutability": "view",
			"type": "function"
		},
		{
			"inputs": [],
			"name": "totalSupply",
			"outputs": [
				{
					"internalType": "uint256",
					"name": "",
					"type": "uint256"
				}
			],
			"stateMutability": "view",
			"type": "function"
		}
	]
}